{
    "_format": "hh-sol-artifact-1",
    "contractName": "DAO",
    "sourceName": "contracts/DAO.sol",
    "abi": [
        {
            "inputs": [
                {
                    "components": [
                        {
                            "internalType": "uint32",
                            "name": "pendingPeriod",
                            "type": "uint32"
                        },
                        {
                            "internalType": "uint32",
                            "name": "votingPeriod",
                            "type": "uint32"
                        },
                        {
                            "internalType": "uint32",
                            "name": "tallyingPeriod",
                            "type": "uint32"
                        },
                        {
                            "internalType": "uint32",
                            "name": "timelockPeriod",
                            "type": "uint32"
                        },
                        {
                            "internalType": "uint32",
                            "name": "queuingPeriod",
                            "type": "uint32"
                        }
                    ],
                    "internalType": "struct IDAO.Config",
                    "name": "_config",
                    "type": "tuple"
                },
                {
                    "internalType": "address",
                    "name": "_fundManager",
                    "type": "address"
                },
                {
                    "internalType": "address",
                    "name": "_dkg",
                    "type": "address"
                },
                {
                    "internalType": "uint256",
                    "name": "_distributedKeyID",
                    "type": "uint256"
                },
                {
                    "internalType": "bytes32",
                    "name": "_descriptionHash",
                    "type": "bytes32"
                }
            ],
            "stateMutability": "nonpayable",
            "type": "constructor"
        },
        {
            "anonymous": false,
            "inputs": [
                {
                    "indexed": false,
                    "internalType": "uint256",
                    "name": "proposalID",
                    "type": "uint256"
                }
            ],
            "name": "ProposalCanceled",
            "type": "event"
        },
        {
            "anonymous": false,
            "inputs": [
                {
                    "indexed": false,
                    "internalType": "uint256",
                    "name": "index",
                    "type": "uint256"
                },
                {
                    "indexed": true,
                    "internalType": "uint256",
                    "name": "proposalID",
                    "type": "uint256"
                },
                {
                    "indexed": false,
                    "internalType": "address",
                    "name": "proposer",
                    "type": "address"
                },
                {
                    "components": [
                        {
                            "internalType": "address",
                            "name": "target",
                            "type": "address"
                        },
                        {
                            "internalType": "uint256",
                            "name": "value",
                            "type": "uint256"
                        },
                        {
                            "internalType": "string",
                            "name": "signature",
                            "type": "string"
                        },
                        {
                            "internalType": "bytes",
                            "name": "data",
                            "type": "bytes"
                        }
                    ],
                    "indexed": false,
                    "internalType": "struct IDAO.Action[]",
                    "name": "actions",
                    "type": "tuple[]"
                },
                {
                    "indexed": false,
                    "internalType": "uint256",
                    "name": "startBlock",
                    "type": "uint256"
                },
                {
                    "indexed": true,
                    "internalType": "bytes32",
                    "name": "descriptionHash",
                    "type": "bytes32"
                }
            ],
            "name": "ProposalCreated",
            "type": "event"
        },
        {
            "anonymous": false,
            "inputs": [
                {
                    "indexed": false,
                    "internalType": "uint256",
                    "name": "proposalID",
                    "type": "uint256"
                }
            ],
            "name": "ProposalExecuted",
            "type": "event"
        },
        {
            "anonymous": false,
            "inputs": [
                {
                    "indexed": false,
                    "internalType": "uint256",
                    "name": "proposalID",
                    "type": "uint256"
                },
                {
                    "indexed": false,
                    "internalType": "uint256",
                    "name": "forVotes",
                    "type": "uint256"
                },
                {
                    "indexed": false,
                    "internalType": "uint256",
                    "name": "againstVotes",
                    "type": "uint256"
                },
                {
                    "indexed": false,
                    "internalType": "uint256",
                    "name": "abstainVotes",
                    "type": "uint256"
                }
            ],
            "name": "ProposalFinalized",
            "type": "event"
        },
        {
            "anonymous": false,
            "inputs": [
                {
                    "indexed": false,
                    "internalType": "uint256",
                    "name": "proposalID",
                    "type": "uint256"
                },
                {
                    "indexed": false,
                    "internalType": "uint256",
                    "name": "eta",
                    "type": "uint256"
                }
            ],
            "name": "ProposalQueued",
            "type": "event"
        },
        {
            "anonymous": false,
            "inputs": [
                {
                    "indexed": false,
                    "internalType": "uint256",
                    "name": "proposalID",
                    "type": "uint256"
                },
                {
                    "indexed": false,
                    "internalType": "bytes32",
                    "name": "requestID",
                    "type": "bytes32"
                }
            ],
            "name": "ProposalTallyingStarted",
            "type": "event"
        },
        {
            "anonymous": false,
            "inputs": [
                {
                    "indexed": false,
                    "internalType": "uint256",
                    "name": "proposalID",
                    "type": "uint256"
                },
                {
                    "indexed": false,
                    "internalType": "uint256",
                    "name": "nullifierHash",
                    "type": "uint256"
                }
            ],
            "name": "VoteCast",
            "type": "event"
        },
        {
            "inputs": [
                {
                    "internalType": "uint256",
                    "name": "",
                    "type": "uint256"
                },
                {
                    "internalType": "uint256",
                    "name": "",
                    "type": "uint256"
                }
            ],
            "name": "actions",
            "outputs": [
                {
                    "internalType": "address",
                    "name": "target",
                    "type": "address"
                },
                {
                    "internalType": "uint256",
                    "name": "value",
                    "type": "uint256"
                },
                {
                    "internalType": "string",
                    "name": "signature",
                    "type": "string"
                },
                {
                    "internalType": "bytes",
                    "name": "data",
                    "type": "bytes"
                }
            ],
            "stateMutability": "view",
            "type": "function"
        },
        {
            "inputs": [
                {
                    "internalType": "uint256",
                    "name": "_proposalID",
                    "type": "uint256"
                }
            ],
            "name": "cancel",
            "outputs": [],
            "stateMutability": "nonpayable",
            "type": "function"
        },
        {
            "inputs": [
                {
                    "internalType": "uint256",
                    "name": "_proposalID",
                    "type": "uint256"
                },
                {
                    "components": [
                        {
                            "internalType": "uint256",
                            "name": "root",
                            "type": "uint256"
                        },
                        {
                            "internalType": "uint256",
                            "name": "nullifierHash",
                            "type": "uint256"
                        },
                        {
                            "internalType": "uint256[][]",
                            "name": "_R",
                            "type": "uint256[][]"
                        },
                        {
                            "internalType": "uint256[][]",
                            "name": "_M",
                            "type": "uint256[][]"
                        },
                        {
                            "internalType": "bytes",
                            "name": "_proof",
                            "type": "bytes"
                        }
                    ],
                    "internalType": "struct IDAO.VoteData",
                    "name": "_voteData",
                    "type": "tuple"
                }
            ],
            "name": "castVote",
            "outputs": [],
            "stateMutability": "nonpayable",
            "type": "function"
        },
        {
            "inputs": [],
            "name": "config",
            "outputs": [
                {
                    "internalType": "uint32",
                    "name": "pendingPeriod",
                    "type": "uint32"
                },
                {
                    "internalType": "uint32",
                    "name": "votingPeriod",
                    "type": "uint32"
                },
                {
                    "internalType": "uint32",
                    "name": "tallyingPeriod",
                    "type": "uint32"
                },
                {
                    "internalType": "uint32",
                    "name": "timelockPeriod",
                    "type": "uint32"
                },
                {
                    "internalType": "uint32",
                    "name": "queuingPeriod",
                    "type": "uint32"
                }
            ],
            "stateMutability": "view",
            "type": "function"
        },
        {
            "inputs": [],
            "name": "descriptionHash",
            "outputs": [
                {
                    "internalType": "bytes32",
                    "name": "",
                    "type": "bytes32"
                }
            ],
            "stateMutability": "view",
            "type": "function"
        },
        {
            "inputs": [
                {
                    "internalType": "uint256",
                    "name": "",
                    "type": "uint256"
                }
            ],
            "name": "descriptions",
            "outputs": [
                {
                    "internalType": "bytes32",
                    "name": "",
                    "type": "bytes32"
                }
            ],
            "stateMutability": "view",
            "type": "function"
        },
        {
            "inputs": [
                {
                    "internalType": "uint256",
                    "name": "_proposalID",
                    "type": "uint256"
                }
            ],
            "name": "execute",
            "outputs": [],
            "stateMutability": "payable",
            "type": "function"
        },
        {
            "inputs": [
                {
                    "internalType": "uint256",
                    "name": "_proposalID",
                    "type": "uint256"
                }
            ],
            "name": "finalize",
            "outputs": [],
            "stateMutability": "nonpayable",
            "type": "function"
        },
        {
            "inputs": [
                {
                    "internalType": "bytes32",
                    "name": "_requestID",
                    "type": "bytes32"
                }
            ],
            "name": "getDistributedKeyID",
            "outputs": [
                {
                    "internalType": "uint256",
                    "name": "",
                    "type": "uint256"
                }
            ],
            "stateMutability": "view",
            "type": "function"
        },
        {
            "inputs": [
                {
                    "internalType": "uint256",
                    "name": "_distributedKeyID",
                    "type": "uint256"
                },
                {
                    "internalType": "address",
                    "name": "_requestor",
                    "type": "address"
                },
                {
                    "internalType": "uint256",
                    "name": "_nonce",
                    "type": "uint256"
                }
            ],
            "name": "getRequestID",
            "outputs": [
                {
                    "internalType": "bytes32",
                    "name": "",
                    "type": "bytes32"
                }
            ],
            "stateMutability": "pure",
            "type": "function"
        },
        {
            "inputs": [
                {
                    "internalType": "bytes32",
                    "name": "_requestID",
                    "type": "bytes32"
                }
            ],
            "name": "getResult",
            "outputs": [
                {
                    "internalType": "uint256[]",
                    "name": "",
                    "type": "uint256[]"
                }
            ],
            "stateMutability": "view",
            "type": "function"
        },
        {
            "inputs": [
                {
                    "components": [
                        {
                            "internalType": "address",
                            "name": "target",
                            "type": "address"
                        },
                        {
                            "internalType": "uint256",
                            "name": "value",
                            "type": "uint256"
                        },
                        {
                            "internalType": "string",
                            "name": "signature",
                            "type": "string"
                        },
                        {
                            "internalType": "bytes",
                            "name": "data",
                            "type": "bytes"
                        }
                    ],
                    "internalType": "struct IDAO.Action[]",
                    "name": "_actions",
                    "type": "tuple[]"
                },
                {
                    "internalType": "bytes32",
                    "name": "_descriptionHash",
                    "type": "bytes32"
                }
            ],
            "name": "hashProposal",
            "outputs": [
                {
                    "internalType": "uint256",
                    "name": "",
                    "type": "uint256"
                }
            ],
            "stateMutability": "pure",
            "type": "function"
        },
        {
            "inputs": [],
            "name": "proposalCounter",
            "outputs": [
                {
                    "internalType": "uint256",
                    "name": "",
                    "type": "uint256"
                }
            ],
            "stateMutability": "view",
            "type": "function"
        },
        {
            "inputs": [
                {
                    "internalType": "uint256",
                    "name": "",
                    "type": "uint256"
                }
            ],
            "name": "proposalIDs",
            "outputs": [
                {
                    "internalType": "uint256",
                    "name": "",
                    "type": "uint256"
                }
            ],
            "stateMutability": "view",
            "type": "function"
        },
        {
            "inputs": [
                {
                    "internalType": "uint256",
                    "name": "",
                    "type": "uint256"
                }
            ],
            "name": "proposals",
            "outputs": [
                {
                    "internalType": "bytes32",
                    "name": "requestID",
                    "type": "bytes32"
                },
                {
                    "internalType": "uint256",
                    "name": "proposalID",
                    "type": "uint256"
                },
                {
                    "internalType": "uint256",
                    "name": "forVotes",
                    "type": "uint256"
                },
                {
                    "internalType": "uint256",
                    "name": "againstVotes",
                    "type": "uint256"
                },
                {
                    "internalType": "uint256",
                    "name": "abstainVotes",
                    "type": "uint256"
                },
                {
                    "internalType": "address",
                    "name": "proposer",
                    "type": "address"
                },
                {
                    "internalType": "uint64",
                    "name": "startBlock",
                    "type": "uint64"
                },
                {
                    "internalType": "bool",
                    "name": "canceled",
                    "type": "bool"
                },
                {
                    "internalType": "bool",
                    "name": "executed",
                    "type": "bool"
                },
                {
                    "internalType": "uint256",
                    "name": "eta",
                    "type": "uint256"
                }
            ],
            "stateMutability": "view",
            "type": "function"
        },
        {
            "inputs": [
                {
                    "components": [
                        {
                            "internalType": "address",
                            "name": "target",
                            "type": "address"
                        },
                        {
                            "internalType": "uint256",
                            "name": "value",
                            "type": "uint256"
                        },
                        {
                            "internalType": "string",
                            "name": "signature",
                            "type": "string"
                        },
                        {
                            "internalType": "bytes",
                            "name": "data",
                            "type": "bytes"
                        }
                    ],
                    "internalType": "struct IDAO.Action[]",
                    "name": "_actions",
                    "type": "tuple[]"
                },
                {
                    "internalType": "bytes32",
                    "name": "_descriptionHash",
                    "type": "bytes32"
                }
            ],
            "name": "propose",
            "outputs": [
                {
                    "internalType": "uint256",
                    "name": "",
                    "type": "uint256"
                }
            ],
            "stateMutability": "nonpayable",
            "type": "function"
        },
        {
            "inputs": [
                {
                    "internalType": "uint256",
                    "name": "_proposalID",
                    "type": "uint256"
                }
            ],
            "name": "queue",
            "outputs": [],
            "stateMutability": "nonpayable",
            "type": "function"
        },
        {
            "inputs": [
                {
                    "internalType": "bytes32",
                    "name": "",
                    "type": "bytes32"
                }
            ],
            "name": "requests",
            "outputs": [
                {
                    "internalType": "uint256",
                    "name": "distributedKeyID",
                    "type": "uint256"
                },
                {
                    "internalType": "uint256",
                    "name": "respondedAt",
                    "type": "uint256"
                }
            ],
            "stateMutability": "view",
            "type": "function"
        },
        {
            "inputs": [
                {
                    "internalType": "uint256",
                    "name": "_proposalID",
                    "type": "uint256"
                }
            ],
            "name": "state",
            "outputs": [
                {
                    "internalType": "enum IDAO.ProposalState",
                    "name": "",
                    "type": "uint8"
                }
            ],
            "stateMutability": "view",
            "type": "function"
        },
        {
            "inputs": [
                {
                    "internalType": "bytes32",
                    "name": "_requestID",
                    "type": "bytes32"
                },
                {
                    "internalType": "uint256[]",
                    "name": "_result",
                    "type": "uint256[]"
                }
            ],
            "name": "submitTallyResult",
            "outputs": [],
            "stateMutability": "nonpayable",
            "type": "function"
        },
        {
            "inputs": [
                {
                    "internalType": "uint256",
                    "name": "_proposalID",
                    "type": "uint256"
                }
            ],
            "name": "tally",
            "outputs": [],
            "stateMutability": "nonpayable",
            "type": "function"
        },
        {
            "stateMutability": "payable",
            "type": "receive"
        }
    ],
    "bytecode": "0x60806040523480156200001157600080fd5b506040516200432538038062004325833981016040819052620000349162000143565b8451600180546020880151604089015160608a01516080909a015163ffffffff908116600160801b0263ffffffff60801b199b82166c010000000000000000000000000263ffffffff60601b19938316680100000000000000000293909316600160401b600160801b0319948316640100000000026001600160401b03199096169290971691909117939093179190911693909317929092179690961617909455600280546001600160a01b039485166001600160a01b031991821617909155600380549390941692169190911790915560055560005562000231565b80516001600160a01b03811681146200012957600080fd5b919050565b805163ffffffff811681146200012957600080fd5b60008060008060008587036101208112156200015d578182fd5b60a08112156200016b578182fd5b5060405160a081016001600160401b03811182821017156200019b57634e487b7160e01b83526041600452602483fd5b604052620001a9876200012e565b8152620001b9602088016200012e565b6020820152620001cc604088016200012e565b6040820152620001df606088016200012e565b6060820152620001f2608088016200012e565b608082015294506200020760a0870162000111565b93506200021760c0870162000111565b60e087015161010090970151959894975095949392505050565b6140e480620002416000396000f3fe60806040526004361061012e5760003560e01c8063a007b197116100ab578063cab8ec9f1161006f578063cab8ec9f146104a0578063ddf0b009146104d0578063e6f859e7146104f0578063ed8b6b311461051d578063fe0d94c11461053d578063ffef6fbb1461055057600080fd5b8063a007b197146103e6578063aa90064e14610413578063add4c78414610433578063b053653214610460578063c58264b31461048057600080fd5b806340e58ee5116100f257806340e58ee5146102c857806379502c55146102e857806385dcee93146103675780639c885f581461037d5780639d8669851461039d57600080fd5b8063013cf08b1461013a57806305261aea14610228578063083889541461024a5780630c0512e9146102855780633e4f49e61461029b57600080fd5b3661013557005b600080fd5b34801561014657600080fd5b506101c3610155366004613856565b6007602052600090815260409020805460018201546002830154600384015460048501546005860154600690960154949593949293919290916001600160a01b038116916001600160401b03600160a01b8304169160ff600160e01b8204811692600160e81b90920416908a565b604080519a8b5260208b019990995297890196909652606088019490945260808701929092526001600160a01b031660a08601526001600160401b031660c0850152151560e08401521515610100830152610120820152610140015b60405180910390f35b34801561023457600080fd5b50610248610243366004613856565b610570565b005b34801561025657600080fd5b50610277610265366004613856565b60009081526008602052604090205490565b60405190815260200161021f565b34801561029157600080fd5b5061027760045481565b3480156102a757600080fd5b506102bb6102b6366004613856565b61077f565b60405161021f9190613da3565b3480156102d457600080fd5b506102486102e3366004613856565b610bec565b3480156102f457600080fd5b506001546103309063ffffffff808216916401000000008104821691600160401b8204811691600160601b8104821691600160801b9091041685565b6040805163ffffffff968716815294861660208601529285169284019290925283166060830152909116608082015260a00161021f565b34801561037357600080fd5b5061027760005481565b34801561038957600080fd5b50610248610398366004613960565b610f7d565b3480156103a957600080fd5b506103d16103b8366004613856565b6008602052600090815260409020805460049091015482565b6040805192835260208301919091520161021f565b3480156103f257600080fd5b50610277610401366004613856565b60066020526000908152604090205481565b34801561041f57600080fd5b5061027761042e366004613762565b611dbc565b34801561043f57600080fd5b5061045361044e366004613856565b612248565b60405161021f9190613d5f565b34801561046c57600080fd5b5061027761047b366004613929565b6122ad565b34801561048c57600080fd5b5061024861049b36600461386e565b6122f6565b3480156104ac57600080fd5b506104c06104bb3660046139aa565b612400565b60405161021f9493929190613c49565b3480156104dc57600080fd5b506102486104eb366004613856565b612564565b3480156104fc57600080fd5b5061027761050b366004613856565b600a6020526000908152604090205481565b34801561052957600080fd5b50610248610538366004613856565b612881565b61024861054b366004613856565b6129cd565b34801561055c57600080fd5b5061027761056b366004613762565b612ccb565b600261057b8261077f565b600881111561059a57634e487b7160e01b600052602160045260246000fd5b146105fe5760405162461bcd60e51b815260206004820152602960248201527f44414f3a3a66696e616c697a653a206e6f7420696e207468652074616c6c79696044820152681b99c81c195c9a5bd960ba1b60648201526084015b60405180910390fd5b600081815260076020908152604080832080548452600890925290912060048101546106865760405162461bcd60e51b815260206004820152603160248201527f44414f3a3a66696e616c697a653a20444b47207265717565737420686173206e6044820152701bdd081899595b881c995cdc1bdb991959607a1b60648201526084016105f5565b6000600382016001815481106106ac57634e487b7160e01b600052603260045260246000fd5b600091825260208220015491506003830181815481106106dc57634e487b7160e01b600052603260045260246000fd5b600091825260208220015491506003840160028154811061070d57634e487b7160e01b600052603260045260246000fd5b600091825260209182902001546002870185905560038701849055600487018190556040805189815292830186905282018490526060820181905291507f904f64d3d2c164a2f1e396101e5f5f82129a43c7c1563aa64c5cbcc22ec6b3029060800160405180910390a1505050505050565b6000818152600760209081526040808320815161014081018352815480825260018084015483870152600284015483860152600384015460608401526004840154608084015260058401546001600160a01b03811660a0808601919091526001600160401b03600160a01b83041660c086015260ff600160e01b83048116151560e0870152600160e81b90920490911615156101008501526006909401546101208401529086526008855283862084519384018552805484529081018054855181880281018801909652808652929587959293858201939291879084015b828210156108c9576000848152602090819020830180546040805182850281018501909152818152928301828280156108b557602002820191906000526020600020905b8154815260200190600101908083116108a1575b50505050508152602001906001019061085d565b50505050815260200160028201805480602002602001604051908101604052809291908181526020016000905b828210156109625760008481526020908190208301805460408051828502810185019091528181529283018282801561094e57602002820191906000526020600020905b81548152602001906001019080831161093a575b5050505050815260200190600101906108f6565b505050508152602001600382018054806020026020016040519081016040528092919081815260200182805480156109b957602002820191906000526020600020905b8154815260200190600101908083116109a5575b50505050508152602001600482015481525050905060008260c001516001600160401b031611610a355760405162461bcd60e51b815260206004820152602160248201527f44414f3a3a73746174653a2070726f706f73616c206e6f7420657869737465646044820152601760f91b60648201526084016105f5565b8160e0015115610a49575060039392505050565b8160c001516001600160401b03164311610a67575060009392505050565b60015460c0830151610a8791640100000000900463ffffffff1690613ef8565b6001600160401b03164311610aa0575060019392505050565b60015460c083015163ffffffff600160401b8304811692610acd9264010000000090910490911690613ef8565b610ad79190613ef8565b6001600160401b03164311610af0575060029392505050565b816080015182606001518360400151610b099190613ee0565b610b139190613ee0565b1580610b61575060015460c083015163ffffffff600160401b8304811692610b479264010000000090910490911690613ef8565b610b519190613ef8565b6001600160401b03168160800151115b15610b70575060079392505050565b8160600151826040015111610b89575060049392505050565b610120820151610b9d575060059392505050565b81610100015115610bb2575060089392505050565b600154610120830151610bd291600160801b900463ffffffff1690613ee0565b4310610be2575060079392505050565b5060069392505050565b6008610bf78261077f565b6008811115610c1657634e487b7160e01b600052602160045260246000fd5b1415610c795760405162461bcd60e51b815260206004820152602c60248201527f44414f3a3a63616e63656c3a2043616e6e6f742063616e63656c20657865637560448201526b1d1959081c1c9bdc1bdcd85b60a21b60648201526084016105f5565b6003610c848261077f565b6008811115610ca357634e487b7160e01b600052602160045260246000fd5b1415610d065760405162461bcd60e51b815260206004820152602c60248201527f44414f3a3a63616e63656c3a2043616e6e6f742063616e63656c2063616e636560448201526b1b1959081c1c9bdc1bdcd85b60a21b60648201526084016105f5565b600081815260076020908152604080832060058101805460ff60e01b1916600160e01b1790556009909252822090915b8154811015610f4357610f31828281548110610d6257634e487b7160e01b600052603260045260246000fd5b600091825260209091206004909102015483546001600160a01b0390911690849084908110610da157634e487b7160e01b600052603260045260246000fd5b906000526020600020906004020160010154848481548110610dd357634e487b7160e01b600052603260045260246000fd5b90600052602060002090600402016002018054610def90613fb4565b80601f0160208091040260200160405190810160405280929190818152602001828054610e1b90613fb4565b8015610e685780601f10610e3d57610100808354040283529160200191610e68565b820191906000526020600020905b815481529060010190602001808311610e4b57829003601f168201915b5050505050858581548110610e8d57634e487b7160e01b600052603260045260246000fd5b90600052602060002090600402016003018054610ea990613fb4565b80601f0160208091040260200160405190810160405280929190818152602001828054610ed590613fb4565b8015610f225780601f10610ef757610100808354040283529160200191610f22565b820191906000526020600020905b815481529060010190602001808311610f0557829003601f168201915b50505050508760060154612d1c565b80610f3b81613fef565b915050610d36565b506040518381527f789cf55be980739dad1d0699b93b58e806b51c9d96619bfa8fe0a28abaa7b30c906020015b60405180910390a1505050565b60008281526007602052604090206001610f968461077f565b6008811115610fb557634e487b7160e01b600052602160045260246000fd5b1461101e5760405162461bcd60e51b815260206004820152603360248201527f44414f3a3a43617374566f74653a2050726f706f73616c206973206e6f7420696044820152721b881d1a19481d9bdd1a5b99c81c195c9a5bd9606a1b60648201526084016105f5565b6000838152600b6020908152604080832085830135845290915290205460ff161561109f5760405162461bcd60e51b815260206004820152602b60248201527f44414f3a3a43617374566f74653a20446f75626c6520766f74696e672069732060448201526a1b9bdd08185b1b1bddd95960aa1b60648201526084016105f5565b60025460405163a6232a9360e01b8152833560048201526001600160a01b039091169063a6232a939060240160206040518083038186803b1580156110e357600080fd5b505afa1580156110f7573d6000803e3d6000fd5b505050506040513d601f19601f8201168201806040525081019061111b919061382f565b6111675760405162461bcd60e51b815260206004820152601e60248201527f44414f3a3a43617374566f74653a20526f6f7420697320696e76616c6964000060448201526064016105f5565b6000838152600b602090815260408083208583013584528252808320805460ff19166001179055835483526008909152808220600354815492516354a0585760e01b81529193926001600160a01b03909116916354a05857916111d09160040190815260200190565b60206040518083038186803b1580156111e857600080fd5b505afa1580156111fc573d6000803e3d6000fd5b505050506040513d601f19601f8201168201806040525081019061122091906139ee565b905060ff81166112336040860186613e11565b9050148015611252575060ff811661124e6060860186613e11565b9050145b6112a85760405162461bcd60e51b815260206004820152602160248201527f46756e644d616e616765723a20696e76616c696420696e707574206c656e67746044820152600d60fb1b60648201526084016105f5565b6003548254604051633561bc2760e01b815260048101919091526000916001600160a01b031690633561bc279060240160206040518083038186803b1580156112f057600080fd5b505afa158015611304573d6000803e3d6000fd5b505050506040513d601f19601f8201168201806040525081019061132891906138b7565b90506000816001600160a01b0316639447d8936040518163ffffffff1660e01b815260040160206040518083038186803b15801561136557600080fd5b505afa158015611379573d6000803e3d6000fd5b505050506040513d601f19601f8201168201806040525081019061139d9190613911565b6001600160401b038111156113c257634e487b7160e01b600052604160045260246000fd5b6040519080825280602002602001820160405280156113eb578160200160208202803683370190505b50905085600001358160008151811061141457634e487b7160e01b600052603260045260246000fd5b602002602001018181525050306001600160a01b03168160018151811061144b57634e487b7160e01b600052603260045260246000fd5b602002602001018181525050868160028151811061147957634e487b7160e01b600052603260045260246000fd5b60209081029190910101526003548454604051633ae960e760e11b81526001600160a01b03909216916375d2c1ce916114b89160040190815260200190565b604080518083038186803b1580156114cf57600080fd5b505afa1580156114e3573d6000803e3d6000fd5b505050506040513d601f19601f8201168201806040525081019061150791906139cb565b8260038151811061152857634e487b7160e01b600052603260045260246000fd5b602002602001018360048151811061155057634e487b7160e01b600052603260045260246000fd5b602002602001018281525082815250505085602001358160058151811061158757634e487b7160e01b600052603260045260246000fd5b60200260200101818152505060005b8360ff168160ff1610156118a2576115b16040880188613e11565b8260ff168181106115d257634e487b7160e01b600052603260045260246000fd5b90506020028101906115e49190613e11565b600081811061160357634e487b7160e01b600052603260045260246000fd5b90506020020135828260026116189190613f48565b611623906006613f23565b60ff168151811061164457634e487b7160e01b600052603260045260246000fd5b602090810291909101015261165c6040880188613e11565b8260ff1681811061167d57634e487b7160e01b600052603260045260246000fd5b905060200281019061168f9190613e11565b60018181106116ae57634e487b7160e01b600052603260045260246000fd5b90506020020135828260026116c39190613f48565b6116ce906006613f23565b6116d9906001613f23565b60ff16815181106116fa57634e487b7160e01b600052603260045260246000fd5b60209081029190910101526117126060880188613e11565b8260ff1681811061173357634e487b7160e01b600052603260045260246000fd5b90506020028101906117459190613e11565b600081811061176457634e487b7160e01b600052603260045260246000fd5b90506020020135828260026117799190613f48565b611784876002613f48565b61178f906006613f23565b6117999190613f23565b60ff16815181106117ba57634e487b7160e01b600052603260045260246000fd5b60209081029190910101526117d26060880188613e11565b8260ff168181106117f357634e487b7160e01b600052603260045260246000fd5b90506020028101906118059190613e11565b600181811061182457634e487b7160e01b600052603260045260246000fd5b90506020020135828260026118399190613f48565b611844876002613f48565b61184f906006613f23565b6118599190613f23565b611864906001613f23565b60ff168151811061188557634e487b7160e01b600052603260045260246000fd5b60209081029190910101528061189a8161400a565b915050611596565b506118ba826118b46080890189613e58565b84612d6b565b6119115760405162461bcd60e51b815260206004820152602260248201527f44414f3a3a43617374566f74653a205a4b2050726f6f6620697320696e76616c6044820152611a5960f21b60648201526084016105f5565b60005b8360ff168160ff161015611d7657611ab0856001018260ff168154811061194b57634e487b7160e01b600052603260045260246000fd5b9060005260206000200160008154811061197557634e487b7160e01b600052603260045260246000fd5b9060005260206000200154866001018360ff16815481106119a657634e487b7160e01b600052603260045260246000fd5b906000526020600020016001815481106119d057634e487b7160e01b600052603260045260246000fd5b6000918252602090912001546119e960408b018b613e11565b8560ff16818110611a0a57634e487b7160e01b600052603260045260246000fd5b9050602002810190611a1c9190613e11565b6000818110611a3b57634e487b7160e01b600052603260045260246000fd5b905060200201358a8060400190611a529190613e11565b8660ff16818110611a7357634e487b7160e01b600052603260045260246000fd5b9050602002810190611a859190613e11565b6001818110611aa457634e487b7160e01b600052603260045260246000fd5b90506020020135613070565b866001018360ff1681548110611ad657634e487b7160e01b600052603260045260246000fd5b90600052602060002001600081548110611b0057634e487b7160e01b600052603260045260246000fd5b906000526020600020016000886001018560ff1681548110611b3257634e487b7160e01b600052603260045260246000fd5b90600052602060002001600181548110611b5c57634e487b7160e01b600052603260045260246000fd5b906000526020600020016000849190505583919050555050611ca4856002018260ff1681548110611b9d57634e487b7160e01b600052603260045260246000fd5b90600052602060002001600081548110611bc757634e487b7160e01b600052603260045260246000fd5b9060005260206000200154866002018360ff1681548110611bf857634e487b7160e01b600052603260045260246000fd5b90600052602060002001600181548110611c2257634e487b7160e01b600052603260045260246000fd5b600091825260209091200154611c3b60608b018b613e11565b8560ff16818110611c5c57634e487b7160e01b600052603260045260246000fd5b9050602002810190611c6e9190613e11565b6000818110611c8d57634e487b7160e01b600052603260045260246000fd5b905060200201358a8060600190611a529190613e11565b866002018360ff1681548110611cca57634e487b7160e01b600052603260045260246000fd5b90600052602060002001600081548110611cf457634e487b7160e01b600052603260045260246000fd5b906000526020600020016000886002018560ff1681548110611d2657634e487b7160e01b600052603260045260246000fd5b90600052602060002001600181548110611d5057634e487b7160e01b600052603260045260246000fd5b600091825260209091200192909255919091555080611d6e8161400a565b915050611914565b5060408051888152602080890135908201527fc31875ef3ed5138b71a0c1da7e494bc4d2ba4f567084ea481ec9c45f3a93948b910160405180910390a150505050505050565b600080611dca858585612ccb565b600454600090815260066020908152604080832084905583835260079091529020600581015491925090600160a01b90046001600160401b031615611e605760405162461bcd60e51b815260206004820152602660248201527f44414f3a3a70726f706f73653a2070726f706f73616c20616c726561647920656044820152651e1a5cdd195960d21b60648201526084016105f5565b600354600554604051631dcb457360e11b815260048101919091526002916001600160a01b031690633b968ae69060240160206040518083038186803b158015611ea957600080fd5b505afa158015611ebd573d6000803e3d6000fd5b505050506040513d601f19601f82011682018060405250810190611ee191906138d3565b6003811115611f0057634e487b7160e01b600052602160045260246000fd5b148015611faa5750600354600554604051630806d56f60e31b815260048101919091526001916001600160a01b031690634036ab789060240160206040518083038186803b158015611f5157600080fd5b505afa158015611f65573d6000803e3d6000fd5b505050506040513d601f19601f82011682018060405250810190611f8991906138f2565b6001811115611fa857634e487b7160e01b600052602160045260246000fd5b145b611fb357600080fd5b6003546005546040516354a0585760e01b815260048101919091526000916001600160a01b0316906354a058579060240160206040518083038186803b158015611ffc57600080fd5b505afa158015612010573d6000803e3d6000fd5b505050506040513d601f19601f8201168201806040525081019061203491906139ee565b905060038160ff16146120ba5760405162461bcd60e51b815260206004820152604260248201527f44414f3a3a70726f706f73653a2063616e206e6f74207573652064697374726960448201527f6275746564206b65792077697468207468652077726f6e672064696d656e736960648201526137b760f11b608482015260a4016105f5565b6001546000906120d09063ffffffff1643613ee0565b60018401859055600580850180546001600160e01b0319163367ffffffffffffffff60a01b191617600160a01b6001600160401b038516021790556000868152600960209081526040808320600a90925282208a9055915492935090916121389030886122ad565b808655600081815260086020526040812060055481559192505b8560ff168160ff1610156121df5760408051808201909152600080825260016020808401829052818601805492830181558352909120612196929101906002613679565b5060408051808201909152600080825260016020808401829052600280870180549384018155845292206121cc93910191613679565b50806121d78161400a565b915050612152565b5088877fe89ca49b18459b17a2cfc1701e971d1fd31d17864d6784c5b45c145f7a30aade600454338f8f8a60405161221b959493929190613dcb565b60405180910390a360046000815461223290613fef565b90915550506004549a9950505050505050505050565b6000818152600860209081526040918290206003018054835181840281018401909452808452606093928301828280156122a157602002820191906000526020600020905b81548152602001906001019080831161228d575b50505050509050919050565b6040805160208082019590955260609390931b6bffffffffffffffffffffffff191683820152605480840192909252805180840390920182526074909201909152805191012090565b6003546001600160a01b0316331461236b5760405162461bcd60e51b815260206004820152603260248201527f44414f3a3a6f6e6c79444b473a2063616c6c206d75737420636f6d652066726f6044820152711b481d1a19481112d1c818dbdb9d1c9858dd60721b60648201526084016105f5565b60008381526008602052604090206005548154146123e55760405162461bcd60e51b815260206004820152603160248201527f44414f3a3a7375626d697454616c6c79696e67526573756c743a2072657175656044820152701cdd08191bd95cc81b9bdd08195e1a5cdd607a1b60648201526084016105f5565b6123f36003820184846136c9565b5043600490910155505050565b6009602052816000526040600020818154811061241c57600080fd5b60009182526020909120600490910201805460018201546002830180546001600160a01b0390931695509093509061245390613fb4565b80601f016020809104026020016040519081016040528092919081815260200182805461247f90613fb4565b80156124cc5780601f106124a1576101008083540402835291602001916124cc565b820191906000526020600020905b8154815290600101906020018083116124af57829003601f168201915b5050505050908060030180546124e190613fb4565b80601f016020809104026020016040519081016040528092919081815260200182805461250d90613fb4565b801561255a5780601f1061252f5761010080835404028352916020019161255a565b820191906000526020600020905b81548152906001019060200180831161253d57829003601f168201915b5050505050905084565b600561256f8261077f565b600881111561258e57634e487b7160e01b600052602160045260246000fd5b146125f35760405162461bcd60e51b815260206004820152602f60248201527f44414f3a3a71756575653a2050726f706f73616c20686173206e6f742062656560448201526e1b88199a5b985b1a5e9959081e595d608a1b60648201526084016105f5565b600081815260076020526040812060015490919061261e90600160601b900463ffffffff1643613ee0565b60008481526009602052604081209192505b81548110156128395761282782828154811061265c57634e487b7160e01b600052603260045260246000fd5b600091825260209091206004909102015483546001600160a01b039091169084908490811061269b57634e487b7160e01b600052603260045260246000fd5b9060005260206000209060040201600101548484815481106126cd57634e487b7160e01b600052603260045260246000fd5b906000526020600020906004020160020180546126e990613fb4565b80601f016020809104026020016040519081016040528092919081815260200182805461271590613fb4565b80156127625780601f1061273757610100808354040283529160200191612762565b820191906000526020600020905b81548152906001019060200180831161274557829003601f168201915b505050505085858154811061278757634e487b7160e01b600052603260045260246000fd5b906000526020600020906004020160030180546127a390613fb4565b80601f01602080910402602001604051908101604052809291908181526020018280546127cf90613fb4565b801561281c5780601f106127f15761010080835404028352916020019161281c565b820191906000526020600020905b8154815290600101906020018083116127ff57829003601f168201915b5050505050876131be565b8061283181613fef565b915050612630565b506006830182905560408051858152602081018490527f9a2e42fd6722813d69113e7d0079d3d940171428df7373df9c7f7617cfda289291015b60405180910390a150505050565b600261288c8261077f565b60088111156128ab57634e487b7160e01b600052602160045260246000fd5b146129075760405162461bcd60e51b815260206004820152602660248201527f44414f3a3a74616c6c793a206e6f7420696e207468652074616c6c79696e67206044820152651c195c9a5bd960d21b60648201526084016105f5565b60008181526007602090815260408083205480845260089092529182902060035481549351634da58de760e01b8152929391926001600160a01b0390911691634da58de79161296491869160018701906002880190600401613d72565b600060405180830381600087803b15801561297e57600080fd5b505af1158015612992573d6000803e3d6000fd5b505060408051868152602081018690527f1926e9437b5814bee2a98266e0e35ceafeefc71b6c3b6ab54fe5d86931b9f78c9350019050610f70565b60066129d88261077f565b60088111156129f757634e487b7160e01b600052602160045260246000fd5b14612a595760405162461bcd60e51b815260206004820152602c60248201527f44414f3a3a71756575653a2050726f706f73616c20686173206e6f742062656560448201526b1b881c5d595d5959081e595d60a21b60648201526084016105f5565b60008181526007602090815260408083206006810154600990935290832090925b8154811015612c8357612c71828281548110612aa657634e487b7160e01b600052603260045260246000fd5b600091825260209091206004909102015483546001600160a01b0390911690849084908110612ae557634e487b7160e01b600052603260045260246000fd5b906000526020600020906004020160010154848481548110612b1757634e487b7160e01b600052603260045260246000fd5b90600052602060002090600402016002018054612b3390613fb4565b80601f0160208091040260200160405190810160405280929190818152602001828054612b5f90613fb4565b8015612bac5780601f10612b8157610100808354040283529160200191612bac565b820191906000526020600020905b815481529060010190602001808311612b8f57829003601f168201915b5050505050858581548110612bd157634e487b7160e01b600052603260045260246000fd5b90600052602060002090600402016003018054612bed90613fb4565b80601f0160208091040260200160405190810160405280929190818152602001828054612c1990613fb4565b8015612c665780601f10612c3b57610100808354040283529160200191612c66565b820191906000526020600020905b815481529060010190602001808311612c4957829003601f168201915b50505050508761332d565b80612c7b81613fef565b915050612a7a565b5060058301805460ff60e81b1916600160e81b1790556040517f712ae1383f79ac853f8d882153778e0260ef8f03b504e2866e0593e04d2b291f906128739086815260200190565b600060008051602061408f833981519152848484604051602001612cf193929190613cd9565b6040516020818303038152906040528051906020012060001c612d14919061402a565b949350505050565b60008585858585604051602001612d37959493929190613c8d565b60408051601f1981840301815291815281516020928301206000908152600c9092529020805460ff19169055505050505050565b6000846001600160a01b0316639447d8936040518163ffffffff1660e01b815260040160206040518083038186803b158015612da657600080fd5b505afa158015612dba573d6000803e3d6000fd5b505050506040513d601f19601f82011682018060405250810190612dde9190613911565b825114612dea57600080fd5b6000612df8848601866137ab565b905060005b60088160ff161015612ebc577f30644e72e131a029b85045b68181585d97816a916871ca8d3c208c16d87cfd47828260ff1660088110612e4d57634e487b7160e01b600052603260045260246000fd5b602002015110612eaa5760405162461bcd60e51b815260206004820152602260248201527f76657269666965722d70726f6f662d656c656d656e742d6774652d7072696d656044820152612d7160f01b60648201526084016105f5565b80612eb48161400a565b915050612dfd565b50856001600160a01b031663c32e370e604051806040016040528084600060088110612ef857634e487b7160e01b600052603260045260246000fd5b6020020151815260200184600160088110612f2357634e487b7160e01b600052603260045260246000fd5b6020020151905260408051608081018252858201519181019182529081906060820187600360200201518152508152602001604051806040016040528087600460088110612f8157634e487b7160e01b600052603260045260246000fd5b6020020151815260200187600560088110612fac57634e487b7160e01b600052603260045260246000fd5b60200201519052905260408051808201909152808660066020020151815260200186600760088110612fee57634e487b7160e01b600052603260045260246000fd5b6020020151815250876040518563ffffffff1660e01b81526004016130169493929190613cfd565b60206040518083038186803b15801561302e57600080fd5b505afa158015613042573d6000803e3d6000fd5b505050506040513d601f19601f82011682018060405250810190613066919061382f565b9695505050505050565b6000808515801561307f575084155b1561308e5750829050816131b5565b8315801561309a575084155b156130a95750849050836131b5565b600060008051602061408f8339815191528588099050600060008051602061408f8339815191528588099050600060008051602061408f83398151915280838509620292f8099050600060008051602061408f83398151915280898b0960008051602061408f833981519152898d09089050600061314a8460008051602061408f83398151915287620292fc0960008051602061408f8339815191526135b3565b905060008051602061408f83398151915261317660008051602061408f833981519152856001086135fc565b8309965060008051602061408f8339815191526131ab6131a660018660008051602061408f8339815191526135b3565b6135fc565b8209955050505050505b94509492505050565b6001546131d890600160601b900463ffffffff1643613ee0565b81101561325b5760405162461bcd60e51b8152602060048201526044602482018190527f44414f3a3a5f71756575655472616e73616374696f6e3a20457374696d617465908201527f6420657865637574696f6e20626c6f636b206d75737420736174697366792064606482015263656c617960e01b608482015260a4016105f5565b60008585858585604051602001613276959493929190613c8d565b60408051601f1981840301815291815281516020928301206000818152600c90935291205490915060ff161561330d5760405162461bcd60e51b815260206004820152603660248201527f44414f3a3a5f657865637574655472616e73616374696f6e3a205472616e736160448201527531ba34b7b7103430b9903132b2b71038bab2bab2b21760511b60648201526084016105f5565b6000908152600c60205260409020805460ff191660011790555050505050565b60008585858585604051602001613348959493929190613c8d565b60408051601f1981840301815291815281516020928301206000818152600c90935291205490915060ff166133e55760405162461bcd60e51b815260206004820152603960248201527f44414f3a3a5f657865637574655472616e73616374696f6e3a205472616e736160448201527f6374696f6e206861736e2774206265656e207175657565642e0000000000000060648201526084016105f5565b81431015801561340e575060015461340a90600160801b900463ffffffff1683613ee0565b4311155b6134805760405162461bcd60e51b815260206004820152603e60248201527f44414f3a3a5f657865637574655472616e73616374696f6e3a205472616e736160448201527f6374696f6e2063616e206e6f74206265206578656375746564206e6f772e000060648201526084016105f5565b6000818152600c60205260409020805460ff1916905583516060906134a65750826134d2565b8480519060200120846040516020016134c0929190613bfc565b60405160208183030381529060405290505b600080886001600160a01b031688846040516134ee9190613c2d565b60006040518083038185875af1925050503d806000811461352b576040519150601f19603f3d011682016040523d82523d6000602084013e613530565b606091505b5091509150816135a85760405162461bcd60e51b815260206004820152603d60248201527f54696d656c6f636b3a3a657865637574655472616e73616374696f6e3a20547260448201527f616e73616374696f6e20657865637574696f6e2072657665727465642e00000060648201526084016105f5565b505050505050505050565b6000838381116135ca576135c78382613ee0565b90505b82806135e657634e487b7160e01b600052601260045260246000fd5b60006135f28684613f71565b0895945050505050565b600061362f8261361b600260008051602061408f833981519152613f71565b60008051602061408f833981519152613635565b92915050565b600060405160208152602080820152602060408201528460608201528360808201528260a082015260208160c08360055afa80801561013557505051949350505050565b8280548282559060005260206000209081019282156136b9579160200282015b828111156136b9578251829060ff16905591602001919060010190613699565b506136c5929150613704565b5090565b8280548282559060005260206000209081019282156136b9579160200282015b828111156136b95782358255916020019190600101906136e9565b5b808211156136c55760008155600101613705565b60008083601f84011261372a578081fd5b5081356001600160401b03811115613740578182fd5b6020830191508360208260051b850101111561375b57600080fd5b9250929050565b600080600060408486031215613776578283fd5b83356001600160401b0381111561378b578384fd5b61379786828701613719565b909790965060209590950135949350505050565b60006101008083850312156137be578182fd5b83601f8401126137cc578182fd5b6040518181018181106001600160401b03821117156137ed576137ed614060565b6040528084838101871015613800578485fd5b8493505b600884101561382457803582526001939093019260209182019101613804565b509095945050505050565b600060208284031215613840578081fd5b8151801515811461384f578182fd5b9392505050565b600060208284031215613867578081fd5b5035919050565b600080600060408486031215613882578283fd5b8335925060208401356001600160401b0381111561389e578283fd5b6138aa86828701613719565b9497909650939450505050565b6000602082840312156138c8578081fd5b815161384f81614076565b6000602082840312156138e4578081fd5b81516004811061384f578182fd5b600060208284031215613903578081fd5b81516002811061384f578182fd5b600060208284031215613922578081fd5b5051919050565b60008060006060848603121561393d578283fd5b83359250602084013561394f81614076565b929592945050506040919091013590565b60008060408385031215613972578182fd5b8235915060208301356001600160401b0381111561398e578182fd5b830160a0818603121561399f578182fd5b809150509250929050565b600080604083850312156139bc578182fd5b50508035926020909101359150565b600080604083850312156139dd578182fd5b505080516020909101519092909150565b6000602082840312156139ff578081fd5b815160ff8116811461384f578182fd5b600081548084526020808501808196508360051b81019150858552828520855b85811015613a7f57828403895281548085528288528588208686019190895b82811015613a6a57815484529288019260019182019101613a4e565b50505098850198935060019182019101613a2f565b5091979650505050505050565b81835260006020808501808196508560051b8101915084845b87811015613a7f5782840389528135607e19883603018112613ac5578687fd5b870160808135613ad481614076565b6001600160a01b0316865281870135878701526040613af581840184613e9c565b83838a0152613b07848a018284613ba7565b93505050506060613b1a81840184613e9c565b935087830382890152613b2e838583613ba7565b9c89019c97505050928601925050600101613aa5565b8060005b6002811015613b67578151845260209384019390910190600101613b48565b50505050565b6000815180845260208085019450808401835b83811015613b9c57815187529582019590820190600101613b80565b509495945050505050565b81835281816020850137506000828201602090810191909152601f909101601f19169091010190565b60008151808452613be8816020860160208601613f88565b601f01601f19169290920160200192915050565b6001600160e01b0319831681528151600090613c1f816004850160208701613f88565b919091016004019392505050565b60008251613c3f818460208701613f88565b9190910192915050565b60018060a01b0385168152836020820152608060408201526000613c706080830185613bd0565b8281036060840152613c828185613bd0565b979650505050505050565b60018060a01b038616815284602082015260a060408201526000613cb460a0830186613bd0565b8281036060840152613cc68186613bd0565b9150508260808301529695505050505050565b604081526000613ced604083018587613a8c565b9050826020830152949350505050565b6000610120613d0c8388613b44565b604080840187845b6002811015613d3b57613d28838351613b44565b9183019160209190910190600101613d14565b50505050613d4c60c0840186613b44565b80610100840152613c8281840185613b6d565b60208152600061384f6020830184613b6d565b848152836020820152608060408201526000613d916080830185613a0f565b8281036060840152613c828185613a0f565b6020810160098310613dc557634e487b7160e01b600052602160045260246000fd5b91905290565b8581526001600160a01b0385166020820152608060408201819052600090613df69083018587613a8c565b90506001600160401b03831660608301529695505050505050565b6000808335601e19843603018112613e27578283fd5b8301803591506001600160401b03821115613e40578283fd5b6020019150600581901b360382131561375b57600080fd5b6000808335601e19843603018112613e6e578283fd5b8301803591506001600160401b03821115613e87578283fd5b60200191503681900382131561375b57600080fd5b6000808335601e19843603018112613eb2578283fd5b83016020810192503590506001600160401b03811115613ed157600080fd5b80360383131561375b57600080fd5b60008219821115613ef357613ef361404a565b500190565b60006001600160401b03808316818516808303821115613f1a57613f1a61404a565b01949350505050565b600060ff821660ff84168060ff03821115613f4057613f4061404a565b019392505050565b600060ff821660ff84168160ff0481118215151615613f6957613f6961404a565b029392505050565b600082821015613f8357613f8361404a565b500390565b60005b83811015613fa3578181015183820152602001613f8b565b83811115613b675750506000910152565b600181811c90821680613fc857607f821691505b60208210811415613fe957634e487b7160e01b600052602260045260246000fd5b50919050565b60006000198214156140035761400361404a565b5060010190565b600060ff821660ff8114156140215761402161404a565b60010192915050565b60008261404557634e487b7160e01b81526012600452602481fd5b500690565b634e487b7160e01b600052601160045260246000fd5b634e487b7160e01b600052604160045260246000fd5b6001600160a01b038116811461408b57600080fd5b5056fe30644e72e131a029b85045b68181585d2833e84879b9709143e1f593f0000001a26469706673582212202150d333eede5d89618fe335d32bf69b35de2dd66c7cb8feda89ea043e92e29c64736f6c63430008040033",
    "linkReferences": {},
    "deployedLinkReferences": {}
}