{
    "_format": "hh-sol-artifact-1",
    "contractName": "DAO",
    "sourceName": "contracts/DAO.sol",
    "abi": [
        {
            "inputs": [
                {
                    "components": [
                        {
                            "internalType": "uint32",
                            "name": "pendingPeriod",
                            "type": "uint32"
                        },
                        {
                            "internalType": "uint32",
                            "name": "votingPeriod",
                            "type": "uint32"
                        },
                        {
                            "internalType": "uint32",
                            "name": "tallyingPeriod",
                            "type": "uint32"
                        },
                        {
                            "internalType": "uint32",
                            "name": "timelockPeriod",
                            "type": "uint32"
                        },
                        {
                            "internalType": "uint32",
                            "name": "queuingPeriod",
                            "type": "uint32"
                        }
                    ],
                    "internalType": "struct IDAO.Config",
                    "name": "_config",
                    "type": "tuple"
                },
                {
                    "internalType": "address",
                    "name": "_fundManager",
                    "type": "address"
                },
                {
                    "internalType": "address",
                    "name": "_dkg",
                    "type": "address"
                },
                {
                    "internalType": "uint256",
                    "name": "_distributedKeyID",
                    "type": "uint256"
                },
                {
                    "internalType": "bytes32",
                    "name": "_descriptionHash",
                    "type": "bytes32"
                }
            ],
            "stateMutability": "nonpayable",
            "type": "constructor"
        },
        {
            "anonymous": false,
            "inputs": [
                {
                    "indexed": false,
                    "internalType": "uint256",
                    "name": "proposalID",
                    "type": "uint256"
                }
            ],
            "name": "ProposalCanceled",
            "type": "event"
        },
        {
            "anonymous": false,
            "inputs": [
                {
                    "indexed": false,
                    "internalType": "uint256",
                    "name": "index",
                    "type": "uint256"
                },
                {
                    "indexed": true,
                    "internalType": "uint256",
                    "name": "proposalID",
                    "type": "uint256"
                },
                {
                    "indexed": false,
                    "internalType": "address",
                    "name": "proposer",
                    "type": "address"
                },
                {
                    "components": [
                        {
                            "internalType": "address",
                            "name": "target",
                            "type": "address"
                        },
                        {
                            "internalType": "uint256",
                            "name": "value",
                            "type": "uint256"
                        },
                        {
                            "internalType": "string",
                            "name": "signature",
                            "type": "string"
                        },
                        {
                            "internalType": "bytes",
                            "name": "data",
                            "type": "bytes"
                        }
                    ],
                    "indexed": false,
                    "internalType": "struct IDAO.Action[]",
                    "name": "actions",
                    "type": "tuple[]"
                },
                {
                    "indexed": false,
                    "internalType": "uint256",
                    "name": "startBlock",
                    "type": "uint256"
                },
                {
                    "indexed": true,
                    "internalType": "bytes32",
                    "name": "descriptionHash",
                    "type": "bytes32"
                }
            ],
            "name": "ProposalCreated",
            "type": "event"
        },
        {
            "anonymous": false,
            "inputs": [
                {
                    "indexed": false,
                    "internalType": "uint256",
                    "name": "proposalID",
                    "type": "uint256"
                }
            ],
            "name": "ProposalExecuted",
            "type": "event"
        },
        {
            "anonymous": false,
            "inputs": [
                {
                    "indexed": false,
                    "internalType": "uint256",
                    "name": "proposalID",
                    "type": "uint256"
                },
                {
                    "indexed": false,
                    "internalType": "uint256",
                    "name": "forVotes",
                    "type": "uint256"
                },
                {
                    "indexed": false,
                    "internalType": "uint256",
                    "name": "againstVotes",
                    "type": "uint256"
                },
                {
                    "indexed": false,
                    "internalType": "uint256",
                    "name": "abstainVotes",
                    "type": "uint256"
                }
            ],
            "name": "ProposalFinalized",
            "type": "event"
        },
        {
            "anonymous": false,
            "inputs": [
                {
                    "indexed": false,
                    "internalType": "uint256",
                    "name": "proposalID",
                    "type": "uint256"
                },
                {
                    "indexed": false,
                    "internalType": "uint256",
                    "name": "eta",
                    "type": "uint256"
                }
            ],
            "name": "ProposalQueued",
            "type": "event"
        },
        {
            "anonymous": false,
            "inputs": [
                {
                    "indexed": false,
                    "internalType": "uint256",
                    "name": "proposalID",
                    "type": "uint256"
                },
                {
                    "indexed": false,
                    "internalType": "bytes32",
                    "name": "requestID",
                    "type": "bytes32"
                }
            ],
            "name": "ProposalTallyingStarted",
            "type": "event"
        },
        {
            "anonymous": false,
            "inputs": [
                {
                    "indexed": false,
                    "internalType": "uint256",
                    "name": "proposalID",
                    "type": "uint256"
                },
                {
                    "indexed": false,
                    "internalType": "uint256",
                    "name": "nullifierHash",
                    "type": "uint256"
                }
            ],
            "name": "VoteCast",
            "type": "event"
        },
        {
            "inputs": [
                {
                    "internalType": "uint256",
                    "name": "",
                    "type": "uint256"
                },
                {
                    "internalType": "uint256",
                    "name": "",
                    "type": "uint256"
                }
            ],
            "name": "actions",
            "outputs": [
                {
                    "internalType": "address",
                    "name": "target",
                    "type": "address"
                },
                {
                    "internalType": "uint256",
                    "name": "value",
                    "type": "uint256"
                },
                {
                    "internalType": "string",
                    "name": "signature",
                    "type": "string"
                },
                {
                    "internalType": "bytes",
                    "name": "data",
                    "type": "bytes"
                }
            ],
            "stateMutability": "view",
            "type": "function"
        },
        {
            "inputs": [
                {
                    "internalType": "uint256",
                    "name": "_proposalID",
                    "type": "uint256"
                }
            ],
            "name": "cancel",
            "outputs": [],
            "stateMutability": "nonpayable",
            "type": "function"
        },
        {
            "inputs": [
                {
                    "internalType": "uint256",
                    "name": "_proposalID",
                    "type": "uint256"
                },
                {
                    "components": [
                        {
                            "internalType": "uint256",
                            "name": "root",
                            "type": "uint256"
                        },
                        {
                            "internalType": "uint256",
                            "name": "nullifierHash",
                            "type": "uint256"
                        },
                        {
                            "internalType": "uint256[][]",
                            "name": "_R",
                            "type": "uint256[][]"
                        },
                        {
                            "internalType": "uint256[][]",
                            "name": "_M",
                            "type": "uint256[][]"
                        },
                        {
                            "internalType": "bytes",
                            "name": "_proof",
                            "type": "bytes"
                        }
                    ],
                    "internalType": "struct IDAO.VoteData",
                    "name": "_voteData",
                    "type": "tuple"
                }
            ],
            "name": "castVote",
            "outputs": [],
            "stateMutability": "nonpayable",
            "type": "function"
        },
        {
            "inputs": [
                {
                    "internalType": "bytes",
                    "name": "checkData",
                    "type": "bytes"
                }
            ],
            "name": "checkUpkeep",
            "outputs": [
                {
                    "internalType": "bool",
                    "name": "upkeepNeeded",
                    "type": "bool"
                },
                {
                    "internalType": "bytes",
                    "name": "performData",
                    "type": "bytes"
                }
            ],
            "stateMutability": "view",
            "type": "function"
        },
        {
            "inputs": [],
            "name": "config",
            "outputs": [
                {
                    "internalType": "uint32",
                    "name": "pendingPeriod",
                    "type": "uint32"
                },
                {
                    "internalType": "uint32",
                    "name": "votingPeriod",
                    "type": "uint32"
                },
                {
                    "internalType": "uint32",
                    "name": "tallyingPeriod",
                    "type": "uint32"
                },
                {
                    "internalType": "uint32",
                    "name": "timelockPeriod",
                    "type": "uint32"
                },
                {
                    "internalType": "uint32",
                    "name": "queuingPeriod",
                    "type": "uint32"
                }
            ],
            "stateMutability": "view",
            "type": "function"
        },
        {
            "inputs": [],
            "name": "descriptionHash",
            "outputs": [
                {
                    "internalType": "bytes32",
                    "name": "",
                    "type": "bytes32"
                }
            ],
            "stateMutability": "view",
            "type": "function"
        },
        {
            "inputs": [
                {
                    "internalType": "uint256",
                    "name": "",
                    "type": "uint256"
                }
            ],
            "name": "descriptions",
            "outputs": [
                {
                    "internalType": "bytes32",
                    "name": "",
                    "type": "bytes32"
                }
            ],
            "stateMutability": "view",
            "type": "function"
        },
        {
            "inputs": [
                {
                    "internalType": "uint256",
                    "name": "_proposalID",
                    "type": "uint256"
                }
            ],
            "name": "execute",
            "outputs": [],
            "stateMutability": "payable",
            "type": "function"
        },
        {
            "inputs": [
                {
                    "internalType": "uint256",
                    "name": "_proposalID",
                    "type": "uint256"
                }
            ],
            "name": "finalize",
            "outputs": [],
            "stateMutability": "nonpayable",
            "type": "function"
        },
        {
            "inputs": [
                {
                    "internalType": "bytes32",
                    "name": "_requestID",
                    "type": "bytes32"
                }
            ],
            "name": "getDistributedKeyID",
            "outputs": [
                {
                    "internalType": "uint256",
                    "name": "",
                    "type": "uint256"
                }
            ],
            "stateMutability": "view",
            "type": "function"
        },
        {
            "inputs": [
                {
                    "internalType": "uint256",
                    "name": "_distributedKeyID",
                    "type": "uint256"
                },
                {
                    "internalType": "address",
                    "name": "_requestor",
                    "type": "address"
                },
                {
                    "internalType": "uint256",
                    "name": "_nonce",
                    "type": "uint256"
                }
            ],
            "name": "getRequestID",
            "outputs": [
                {
                    "internalType": "bytes32",
                    "name": "",
                    "type": "bytes32"
                }
            ],
            "stateMutability": "pure",
            "type": "function"
        },
        {
            "inputs": [
                {
                    "internalType": "bytes32",
                    "name": "_requestID",
                    "type": "bytes32"
                }
            ],
            "name": "getResult",
            "outputs": [
                {
                    "internalType": "uint256[]",
                    "name": "",
                    "type": "uint256[]"
                }
            ],
            "stateMutability": "view",
            "type": "function"
        },
        {
            "inputs": [
                {
                    "components": [
                        {
                            "internalType": "address",
                            "name": "target",
                            "type": "address"
                        },
                        {
                            "internalType": "uint256",
                            "name": "value",
                            "type": "uint256"
                        },
                        {
                            "internalType": "string",
                            "name": "signature",
                            "type": "string"
                        },
                        {
                            "internalType": "bytes",
                            "name": "data",
                            "type": "bytes"
                        }
                    ],
                    "internalType": "struct IDAO.Action[]",
                    "name": "_actions",
                    "type": "tuple[]"
                },
                {
                    "internalType": "bytes32",
                    "name": "_descriptionHash",
                    "type": "bytes32"
                }
            ],
            "name": "hashProposal",
            "outputs": [
                {
                    "internalType": "uint256",
                    "name": "",
                    "type": "uint256"
                }
            ],
            "stateMutability": "pure",
            "type": "function"
        },
        {
            "inputs": [
                {
                    "internalType": "bytes",
                    "name": "performData",
                    "type": "bytes"
                }
            ],
            "name": "performUpkeep",
            "outputs": [],
            "stateMutability": "nonpayable",
            "type": "function"
        },
        {
            "inputs": [],
            "name": "proposalCounter",
            "outputs": [
                {
                    "internalType": "uint256",
                    "name": "",
                    "type": "uint256"
                }
            ],
            "stateMutability": "view",
            "type": "function"
        },
        {
            "inputs": [
                {
                    "internalType": "uint256",
                    "name": "",
                    "type": "uint256"
                }
            ],
            "name": "proposalIDs",
            "outputs": [
                {
                    "internalType": "uint256",
                    "name": "",
                    "type": "uint256"
                }
            ],
            "stateMutability": "view",
            "type": "function"
        },
        {
            "inputs": [
                {
                    "internalType": "uint256",
                    "name": "",
                    "type": "uint256"
                }
            ],
            "name": "proposals",
            "outputs": [
                {
                    "internalType": "bytes32",
                    "name": "requestID",
                    "type": "bytes32"
                },
                {
                    "internalType": "uint256",
                    "name": "proposalID",
                    "type": "uint256"
                },
                {
                    "internalType": "uint256",
                    "name": "forVotes",
                    "type": "uint256"
                },
                {
                    "internalType": "uint256",
                    "name": "againstVotes",
                    "type": "uint256"
                },
                {
                    "internalType": "uint256",
                    "name": "abstainVotes",
                    "type": "uint256"
                },
                {
                    "internalType": "address",
                    "name": "proposer",
                    "type": "address"
                },
                {
                    "internalType": "uint64",
                    "name": "startBlock",
                    "type": "uint64"
                },
                {
                    "internalType": "bool",
                    "name": "canceled",
                    "type": "bool"
                },
                {
                    "internalType": "bool",
                    "name": "executed",
                    "type": "bool"
                },
                {
                    "internalType": "uint256",
                    "name": "eta",
                    "type": "uint256"
                }
            ],
            "stateMutability": "view",
            "type": "function"
        },
        {
            "inputs": [
                {
                    "components": [
                        {
                            "internalType": "address",
                            "name": "target",
                            "type": "address"
                        },
                        {
                            "internalType": "uint256",
                            "name": "value",
                            "type": "uint256"
                        },
                        {
                            "internalType": "string",
                            "name": "signature",
                            "type": "string"
                        },
                        {
                            "internalType": "bytes",
                            "name": "data",
                            "type": "bytes"
                        }
                    ],
                    "internalType": "struct IDAO.Action[]",
                    "name": "_actions",
                    "type": "tuple[]"
                },
                {
                    "internalType": "bytes32",
                    "name": "_descriptionHash",
                    "type": "bytes32"
                }
            ],
            "name": "propose",
            "outputs": [
                {
                    "internalType": "uint256",
                    "name": "",
                    "type": "uint256"
                }
            ],
            "stateMutability": "nonpayable",
            "type": "function"
        },
        {
            "inputs": [
                {
                    "internalType": "uint256",
                    "name": "_proposalID",
                    "type": "uint256"
                }
            ],
            "name": "queue",
            "outputs": [],
            "stateMutability": "nonpayable",
            "type": "function"
        },
        {
            "inputs": [
                {
                    "internalType": "bytes32",
                    "name": "",
                    "type": "bytes32"
                }
            ],
            "name": "requests",
            "outputs": [
                {
                    "internalType": "uint256",
                    "name": "distributedKeyID",
                    "type": "uint256"
                },
                {
                    "internalType": "uint256",
                    "name": "respondedAt",
                    "type": "uint256"
                }
            ],
            "stateMutability": "view",
            "type": "function"
        },
        {
            "inputs": [
                {
                    "internalType": "uint256",
                    "name": "_proposalID",
                    "type": "uint256"
                }
            ],
            "name": "state",
            "outputs": [
                {
                    "internalType": "enum IDAO.ProposalState",
                    "name": "",
                    "type": "uint8"
                }
            ],
            "stateMutability": "view",
            "type": "function"
        },
        {
            "inputs": [
                {
                    "internalType": "bytes32",
                    "name": "_requestID",
                    "type": "bytes32"
                },
                {
                    "internalType": "uint256[]",
                    "name": "_result",
                    "type": "uint256[]"
                }
            ],
            "name": "submitTallyResult",
            "outputs": [],
            "stateMutability": "nonpayable",
            "type": "function"
        },
        {
            "inputs": [
                {
                    "internalType": "uint256",
                    "name": "_proposalID",
                    "type": "uint256"
                }
            ],
            "name": "tally",
            "outputs": [],
            "stateMutability": "nonpayable",
            "type": "function"
        },
        {
            "stateMutability": "payable",
            "type": "receive"
        }
    ],
    "bytecode": "0x60806040523480156200001157600080fd5b5060405162004d9a38038062004d9a833981016040819052620000349162000143565b8451600180546020880151604089015160608a01516080909a015163ffffffff908116600160801b0263ffffffff60801b199b82166c010000000000000000000000000263ffffffff60601b19938316680100000000000000000293909316600160401b600160801b0319948316640100000000026001600160401b03199096169290971691909117939093179190911693909317929092179690961617909455600280546001600160a01b039485166001600160a01b031991821617909155600380549390941692169190911790915560055560005562000231565b80516001600160a01b03811681146200012957600080fd5b919050565b805163ffffffff811681146200012957600080fd5b60008060008060008587036101208112156200015d578182fd5b60a08112156200016b578182fd5b5060405160a081016001600160401b03811182821017156200019b57634e487b7160e01b83526041600452602483fd5b604052620001a9876200012e565b8152620001b9602088016200012e565b6020820152620001cc604088016200012e565b6040820152620001df606088016200012e565b6060820152620001f2608088016200012e565b608082015294506200020760a0870162000111565b93506200021760c0870162000111565b60e087015161010090970151959894975095949392505050565b614b5980620002416000396000f3fe6080604052600436106101445760003560e01c80639d866985116100b6578063cab8ec9f1161006f578063cab8ec9f14610504578063ddf0b00914610534578063e6f859e714610554578063ed8b6b3114610581578063fe0d94c1146105a1578063ffef6fbb146105b457600080fd5b80639d86698514610401578063a007b1971461044a578063aa90064e14610477578063add4c78414610497578063b0536532146104c4578063c58264b3146104e457600080fd5b806340e58ee51161010857806340e58ee5146102de5780634585e33b146102fe5780636e04ff0d1461031e57806379502c551461034c57806385dcee93146103cb5780639c885f58146103e157600080fd5b8063013cf08b1461015057806305261aea1461023e57806308388954146102605780630c0512e91461029b5780633e4f49e6146102b157600080fd5b3661014b57005b600080fd5b34801561015c57600080fd5b506101d961016b366004614013565b6007602052600090815260409020805460018201546002830154600384015460048501546005860154600690960154949593949293919290916001600160a01b038116916001600160401b03600160a01b8304169160ff600160e01b8204811692600160e81b90920416908a565b604080519a8b5260208b019990995297890196909652606088019490945260808701929092526001600160a01b031660a08601526001600160401b031660c0850152151560e08401521515610100830152610120820152610140015b60405180910390f35b34801561024a57600080fd5b5061025e610259366004614013565b6105d4565b005b34801561026c57600080fd5b5061028d61027b366004614013565b60009081526008602052604090205490565b604051908152602001610235565b3480156102a757600080fd5b5061028d60045481565b3480156102bd57600080fd5b506102d16102cc366004614013565b6107e3565b6040516102359190614765565b3480156102ea57600080fd5b5061025e6102f9366004614013565b610c50565b34801561030a57600080fd5b5061025e610319366004614074565b610fe1565b34801561032a57600080fd5b5061033e610339366004614074565b6110c4565b604051610235929190614719565b34801561035857600080fd5b506001546103949063ffffffff808216916401000000008104821691600160401b8204811691600160601b8104821691600160801b9091041685565b6040805163ffffffff968716815294861660208601529285169284019290925283166060830152909116608082015260a001610235565b3480156103d757600080fd5b5061028d60005481565b3480156103ed57600080fd5b5061025e6103fc3660046142f6565b6111d8565b34801561040d57600080fd5b5061043561041c366004614013565b6008602052600090815260409020805460049091015482565b60408051928352602083019190915201610235565b34801561045657600080fd5b5061028d610465366004614013565b60066020526000908152604090205481565b34801561048357600080fd5b5061028d610492366004613ea2565b612017565b3480156104a357600080fd5b506104b76104b2366004614013565b6124a3565b6040516102359190614706565b3480156104d057600080fd5b5061028d6104df366004614290565b612508565b3480156104f057600080fd5b5061025e6104ff36600461402b565b612551565b34801561051057600080fd5b5061052461051f366004614335565b61265b565b60405161023594939291906145f0565b34801561054057600080fd5b5061025e61054f366004614013565b6127bf565b34801561056057600080fd5b5061028d61056f366004614013565b600a6020526000908152604090205481565b34801561058d57600080fd5b5061025e61059c366004614013565b612adc565b61025e6105af366004614013565b612c28565b3480156105c057600080fd5b5061028d6105cf366004613ea2565b612f26565b60026105df826107e3565b60088111156105fe57634e487b7160e01b600052602160045260246000fd5b146106625760405162461bcd60e51b815260206004820152602960248201527f44414f3a3a66696e616c697a653a206e6f7420696e207468652074616c6c79696044820152681b99c81c195c9a5bd960ba1b60648201526084015b60405180910390fd5b600081815260076020908152604080832080548452600890925290912060048101546106ea5760405162461bcd60e51b815260206004820152603160248201527f44414f3a3a66696e616c697a653a20444b47207265717565737420686173206e6044820152701bdd081899595b881c995cdc1bdb991959607a1b6064820152608401610659565b60006003820160018154811061071057634e487b7160e01b600052603260045260246000fd5b6000918252602082200154915060038301818154811061074057634e487b7160e01b600052603260045260246000fd5b600091825260208220015491506003840160028154811061077157634e487b7160e01b600052603260045260246000fd5b600091825260209182902001546002870185905560038701849055600487018190556040805189815292830186905282018490526060820181905291507f904f64d3d2c164a2f1e396101e5f5f82129a43c7c1563aa64c5cbcc22ec6b3029060800160405180910390a1505050505050565b6000818152600760209081526040808320815161014081018352815480825260018084015483870152600284015483860152600384015460608401526004840154608084015260058401546001600160a01b03811660a0808601919091526001600160401b03600160a01b83041660c086015260ff600160e01b83048116151560e0870152600160e81b90920490911615156101008501526006909401546101208401529086526008855283862084519384018552805484529081018054855181880281018801909652808652929587959293858201939291879084015b8282101561092d5760008481526020908190208301805460408051828502810185019091528181529283018282801561091957602002820191906000526020600020905b815481526020019060010190808311610905575b5050505050815260200190600101906108c1565b50505050815260200160028201805480602002602001604051908101604052809291908181526020016000905b828210156109c6576000848152602090819020830180546040805182850281018501909152818152928301828280156109b257602002820191906000526020600020905b81548152602001906001019080831161099e575b50505050508152602001906001019061095a565b50505050815260200160038201805480602002602001604051908101604052809291908181526020018280548015610a1d57602002820191906000526020600020905b815481526020019060010190808311610a09575b50505050508152602001600482015481525050905060008260c001516001600160401b031611610a995760405162461bcd60e51b815260206004820152602160248201527f44414f3a3a73746174653a2070726f706f73616c206e6f7420657869737465646044820152601760f91b6064820152608401610659565b8160e0015115610aad575060039392505050565b8160c001516001600160401b03164311610acb575060009392505050565b60015460c0830151610aeb91640100000000900463ffffffff169061494a565b6001600160401b03164311610b04575060019392505050565b60015460c083015163ffffffff600160401b8304811692610b31926401000000009091049091169061494a565b610b3b919061494a565b6001600160401b03164311610b54575060029392505050565b816080015182606001518360400151610b6d9190614932565b610b779190614932565b1580610bc5575060015460c083015163ffffffff600160401b8304811692610bab926401000000009091049091169061494a565b610bb5919061494a565b6001600160401b03168160800151115b15610bd4575060079392505050565b8160600151826040015111610bed575060049392505050565b610120820151610c01575060059392505050565b81610100015115610c16575060089392505050565b600154610120830151610c3691600160801b900463ffffffff1690614932565b4310610c46575060079392505050565b5060069392505050565b6008610c5b826107e3565b6008811115610c7a57634e487b7160e01b600052602160045260246000fd5b1415610cdd5760405162461bcd60e51b815260206004820152602c60248201527f44414f3a3a63616e63656c3a2043616e6e6f742063616e63656c20657865637560448201526b1d1959081c1c9bdc1bdcd85b60a21b6064820152608401610659565b6003610ce8826107e3565b6008811115610d0757634e487b7160e01b600052602160045260246000fd5b1415610d6a5760405162461bcd60e51b815260206004820152602c60248201527f44414f3a3a63616e63656c3a2043616e6e6f742063616e63656c2063616e636560448201526b1b1959081c1c9bdc1bdcd85b60a21b6064820152608401610659565b600081815260076020908152604080832060058101805460ff60e01b1916600160e01b1790556009909252822090915b8154811015610fa757610f95828281548110610dc657634e487b7160e01b600052603260045260246000fd5b600091825260209091206004909102015483546001600160a01b0390911690849084908110610e0557634e487b7160e01b600052603260045260246000fd5b906000526020600020906004020160010154848481548110610e3757634e487b7160e01b600052603260045260246000fd5b90600052602060002090600402016002018054610e5390614a06565b80601f0160208091040260200160405190810160405280929190818152602001828054610e7f90614a06565b8015610ecc5780601f10610ea157610100808354040283529160200191610ecc565b820191906000526020600020905b815481529060010190602001808311610eaf57829003601f168201915b5050505050858581548110610ef157634e487b7160e01b600052603260045260246000fd5b90600052602060002090600402016003018054610f0d90614a06565b80601f0160208091040260200160405190810160405280929190818152602001828054610f3990614a06565b8015610f865780601f10610f5b57610100808354040283529160200191610f86565b820191906000526020600020905b815481529060010190602001808311610f6957829003601f168201915b50505050508760060154612f77565b80610f9f81614a41565b915050610d9a565b506040518381527f789cf55be980739dad1d0699b93b58e806b51c9d96619bfa8fe0a28abaa7b30c906020015b60405180910390a1505050565b600080610ff0838501856142c7565b9092509050600081600381111561101757634e487b7160e01b600052602160045260246000fd5b141561102b5761102682612adc565b6110be565b600181600381111561104d57634e487b7160e01b600052602160045260246000fd5b141561105c57611026826105d4565b600281600381111561107e57634e487b7160e01b600052602160045260246000fd5b141561108d57611026826127bf565b60038160038111156110af57634e487b7160e01b600052602160045260246000fd5b14156110be576110be82612c28565b50505050565b60006060816110d584860186613eeb565b60045460208201519192501115806110f1575060208101518151115b806110ff5750600454815110155b1561114c5760405162461bcd60e51b815260206004820181905260248201527f44414f3a3a636865636b55706b6565703a20496e76616c69642072616e6765216044820152606401610659565b80515b602082015181116111ce576004548110611168576111bc565b6000818152600660205260408120549061118182612fc6565b909650905085156111b957818160405160200161119f9291906145c7565b6040516020818303038152906040529450505050506111d1565b50505b806111c681614a41565b91505061114f565b50505b9250929050565b600082815260076020526040902060016111f1846107e3565b600881111561121057634e487b7160e01b600052602160045260246000fd5b146112795760405162461bcd60e51b815260206004820152603360248201527f44414f3a3a43617374566f74653a2050726f706f73616c206973206e6f7420696044820152721b881d1a19481d9bdd1a5b99c81c195c9a5bd9606a1b6064820152608401610659565b6000838152600b6020908152604080832085830135845290915290205460ff16156112fa5760405162461bcd60e51b815260206004820152602b60248201527f44414f3a3a43617374566f74653a20446f75626c6520766f74696e672069732060448201526a1b9bdd08185b1b1bddd95960aa1b6064820152608401610659565b60025460405163a6232a9360e01b8152833560048201526001600160a01b039091169063a6232a939060240160206040518083038186803b15801561133e57600080fd5b505afa158015611352573d6000803e3d6000fd5b505050506040513d601f19601f820116820180604052508101906113769190613ff2565b6113c25760405162461bcd60e51b815260206004820152601e60248201527f44414f3a3a43617374566f74653a20526f6f7420697320696e76616c696400006044820152606401610659565b6000838152600b602090815260408083208583013584528252808320805460ff19166001179055835483526008909152808220600354815492516354a0585760e01b81529193926001600160a01b03909116916354a058579161142b9160040190815260200190565b60206040518083038186803b15801561144357600080fd5b505afa158015611457573d6000803e3d6000fd5b505050506040513d601f19601f8201168201806040525081019061147b9190614379565b905060ff811661148e60408601866147c5565b90501480156114ad575060ff81166114a960608601866147c5565b9050145b6115035760405162461bcd60e51b815260206004820152602160248201527f46756e644d616e616765723a20696e76616c696420696e707574206c656e67746044820152600d60fb1b6064820152608401610659565b6003548254604051633561bc2760e01b815260048101919091526000916001600160a01b031690633561bc279060240160206040518083038186803b15801561154b57600080fd5b505afa15801561155f573d6000803e3d6000fd5b505050506040513d601f19601f8201168201806040525081019061158391906140e0565b90506000816001600160a01b0316639447d8936040518163ffffffff1660e01b815260040160206040518083038186803b1580156115c057600080fd5b505afa1580156115d4573d6000803e3d6000fd5b505050506040513d601f19601f820116820180604052508101906115f89190614278565b6001600160401b0381111561161d57634e487b7160e01b600052604160045260246000fd5b604051908082528060200260200182016040528015611646578160200160208202803683370190505b50905085600001358160008151811061166f57634e487b7160e01b600052603260045260246000fd5b602002602001018181525050306001600160a01b0316816001815181106116a657634e487b7160e01b600052603260045260246000fd5b60200260200101818152505086816002815181106116d457634e487b7160e01b600052603260045260246000fd5b60209081029190910101526003548454604051633ae960e760e11b81526001600160a01b03909216916375d2c1ce916117139160040190815260200190565b604080518083038186803b15801561172a57600080fd5b505afa15801561173e573d6000803e3d6000fd5b505050506040513d601f19601f820116820180604052508101906117629190614356565b8260038151811061178357634e487b7160e01b600052603260045260246000fd5b60200260200101836004815181106117ab57634e487b7160e01b600052603260045260246000fd5b60200260200101828152508281525050508560200135816005815181106117e257634e487b7160e01b600052603260045260246000fd5b60200260200101818152505060005b8360ff168160ff161015611afd5761180c60408801886147c5565b8260ff1681811061182d57634e487b7160e01b600052603260045260246000fd5b905060200281019061183f91906147c5565b600081811061185e57634e487b7160e01b600052603260045260246000fd5b9050602002013582826002611873919061499a565b61187e906006614975565b60ff168151811061189f57634e487b7160e01b600052603260045260246000fd5b60209081029190910101526118b760408801886147c5565b8260ff168181106118d857634e487b7160e01b600052603260045260246000fd5b90506020028101906118ea91906147c5565b600181811061190957634e487b7160e01b600052603260045260246000fd5b905060200201358282600261191e919061499a565b611929906006614975565b611934906001614975565b60ff168151811061195557634e487b7160e01b600052603260045260246000fd5b602090810291909101015261196d60608801886147c5565b8260ff1681811061198e57634e487b7160e01b600052603260045260246000fd5b90506020028101906119a091906147c5565b60008181106119bf57634e487b7160e01b600052603260045260246000fd5b90506020020135828260026119d4919061499a565b6119df87600261499a565b6119ea906006614975565b6119f49190614975565b60ff1681518110611a1557634e487b7160e01b600052603260045260246000fd5b6020908102919091010152611a2d60608801886147c5565b8260ff16818110611a4e57634e487b7160e01b600052603260045260246000fd5b9050602002810190611a6091906147c5565b6001818110611a7f57634e487b7160e01b600052603260045260246000fd5b9050602002013582826002611a94919061499a565b611a9f87600261499a565b611aaa906006614975565b611ab49190614975565b611abf906001614975565b60ff1681518110611ae057634e487b7160e01b600052603260045260246000fd5b602090810291909101015280611af581614a5c565b9150506117f1565b50611b1582611b0f608089018961480c565b846132b8565b611b6c5760405162461bcd60e51b815260206004820152602260248201527f44414f3a3a43617374566f74653a205a4b2050726f6f6620697320696e76616c6044820152611a5960f21b6064820152608401610659565b60005b8360ff168160ff161015611fd157611d0b856001018260ff1681548110611ba657634e487b7160e01b600052603260045260246000fd5b90600052602060002001600081548110611bd057634e487b7160e01b600052603260045260246000fd5b9060005260206000200154866001018360ff1681548110611c0157634e487b7160e01b600052603260045260246000fd5b90600052602060002001600181548110611c2b57634e487b7160e01b600052603260045260246000fd5b600091825260209091200154611c4460408b018b6147c5565b8560ff16818110611c6557634e487b7160e01b600052603260045260246000fd5b9050602002810190611c7791906147c5565b6000818110611c9657634e487b7160e01b600052603260045260246000fd5b905060200201358a8060400190611cad91906147c5565b8660ff16818110611cce57634e487b7160e01b600052603260045260246000fd5b9050602002810190611ce091906147c5565b6001818110611cff57634e487b7160e01b600052603260045260246000fd5b905060200201356135bd565b866001018360ff1681548110611d3157634e487b7160e01b600052603260045260246000fd5b90600052602060002001600081548110611d5b57634e487b7160e01b600052603260045260246000fd5b906000526020600020016000886001018560ff1681548110611d8d57634e487b7160e01b600052603260045260246000fd5b90600052602060002001600181548110611db757634e487b7160e01b600052603260045260246000fd5b906000526020600020016000849190505583919050555050611eff856002018260ff1681548110611df857634e487b7160e01b600052603260045260246000fd5b90600052602060002001600081548110611e2257634e487b7160e01b600052603260045260246000fd5b9060005260206000200154866002018360ff1681548110611e5357634e487b7160e01b600052603260045260246000fd5b90600052602060002001600181548110611e7d57634e487b7160e01b600052603260045260246000fd5b600091825260209091200154611e9660608b018b6147c5565b8560ff16818110611eb757634e487b7160e01b600052603260045260246000fd5b9050602002810190611ec991906147c5565b6000818110611ee857634e487b7160e01b600052603260045260246000fd5b905060200201358a8060600190611cad91906147c5565b866002018360ff1681548110611f2557634e487b7160e01b600052603260045260246000fd5b90600052602060002001600081548110611f4f57634e487b7160e01b600052603260045260246000fd5b906000526020600020016000886002018560ff1681548110611f8157634e487b7160e01b600052603260045260246000fd5b90600052602060002001600181548110611fab57634e487b7160e01b600052603260045260246000fd5b600091825260209091200192909255919091555080611fc981614a5c565b915050611b6f565b5060408051888152602080890135908201527fc31875ef3ed5138b71a0c1da7e494bc4d2ba4f567084ea481ec9c45f3a93948b910160405180910390a150505050505050565b600080612025858585612f26565b600454600090815260066020908152604080832084905583835260079091529020600581015491925090600160a01b90046001600160401b0316156120bb5760405162461bcd60e51b815260206004820152602660248201527f44414f3a3a70726f706f73653a2070726f706f73616c20616c726561647920656044820152651e1a5cdd195960d21b6064820152608401610659565b600354600554604051631dcb457360e11b815260048101919091526002916001600160a01b031690633b968ae69060240160206040518083038186803b15801561210457600080fd5b505afa158015612118573d6000803e3d6000fd5b505050506040513d601f19601f8201168201806040525081019061213c91906140fc565b600381111561215b57634e487b7160e01b600052602160045260246000fd5b1480156122055750600354600554604051630806d56f60e31b815260048101919091526001916001600160a01b031690634036ab789060240160206040518083038186803b1580156121ac57600080fd5b505afa1580156121c0573d6000803e3d6000fd5b505050506040513d601f19601f820116820180604052508101906121e49190614118565b600181111561220357634e487b7160e01b600052602160045260246000fd5b145b61220e57600080fd5b6003546005546040516354a0585760e01b815260048101919091526000916001600160a01b0316906354a058579060240160206040518083038186803b15801561225757600080fd5b505afa15801561226b573d6000803e3d6000fd5b505050506040513d601f19601f8201168201806040525081019061228f9190614379565b905060038160ff16146123155760405162461bcd60e51b815260206004820152604260248201527f44414f3a3a70726f706f73653a2063616e206e6f74207573652064697374726960448201527f6275746564206b65792077697468207468652077726f6e672064696d656e736960648201526137b760f11b608482015260a401610659565b60015460009061232b9063ffffffff1643614932565b60018401859055600580850180546001600160e01b0319163367ffffffffffffffff60a01b191617600160a01b6001600160401b038516021790556000868152600960209081526040808320600a90925282208a905591549293509091612393903088612508565b808655600081815260086020526040812060055481559192505b8560ff168160ff16101561243a57604080518082019091526000808252600160208084018290528186018054928301815583529091206123f1929101906002613bc6565b50604080518082019091526000808252600160208084018290526002808701805493840181558452922061242793910191613bc6565b508061243281614a5c565b9150506123ad565b5088877fe89ca49b18459b17a2cfc1701e971d1fd31d17864d6784c5b45c145f7a30aade600454338f8f8a60405161247695949392919061477f565b60405180910390a360046000815461248d90614a41565b90915550506004549a9950505050505050505050565b6000818152600860209081526040918290206003018054835181840281018401909452808452606093928301828280156124fc57602002820191906000526020600020905b8154815260200190600101908083116124e8575b50505050509050919050565b6040805160208082019590955260609390931b6bffffffffffffffffffffffff191683820152605480840192909252805180840390920182526074909201909152805191012090565b6003546001600160a01b031633146125c65760405162461bcd60e51b815260206004820152603260248201527f44414f3a3a6f6e6c79444b473a2063616c6c206d75737420636f6d652066726f6044820152711b481d1a19481112d1c818dbdb9d1c9858dd60721b6064820152608401610659565b60008381526008602052604090206005548154146126405760405162461bcd60e51b815260206004820152603160248201527f44414f3a3a7375626d697454616c6c79696e67526573756c743a2072657175656044820152701cdd08191bd95cc81b9bdd08195e1a5cdd607a1b6064820152608401610659565b61264e600382018484613c16565b5043600490910155505050565b6009602052816000526040600020818154811061267757600080fd5b60009182526020909120600490910201805460018201546002830180546001600160a01b039093169550909350906126ae90614a06565b80601f01602080910402602001604051908101604052809291908181526020018280546126da90614a06565b80156127275780601f106126fc57610100808354040283529160200191612727565b820191906000526020600020905b81548152906001019060200180831161270a57829003601f168201915b50505050509080600301805461273c90614a06565b80601f016020809104026020016040519081016040528092919081815260200182805461276890614a06565b80156127b55780601f1061278a576101008083540402835291602001916127b5565b820191906000526020600020905b81548152906001019060200180831161279857829003601f168201915b5050505050905084565b60056127ca826107e3565b60088111156127e957634e487b7160e01b600052602160045260246000fd5b1461284e5760405162461bcd60e51b815260206004820152602f60248201527f44414f3a3a71756575653a2050726f706f73616c20686173206e6f742062656560448201526e1b88199a5b985b1a5e9959081e595d608a1b6064820152608401610659565b600081815260076020526040812060015490919061287990600160601b900463ffffffff1643614932565b60008481526009602052604081209192505b8154811015612a9457612a828282815481106128b757634e487b7160e01b600052603260045260246000fd5b600091825260209091206004909102015483546001600160a01b03909116908490849081106128f657634e487b7160e01b600052603260045260246000fd5b90600052602060002090600402016001015484848154811061292857634e487b7160e01b600052603260045260246000fd5b9060005260206000209060040201600201805461294490614a06565b80601f016020809104026020016040519081016040528092919081815260200182805461297090614a06565b80156129bd5780601f10612992576101008083540402835291602001916129bd565b820191906000526020600020905b8154815290600101906020018083116129a057829003601f168201915b50505050508585815481106129e257634e487b7160e01b600052603260045260246000fd5b906000526020600020906004020160030180546129fe90614a06565b80601f0160208091040260200160405190810160405280929190818152602001828054612a2a90614a06565b8015612a775780601f10612a4c57610100808354040283529160200191612a77565b820191906000526020600020905b815481529060010190602001808311612a5a57829003601f168201915b50505050508761370b565b80612a8c81614a41565b91505061288b565b506006830182905560408051858152602081018490527f9a2e42fd6722813d69113e7d0079d3d940171428df7373df9c7f7617cfda289291015b60405180910390a150505050565b6002612ae7826107e3565b6008811115612b0657634e487b7160e01b600052602160045260246000fd5b14612b625760405162461bcd60e51b815260206004820152602660248201527f44414f3a3a74616c6c793a206e6f7420696e207468652074616c6c79696e67206044820152651c195c9a5bd960d21b6064820152608401610659565b60008181526007602090815260408083205480845260089092529182902060035481549351634da58de760e01b8152929391926001600160a01b0390911691634da58de791612bbf91869160018701906002880190600401614734565b600060405180830381600087803b158015612bd957600080fd5b505af1158015612bed573d6000803e3d6000fd5b505060408051868152602081018690527f1926e9437b5814bee2a98266e0e35ceafeefc71b6c3b6ab54fe5d86931b9f78c9350019050610fd4565b6006612c33826107e3565b6008811115612c5257634e487b7160e01b600052602160045260246000fd5b14612cb45760405162461bcd60e51b815260206004820152602c60248201527f44414f3a3a71756575653a2050726f706f73616c20686173206e6f742062656560448201526b1b881c5d595d5959081e595d60a21b6064820152608401610659565b60008181526007602090815260408083206006810154600990935290832090925b8154811015612ede57612ecc828281548110612d0157634e487b7160e01b600052603260045260246000fd5b600091825260209091206004909102015483546001600160a01b0390911690849084908110612d4057634e487b7160e01b600052603260045260246000fd5b906000526020600020906004020160010154848481548110612d7257634e487b7160e01b600052603260045260246000fd5b90600052602060002090600402016002018054612d8e90614a06565b80601f0160208091040260200160405190810160405280929190818152602001828054612dba90614a06565b8015612e075780601f10612ddc57610100808354040283529160200191612e07565b820191906000526020600020905b815481529060010190602001808311612dea57829003601f168201915b5050505050858581548110612e2c57634e487b7160e01b600052603260045260246000fd5b90600052602060002090600402016003018054612e4890614a06565b80601f0160208091040260200160405190810160405280929190818152602001828054612e7490614a06565b8015612ec15780601f10612e9657610100808354040283529160200191612ec1565b820191906000526020600020905b815481529060010190602001808311612ea457829003601f168201915b50505050508761387a565b80612ed681614a41565b915050612cd5565b5060058301805460ff60e81b1916600160e81b1790556040517f712ae1383f79ac853f8d882153778e0260ef8f03b504e2866e0593e04d2b291f90612ace9086815260200190565b6000600080516020614b04833981519152848484604051602001612f4c93929190614680565b6040516020818303038152906040528051906020012060001c612f6f9190614a7c565b949350505050565b60008585858585604051602001612f92959493929190614634565b60408051601f1981840301815291815281516020928301206000908152600c9092529020805460ff19169055505050505050565b6000806000612fd4846107e3565b600085815260076020908152604080832081516101408101835281548082526001830154948201949094526002820154818401526003808301546060830152600480840154608084015260058401546001600160a01b0380821660a08601526001600160401b03600160a01b83041660c086015260ff600160e01b83048116151560e0870152600160e81b90920490911615156101008501526006909401546101208401529054935163c2d96bcf60e01b81529081018590529596509492939291169063c2d96bcf9060240160206040518083038186803b1580156130b857600080fd5b505afa1580156130cc573d6000803e3d6000fd5b505050506040513d601f19601f820116820180604052508101906130f09190614137565b6003546040516303f949d160e61b8152600481018590529192506000916001600160a01b039091169063fe5274409060240160006040518083038186803b15801561313a57600080fd5b505afa15801561314e573d6000803e3d6000fd5b505050506040513d6000823e601f3d908101601f191682016040526131769190810190614151565b9050600285600881111561319a57634e487b7160e01b600052602160045260246000fd5b1480156131b2575060e08101516001600160a01b0316155b156131c857506001976000975095505050505050565b60028560088111156131ea57634e487b7160e01b600052602160045260246000fd5b1480156132165750600282600281111561321457634e487b7160e01b600052602160045260246000fd5b145b1561322b575060019788975095505050505050565b600585600881111561324d57634e487b7160e01b600052602160045260246000fd5b141561326457506001976002975095505050505050565b600685600881111561328657634e487b7160e01b600052602160045260246000fd5b14801561329857508361012001514310155b156132ae57506001976003975095505050505050565b5050505050915091565b6000846001600160a01b0316639447d8936040518163ffffffff1660e01b815260040160206040518083038186803b1580156132f357600080fd5b505afa158015613307573d6000803e3d6000fd5b505050506040513d601f19601f8201168201806040525081019061332b9190614278565b82511461333757600080fd5b600061334584860186613f6e565b905060005b60088160ff161015613409577f30644e72e131a029b85045b68181585d97816a916871ca8d3c208c16d87cfd47828260ff166008811061339a57634e487b7160e01b600052603260045260246000fd5b6020020151106133f75760405162461bcd60e51b815260206004820152602260248201527f76657269666965722d70726f6f662d656c656d656e742d6774652d7072696d656044820152612d7160f01b6064820152608401610659565b8061340181614a5c565b91505061334a565b50856001600160a01b031663c32e370e60405180604001604052808460006008811061344557634e487b7160e01b600052603260045260246000fd5b602002015181526020018460016008811061347057634e487b7160e01b600052603260045260246000fd5b60200201519052604080516080810182528582015191810191825290819060608201876003602002015181525081526020016040518060400160405280876004600881106134ce57634e487b7160e01b600052603260045260246000fd5b60200201518152602001876005600881106134f957634e487b7160e01b600052603260045260246000fd5b6020020151905290526040805180820190915280866006602002015181526020018660076008811061353b57634e487b7160e01b600052603260045260246000fd5b6020020151815250876040518563ffffffff1660e01b815260040161356394939291906146a4565b60206040518083038186803b15801561357b57600080fd5b505afa15801561358f573d6000803e3d6000fd5b505050506040513d601f19601f820116820180604052508101906135b39190613ff2565b9695505050505050565b600080851580156135cc575084155b156135db575082905081613702565b831580156135e7575084155b156135f6575084905083613702565b6000600080516020614b0483398151915285880990506000600080516020614b0483398151915285880990506000600080516020614b0483398151915280838509620292f80990506000600080516020614b0483398151915280898b09600080516020614b04833981519152898d09089050600061369784600080516020614b0483398151915287620292fc09600080516020614b04833981519152613b00565b9050600080516020614b048339815191526136c3600080516020614b0483398151915285600108613b49565b83099650600080516020614b048339815191526136f86136f3600186600080516020614b04833981519152613b00565b613b49565b8209955050505050505b94509492505050565b60015461372590600160601b900463ffffffff1643614932565b8110156137a85760405162461bcd60e51b8152602060048201526044602482018190527f44414f3a3a5f71756575655472616e73616374696f6e3a20457374696d617465908201527f6420657865637574696f6e20626c6f636b206d75737420736174697366792064606482015263656c617960e01b608482015260a401610659565b600085858585856040516020016137c3959493929190614634565b60408051601f1981840301815291815281516020928301206000818152600c90935291205490915060ff161561385a5760405162461bcd60e51b815260206004820152603660248201527f44414f3a3a5f657865637574655472616e73616374696f6e3a205472616e736160448201527531ba34b7b7103430b9903132b2b71038bab2bab2b21760511b6064820152608401610659565b6000908152600c60205260409020805460ff191660011790555050505050565b60008585858585604051602001613895959493929190614634565b60408051601f1981840301815291815281516020928301206000818152600c90935291205490915060ff166139325760405162461bcd60e51b815260206004820152603960248201527f44414f3a3a5f657865637574655472616e73616374696f6e3a205472616e736160448201527f6374696f6e206861736e2774206265656e207175657565642e000000000000006064820152608401610659565b81431015801561395b575060015461395790600160801b900463ffffffff1683614932565b4311155b6139cd5760405162461bcd60e51b815260206004820152603e60248201527f44414f3a3a5f657865637574655472616e73616374696f6e3a205472616e736160448201527f6374696f6e2063616e206e6f74206265206578656375746564206e6f772e00006064820152608401610659565b6000818152600c60205260409020805460ff1916905583516060906139f3575082613a1f565b848051906020012084604051602001613a0d92919061457a565b60405160208183030381529060405290505b600080886001600160a01b03168884604051613a3b91906145ab565b60006040518083038185875af1925050503d8060008114613a78576040519150601f19603f3d011682016040523d82523d6000602084013e613a7d565b606091505b509150915081613af55760405162461bcd60e51b815260206004820152603d60248201527f54696d656c6f636b3a3a657865637574655472616e73616374696f6e3a20547260448201527f616e73616374696f6e20657865637574696f6e2072657665727465642e0000006064820152608401610659565b505050505050505050565b600083838111613b1757613b148382614932565b90505b8280613b3357634e487b7160e01b600052601260045260246000fd5b6000613b3f86846149c3565b0895945050505050565b6000613b7c82613b686002600080516020614b048339815191526149c3565b600080516020614b04833981519152613b82565b92915050565b600060405160208152602080820152602060408201528460608201528360808201528260a082015260208160c08360055afa80801561014b57505051949350505050565b828054828255906000526020600020908101928215613c06579160200282015b82811115613c06578251829060ff16905591602001919060010190613be6565b50613c12929150613c51565b5090565b828054828255906000526020600020908101928215613c06579160200282015b82811115613c06578235825591602001919060010190613c36565b5b80821115613c125760008155600101613c52565b8051613c7181614ade565b919050565b600082601f830112613c86578081fd5b81516020613c9b613c96836148cb565b61489b565b82815281810190858301600585811b88018501891015613cb9578687fd5b865b86811015613d515782516001600160401b03811115613cd8578889fd5b8901603f81018b13613ce8578889fd5b868101516040613cfa613c96836148cb565b808382528a820191508285018f84868a1b8801011115613d18578d8efd5b8d95505b84861015613d3a578051835260019590950194918b01918b01613d1c565b508952505050948601945091850191600101613cbb565b509198975050505050505050565b60008083601f840112613d70578182fd5b5081356001600160401b03811115613d86578182fd5b6020830191508360208260051b85010111156111d157600080fd5b600082601f830112613db1578081fd5b81516020613dc1613c96836148cb565b80838252828201915082860187848660051b8901011115613de0578586fd5b855b85811015613e655781516001600160401b0380821115613e00578889fd5b908901906040828c03601f1901811315613e1857898afd5b613e20614850565b613e2b898501613e91565b8152908301519082821115613e3e578a8bfd5b613e4c8d8a84870101613c76565b818a015287525050509284019290840190600101613de2565b5090979650505050505050565b80518015158114613c7157600080fd5b805160038110613c7157600080fd5b805160ff81168114613c7157600080fd5b600080600060408486031215613eb6578283fd5b83356001600160401b03811115613ecb578384fd5b613ed786828701613d5f565b909790965060209590950135949350505050565b600060408284031215613efc578081fd5b82601f830112613f0a578081fd5b604051604081018181106001600160401b0382111715613f2c57613f2c614ac8565b8060405250808385604086011115613f42578384fd5b835b6002811015613f63578135835260209283019290910190600101613f44565b509195945050505050565b6000610100808385031215613f81578182fd5b83601f840112613f8f578182fd5b6040518181018181106001600160401b0382111715613fb057613fb0614ac8565b6040528084838101871015613fc3578485fd5b8493505b6008841015613fe757803582526001939093019260209182019101613fc7565b509095945050505050565b600060208284031215614003578081fd5b61400c82613e72565b9392505050565b600060208284031215614024578081fd5b5035919050565b60008060006040848603121561403f578081fd5b8335925060208401356001600160401b0381111561405b578182fd5b61406786828701613d5f565b9497909650939450505050565b60008060208385031215614086578182fd5b82356001600160401b038082111561409c578384fd5b818501915085601f8301126140af578384fd5b8135818111156140bd578485fd5b8660208285010111156140ce578485fd5b60209290920196919550909350505050565b6000602082840312156140f1578081fd5b815161400c81614ade565b60006020828403121561410d578081fd5b815161400c81614af6565b600060208284031215614129578081fd5b81516002811061400c578182fd5b600060208284031215614148578081fd5b61400c82613e82565b600060208284031215614162578081fd5b81516001600160401b0380821115614178578283fd5b90830190610140828603121561418c578283fd5b614194614878565b825181526020830151828111156141a9578485fd5b6141b587828601613c76565b6020830152506040830151828111156141cc578485fd5b6141d887828601613c76565b6040830152506141ea60608401613e82565b6060820152608083015182811115614200578485fd5b61420c87828601613da1565b60808301525061421e60a08401613e91565b60a082015261422f60c08401613e72565b60c082015261424060e08401613c66565b60e08201526101009150614255828401613c66565b828201526101209150614269828401613c66565b91810191909152949350505050565b600060208284031215614289578081fd5b5051919050565b6000806000606084860312156142a4578081fd5b8335925060208401356142b681614ade565b929592945050506040919091013590565b600080604083850312156142d9578182fd5b8235915060208301356142eb81614af6565b809150509250929050565b60008060408385031215614308578182fd5b8235915060208301356001600160401b03811115614324578182fd5b830160a081860312156142eb578182fd5b60008060408385031215614347578182fd5b50508035926020909101359150565b60008060408385031215614368578182fd5b505080516020909101519092909150565b60006020828403121561438a578081fd5b61400c82613e91565b600081548084526020808501808196508360051b81019150858552828520855b8581101561440357828403895281548085528288528588208686019190895b828110156143ee578154845292880192600191820191016143d2565b505050988501989350600191820191016143b3565b5091979650505050505050565b81835260006020808501808196508560051b8101915084845b878110156144035782840389528135607e19883603018112614449578687fd5b87016080813561445881614ade565b6001600160a01b0316865281870135878701526040614479818401846148ee565b83838a015261448b848a018284614525565b9350505050606061449e818401846148ee565b9350878303828901526144b2838583614525565b9c89019c97505050928601925050600101614429565b8060005b60028110156110be5781518452602093840193909101906001016144cc565b6000815180845260208085019450808401835b8381101561451a578151875295820195908201906001016144fe565b509495945050505050565b81835281816020850137506000828201602090810191909152601f909101601f19169091010190565b600081518084526145668160208601602086016149da565b601f01601f19169290920160200192915050565b6001600160e01b031983168152815160009061459d8160048501602087016149da565b919091016004019392505050565b600082516145bd8184602087016149da565b9190910192915050565b8281526000600483106145dc576145dc614ab2565b5060f89190911b6020820152602101919050565b60018060a01b0385168152836020820152608060408201526000614617608083018561454e565b8281036060840152614629818561454e565b979650505050505050565b60018060a01b038616815284602082015260a06040820152600061465b60a083018661454e565b828103606084015261466d818661454e565b9150508260808301529695505050505050565b604081526000614694604083018587614410565b9050826020830152949350505050565b60006101206146b383886144c8565b604080840187845b60028110156146e2576146cf8383516144c8565b91830191602091909101906001016146bb565b505050506146f360c08401866144c8565b80610100840152614629818401856144eb565b60208152600061400c60208301846144eb565b8215158152604060208201526000612f6f604083018461454e565b8481528360208201526080604082015260006147536080830185614393565b82810360608401526146298185614393565b602081016009831061477957614779614ab2565b91905290565b8581526001600160a01b03851660208201526080604082018190526000906147aa9083018587614410565b90506001600160401b03831660608301529695505050505050565b6000808335601e198436030181126147db578283fd5b8301803591506001600160401b038211156147f4578283fd5b6020019150600581901b36038213156111d157600080fd5b6000808335601e19843603018112614822578283fd5b8301803591506001600160401b0382111561483b578283fd5b6020019150368190038213156111d157600080fd5b604080519081016001600160401b038111828210171561487257614872614ac8565b60405290565b60405161014081016001600160401b038111828210171561487257614872614ac8565b604051601f8201601f191681016001600160401b03811182821017156148c3576148c3614ac8565b604052919050565b60006001600160401b038211156148e4576148e4614ac8565b5060051b60200190565b6000808335601e19843603018112614904578283fd5b83016020810192503590506001600160401b0381111561492357600080fd5b8036038313156111d157600080fd5b6000821982111561494557614945614a9c565b500190565b60006001600160401b0380831681851680830382111561496c5761496c614a9c565b01949350505050565b600060ff821660ff84168060ff0382111561499257614992614a9c565b019392505050565b600060ff821660ff84168160ff04811182151516156149bb576149bb614a9c565b029392505050565b6000828210156149d5576149d5614a9c565b500390565b60005b838110156149f55781810151838201526020016149dd565b838111156110be5750506000910152565b600181811c90821680614a1a57607f821691505b60208210811415614a3b57634e487b7160e01b600052602260045260246000fd5b50919050565b6000600019821415614a5557614a55614a9c565b5060010190565b600060ff821660ff811415614a7357614a73614a9c565b60010192915050565b600082614a9757634e487b7160e01b81526012600452602481fd5b500690565b634e487b7160e01b600052601160045260246000fd5b634e487b7160e01b600052602160045260246000fd5b634e487b7160e01b600052604160045260246000fd5b6001600160a01b0381168114614af357600080fd5b50565b60048110614af357600080fdfe30644e72e131a029b85045b68181585d2833e84879b9709143e1f593f0000001a2646970667358221220df0f77916484aa0d7a4d5fa45c2c0060ef44de17bc82c3cfb03d30ee7761638764736f6c63430008040033",
    "linkReferences": {},
    "deployedLinkReferences": {}
}