{
    "_format": "hh-sol-artifact-1",
    "contractName": "DAOManager",
    "sourceName": "contracts/DAOManager.sol",
    "abi": [
        {
            "inputs": [
                {
                    "internalType": "uint256",
                    "name": "_requiredDeposit",
                    "type": "uint256"
                }
            ],
            "stateMutability": "nonpayable",
            "type": "constructor"
        },
        {
            "anonymous": false,
            "inputs": [
                {
                    "indexed": false,
                    "internalType": "uint256",
                    "name": "daoID",
                    "type": "uint256"
                },
                {
                    "indexed": true,
                    "internalType": "address",
                    "name": "daoAddr",
                    "type": "address"
                },
                {
                    "indexed": false,
                    "internalType": "address",
                    "name": "creator",
                    "type": "address"
                },
                {
                    "indexed": true,
                    "internalType": "bytes32",
                    "name": "descriptionHash",
                    "type": "bytes32"
                }
            ],
            "name": "DAOCreated",
            "type": "event"
        },
        {
            "inputs": [],
            "name": "applyForFunding",
            "outputs": [],
            "stateMutability": "nonpayable",
            "type": "function"
        },
        {
            "inputs": [
                {
                    "internalType": "address",
                    "name": "_dao",
                    "type": "address"
                }
            ],
            "name": "applyForFundingDev",
            "outputs": [],
            "stateMutability": "nonpayable",
            "type": "function"
        },
        {
            "inputs": [
                {
                    "internalType": "uint256",
                    "name": "_expectedID",
                    "type": "uint256"
                },
                {
                    "components": [
                        {
                            "internalType": "uint32",
                            "name": "pendingPeriod",
                            "type": "uint32"
                        },
                        {
                            "internalType": "uint32",
                            "name": "votingPeriod",
                            "type": "uint32"
                        },
                        {
                            "internalType": "uint32",
                            "name": "tallyingPeriod",
                            "type": "uint32"
                        },
                        {
                            "internalType": "uint32",
                            "name": "timelockPeriod",
                            "type": "uint32"
                        },
                        {
                            "internalType": "uint32",
                            "name": "queuingPeriod",
                            "type": "uint32"
                        }
                    ],
                    "internalType": "struct IDAO.Config",
                    "name": "_config",
                    "type": "tuple"
                },
                {
                    "internalType": "bytes32",
                    "name": "_descriptionHash",
                    "type": "bytes32"
                }
            ],
            "name": "createDAO",
            "outputs": [
                {
                    "internalType": "uint256",
                    "name": "daoIndex",
                    "type": "uint256"
                }
            ],
            "stateMutability": "payable",
            "type": "function"
        },
        {
            "inputs": [],
            "name": "daoCounter",
            "outputs": [
                {
                    "internalType": "uint256",
                    "name": "",
                    "type": "uint256"
                }
            ],
            "stateMutability": "view",
            "type": "function"
        },
        {
            "inputs": [
                {
                    "internalType": "uint256",
                    "name": "",
                    "type": "uint256"
                }
            ],
            "name": "daos",
            "outputs": [
                {
                    "internalType": "address",
                    "name": "",
                    "type": "address"
                }
            ],
            "stateMutability": "view",
            "type": "function"
        },
        {
            "inputs": [
                {
                    "internalType": "address",
                    "name": "",
                    "type": "address"
                }
            ],
            "name": "deposits",
            "outputs": [
                {
                    "internalType": "uint256",
                    "name": "",
                    "type": "uint256"
                }
            ],
            "stateMutability": "view",
            "type": "function"
        },
        {
            "inputs": [],
            "name": "distributedKeyID",
            "outputs": [
                {
                    "internalType": "uint256",
                    "name": "",
                    "type": "uint256"
                }
            ],
            "stateMutability": "view",
            "type": "function"
        },
        {
            "inputs": [],
            "name": "dkg",
            "outputs": [
                {
                    "internalType": "contract IDKG",
                    "name": "",
                    "type": "address"
                }
            ],
            "stateMutability": "view",
            "type": "function"
        },
        {
            "inputs": [],
            "name": "fundManager",
            "outputs": [
                {
                    "internalType": "contract IFundManager",
                    "name": "",
                    "type": "address"
                }
            ],
            "stateMutability": "view",
            "type": "function"
        },
        {
            "inputs": [
                {
                    "internalType": "address",
                    "name": "_admin",
                    "type": "address"
                }
            ],
            "name": "setAdmin",
            "outputs": [],
            "stateMutability": "nonpayable",
            "type": "function"
        },
        {
            "inputs": [
                {
                    "internalType": "address",
                    "name": "_dkg",
                    "type": "address"
                }
            ],
            "name": "setDKG",
            "outputs": [],
            "stateMutability": "nonpayable",
            "type": "function"
        },
        {
            "inputs": [
                {
                    "internalType": "uint256",
                    "name": "_distributedKeyID",
                    "type": "uint256"
                }
            ],
            "name": "setDistributedKeyID",
            "outputs": [],
            "stateMutability": "nonpayable",
            "type": "function"
        },
        {
            "inputs": [
                {
                    "internalType": "address",
                    "name": "_fundManager",
                    "type": "address"
                }
            ],
            "name": "setFundManager",
            "outputs": [],
            "stateMutability": "nonpayable",
            "type": "function"
        }
    ],
    "bytecode": "0x608060405234801561001057600080fd5b5060405161560738038061560783398101604081905261002f91610049565b600380546001600160a01b03191633179055600255610061565b60006020828403121561005a578081fd5b5051919050565b615597806100706000396000f3fe608060405260043610620000d25760003560e01c80637b7432c31162000089578063ea358f2c1162000060578063ea358f2c1462000253578063f80efd28146200026b578063fc7e286d1462000283578063fd8791df14620002b457600080fd5b80637b7432c314620001d2578063ccbbd26014620001f4578063e5611e66146200022e57600080fd5b806309647bf714620000d7578063232a306014620000fe5780635e8afbd714620001235780636209ec2d14620001485780636878e74b1462000187578063704b6c0214620001ad575b600080fd5b348015620000e457600080fd5b50620000fc620000f63660046200083c565b620002cc565b005b3480156200010b57600080fd5b50620000fc6200011d3660046200080c565b62000307565b3480156200013057600080fd5b50620000fc620001423660046200080c565b62000356565b3480156200015557600080fd5b506000546200016a906001600160a01b031681565b6040516001600160a01b0390911681526020015b60405180910390f35b6200019e6200019836600462000855565b62000364565b6040519081526020016200017e565b348015620001ba57600080fd5b50620000fc620001cc3660046200080c565b620005df565b348015620001df57600080fd5b506001546200016a906001600160a01b031681565b3480156200020157600080fd5b506200016a620002133660046200083c565b6006602052600090815260409020546001600160a01b031681565b3480156200023b57600080fd5b50620000fc6200024d3660046200080c565b6200062e565b3480156200026057600080fd5b506200019e60055481565b3480156200027857600080fd5b506200019e60045481565b3480156200029057600080fd5b506200019e620002a23660046200080c565b60076020526000908152604090205481565b348015620002c157600080fd5b50620000fc6200067d565b6003546001600160a01b03163314620003025760405162461bcd60e51b8152600401620002f99062000896565b60405180910390fd5b600555565b6003546001600160a01b03163314620003345760405162461bcd60e51b8152600401620002f99062000896565b600080546001600160a01b0319166001600160a01b0392909216919091179055565b620003618162000780565b50565b60006004548414620003df5760405162461bcd60e51b815260206004820152603860248201527f44414f4d616e616765723a3a63726561746544414f3a2075706461746520657860448201527f706563746564494420746f206c61746573742076616c756500000000000000006064820152608401620002f9565b600254341015620004595760405162461bcd60e51b815260206004820152603960248201527f44414f4d616e616765723a3a63726561746544414f3a206e6f7420656e6f756760448201527f68206465706f73697420746f2063726561746520612044414f000000000000006064820152608401620002f9565b6004546000908152600660205260409020546001600160a01b031615620004ce5760405162461bcd60e51b815260206004820152602260248201527f44414f4d616e616765723a3a63726561746544414f3a2044414f206578697374604482015261195960f21b6064820152608401620002f9565b6000805460015460055460405187936001600160a01b03908116931691908790620004f990620007e4565b62000509959493929190620008e6565b604051809103906000f08015801562000526573d6000803e3d6000fd5b5060048054600081815260066020526040812080546001600160a01b0319166001600160a01b03861617905582549195509293509091906200056890620009a5565b909155506001600160a01b0381166000908152600760205260409020349055620005928162000780565b6040805183815233602082015284916001600160a01b038416917f4dad5a8bd398f3fedacffabce7d350215d09253a8df80f630e60558197aa6681910160405180910390a3509392505050565b6003546001600160a01b031633146200060c5760405162461bcd60e51b8152600401620002f99062000896565b600380546001600160a01b0319166001600160a01b0392909216919091179055565b6003546001600160a01b031633146200065b5760405162461bcd60e51b8152600401620002f99062000896565b600180546001600160a01b0319166001600160a01b0392909216919091179055565b6002543360009081526007602052604090205410156200071f5760405162461bcd60e51b815260206004820152605060248201527f44414f4d616e616765723a3a6170706c79466f7246756e64696e673a206e6f7460448201527f20656e6f756768206465706f73697420746f206170706c7920666f72206e657860648201526f742066756e64696e6720726f756e647360801b608482015260a401620002f9565b60005460405163636cd58d60e11b81523360048201526001600160a01b039091169063c6d9ab1a90602401600060405180830381600087803b1580156200076557600080fd5b505af11580156200077a573d6000803e3d6000fd5b50505050565b60005460405163636cd58d60e11b81526001600160a01b0383811660048301529091169063c6d9ab1a90602401600060405180830381600087803b158015620007c857600080fd5b505af1158015620007dd573d6000803e3d6000fd5b5050505050565b614b9480620009ce83390190565b803563ffffffff811681146200080757600080fd5b919050565b6000602082840312156200081e578081fd5b81356001600160a01b038116811462000835578182fd5b9392505050565b6000602082840312156200084e578081fd5b5035919050565b600080600083850360e08112156200086b578283fd5b8435935060a0601f198201121562000881578283fd5b5060208401915060c084013590509250925092565b60208082526030908201527f44414f4d616e616765723a3a6f6e6c7941646d696e3a2063616c6c206d75737460408201526f1031b7b6b290333937b69030b236b4b760811b606082015260800190565b6101208101863563ffffffff8082168083146200090257600080fd5b84526020890135915080821682146200091a57600080fd5b5063ffffffff1660208301526200093460408801620007f2565b63ffffffff1660408301526200094d60608801620007f2565b63ffffffff1660608301526200096660808801620007f2565b63ffffffff81166080840152506001600160a01b03861660a08301526001600160a01b03851660c083015260e082019390935261010001529392505050565b6000600019821415620009c657634e487b7160e01b81526011600452602481fd5b506001019056fe60806040523480156200001157600080fd5b5060405162004b9438038062004b94833981016040819052620000349162000143565b8451600180546020880151604089015160608a01516080909a015163ffffffff908116600160801b0263ffffffff60801b199b82166c010000000000000000000000000263ffffffff60601b19938316680100000000000000000293909316600160401b600160801b0319948316640100000000026001600160401b03199096169290971691909117939093179190911693909317929092179690961617909455600280546001600160a01b039485166001600160a01b031991821617909155600380549390941692169190911790915560055560005562000231565b80516001600160a01b03811681146200012957600080fd5b919050565b805163ffffffff811681146200012957600080fd5b60008060008060008587036101208112156200015d578182fd5b60a08112156200016b578182fd5b5060405160a081016001600160401b03811182821017156200019b57634e487b7160e01b83526041600452602483fd5b604052620001a9876200012e565b8152620001b9602088016200012e565b6020820152620001cc604088016200012e565b6040820152620001df606088016200012e565b6060820152620001f2608088016200012e565b608082015294506200020760a0870162000111565b93506200021760c0870162000111565b60e087015161010090970151959894975095949392505050565b61495380620002416000396000f3fe6080604052600436106101395760003560e01c80639d866985116100ab578063c58264b31161006f578063c58264b3146104d9578063ddf0b009146104f9578063e6f859e714610519578063ed8b6b3114610546578063fe0d94c114610566578063ffef6fbb1461057957600080fd5b80639d866985146103f6578063a007b1971461043f578063aa90064e1461046c578063add4c7841461048c578063b0536532146104b957600080fd5b806340e58ee5116100fd57806340e58ee5146102d35780634585e33b146102f35780636e04ff0d1461031357806379502c551461034157806385dcee93146103c05780639c885f58146103d657600080fd5b8063013cf08b1461014557806305261aea1461023357806308388954146102555780630c0512e9146102905780633e4f49e6146102a657600080fd5b3661014057005b600080fd5b34801561015157600080fd5b506101ce610160366004613e74565b6007602052600090815260409020805460018201546002830154600384015460048501546005860154600690960154949593949293919290916001600160a01b038116916001600160401b03600160a01b8304169160ff600160e01b8204811692600160e81b90920416908a565b604080519a8b5260208b019990995297890196909652606088019490945260808701929092526001600160a01b031660a08601526001600160401b031660c0850152151560e08401521515610100830152610120820152610140015b60405180910390f35b34801561023f57600080fd5b5061025361024e366004613e74565b610599565b005b34801561026157600080fd5b50610282610270366004613e74565b60009081526008602052604090205490565b60405190815260200161022a565b34801561029c57600080fd5b5061028260045481565b3480156102b257600080fd5b506102c66102c1366004613e74565b6107a8565b60405161022a919061455f565b3480156102df57600080fd5b506102536102ee366004613e74565b610c15565b3480156102ff57600080fd5b5061025361030e366004613ed5565b610fa6565b34801561031f57600080fd5b5061033361032e366004613ed5565b611089565b60405161022a929190614513565b34801561034d57600080fd5b506001546103899063ffffffff808216916401000000008104821691600160401b8204811691600160601b8104821691600160801b9091041685565b6040805163ffffffff968716815294861660208601529285169284019290925283166060830152909116608082015260a00161022a565b3480156103cc57600080fd5b5061028260005481565b3480156103e257600080fd5b506102536103f1366004614157565b61119d565b34801561040257600080fd5b5061042a610411366004613e74565b6008602052600090815260409020805460049091015482565b6040805192835260208301919091520161022a565b34801561044b57600080fd5b5061028261045a366004613e74565b60066020526000908152604090205481565b34801561047857600080fd5b50610282610487366004613d03565b611fdc565b34801561049857600080fd5b506104ac6104a7366004613e74565b612468565b60405161022a9190614500565b3480156104c557600080fd5b506102826104d43660046140f1565b6124cd565b3480156104e557600080fd5b506102536104f4366004613e8c565b612516565b34801561050557600080fd5b50610253610514366004613e74565b612620565b34801561052557600080fd5b50610282610534366004613e74565b600a6020526000908152604090205481565b34801561055257600080fd5b50610253610561366004613e74565b61293d565b610253610574366004613e74565b612a89565b34801561058557600080fd5b50610282610594366004613d03565b612d87565b60026105a4826107a8565b60088111156105c357634e487b7160e01b600052602160045260246000fd5b146106275760405162461bcd60e51b815260206004820152602960248201527f44414f3a3a66696e616c697a653a206e6f7420696e207468652074616c6c79696044820152681b99c81c195c9a5bd960ba1b60648201526084015b60405180910390fd5b600081815260076020908152604080832080548452600890925290912060048101546106af5760405162461bcd60e51b815260206004820152603160248201527f44414f3a3a66696e616c697a653a20444b47207265717565737420686173206e6044820152701bdd081899595b881c995cdc1bdb991959607a1b606482015260840161061e565b6000600382016001815481106106d557634e487b7160e01b600052603260045260246000fd5b6000918252602082200154915060038301818154811061070557634e487b7160e01b600052603260045260246000fd5b600091825260208220015491506003840160028154811061073657634e487b7160e01b600052603260045260246000fd5b600091825260209182902001546002870185905560038701849055600487018190556040805189815292830186905282018490526060820181905291507f904f64d3d2c164a2f1e396101e5f5f82129a43c7c1563aa64c5cbcc22ec6b3029060800160405180910390a1505050505050565b6000818152600760209081526040808320815161014081018352815480825260018084015483870152600284015483860152600384015460608401526004840154608084015260058401546001600160a01b03811660a0808601919091526001600160401b03600160a01b83041660c086015260ff600160e01b83048116151560e0870152600160e81b90920490911615156101008501526006909401546101208401529086526008855283862084519384018552805484529081018054855181880281018801909652808652929587959293858201939291879084015b828210156108f2576000848152602090819020830180546040805182850281018501909152818152928301828280156108de57602002820191906000526020600020905b8154815260200190600101908083116108ca575b505050505081526020019060010190610886565b50505050815260200160028201805480602002602001604051908101604052809291908181526020016000905b8282101561098b5760008481526020908190208301805460408051828502810185019091528181529283018282801561097757602002820191906000526020600020905b815481526020019060010190808311610963575b50505050508152602001906001019061091f565b505050508152602001600382018054806020026020016040519081016040528092919081815260200182805480156109e257602002820191906000526020600020905b8154815260200190600101908083116109ce575b50505050508152602001600482015481525050905060008260c001516001600160401b031611610a5e5760405162461bcd60e51b815260206004820152602160248201527f44414f3a3a73746174653a2070726f706f73616c206e6f7420657869737465646044820152601760f91b606482015260840161061e565b8160e0015115610a72575060039392505050565b8160c001516001600160401b03164311610a90575060009392505050565b60015460c0830151610ab091640100000000900463ffffffff1690614744565b6001600160401b03164311610ac9575060019392505050565b60015460c083015163ffffffff600160401b8304811692610af69264010000000090910490911690614744565b610b009190614744565b6001600160401b03164311610b19575060029392505050565b816080015182606001518360400151610b32919061472c565b610b3c919061472c565b1580610b8a575060015460c083015163ffffffff600160401b8304811692610b709264010000000090910490911690614744565b610b7a9190614744565b6001600160401b03168160800151115b15610b99575060079392505050565b8160600151826040015111610bb2575060049392505050565b610120820151610bc6575060059392505050565b81610100015115610bdb575060089392505050565b600154610120830151610bfb91600160801b900463ffffffff169061472c565b4310610c0b575060079392505050565b5060069392505050565b6008610c20826107a8565b6008811115610c3f57634e487b7160e01b600052602160045260246000fd5b1415610ca25760405162461bcd60e51b815260206004820152602c60248201527f44414f3a3a63616e63656c3a2043616e6e6f742063616e63656c20657865637560448201526b1d1959081c1c9bdc1bdcd85b60a21b606482015260840161061e565b6003610cad826107a8565b6008811115610ccc57634e487b7160e01b600052602160045260246000fd5b1415610d2f5760405162461bcd60e51b815260206004820152602c60248201527f44414f3a3a63616e63656c3a2043616e6e6f742063616e63656c2063616e636560448201526b1b1959081c1c9bdc1bdcd85b60a21b606482015260840161061e565b600081815260076020908152604080832060058101805460ff60e01b1916600160e01b1790556009909252822090915b8154811015610f6c57610f5a828281548110610d8b57634e487b7160e01b600052603260045260246000fd5b600091825260209091206004909102015483546001600160a01b0390911690849084908110610dca57634e487b7160e01b600052603260045260246000fd5b906000526020600020906004020160010154848481548110610dfc57634e487b7160e01b600052603260045260246000fd5b90600052602060002090600402016002018054610e1890614800565b80601f0160208091040260200160405190810160405280929190818152602001828054610e4490614800565b8015610e915780601f10610e6657610100808354040283529160200191610e91565b820191906000526020600020905b815481529060010190602001808311610e7457829003601f168201915b5050505050858581548110610eb657634e487b7160e01b600052603260045260246000fd5b90600052602060002090600402016003018054610ed290614800565b80601f0160208091040260200160405190810160405280929190818152602001828054610efe90614800565b8015610f4b5780601f10610f2057610100808354040283529160200191610f4b565b820191906000526020600020905b815481529060010190602001808311610f2e57829003601f168201915b50505050508760060154612dd8565b80610f648161483b565b915050610d5f565b506040518381527f789cf55be980739dad1d0699b93b58e806b51c9d96619bfa8fe0a28abaa7b30c906020015b60405180910390a1505050565b600080610fb583850185614128565b90925090506000816003811115610fdc57634e487b7160e01b600052602160045260246000fd5b1415610ff057610feb8261293d565b611083565b600181600381111561101257634e487b7160e01b600052602160045260246000fd5b141561102157610feb82610599565b600281600381111561104357634e487b7160e01b600052602160045260246000fd5b141561105257610feb82612620565b600381600381111561107457634e487b7160e01b600052602160045260246000fd5b14156110835761108382612a89565b50505050565b600060608161109a84860186613d4c565b60045460208201519192501115806110b6575060208101518151115b806110c45750600454815110155b156111115760405162461bcd60e51b815260206004820181905260248201527f44414f3a3a636865636b55706b6565703a20496e76616c69642072616e676521604482015260640161061e565b80515b6020820151811161119357600454811061112d57611181565b6000818152600660205260408120549061114682612e27565b9096509050851561117e5781816040516020016111649291906143fa565b604051602081830303815290604052945050505050611196565b50505b8061118b8161483b565b915050611114565b50505b9250929050565b600082815260076020526040902060016111b6846107a8565b60088111156111d557634e487b7160e01b600052602160045260246000fd5b1461123e5760405162461bcd60e51b815260206004820152603360248201527f44414f3a3a43617374566f74653a2050726f706f73616c206973206e6f7420696044820152721b881d1a19481d9bdd1a5b99c81c195c9a5bd9606a1b606482015260840161061e565b6000838152600b6020908152604080832085830135845290915290205460ff16156112bf5760405162461bcd60e51b815260206004820152602b60248201527f44414f3a3a43617374566f74653a20446f75626c6520766f74696e672069732060448201526a1b9bdd08185b1b1bddd95960aa1b606482015260840161061e565b60025460405163a6232a9360e01b8152833560048201526001600160a01b039091169063a6232a939060240160206040518083038186803b15801561130357600080fd5b505afa158015611317573d6000803e3d6000fd5b505050506040513d601f19601f8201168201806040525081019061133b9190613e53565b6113875760405162461bcd60e51b815260206004820152601e60248201527f44414f3a3a43617374566f74653a20526f6f7420697320696e76616c69640000604482015260640161061e565b6000838152600b602090815260408083208583013584528252808320805460ff19166001179055835483526008909152808220600354815492516354a0585760e01b81529193926001600160a01b03909116916354a05857916113f09160040190815260200190565b60206040518083038186803b15801561140857600080fd5b505afa15801561141c573d6000803e3d6000fd5b505050506040513d601f19601f8201168201806040525081019061144091906141b9565b905060ff811661145360408601866145bf565b9050148015611472575060ff811661146e60608601866145bf565b9050145b6114c85760405162461bcd60e51b815260206004820152602160248201527f46756e644d616e616765723a20696e76616c696420696e707574206c656e67746044820152600d60fb1b606482015260840161061e565b6003548254604051633561bc2760e01b815260048101919091526000916001600160a01b031690633561bc279060240160206040518083038186803b15801561151057600080fd5b505afa158015611524573d6000803e3d6000fd5b505050506040513d601f19601f820116820180604052508101906115489190613f41565b90506000816001600160a01b0316639447d8936040518163ffffffff1660e01b815260040160206040518083038186803b15801561158557600080fd5b505afa158015611599573d6000803e3d6000fd5b505050506040513d601f19601f820116820180604052508101906115bd91906140d9565b6001600160401b038111156115e257634e487b7160e01b600052604160045260246000fd5b60405190808252806020026020018201604052801561160b578160200160208202803683370190505b50905085600001358160008151811061163457634e487b7160e01b600052603260045260246000fd5b602002602001018181525050306001600160a01b03168160018151811061166b57634e487b7160e01b600052603260045260246000fd5b602002602001018181525050868160028151811061169957634e487b7160e01b600052603260045260246000fd5b60209081029190910101526003548454604051633ae960e760e11b81526001600160a01b03909216916375d2c1ce916116d89160040190815260200190565b604080518083038186803b1580156116ef57600080fd5b505afa158015611703573d6000803e3d6000fd5b505050506040513d601f19601f820116820180604052508101906117279190614196565b8260038151811061174857634e487b7160e01b600052603260045260246000fd5b602002602001018360048151811061177057634e487b7160e01b600052603260045260246000fd5b60200260200101828152508281525050508560200135816005815181106117a757634e487b7160e01b600052603260045260246000fd5b60200260200101818152505060005b8360ff168160ff161015611ac2576117d160408801886145bf565b8260ff168181106117f257634e487b7160e01b600052603260045260246000fd5b905060200281019061180491906145bf565b600081811061182357634e487b7160e01b600052603260045260246000fd5b90506020020135828260026118389190614794565b61184390600661476f565b60ff168151811061186457634e487b7160e01b600052603260045260246000fd5b602090810291909101015261187c60408801886145bf565b8260ff1681811061189d57634e487b7160e01b600052603260045260246000fd5b90506020028101906118af91906145bf565b60018181106118ce57634e487b7160e01b600052603260045260246000fd5b90506020020135828260026118e39190614794565b6118ee90600661476f565b6118f990600161476f565b60ff168151811061191a57634e487b7160e01b600052603260045260246000fd5b602090810291909101015261193260608801886145bf565b8260ff1681811061195357634e487b7160e01b600052603260045260246000fd5b905060200281019061196591906145bf565b600081811061198457634e487b7160e01b600052603260045260246000fd5b90506020020135828260026119999190614794565b6119a4876002614794565b6119af90600661476f565b6119b9919061476f565b60ff16815181106119da57634e487b7160e01b600052603260045260246000fd5b60209081029190910101526119f260608801886145bf565b8260ff16818110611a1357634e487b7160e01b600052603260045260246000fd5b9050602002810190611a2591906145bf565b6001818110611a4457634e487b7160e01b600052603260045260246000fd5b9050602002013582826002611a599190614794565b611a64876002614794565b611a6f90600661476f565b611a79919061476f565b611a8490600161476f565b60ff1681518110611aa557634e487b7160e01b600052603260045260246000fd5b602090810291909101015280611aba81614856565b9150506117b6565b50611ada82611ad46080890189614606565b84613119565b611b315760405162461bcd60e51b815260206004820152602260248201527f44414f3a3a43617374566f74653a205a4b2050726f6f6620697320696e76616c6044820152611a5960f21b606482015260840161061e565b60005b8360ff168160ff161015611f9657611cd0856001018260ff1681548110611b6b57634e487b7160e01b600052603260045260246000fd5b90600052602060002001600081548110611b9557634e487b7160e01b600052603260045260246000fd5b9060005260206000200154866001018360ff1681548110611bc657634e487b7160e01b600052603260045260246000fd5b90600052602060002001600181548110611bf057634e487b7160e01b600052603260045260246000fd5b600091825260209091200154611c0960408b018b6145bf565b8560ff16818110611c2a57634e487b7160e01b600052603260045260246000fd5b9050602002810190611c3c91906145bf565b6000818110611c5b57634e487b7160e01b600052603260045260246000fd5b905060200201358a8060400190611c7291906145bf565b8660ff16818110611c9357634e487b7160e01b600052603260045260246000fd5b9050602002810190611ca591906145bf565b6001818110611cc457634e487b7160e01b600052603260045260246000fd5b9050602002013561341e565b866001018360ff1681548110611cf657634e487b7160e01b600052603260045260246000fd5b90600052602060002001600081548110611d2057634e487b7160e01b600052603260045260246000fd5b906000526020600020016000886001018560ff1681548110611d5257634e487b7160e01b600052603260045260246000fd5b90600052602060002001600181548110611d7c57634e487b7160e01b600052603260045260246000fd5b906000526020600020016000849190505583919050555050611ec4856002018260ff1681548110611dbd57634e487b7160e01b600052603260045260246000fd5b90600052602060002001600081548110611de757634e487b7160e01b600052603260045260246000fd5b9060005260206000200154866002018360ff1681548110611e1857634e487b7160e01b600052603260045260246000fd5b90600052602060002001600181548110611e4257634e487b7160e01b600052603260045260246000fd5b600091825260209091200154611e5b60608b018b6145bf565b8560ff16818110611e7c57634e487b7160e01b600052603260045260246000fd5b9050602002810190611e8e91906145bf565b6000818110611ead57634e487b7160e01b600052603260045260246000fd5b905060200201358a8060600190611c7291906145bf565b866002018360ff1681548110611eea57634e487b7160e01b600052603260045260246000fd5b90600052602060002001600081548110611f1457634e487b7160e01b600052603260045260246000fd5b906000526020600020016000886002018560ff1681548110611f4657634e487b7160e01b600052603260045260246000fd5b90600052602060002001600181548110611f7057634e487b7160e01b600052603260045260246000fd5b600091825260209091200192909255919091555080611f8e81614856565b915050611b34565b5060408051888152602080890135908201527fc31875ef3ed5138b71a0c1da7e494bc4d2ba4f567084ea481ec9c45f3a93948b910160405180910390a150505050505050565b600080611fea858585612d87565b600454600090815260066020908152604080832084905583835260079091529020600581015491925090600160a01b90046001600160401b0316156120805760405162461bcd60e51b815260206004820152602660248201527f44414f3a3a70726f706f73653a2070726f706f73616c20616c726561647920656044820152651e1a5cdd195960d21b606482015260840161061e565b600354600554604051631dcb457360e11b815260048101919091526002916001600160a01b031690633b968ae69060240160206040518083038186803b1580156120c957600080fd5b505afa1580156120dd573d6000803e3d6000fd5b505050506040513d601f19601f820116820180604052508101906121019190613f5d565b600381111561212057634e487b7160e01b600052602160045260246000fd5b1480156121ca5750600354600554604051630806d56f60e31b815260048101919091526001916001600160a01b031690634036ab789060240160206040518083038186803b15801561217157600080fd5b505afa158015612185573d6000803e3d6000fd5b505050506040513d601f19601f820116820180604052508101906121a99190613f79565b60018111156121c857634e487b7160e01b600052602160045260246000fd5b145b6121d357600080fd5b6003546005546040516354a0585760e01b815260048101919091526000916001600160a01b0316906354a058579060240160206040518083038186803b15801561221c57600080fd5b505afa158015612230573d6000803e3d6000fd5b505050506040513d601f19601f8201168201806040525081019061225491906141b9565b905060038160ff16146122da5760405162461bcd60e51b815260206004820152604260248201527f44414f3a3a70726f706f73653a2063616e206e6f74207573652064697374726960448201527f6275746564206b65792077697468207468652077726f6e672064696d656e736960648201526137b760f11b608482015260a40161061e565b6001546000906122f09063ffffffff164361472c565b60018401859055600580850180546001600160e01b0319163367ffffffffffffffff60a01b191617600160a01b6001600160401b038516021790556000868152600960209081526040808320600a90925282208a9055915492935090916123589030886124cd565b808655600081815260086020526040812060055481559192505b8560ff168160ff1610156123ff57604080518082019091526000808252600160208084018290528186018054928301815583529091206123b6929101906002613a27565b5060408051808201909152600080825260016020808401829052600280870180549384018155845292206123ec93910191613a27565b50806123f781614856565b915050612372565b5088877fe89ca49b18459b17a2cfc1701e971d1fd31d17864d6784c5b45c145f7a30aade600454338f8f8a60405161243b959493929190614579565b60405180910390a36004600081546124529061483b565b90915550506004549a9950505050505050505050565b6000818152600860209081526040918290206003018054835181840281018401909452808452606093928301828280156124c157602002820191906000526020600020905b8154815260200190600101908083116124ad575b50505050509050919050565b6040805160208082019590955260609390931b6bffffffffffffffffffffffff191683820152605480840192909252805180840390920182526074909201909152805191012090565b6003546001600160a01b0316331461258b5760405162461bcd60e51b815260206004820152603260248201527f44414f3a3a6f6e6c79444b473a2063616c6c206d75737420636f6d652066726f6044820152711b481d1a19481112d1c818dbdb9d1c9858dd60721b606482015260840161061e565b60008381526008602052604090206005548154146126055760405162461bcd60e51b815260206004820152603160248201527f44414f3a3a7375626d697454616c6c79696e67526573756c743a2072657175656044820152701cdd08191bd95cc81b9bdd08195e1a5cdd607a1b606482015260840161061e565b612613600382018484613a77565b5043600490910155505050565b600561262b826107a8565b600881111561264a57634e487b7160e01b600052602160045260246000fd5b146126af5760405162461bcd60e51b815260206004820152602f60248201527f44414f3a3a71756575653a2050726f706f73616c20686173206e6f742062656560448201526e1b88199a5b985b1a5e9959081e595d608a1b606482015260840161061e565b60008181526007602052604081206001549091906126da90600160601b900463ffffffff164361472c565b60008481526009602052604081209192505b81548110156128f5576128e382828154811061271857634e487b7160e01b600052603260045260246000fd5b600091825260209091206004909102015483546001600160a01b039091169084908490811061275757634e487b7160e01b600052603260045260246000fd5b90600052602060002090600402016001015484848154811061278957634e487b7160e01b600052603260045260246000fd5b906000526020600020906004020160020180546127a590614800565b80601f01602080910402602001604051908101604052809291908181526020018280546127d190614800565b801561281e5780601f106127f35761010080835404028352916020019161281e565b820191906000526020600020905b81548152906001019060200180831161280157829003601f168201915b505050505085858154811061284357634e487b7160e01b600052603260045260246000fd5b9060005260206000209060040201600301805461285f90614800565b80601f016020809104026020016040519081016040528092919081815260200182805461288b90614800565b80156128d85780601f106128ad576101008083540402835291602001916128d8565b820191906000526020600020905b8154815290600101906020018083116128bb57829003601f168201915b50505050508761356c565b806128ed8161483b565b9150506126ec565b506006830182905560408051858152602081018490527f9a2e42fd6722813d69113e7d0079d3d940171428df7373df9c7f7617cfda289291015b60405180910390a150505050565b6002612948826107a8565b600881111561296757634e487b7160e01b600052602160045260246000fd5b146129c35760405162461bcd60e51b815260206004820152602660248201527f44414f3a3a74616c6c793a206e6f7420696e207468652074616c6c79696e67206044820152651c195c9a5bd960d21b606482015260840161061e565b60008181526007602090815260408083205480845260089092529182902060035481549351634da58de760e01b8152929391926001600160a01b0390911691634da58de791612a209186916001870190600288019060040161452e565b600060405180830381600087803b158015612a3a57600080fd5b505af1158015612a4e573d6000803e3d6000fd5b505060408051868152602081018690527f1926e9437b5814bee2a98266e0e35ceafeefc71b6c3b6ab54fe5d86931b9f78c9350019050610f99565b6006612a94826107a8565b6008811115612ab357634e487b7160e01b600052602160045260246000fd5b14612b155760405162461bcd60e51b815260206004820152602c60248201527f44414f3a3a71756575653a2050726f706f73616c20686173206e6f742062656560448201526b1b881c5d595d5959081e595d60a21b606482015260840161061e565b60008181526007602090815260408083206006810154600990935290832090925b8154811015612d3f57612d2d828281548110612b6257634e487b7160e01b600052603260045260246000fd5b600091825260209091206004909102015483546001600160a01b0390911690849084908110612ba157634e487b7160e01b600052603260045260246000fd5b906000526020600020906004020160010154848481548110612bd357634e487b7160e01b600052603260045260246000fd5b90600052602060002090600402016002018054612bef90614800565b80601f0160208091040260200160405190810160405280929190818152602001828054612c1b90614800565b8015612c685780601f10612c3d57610100808354040283529160200191612c68565b820191906000526020600020905b815481529060010190602001808311612c4b57829003601f168201915b5050505050858581548110612c8d57634e487b7160e01b600052603260045260246000fd5b90600052602060002090600402016003018054612ca990614800565b80601f0160208091040260200160405190810160405280929190818152602001828054612cd590614800565b8015612d225780601f10612cf757610100808354040283529160200191612d22565b820191906000526020600020905b815481529060010190602001808311612d0557829003601f168201915b5050505050876136db565b80612d378161483b565b915050612b36565b5060058301805460ff60e81b1916600160e81b1790556040517f712ae1383f79ac853f8d882153778e0260ef8f03b504e2866e0593e04d2b291f9061292f9086815260200190565b60006000805160206148fe833981519152848484604051602001612dad9392919061446f565b6040516020818303038152906040528051906020012060001c612dd09190614876565b949350505050565b60008585858585604051602001612df3959493929190614423565b60408051601f1981840301815291815281516020928301206000908152600c9092529020805460ff19169055505050505050565b6000806000612e35846107a8565b600085815260076020908152604080832081516101408101835281548082526001830154948201949094526002820154818401526003808301546060830152600480840154608084015260058401546001600160a01b0380821660a08601526001600160401b03600160a01b83041660c086015260ff600160e01b83048116151560e0870152600160e81b90920490911615156101008501526006909401546101208401529054935163c2d96bcf60e01b81529081018590529596509492939291169063c2d96bcf9060240160206040518083038186803b158015612f1957600080fd5b505afa158015612f2d573d6000803e3d6000fd5b505050506040513d601f19601f82011682018060405250810190612f519190613f98565b6003546040516303f949d160e61b8152600481018590529192506000916001600160a01b039091169063fe5274409060240160006040518083038186803b158015612f9b57600080fd5b505afa158015612faf573d6000803e3d6000fd5b505050506040513d6000823e601f3d908101601f19168201604052612fd79190810190613fb2565b90506002856008811115612ffb57634e487b7160e01b600052602160045260246000fd5b148015613013575060e08101516001600160a01b0316155b1561302957506001976000975095505050505050565b600285600881111561304b57634e487b7160e01b600052602160045260246000fd5b1480156130775750600282600281111561307557634e487b7160e01b600052602160045260246000fd5b145b1561308c575060019788975095505050505050565b60058560088111156130ae57634e487b7160e01b600052602160045260246000fd5b14156130c557506001976002975095505050505050565b60068560088111156130e757634e487b7160e01b600052602160045260246000fd5b1480156130f957508361012001514310155b1561310f57506001976003975095505050505050565b5050505050915091565b6000846001600160a01b0316639447d8936040518163ffffffff1660e01b815260040160206040518083038186803b15801561315457600080fd5b505afa158015613168573d6000803e3d6000fd5b505050506040513d601f19601f8201168201806040525081019061318c91906140d9565b82511461319857600080fd5b60006131a684860186613dcf565b905060005b60088160ff16101561326a577f30644e72e131a029b85045b68181585d97816a916871ca8d3c208c16d87cfd47828260ff16600881106131fb57634e487b7160e01b600052603260045260246000fd5b6020020151106132585760405162461bcd60e51b815260206004820152602260248201527f76657269666965722d70726f6f662d656c656d656e742d6774652d7072696d656044820152612d7160f01b606482015260840161061e565b8061326281614856565b9150506131ab565b50856001600160a01b031663c32e370e6040518060400160405280846000600881106132a657634e487b7160e01b600052603260045260246000fd5b60200201518152602001846001600881106132d157634e487b7160e01b600052603260045260246000fd5b602002015190526040805160808101825285820151918101918252908190606082018760036020020151815250815260200160405180604001604052808760046008811061332f57634e487b7160e01b600052603260045260246000fd5b602002015181526020018760056008811061335a57634e487b7160e01b600052603260045260246000fd5b6020020151905290526040805180820190915280866006602002015181526020018660076008811061339c57634e487b7160e01b600052603260045260246000fd5b6020020151815250876040518563ffffffff1660e01b81526004016133c49493929190614493565b60206040518083038186803b1580156133dc57600080fd5b505afa1580156133f0573d6000803e3d6000fd5b505050506040513d601f19601f820116820180604052508101906134149190613e53565b9695505050505050565b6000808515801561342d575084155b1561343c575082905081613563565b83158015613448575084155b15613457575084905083613563565b60006000805160206148fe833981519152858809905060006000805160206148fe833981519152858809905060006000805160206148fe83398151915280838509620292f809905060006000805160206148fe83398151915280898b096000805160206148fe833981519152898d0908905060006134f8846000805160206148fe83398151915287620292fc096000805160206148fe833981519152613961565b90506000805160206148fe8339815191526135246000805160206148fe833981519152856001086139aa565b830996506000805160206148fe8339815191526135596135546001866000805160206148fe833981519152613961565b6139aa565b8209955050505050505b94509492505050565b60015461358690600160601b900463ffffffff164361472c565b8110156136095760405162461bcd60e51b8152602060048201526044602482018190527f44414f3a3a5f71756575655472616e73616374696f6e3a20457374696d617465908201527f6420657865637574696f6e20626c6f636b206d75737420736174697366792064606482015263656c617960e01b608482015260a40161061e565b60008585858585604051602001613624959493929190614423565b60408051601f1981840301815291815281516020928301206000818152600c90935291205490915060ff16156136bb5760405162461bcd60e51b815260206004820152603660248201527f44414f3a3a5f657865637574655472616e73616374696f6e3a205472616e736160448201527531ba34b7b7103430b9903132b2b71038bab2bab2b21760511b606482015260840161061e565b6000908152600c60205260409020805460ff191660011790555050505050565b600085858585856040516020016136f6959493929190614423565b60408051601f1981840301815291815281516020928301206000818152600c90935291205490915060ff166137935760405162461bcd60e51b815260206004820152603960248201527f44414f3a3a5f657865637574655472616e73616374696f6e3a205472616e736160448201527f6374696f6e206861736e2774206265656e207175657565642e00000000000000606482015260840161061e565b8143101580156137bc57506001546137b890600160801b900463ffffffff168361472c565b4311155b61382e5760405162461bcd60e51b815260206004820152603e60248201527f44414f3a3a5f657865637574655472616e73616374696f6e3a205472616e736160448201527f6374696f6e2063616e206e6f74206265206578656375746564206e6f772e0000606482015260840161061e565b6000818152600c60205260409020805460ff191690558351606090613854575082613880565b84805190602001208460405160200161386e9291906143ad565b60405160208183030381529060405290505b600080886001600160a01b0316888460405161389c91906143de565b60006040518083038185875af1925050503d80600081146138d9576040519150601f19603f3d011682016040523d82523d6000602084013e6138de565b606091505b5091509150816139565760405162461bcd60e51b815260206004820152603d60248201527f54696d656c6f636b3a3a657865637574655472616e73616374696f6e3a20547260448201527f616e73616374696f6e20657865637574696f6e2072657665727465642e000000606482015260840161061e565b505050505050505050565b60008383811161397857613975838261472c565b90505b828061399457634e487b7160e01b600052601260045260246000fd5b60006139a086846147bd565b0895945050505050565b60006139dd826139c960026000805160206148fe8339815191526147bd565b6000805160206148fe8339815191526139e3565b92915050565b600060405160208152602080820152602060408201528460608201528360808201528260a082015260208160c08360055afa80801561014057505051949350505050565b828054828255906000526020600020908101928215613a67579160200282015b82811115613a67578251829060ff16905591602001919060010190613a47565b50613a73929150613ab2565b5090565b828054828255906000526020600020908101928215613a67579160200282015b82811115613a67578235825591602001919060010190613a97565b5b80821115613a735760008155600101613ab3565b8051613ad2816148d8565b919050565b600082601f830112613ae7578081fd5b81516020613afc613af7836146c5565b614695565b82815281810190858301600585811b88018501891015613b1a578687fd5b865b86811015613bb25782516001600160401b03811115613b39578889fd5b8901603f81018b13613b49578889fd5b868101516040613b5b613af7836146c5565b808382528a820191508285018f84868a1b8801011115613b79578d8efd5b8d95505b84861015613b9b578051835260019590950194918b01918b01613b7d565b508952505050948601945091850191600101613b1c565b509198975050505050505050565b60008083601f840112613bd1578182fd5b5081356001600160401b03811115613be7578182fd5b6020830191508360208260051b850101111561119657600080fd5b600082601f830112613c12578081fd5b81516020613c22613af7836146c5565b80838252828201915082860187848660051b8901011115613c41578586fd5b855b85811015613cc65781516001600160401b0380821115613c61578889fd5b908901906040828c03601f1901811315613c7957898afd5b613c8161464a565b613c8c898501613cf2565b8152908301519082821115613c9f578a8bfd5b613cad8d8a84870101613ad7565b818a015287525050509284019290840190600101613c43565b5090979650505050505050565b80518015158114613ad257600080fd5b805160038110613ad257600080fd5b805160ff81168114613ad257600080fd5b600080600060408486031215613d17578283fd5b83356001600160401b03811115613d2c578384fd5b613d3886828701613bc0565b909790965060209590950135949350505050565b600060408284031215613d5d578081fd5b82601f830112613d6b578081fd5b604051604081018181106001600160401b0382111715613d8d57613d8d6148c2565b8060405250808385604086011115613da3578384fd5b835b6002811015613dc4578135835260209283019290910190600101613da5565b509195945050505050565b6000610100808385031215613de2578182fd5b83601f840112613df0578182fd5b6040518181018181106001600160401b0382111715613e1157613e116148c2565b6040528084838101871015613e24578485fd5b8493505b6008841015613e4857803582526001939093019260209182019101613e28565b509095945050505050565b600060208284031215613e64578081fd5b613e6d82613cd3565b9392505050565b600060208284031215613e85578081fd5b5035919050565b600080600060408486031215613ea0578081fd5b8335925060208401356001600160401b03811115613ebc578182fd5b613ec886828701613bc0565b9497909650939450505050565b60008060208385031215613ee7578182fd5b82356001600160401b0380821115613efd578384fd5b818501915085601f830112613f10578384fd5b813581811115613f1e578485fd5b866020828501011115613f2f578485fd5b60209290920196919550909350505050565b600060208284031215613f52578081fd5b8151613e6d816148d8565b600060208284031215613f6e578081fd5b8151613e6d816148f0565b600060208284031215613f8a578081fd5b815160028110613e6d578182fd5b600060208284031215613fa9578081fd5b613e6d82613ce3565b600060208284031215613fc3578081fd5b81516001600160401b0380821115613fd9578283fd5b908301906101408286031215613fed578283fd5b613ff5614672565b8251815260208301518281111561400a578485fd5b61401687828601613ad7565b60208301525060408301518281111561402d578485fd5b61403987828601613ad7565b60408301525061404b60608401613ce3565b6060820152608083015182811115614061578485fd5b61406d87828601613c02565b60808301525061407f60a08401613cf2565b60a082015261409060c08401613cd3565b60c08201526140a160e08401613ac7565b60e082015261010091506140b6828401613ac7565b8282015261012091506140ca828401613ac7565b91810191909152949350505050565b6000602082840312156140ea578081fd5b5051919050565b600080600060608486031215614105578081fd5b833592506020840135614117816148d8565b929592945050506040919091013590565b6000806040838503121561413a578182fd5b82359150602083013561414c816148f0565b809150509250929050565b60008060408385031215614169578182fd5b8235915060208301356001600160401b03811115614185578182fd5b830160a0818603121561414c578182fd5b600080604083850312156141a8578182fd5b505080516020909101519092909150565b6000602082840312156141ca578081fd5b613e6d82613cf2565b600082825480855260208086019550808260051b840101858552818520855b84811015613cc657858303601f1901895281548084528288528488208585019190895b8281101561423157815484529287019260019182019101614215565b505050988401989250600191820191016141f2565b818352600060208085019450848460051b860184845b87811015613cc65783830389528135607e1988360301811261427c578687fd5b87016080813561428b816148d8565b6001600160a01b03168552818701358786015260406142ac818401846146e8565b83838901526142be8489018284614358565b935050505060606142d1818401846146e8565b9350868303828801526142e5838583614358565b9c89019c9650505092860192505060010161425c565b8060005b60028110156110835781518452602093840193909101906001016142ff565b6000815180845260208085019450808401835b8381101561434d57815187529582019590820190600101614331565b509495945050505050565b81835281816020850137506000828201602090810191909152601f909101601f19169091010190565b600081518084526143998160208601602086016147d4565b601f01601f19169290920160200192915050565b6001600160e01b03198316815281516000906143d08160048501602087016147d4565b919091016004019392505050565b600082516143f08184602087016147d4565b9190910192915050565b82815260006004831061440f5761440f6148ac565b5060f89190911b6020820152602101919050565b60018060a01b038616815284602082015260a06040820152600061444a60a0830186614381565b828103606084015261445c8186614381565b9150508260808301529695505050505050565b604081526000614483604083018587614246565b9050826020830152949350505050565b60006101206144a283886142fb565b604080840187845b60028110156144d1576144be8383516142fb565b91830191602091909101906001016144aa565b505050506144e260c08401866142fb565b806101008401526144f58184018561431e565b979650505050505050565b602081526000613e6d602083018461431e565b8215158152604060208201526000612dd06040830184614381565b84815283602082015260806040820152600061454d60808301856141d3565b82810360608401526144f581856141d3565b6020810160098310614573576145736148ac565b91905290565b8581526001600160a01b03851660208201526080604082018190526000906145a49083018587614246565b90506001600160401b03831660608301529695505050505050565b6000808335601e198436030181126145d5578283fd5b8301803591506001600160401b038211156145ee578283fd5b6020019150600581901b360382131561119657600080fd5b6000808335601e1984360301811261461c578283fd5b8301803591506001600160401b03821115614635578283fd5b60200191503681900382131561119657600080fd5b604080519081016001600160401b038111828210171561466c5761466c6148c2565b60405290565b60405161014081016001600160401b038111828210171561466c5761466c6148c2565b604051601f8201601f191681016001600160401b03811182821017156146bd576146bd6148c2565b604052919050565b60006001600160401b038211156146de576146de6148c2565b5060051b60200190565b6000808335601e198436030181126146fe578283fd5b83016020810192503590506001600160401b0381111561471d57600080fd5b80360383131561119657600080fd5b6000821982111561473f5761473f614896565b500190565b60006001600160401b0380831681851680830382111561476657614766614896565b01949350505050565b600060ff821660ff84168060ff0382111561478c5761478c614896565b019392505050565b600060ff821660ff84168160ff04811182151516156147b5576147b5614896565b029392505050565b6000828210156147cf576147cf614896565b500390565b60005b838110156147ef5781810151838201526020016147d7565b838111156110835750506000910152565b600181811c9082168061481457607f821691505b6020821081141561483557634e487b7160e01b600052602260045260246000fd5b50919050565b600060001982141561484f5761484f614896565b5060010190565b600060ff821660ff81141561486d5761486d614896565b60010192915050565b60008261489157634e487b7160e01b81526012600452602481fd5b500690565b634e487b7160e01b600052601160045260246000fd5b634e487b7160e01b600052602160045260246000fd5b634e487b7160e01b600052604160045260246000fd5b6001600160a01b03811681146148ed57600080fd5b50565b600481106148ed57600080fdfe30644e72e131a029b85045b68181585d2833e84879b9709143e1f593f0000001a2646970667358221220178ec812ba2b5df772f40cb2194fa2726ea81069a5699562dde62cc18c710ea064736f6c63430008040033a26469706673582212205474fe73f76e8c7d2b461189221a11d340581d8d0baaf80f23ccca15d2bac08164736f6c63430008040033",
    "linkReferences": {},
    "deployedLinkReferences": {}
}