{
    "_format": "hh-sol-artifact-1",
    "contractName": "DKG",
    "sourceName": "contracts/DKG.sol",
    "abi": [
        {
            "inputs": [
                {
                    "components": [
                        {
                            "internalType": "address",
                            "name": "round2Verfier",
                            "type": "address"
                        },
                        {
                            "internalType": "address",
                            "name": "fundingVerifier",
                            "type": "address"
                        },
                        {
                            "internalType": "address",
                            "name": "votingVerifier",
                            "type": "address"
                        },
                        {
                            "internalType": "address",
                            "name": "tallyContributionVerifier",
                            "type": "address"
                        },
                        {
                            "internalType": "address",
                            "name": "resultVerifier",
                            "type": "address"
                        }
                    ],
                    "internalType": "struct IDKG.DKGConfig",
                    "name": "_dkgConfig",
                    "type": "tuple"
                }
            ],
            "stateMutability": "nonpayable",
            "type": "constructor"
        },
        {
            "anonymous": false,
            "inputs": [
                {
                    "indexed": true,
                    "internalType": "uint256",
                    "name": "distributedKeyID",
                    "type": "uint256"
                }
            ],
            "name": "DistributedKeyActivated",
            "type": "event"
        },
        {
            "anonymous": false,
            "inputs": [
                {
                    "indexed": true,
                    "internalType": "uint256",
                    "name": "distributedKeyID",
                    "type": "uint256"
                }
            ],
            "name": "DistributedKeyGenerated",
            "type": "event"
        },
        {
            "anonymous": false,
            "inputs": [
                {
                    "indexed": true,
                    "internalType": "address",
                    "name": "submitter",
                    "type": "address"
                }
            ],
            "name": "Round1DataSubmitted",
            "type": "event"
        },
        {
            "anonymous": false,
            "inputs": [
                {
                    "indexed": true,
                    "internalType": "address",
                    "name": "submitter",
                    "type": "address"
                }
            ],
            "name": "Round2DataSubmitted",
            "type": "event"
        },
        {
            "anonymous": false,
            "inputs": [
                {
                    "indexed": true,
                    "internalType": "address",
                    "name": "submitter",
                    "type": "address"
                }
            ],
            "name": "TallyContributionSubmitted",
            "type": "event"
        },
        {
            "anonymous": false,
            "inputs": [
                {
                    "indexed": true,
                    "internalType": "address",
                    "name": "submitter",
                    "type": "address"
                },
                {
                    "indexed": true,
                    "internalType": "bytes32",
                    "name": "requestID",
                    "type": "bytes32"
                },
                {
                    "indexed": true,
                    "internalType": "uint256[]",
                    "name": "result",
                    "type": "uint256[]"
                }
            ],
            "name": "TallyResultSubmitted",
            "type": "event"
        },
        {
            "anonymous": false,
            "inputs": [
                {
                    "indexed": true,
                    "internalType": "bytes32",
                    "name": "requestID",
                    "type": "bytes32"
                }
            ],
            "name": "TallyStarted",
            "type": "event"
        },
        {
            "inputs": [],
            "name": "distributedKeyCounter",
            "outputs": [
                {
                    "internalType": "uint256",
                    "name": "",
                    "type": "uint256"
                }
            ],
            "stateMutability": "view",
            "type": "function"
        },
        {
            "inputs": [
                {
                    "internalType": "uint256",
                    "name": "",
                    "type": "uint256"
                }
            ],
            "name": "distributedKeys",
            "outputs": [
                {
                    "internalType": "enum IDKG.DistributedKeyType",
                    "name": "keyType",
                    "type": "uint8"
                },
                {
                    "internalType": "uint8",
                    "name": "dimension",
                    "type": "uint8"
                },
                {
                    "internalType": "uint8",
                    "name": "round1Counter",
                    "type": "uint8"
                },
                {
                    "internalType": "uint8",
                    "name": "round2Counter",
                    "type": "uint8"
                },
                {
                    "internalType": "address",
                    "name": "verifier",
                    "type": "address"
                },
                {
                    "internalType": "uint256",
                    "name": "publicKeyX",
                    "type": "uint256"
                },
                {
                    "internalType": "uint256",
                    "name": "publicKeyY",
                    "type": "uint256"
                },
                {
                    "internalType": "uint256",
                    "name": "usageCounter",
                    "type": "uint256"
                }
            ],
            "stateMutability": "view",
            "type": "function"
        },
        {
            "inputs": [
                {
                    "internalType": "uint256",
                    "name": "",
                    "type": "uint256"
                }
            ],
            "name": "fundingVerifiers",
            "outputs": [
                {
                    "internalType": "contract IVerifier",
                    "name": "",
                    "type": "address"
                }
            ],
            "stateMutability": "view",
            "type": "function"
        },
        {
            "inputs": [
                {
                    "internalType": "uint8",
                    "name": "_dimension",
                    "type": "uint8"
                },
                {
                    "internalType": "enum IDKG.DistributedKeyType",
                    "name": "_distributedKeyType",
                    "type": "uint8"
                }
            ],
            "name": "generateDistributedKey",
            "outputs": [
                {
                    "internalType": "uint256",
                    "name": "distributedKeyID",
                    "type": "uint256"
                }
            ],
            "stateMutability": "nonpayable",
            "type": "function"
        },
        {
            "inputs": [
                {
                    "internalType": "address",
                    "name": "_committeeAddress",
                    "type": "address"
                },
                {
                    "internalType": "uint256",
                    "name": "_distributedKeyID",
                    "type": "uint256"
                }
            ],
            "name": "getCommitteeIndex",
            "outputs": [
                {
                    "internalType": "uint8",
                    "name": "",
                    "type": "uint8"
                }
            ],
            "stateMutability": "view",
            "type": "function"
        },
        {
            "inputs": [
                {
                    "internalType": "uint256",
                    "name": "_distributedKeyID",
                    "type": "uint256"
                }
            ],
            "name": "getDimension",
            "outputs": [
                {
                    "internalType": "uint8",
                    "name": "",
                    "type": "uint8"
                }
            ],
            "stateMutability": "view",
            "type": "function"
        },
        {
            "inputs": [
                {
                    "internalType": "uint256",
                    "name": "_distributedKeyID",
                    "type": "uint256"
                }
            ],
            "name": "getDistributedKeyState",
            "outputs": [
                {
                    "internalType": "enum IDKG.DistributedKeyState",
                    "name": "",
                    "type": "uint8"
                }
            ],
            "stateMutability": "view",
            "type": "function"
        },
        {
            "inputs": [
                {
                    "internalType": "bytes32",
                    "name": "_requestID",
                    "type": "bytes32"
                }
            ],
            "name": "getM",
            "outputs": [
                {
                    "internalType": "uint256[][]",
                    "name": "",
                    "type": "uint256[][]"
                }
            ],
            "stateMutability": "view",
            "type": "function"
        },
        {
            "inputs": [
                {
                    "internalType": "uint256",
                    "name": "_distributedKeyID",
                    "type": "uint256"
                }
            ],
            "name": "getPublicKey",
            "outputs": [
                {
                    "internalType": "uint256",
                    "name": "",
                    "type": "uint256"
                },
                {
                    "internalType": "uint256",
                    "name": "",
                    "type": "uint256"
                }
            ],
            "stateMutability": "view",
            "type": "function"
        },
        {
            "inputs": [
                {
                    "internalType": "bytes32",
                    "name": "_requestID",
                    "type": "bytes32"
                }
            ],
            "name": "getR",
            "outputs": [
                {
                    "internalType": "uint256[][]",
                    "name": "",
                    "type": "uint256[][]"
                }
            ],
            "stateMutability": "view",
            "type": "function"
        },
        {
            "inputs": [
                {
                    "internalType": "uint256",
                    "name": "_distributedKeyID",
                    "type": "uint256"
                }
            ],
            "name": "getRound1DataSubmissions",
            "outputs": [
                {
                    "components": [
                        {
                            "internalType": "address",
                            "name": "sender",
                            "type": "address"
                        },
                        {
                            "internalType": "uint8",
                            "name": "senderIndex",
                            "type": "uint8"
                        },
                        {
                            "internalType": "uint256[]",
                            "name": "x",
                            "type": "uint256[]"
                        },
                        {
                            "internalType": "uint256[]",
                            "name": "y",
                            "type": "uint256[]"
                        }
                    ],
                    "internalType": "struct IDKG.Round1DataSubmission[]",
                    "name": "",
                    "type": "tuple[]"
                }
            ],
            "stateMutability": "view",
            "type": "function"
        },
        {
            "inputs": [
                {
                    "internalType": "uint256",
                    "name": "_distributedKeyID",
                    "type": "uint256"
                },
                {
                    "internalType": "uint8",
                    "name": "_recipientIndex",
                    "type": "uint8"
                }
            ],
            "name": "getRound2DataSubmissions",
            "outputs": [
                {
                    "components": [
                        {
                            "internalType": "uint8",
                            "name": "senderIndex",
                            "type": "uint8"
                        },
                        {
                            "internalType": "uint256[]",
                            "name": "ciphers",
                            "type": "uint256[]"
                        }
                    ],
                    "internalType": "struct IDKG.Round2DataSubmission[]",
                    "name": "",
                    "type": "tuple[]"
                }
            ],
            "stateMutability": "view",
            "type": "function"
        },
        {
            "inputs": [
                {
                    "internalType": "bytes32",
                    "name": "_requestID",
                    "type": "bytes32"
                }
            ],
            "name": "getTallyDataSubmissions",
            "outputs": [
                {
                    "components": [
                        {
                            "internalType": "uint8",
                            "name": "senderIndex",
                            "type": "uint8"
                        },
                        {
                            "internalType": "uint256[][]",
                            "name": "Di",
                            "type": "uint256[][]"
                        }
                    ],
                    "internalType": "struct IDKG.TallyDataSubmission[]",
                    "name": "",
                    "type": "tuple[]"
                }
            ],
            "stateMutability": "view",
            "type": "function"
        },
        {
            "inputs": [
                {
                    "internalType": "bytes32",
                    "name": "_requestID",
                    "type": "bytes32"
                }
            ],
            "name": "getTallyTracker",
            "outputs": [
                {
                    "components": [
                        {
                            "internalType": "uint256",
                            "name": "distributedKeyID",
                            "type": "uint256"
                        },
                        {
                            "internalType": "uint256[][]",
                            "name": "R",
                            "type": "uint256[][]"
                        },
                        {
                            "internalType": "uint256[][]",
                            "name": "M",
                            "type": "uint256[][]"
                        },
                        {
                            "components": [
                                {
                                    "internalType": "uint8",
                                    "name": "senderIndex",
                                    "type": "uint8"
                                },
                                {
                                    "internalType": "uint256[][]",
                                    "name": "Di",
                                    "type": "uint256[][]"
                                }
                            ],
                            "internalType": "struct IDKG.TallyDataSubmission[]",
                            "name": "tallyDataSubmissions",
                            "type": "tuple[]"
                        },
                        {
                            "internalType": "uint8",
                            "name": "tallyCounter",
                            "type": "uint8"
                        },
                        {
                            "internalType": "bool",
                            "name": "resultSubmitted",
                            "type": "bool"
                        },
                        {
                            "internalType": "address",
                            "name": "dao",
                            "type": "address"
                        },
                        {
                            "internalType": "address",
                            "name": "contributionVerifier",
                            "type": "address"
                        },
                        {
                            "internalType": "address",
                            "name": "resultVerifier",
                            "type": "address"
                        }
                    ],
                    "internalType": "struct IDKG.TallyTracker",
                    "name": "",
                    "type": "tuple"
                }
            ],
            "stateMutability": "view",
            "type": "function"
        },
        {
            "inputs": [
                {
                    "internalType": "bytes32",
                    "name": "_requestID",
                    "type": "bytes32"
                }
            ],
            "name": "getTallyTrackerState",
            "outputs": [
                {
                    "internalType": "enum IDKG.TallyTrackerState",
                    "name": "",
                    "type": "uint8"
                }
            ],
            "stateMutability": "view",
            "type": "function"
        },
        {
            "inputs": [
                {
                    "internalType": "uint256",
                    "name": "_distributedKeyID",
                    "type": "uint256"
                }
            ],
            "name": "getType",
            "outputs": [
                {
                    "internalType": "enum IDKG.DistributedKeyType",
                    "name": "",
                    "type": "uint8"
                }
            ],
            "stateMutability": "view",
            "type": "function"
        },
        {
            "inputs": [
                {
                    "internalType": "uint256",
                    "name": "_distributedKeyID",
                    "type": "uint256"
                }
            ],
            "name": "getUsageCounter",
            "outputs": [
                {
                    "internalType": "uint256",
                    "name": "",
                    "type": "uint256"
                }
            ],
            "stateMutability": "view",
            "type": "function"
        },
        {
            "inputs": [
                {
                    "internalType": "uint256",
                    "name": "_distributedKeyID",
                    "type": "uint256"
                }
            ],
            "name": "getVerifier",
            "outputs": [
                {
                    "internalType": "contract IVerifier",
                    "name": "",
                    "type": "address"
                }
            ],
            "stateMutability": "view",
            "type": "function"
        },
        {
            "inputs": [],
            "name": "owner",
            "outputs": [
                {
                    "internalType": "address",
                    "name": "",
                    "type": "address"
                }
            ],
            "stateMutability": "view",
            "type": "function"
        },
        {
            "inputs": [
                {
                    "internalType": "uint256",
                    "name": "",
                    "type": "uint256"
                }
            ],
            "name": "resultVerifiers",
            "outputs": [
                {
                    "internalType": "contract IVerifier",
                    "name": "",
                    "type": "address"
                }
            ],
            "stateMutability": "view",
            "type": "function"
        },
        {
            "inputs": [],
            "name": "round2Verifier",
            "outputs": [
                {
                    "internalType": "contract IVerifier",
                    "name": "",
                    "type": "address"
                }
            ],
            "stateMutability": "view",
            "type": "function"
        },
        {
            "inputs": [
                {
                    "internalType": "bytes32",
                    "name": "_requestID",
                    "type": "bytes32"
                },
                {
                    "internalType": "uint256",
                    "name": "_distributedKeyID",
                    "type": "uint256"
                },
                {
                    "internalType": "uint256[][]",
                    "name": "_R",
                    "type": "uint256[][]"
                },
                {
                    "internalType": "uint256[][]",
                    "name": "_M",
                    "type": "uint256[][]"
                }
            ],
            "name": "startTallying",
            "outputs": [],
            "stateMutability": "nonpayable",
            "type": "function"
        },
        {
            "inputs": [
                {
                    "internalType": "uint256",
                    "name": "_distributedKeyID",
                    "type": "uint256"
                },
                {
                    "components": [
                        {
                            "internalType": "uint256[]",
                            "name": "x",
                            "type": "uint256[]"
                        },
                        {
                            "internalType": "uint256[]",
                            "name": "y",
                            "type": "uint256[]"
                        }
                    ],
                    "internalType": "struct IDKG.Round1Contribution",
                    "name": "_round1Contribution",
                    "type": "tuple"
                }
            ],
            "name": "submitRound1Contribution",
            "outputs": [
                {
                    "internalType": "uint8",
                    "name": "",
                    "type": "uint8"
                }
            ],
            "stateMutability": "nonpayable",
            "type": "function"
        },
        {
            "inputs": [
                {
                    "internalType": "uint256",
                    "name": "_distributedKeyID",
                    "type": "uint256"
                },
                {
                    "components": [
                        {
                            "internalType": "uint8",
                            "name": "senderIndex",
                            "type": "uint8"
                        },
                        {
                            "internalType": "uint8[]",
                            "name": "recipientIndexes",
                            "type": "uint8[]"
                        },
                        {
                            "internalType": "uint256[][]",
                            "name": "ciphers",
                            "type": "uint256[][]"
                        },
                        {
                            "internalType": "bytes",
                            "name": "proof",
                            "type": "bytes"
                        }
                    ],
                    "internalType": "struct IDKG.Round2Contribution",
                    "name": "_round2Contribution",
                    "type": "tuple"
                }
            ],
            "name": "submitRound2Contribution",
            "outputs": [],
            "stateMutability": "nonpayable",
            "type": "function"
        },
        {
            "inputs": [
                {
                    "internalType": "bytes32",
                    "name": "_requestID",
                    "type": "bytes32"
                },
                {
                    "components": [
                        {
                            "internalType": "uint8",
                            "name": "senderIndex",
                            "type": "uint8"
                        },
                        {
                            "internalType": "uint256[][]",
                            "name": "Di",
                            "type": "uint256[][]"
                        },
                        {
                            "internalType": "bytes",
                            "name": "proof",
                            "type": "bytes"
                        }
                    ],
                    "internalType": "struct IDKG.TallyContribution",
                    "name": "_tallyContribution",
                    "type": "tuple"
                }
            ],
            "name": "submitTallyContribution",
            "outputs": [],
            "stateMutability": "nonpayable",
            "type": "function"
        },
        {
            "inputs": [
                {
                    "internalType": "bytes32",
                    "name": "_requestID",
                    "type": "bytes32"
                },
                {
                    "internalType": "uint256[]",
                    "name": "_result",
                    "type": "uint256[]"
                },
                {
                    "internalType": "bytes",
                    "name": "_proof",
                    "type": "bytes"
                }
            ],
            "name": "submitTallyResult",
            "outputs": [],
            "stateMutability": "nonpayable",
            "type": "function"
        },
        {
            "inputs": [
                {
                    "internalType": "uint256",
                    "name": "",
                    "type": "uint256"
                }
            ],
            "name": "tallyContributionVerifiers",
            "outputs": [
                {
                    "internalType": "contract IVerifier",
                    "name": "",
                    "type": "address"
                }
            ],
            "stateMutability": "view",
            "type": "function"
        },
        {
            "inputs": [
                {
                    "internalType": "bytes32",
                    "name": "",
                    "type": "bytes32"
                }
            ],
            "name": "tallyTrackers",
            "outputs": [
                {
                    "internalType": "uint256",
                    "name": "distributedKeyID",
                    "type": "uint256"
                },
                {
                    "internalType": "uint8",
                    "name": "tallyCounter",
                    "type": "uint8"
                },
                {
                    "internalType": "bool",
                    "name": "resultSubmitted",
                    "type": "bool"
                },
                {
                    "internalType": "address",
                    "name": "dao",
                    "type": "address"
                },
                {
                    "internalType": "address",
                    "name": "contributionVerifier",
                    "type": "address"
                },
                {
                    "internalType": "address",
                    "name": "resultVerifier",
                    "type": "address"
                }
            ],
            "stateMutability": "view",
            "type": "function"
        },
        {
            "inputs": [
                {
                    "internalType": "uint256",
                    "name": "",
                    "type": "uint256"
                }
            ],
            "name": "votingVerifiers",
            "outputs": [
                {
                    "internalType": "contract IVerifier",
                    "name": "",
                    "type": "address"
                }
            ],
            "stateMutability": "view",
            "type": "function"
        }
    ],
    "bytecode": "0x60806040523480156200001157600080fd5b5060405162005e9838038062005e98833981016040819052620000349162000165565b60008054336001600160a01b031991821617825582516004805483166001600160a01b039283161790556020808501516003909452600581527fa9bc9a3a348c357ba16b37005d7e6b3236198c0e939f4af8c5f19b8deeb8ebc080548416948316949094179093556040840151600684527f75f96ab15d697e93042dc45b5c896c4b27e89bb6eaf39475c5c371cb2513f7d2805484169183169190911790556060840151600784527f3be6fd20d5acfde5b873b48692cd31f4d3c7e8ee8a813af4696af8859e5ca6c68054841691831691909117905560809093015160089092527f625b35f5e76f098dd7c3a05b10e2e5e78a4a01228d60c3b143426cdf36d2645580549091169190921617905562000209565b80516001600160a01b03811681146200016057600080fd5b919050565b600060a0828403121562000177578081fd5b60405160a081016001600160401b0381118282101715620001a657634e487b7160e01b83526041600452602483fd5b604052620001b48362000148565b8152620001c46020840162000148565b6020820152620001d76040840162000148565b6040820152620001ea6060840162000148565b6060820152620001fd6080840162000148565b60808201529392505050565b615c7f80620002196000396000f3fe608060405234801561001057600080fd5b50600436106101cf5760003560e01c806375d2c1ce1161010457806392cab566116100a2578063e9d6db8c11610071578063e9d6db8c14610562578063f17de9ee14610582578063fe527440146105ab578063fffa96ae146105cb57600080fd5b806392cab566146104ed578063a15cbc80146104f6578063c2d96bcf14610519578063db6316261461053957600080fd5b8063887a3163116100de578063887a31631461048757806388ccc0841461049a5780638d3ce2bd146104ba5780638da5cb5b146104da57600080fd5b806375d2c1ce146103b35780638138007d146103db57806387f895f41461047457600080fd5b806344dfe1081161017157806355cd25f01161014b57806355cd25f01461035957806359295eaa1461037a5780636b724edb1461038d578063755ff330146103a057600080fd5b806344dfe108146102ec5780634da58de71461030c57806354a058571461031f57600080fd5b80632b708dee116101ad5780632b708dee146102425780633561bc271461026b5780633b968ae61461029c5780634036ab78146102bc57600080fd5b806316a795c8146101d45780631e0a9fac146101e9578063220bbbb9146101fc575b600080fd5b6101e76101e2366004615177565b610647565b005b6101e76101f736600461532f565b611041565b61022561020a36600461515f565b6007602052600090815260409020546001600160a01b031681565b6040516001600160a01b0390911681526020015b60405180910390f35b61022561025036600461515f565b6006602052600090815260409020546001600160a01b031681565b61022561027936600461515f565b60009081526002602052604090205464010000000090046001600160a01b031690565b6102af6102aa36600461515f565b612028565b604051610239919061573f565b6102df6102ca36600461515f565b60009081526002602052604090205460ff1690565b6040516102399190615759565b6102ff6102fa36600461515f565b6120ff565b6040516102399190615559565b6101e761031a366004615265565b6121ae565b61034761032d36600461515f565b600090815260026020526040902054610100900460ff1690565b60405160ff9091168152602001610239565b61036c6103673660046153ae565b6122e6565b604051908152602001610239565b6101e761038836600461521b565b612664565b600454610225906001600160a01b031681565b6102ff6103ae36600461515f565b6133a5565b6103c66103c136600461515f565b613449565b60408051928352602083019190915201610239565b6104336103e936600461515f565b6003602052600090815260409020805460048201546005830154600690930154919260ff808316936101008404909116926001600160a01b03620100009091048116928116911686565b6040805196875260ff9095166020870152921515938501939093526001600160a01b03908116606085015291821660808401521660a082015260c001610239565b6103476104823660046152f0565b6134a1565b610347610495366004615085565b613a17565b6104ad6104a836600461515f565b613ca8565b604051610239919061567d565b6104cd6104c836600461515f565b613daf565b604051610239919061556c565b600054610225906001600160a01b031681565b61036c60015481565b61036c61050436600461515f565b60009081526002602052604090206007015490565b61052c61052736600461515f565b613ee3565b60405161023991906157b8565b61022561054736600461515f565b6008602052600090815260409020546001600160a01b031681565b61057561057036600461536e565b614229565b6040516102399190615615565b61022561059036600461515f565b6005602052600090815260409020546001600160a01b031681565b6105be6105b936600461515f565b614300565b60405161023991906158b2565b6106336105d936600461515f565b6002602081905260009182526040909120805460018201549282015460079092015460ff80831694610100840482169462010000850483169463010000008104909316936401000000009093046001600160a01b03169288565b604051610239989796959493929190615767565b6000858152600360205260409020600161066087613ee3565b600281111561067f57634e487b7160e01b600052602160045260246000fd5b1461068957600080fd5b805460009081526002602052604080822080548354835163091d8bc560e21b81528451939561010090930460ff169492936001600160a01b03909216926324762f1492600480840193829003018186803b1580156106e657600080fd5b505afa1580156106fa573d6000803e3d6000fd5b505050506040513d601f19601f8201168201806040525081019061071e91906153de565b50905060008460060160009054906101000a90046001600160a01b03166001600160a01b0316639447d8936040518163ffffffff1660e01b815260040160206040518083038186803b15801561077357600080fd5b505afa158015610787573d6000803e3d6000fd5b505050506040513d601f19601f820116820180604052508101906107ab91906152d8565b6001600160401b038111156107d057634e487b7160e01b600052604160045260246000fd5b6040519080825280602002602001820160405280156107f9578160200160208202803683370190505b509050600085600301805480602002602001604051908101604052809291908181526020016000905b828210156108f1576000848152602080822060408051808201825260028702909201805460ff168352600181018054835181870281018701909452808452939591948681019491929084015b828210156108da576000848152602090819020830180546040805182850281018501909152818152928301828280156108c657602002820191906000526020600020905b8154815260200190600101908083116108b2575b50505050508152602001906001019061086e565b505050508152505081526020019060010190610822565b50505050905060008360ff166001600160401b0381111561092257634e487b7160e01b600052604160045260246000fd5b60405190808252806020026020018201604052801561094b578160200160208202803683370190505b50905060005b8460ff168160ff1610156109d557828160ff168151811061098257634e487b7160e01b600052603260045260246000fd5b602002602001015160000151828260ff16815181106109b157634e487b7160e01b600052603260045260246000fd5b60ff90921660209283029190910190910152806109cd81615b60565b915050610951565b5060006109e182614618565b9050600088600201805480602002602001604051908101604052809291908181526020016000905b82821015610a7557600084815260209081902083018054604080518285028101850190915281815292830182828015610a6157602002820191906000526020600020905b815481526020019060010190808311610a4d575b505050505081526020019060010190610a09565b50505050905060005b8660ff168160ff161015610cf057828160ff1681518110610aaf57634e487b7160e01b600052603260045260246000fd5b6020026020010151868260ff1681518110610ada57634e487b7160e01b600052603260045260246000fd5b60200260200101818152505060005b8860ff168160ff161015610cdd57858260ff1681518110610b1a57634e487b7160e01b600052603260045260246000fd5b6020026020010151602001518160ff1681518110610b4857634e487b7160e01b600052603260045260246000fd5b6020026020010151600081518110610b7057634e487b7160e01b600052603260045260246000fd5b602002602001015187826002610b869190615ad5565b610b908c86615ad5565b610b9b906002615ad5565b610ba5908c615a7d565b610baf9190615a7d565b60ff1681518110610bd057634e487b7160e01b600052603260045260246000fd5b602002602001018181525050858260ff1681518110610bff57634e487b7160e01b600052603260045260246000fd5b6020026020010151602001518160ff1681518110610c2d57634e487b7160e01b600052603260045260246000fd5b6020026020010151600181518110610c5557634e487b7160e01b600052603260045260246000fd5b602002602001015187826002610c6b9190615ad5565b610c758c86615ad5565b610c80906002615ad5565b610c8a908c615a7d565b610c949190615a7d565b610c9f906001615a7d565b60ff1681518110610cc057634e487b7160e01b600052603260045260246000fd5b602090810291909101015280610cd581615b60565b915050610ae9565b5080610ce881615b60565b915050610a7e565b5060005b8760ff168160ff161015610f2557818160ff1681518110610d2557634e487b7160e01b600052603260045260246000fd5b6020026020010151600081518110610d4d57634e487b7160e01b600052603260045260246000fd5b602002602001015186826002610d639190615ad5565b610d6d8b8b615ad5565b610d78906002615ad5565b610d82908b615a7d565b610d8c9190615a7d565b60ff1681518110610dad57634e487b7160e01b600052603260045260246000fd5b602002602001018181525050818160ff1681518110610ddc57634e487b7160e01b600052603260045260246000fd5b6020026020010151600181518110610e0457634e487b7160e01b600052603260045260246000fd5b602002602001015186826002610e1a9190615ad5565b610e248b8b615ad5565b610e2f906002615ad5565b610e39908b615a7d565b610e439190615a7d565b610e4e906001615a7d565b60ff1681518110610e6f57634e487b7160e01b600052603260045260246000fd5b6020026020010181815250508d8d8260ff16818110610e9e57634e487b7160e01b600052603260045260246000fd5b9050602002013586828a6002610eb49190615ad5565b610ebe8c8c615ad5565b610ec9906002615ad5565b610ed3908c615a7d565b610edd9190615a7d565b610ee79190615a7d565b60ff1681518110610f0857634e487b7160e01b600052603260045260246000fd5b602090810291909101015280610f1d81615b60565b915050610cf4565b506006890154610f40906001600160a01b03168c8c88614810565b610f4957600080fd5b8860040160029054906101000a90046001600160a01b03166001600160a01b031663c58264b38f8f8f6040518463ffffffff1660e01b8152600401610f90939291906156fd565b600060405180830381600087803b158015610faa57600080fd5b505af1158015610fbe573d6000803e3d6000fd5b505050506001886007016000828254610fd79190615a65565b909155505060048901805461ff001916610100179055604051610ffd908e908e9061552f565b604051908190038120908f9033907f1cc27b5dc088bba6ed823b51399e3b77446cafcca155bf518ad3e55d80a40b4c90600090a45050505050505050505050505050565b600054604051638c9540d360e01b81523360048201526001600160a01b0390911690638c9540d39060240160206040518083038186803b15801561108457600080fd5b505afa158015611098573d6000803e3d6000fd5b505050506040513d601f19601f820116820180604052508101906110bc919061513f565b6110e15760405162461bcd60e51b81526004016110d890615829565b60405180910390fd5b6000828152600260205260408082208254825163091d8bc560e21b8152835192949384936001600160a01b03909316926324762f14926004808201939291829003018186803b15801561113357600080fd5b505afa158015611147573d6000803e3d6000fd5b505050506040513d601f19601f8201168201806040525081019061116b91906153de565b9092509050600161117b86612028565b600381111561119a57634e487b7160e01b600052602160045260246000fd5b146112045760405162461bcd60e51b815260206004820152603460248201527f646b67436f6e74726163743a206b65792773207374617465206973206e6f742060448201527321a7a72a2924a12aaa24a7a72fa927aaa7222f9960611b60648201526084016110d8565b61120f600182615b15565b60ff1661121f6020860186615987565b90501480156112485750611234600182615b15565b60ff166112446040860186615987565b9050145b6112645760405162461bcd60e51b81526004016110d890615871565b336003840160016112786020880188615392565b6112829190615b15565b60ff16815481106112a357634e487b7160e01b600052603260045260246000fd5b60009182526020909120600390910201546001600160a01b03161461130a5760405162461bcd60e51b815260206004820152601b60248201527f646b67436f6e74726163743a20696e76616c69642073656e646572000000000060448201526064016110d8565b60068301600061131d6020870187615392565b60ff908116825260208201929092526040016000205416156113515760405162461bcd60e51b81526004016110d8906157cc565b6000806113616020870187615392565b600160ff91821681901b93909317929084161b1760005b6113856020880188615987565b90508160ff1610156114715761139e6040880188615987565b8260ff168181106113bf57634e487b7160e01b600052603260045260246000fd5b90506020028101906113d19190615987565b90506003146113f25760405162461bcd60e51b81526004016110d890615871565b6113ff6020880188615987565b8260ff1681811061142057634e487b7160e01b600052603260045260246000fd5b90506020020160208101906114359190615392565b60ff166001901b60001b831792508060016114509190615a7d565b60ff166001901b60001b82179150808061146990615b60565b915050611378565b508082146114cf5760405162461bcd60e51b815260206004820152602560248201527f646b67436f6e74726163743a20696e76616c696420726563697069656e74496e604482015264646578657360d81b60648201526084016110d8565b6000600460009054906101000a90046001600160a01b03166001600160a01b0316639447d8936040518163ffffffff1660e01b815260040160206040518083038186803b15801561151f57600080fd5b505afa158015611533573d6000803e3d6000fd5b505050506040513d601f19601f8201168201806040525081019061155791906152d8565b6001600160401b0381111561157c57634e487b7160e01b600052604160045260246000fd5b6040519080825280602002602001820160405280156115a5578160200160208202803683370190505b50905060006003870160016115bd60208b018b615392565b6115c79190615b15565b60ff16815481106115e857634e487b7160e01b600052603260045260246000fd5b600091825260209182902060408051608081018252600390930290910180546001600160a01b038116845260ff600160a01b9091041683850152600181018054835181870281018701855281815294959294938601939283018282801561166e57602002820191906000526020600020905b81548152602001906001019080831161165a575b50505050508152602001600282018054806020026020016040519081016040528092919081815260200182805480156116c657602002820191906000526020600020905b8154815260200190600101908083116116b2575b505050505081525050905060005b6116e160208a018a615987565b90508160ff161015611c1c57600060038901600161170260208d018d615987565b8560ff1681811061172357634e487b7160e01b600052603260045260246000fd5b90506020020160208101906117389190615392565b6117429190615b15565b60ff168154811061176357634e487b7160e01b600052603260045260246000fd5b600091825260209182902060408051608081018252600390930290910180546001600160a01b038116845260ff600160a01b909104168385015260018101805483518187028101870185528181529495929493860193928301828280156117e957602002820191906000526020600020905b8154815260200190600101908083116117d5575b505050505081526020016002820180548060200260200160405190810160405280929190818152602001828054801561184157602002820191906000526020600020905b81548152602001906001019080831161182d575b505050505081525050905089806020019061185c9190615987565b8360ff1681811061187d57634e487b7160e01b600052603260045260246000fd5b90506020020160208101906118929190615392565b60ff16848360ff16815181106118b857634e487b7160e01b600052603260045260246000fd5b60200260200101818152505080604001516000815181106118e957634e487b7160e01b600052603260045260246000fd5b6020026020010151848360026118ff9190615ad5565b61190a60018b615b15565b6119149190615a7d565b60ff168151811061193557634e487b7160e01b600052603260045260246000fd5b602002602001018181525050806060015160008151811061196657634e487b7160e01b600052603260045260246000fd5b60200260200101518483600261197c9190615ad5565b61198760018b615b15565b6119919190615a7d565b61199c906001615a7d565b60ff16815181106119bd57634e487b7160e01b600052603260045260246000fd5b60209081029190910101526119d560408b018b615987565b8360ff168181106119f657634e487b7160e01b600052603260045260246000fd5b9050602002810190611a089190615987565b6000818110611a2757634e487b7160e01b600052603260045260246000fd5b9050602002013584836002611a3c9190615ad5565b611a4760018b615b15565b611a52906003615ad5565b611a5c9190615a7d565b60ff1681518110611a7d57634e487b7160e01b600052603260045260246000fd5b6020908102919091010152611a9560408b018b615987565b8360ff16818110611ab657634e487b7160e01b600052603260045260246000fd5b9050602002810190611ac89190615987565b6001818110611ae757634e487b7160e01b600052603260045260246000fd5b9050602002013584836002611afc9190615ad5565b611b0760018b615b15565b611b12906003615ad5565b611b1c9190615a7d565b611b27906001615a7d565b60ff1681518110611b4857634e487b7160e01b600052603260045260246000fd5b6020908102919091010152611b6060408b018b615987565b8360ff16818110611b8157634e487b7160e01b600052603260045260246000fd5b9050602002810190611b939190615987565b6002818110611bb257634e487b7160e01b600052603260045260246000fd5b90506020020135848360018a611bc89190615b15565b611bd3906005615ad5565b611bdd9190615a7d565b60ff1681518110611bfe57634e487b7160e01b600052603260045260246000fd5b60209081029190910101525080611c1481615b60565b9150506116d4565b5060005b8660ff168160ff161015611d5e5781604001518160ff1681518110611c5557634e487b7160e01b600052603260045260246000fd5b602002602001015183826002611c6b9190615ad5565b611c7660018a615b15565b611c81906006615ad5565b611c8b9190615a7d565b60ff1681518110611cac57634e487b7160e01b600052603260045260246000fd5b60200260200101818152505081606001518160ff1681518110611cdf57634e487b7160e01b600052603260045260246000fd5b602002602001015183826002611cf59190615ad5565b611d0060018a615b15565b611d0b906006615ad5565b611d159190615a7d565b611d20906001615a7d565b60ff1681518110611d4157634e487b7160e01b600052603260045260246000fd5b602090810291909101015280611d5681615b60565b915050611c20565b50600454611d82906001600160a01b0316611d7c60608b018b6159ce565b85614810565b611dce5760405162461bcd60e51b815260206004820152601a60248201527f646b67436f6e74726163743a20696e76616c69642070726f6f6600000000000060448201526064016110d8565b60005b611dde60208a018a615987565b90508160ff161015611f3b57600588016000611dfd60208c018c615987565b8460ff16818110611e1e57634e487b7160e01b600052603260045260246000fd5b9050602002016020810190611e339190615392565b60ff1660ff16815260200190815260200160002060405180604001604052808b6000016020810190611e659190615392565b60ff168152602001611e7a60408d018d615987565b8560ff16818110611e9b57634e487b7160e01b600052603260045260246000fd5b9050602002810190611ead9190615987565b8080602002602001604051908101604052809392919081815260200183836020028082843760009201829052509390945250508354600180820186559482526020918290208451600290920201805460ff191660ff90921691909117815583820151805194959194611f259450918501920190614e4e565b5050508080611f3390615b60565b915050611dd1565b5086546001908890600390611f5b9084906301000000900460ff16615a7d565b92506101000a81548160ff021916908360ff16021790555060018760060160008a6000016020810190611f8e9190615392565b60ff168152602081019190915260409081016000908120805460ff1916931515939093179092555133917fcbf95f3b618183791a868a88964ae14f9377658670849f37ec34394d9b397f1591a2865460ff868116630100000090920416141561201d5760405189907fc3463fbc58f346b4f695c95d8d4961813c6359f5f99d1694fe87b97ace51554d90600090a25b505050505050505050565b6000818152600260205260408082208254825163091d8bc560e21b81528351929385936001600160a01b03909316926324762f14926004808201939291829003018186803b15801561207957600080fd5b505afa15801561208d573d6000803e3d6000fd5b505050506040513d601f19601f820116820180604052508101906120b191906153de565b835490925060ff808416630100000090920416141590506120d6575060029392505050565b815460ff828116620100009092041614156120f5575060019392505050565b5060009392505050565b606060036000838152602001908152602001600020600101805480602002602001604051908101604052809291908181526020016000905b828210156121a35760008481526020908190208301805460408051828502810185019091528181529283018282801561218f57602002820191906000526020600020905b81548152602001906001019080831161217b575b505050505081526020019060010190612137565b505050509050919050565b600084815260036020526040902060048101546201000090046001600160a01b0316156121da57600080fd5b83815582516121f29060018301906020860190614e99565b5081516122089060028301906020850190614e99565b50600084815260026020908152604080832054610100900460ff16808452600783528184205460089093529220546001600160a01b0391821691168161224d57600080fd5b6001600160a01b03811661226057600080fd5b60048401805462010000330262010000600160b01b03199091161790556005840180546001600160a01b038481166001600160a01b0319928316179092556006860180549284169290911691909117905560405188907f7f33e8dc3fda6075213296cd23e7e53b26993958685000c664c42945eb3a610490600090a25050505050505050565b6000805460405163c7b5784160e01b81523360048201526001600160a01b039091169063c7b578419060240160206040518083038186803b15801561232a57600080fd5b505afa15801561233e573d6000803e3d6000fd5b505050506040513d601f19601f82011682018060405250810190612362919061513f565b6123bd5760405162461bcd60e51b815260206004820152602660248201527f646b67436f6e74726163743a206d73672e73656e646572206973206e6f74204660448201526537bab73232b960d11b60648201526084016110d8565b5060018054908060006123d08285615a65565b90915550506000818152600260205260408120908084600181111561240557634e487b7160e01b600052602160045260246000fd5b14156124ce5760ff85166000908152600560205260409020546001600160a01b03166124ac5760405162461bcd60e51b815260206004820152604a60248201527f444b4720436f6e74726163743a204e6f2066756e64696e67207665726966696560448201527f7220657869737473207769746820636f72726573706f6e64696e672064696d656064820152696e73696f6e616c69747960b01b608482015260a4016110d8565b5060ff84166000908152600560205260409020546001600160a01b03166125b4565b60018460018111156124f057634e487b7160e01b600052602160045260246000fd5b14156125b45760ff85166000908152600660205260409020546001600160a01b03166125965760405162461bcd60e51b815260206004820152604960248201527f444b4720436f6e74726163743a204e6f20766f74696e6720766572696669657260448201527f20657869737473207769746820636f72726573706f6e64696e672064696d656e60648201526873696f6e616c69747960b81b608482015260a4016110d8565b5060ff84166000908152600660205260409020546001600160a01b03165b81548490839060ff1916600183818111156125df57634e487b7160e01b600052602160045260246000fd5b0217905550815463ffff0100600160c01b03191661010060ff871602640100000000600160c01b031916176401000000006001600160a01b038316021782556000600180840182905560028401556007830181905560405184917fb913edc288e7b51dacd1a7a204ef40eda6d9d2b6249b86cfd65e4880a54f9d2791a2505092915050565b600054604051638c9540d360e01b81523360048201526001600160a01b0390911690638c9540d39060240160206040518083038186803b1580156126a757600080fd5b505afa1580156126bb573d6000803e3d6000fd5b505050506040513d601f19601f820116820180604052508101906126df919061513f565b6126fb5760405162461bcd60e51b81526004016110d890615829565b60008281526003602090815260408083208054845260029092528083208354825163091d8bc560e21b8152835194959294929384936001600160a01b03909316926324762f14926004808201939291829003018186803b15801561275e57600080fd5b505afa158015612772573d6000803e3d6000fd5b505050506040513d601f19601f8201168201806040525081019061279691906153de565b8454600487015492945090925060ff61010090910416906201000090046001600160a01b03166127c557600080fd5b60006127d088613ee3565b60028111156127ef57634e487b7160e01b600052602160045260246000fd5b146127f957600080fd5b60016128086020880188615392565b60ff161015801561282b575060ff82166128256020880188615392565b60ff1611155b61283457600080fd5b60ff81166128456020880188615987565b90501461285157600080fd5b600060038501600161286660208a018a615392565b6128709190615b15565b60ff168154811061289157634e487b7160e01b600052603260045260246000fd5b600091825260209182902060408051608081018252600390930290910180546001600160a01b038116845260ff600160a01b9091041683850152600181018054835181870281018701855281815294959294938601939283018282801561291757602002820191906000526020600020905b815481526020019060010190808311612903575b505050505081526020016002820180548060200260200160405190810160405280929190818152602001828054801561296f57602002820191906000526020600020905b81548152602001906001019080831161295b575b50505091909252509192506000915050600586018161299160208b018b615392565b60ff1660ff168152602001908152602001600020805480602002602001604051908101604052809291908181526020016000905b82821015612a5457600084815260209081902060408051808201825260028602909201805460ff168352600181018054835181870281018701909452808452939491938583019392830182828015612a3c57602002820191906000526020600020905b815481526020019060010190808311612a28575b505050505081525050815260200190600101906129c5565b505050600589015460408051639447d89360e01b815290519394506001600160a01b0390911692600092508391639447d893916004808301926020929190829003018186803b158015612aa657600080fd5b505afa158015612aba573d6000803e3d6000fd5b505050506040513d601f19601f82011682018060405250810190612ade91906152d8565b6001600160401b03811115612b0357634e487b7160e01b600052604160045260246000fd5b604051908082528060200260200182016040528015612b2c578160200160208202803683370190505b509050612b3a600187615b15565b9550612b4960208b018b615392565b60ff1681600081518110612b6d57634e487b7160e01b600052603260045260246000fd5b60200260200101818152505060005b8760ff168160ff161015612c905784604001518160ff1681518110612bb157634e487b7160e01b600052603260045260246000fd5b602002602001015182826002612bc79190615ad5565b612bd2906001615a7d565b60ff1681518110612bf357634e487b7160e01b600052603260045260246000fd5b60200260200101818152505084606001518160ff1681518110612c2657634e487b7160e01b600052603260045260246000fd5b602002602001015182826002612c3c9190615ad5565b612c47906001615a7d565b612c52906001615a7d565b60ff1681518110612c7357634e487b7160e01b600052603260045260246000fd5b602090810291909101015280612c8881615b60565b915050612b7c565b5060005b8660ff168160ff161015612edf57838160ff1681518110612cc557634e487b7160e01b600052603260045260246000fd5b602002602001015160200151600081518110612cf157634e487b7160e01b600052603260045260246000fd5b602002602001015182896002612d079190615ad5565b612d12846002615ad5565b612d1c9190615a7d565b612d27906001615a7d565b60ff1681518110612d4857634e487b7160e01b600052603260045260246000fd5b602002602001018181525050838160ff1681518110612d7757634e487b7160e01b600052603260045260246000fd5b602002602001015160200151600181518110612da357634e487b7160e01b600052603260045260246000fd5b602002602001015182896002612db99190615ad5565b612dc4846002615ad5565b612dcf906001615a7d565b612dd99190615a7d565b612de4906001615a7d565b60ff1681518110612e0557634e487b7160e01b600052603260045260246000fd5b602002602001018181525050838160ff1681518110612e3457634e487b7160e01b600052603260045260246000fd5b602002602001015160200151600281518110612e6057634e487b7160e01b600052603260045260246000fd5b602002602001015182896002612e769190615ad5565b83612e828b6002615ad5565b612e8c9190615a7d565b612e969190615a7d565b612ea1906001615a7d565b60ff1681518110612ec257634e487b7160e01b600052603260045260246000fd5b602090810291909101015280612ed781615b60565b915050612c94565b5060005b8560ff168160ff16101561328a57896001018160ff1681548110612f1757634e487b7160e01b600052603260045260246000fd5b90600052602060002001600081548110612f4157634e487b7160e01b600052603260045260246000fd5b906000526020600020015482896002612f5a9190615ad5565b612f65846002615ad5565b612f708b6003615ad5565b612f7a9190615a7d565b612f849190615a7d565b612f8f906001615a7d565b60ff1681518110612fb057634e487b7160e01b600052603260045260246000fd5b602002602001018181525050896001018160ff1681548110612fe257634e487b7160e01b600052603260045260246000fd5b9060005260206000200160018154811061300c57634e487b7160e01b600052603260045260246000fd5b9060005260206000200154828960026130259190615ad5565b613030846002615ad5565b61303b8b6003615ad5565b6130459190615a7d565b613050906001615a7d565b61305a9190615a7d565b613065906001615a7d565b60ff168151811061308657634e487b7160e01b600052603260045260246000fd5b6020026020010181815250508a80602001906130a29190615987565b8260ff168181106130c357634e487b7160e01b600052603260045260246000fd5b90506020028101906130d59190615987565b60008181106130f457634e487b7160e01b600052603260045260246000fd5b90506020020135828960026131099190615ad5565b613114846002615ad5565b61311f8a6002615ad5565b61312a8c6003615ad5565b6131349190615a7d565b61313e9190615a7d565b6131489190615a7d565b613153906001615a7d565b60ff168151811061317457634e487b7160e01b600052603260045260246000fd5b6020026020010181815250508a80602001906131909190615987565b8260ff168181106131b157634e487b7160e01b600052603260045260246000fd5b90506020028101906131c39190615987565b60018181106131e257634e487b7160e01b600052603260045260246000fd5b90506020020135828960026131f79190615ad5565b613202846002615ad5565b61320d8a6002615ad5565b6132188c6003615ad5565b6132229190615a7d565b61322c9190615a7d565b613237906001615a7d565b6132419190615a7d565b61324c906001615a7d565b60ff168151811061326d57634e487b7160e01b600052603260045260246000fd5b60209081029190910101528061328281615b60565b915050612ee3565b506132a28261329c60408d018d6159ce565b84614810565b506040805180820190915260038a0190806132c060208e018e615392565b60ff1681526020018c80602001906132d89190615987565b6132e191615b38565b905281546001808201845560009384526020938490208351600290930201805460ff191660ff9093169290921782558284015180519394929361332c93928501929190910190614e99565b5050506004890180546001919060009061334a90849060ff16615a7d565b92506101000a81548160ff021916908360ff160217905550336001600160a01b03167f26d7a520fc4230ffa9c112ead1358fb765e1bb7253ec3ddeb7b99255c74f8d8a60405160405180910390a25050505050505050505050565b606060036000838152602001908152602001600020600201805480602002602001604051908101604052809291908181526020016000905b828210156121a35760008481526020908190208301805460408051828502810185019091528181529283018282801561343557602002820191906000526020600020905b815481526020019060010190808311613421575b5050505050815260200190600101906133dd565b60008181526002602081905260408220829161346485612028565b600381111561348357634e487b7160e01b600052602160045260246000fd5b1461348d57600080fd5b806001015481600201549250925050915091565b60008054604051638c9540d360e01b81523360048201526001600160a01b0390911690638c9540d39060240160206040518083038186803b1580156134e557600080fd5b505afa1580156134f9573d6000803e3d6000fd5b505050506040513d601f19601f8201168201806040525081019061351d919061513f565b6135395760405162461bcd60e51b81526004016110d890615829565b6000838152600260205260408082208254825163091d8bc560e21b815283519294936001600160a01b03909216926324762f1492600480840193919291829003018186803b15801561358a57600080fd5b505afa15801561359e573d6000803e3d6000fd5b505050506040513d601f19601f820116820180604052508101906135c291906153de565b5033600090815260048401602052604090205490915060ff16156135f85760405162461bcd60e51b81526004016110d8906157cc565b60015485106136575760405162461bcd60e51b815260206004820152602560248201527f646b67436f6e74726163743a20696e76616c696420646973747269627574656460448201526412d95e525160da1b60648201526084016110d8565b600061366286612028565b600381111561368157634e487b7160e01b600052602160045260246000fd5b146136eb5760405162461bcd60e51b815260206004820152603460248201527f646b67436f6e74726163743a206b65792773207374617465206973206e6f7420604482015273434f4e545249425554494f4e5f524f554e445f3160601b60648201526084016110d8565b6136f86020850185615987565b90506137048580615987565b9050148015613720575060ff811661371c8580615987565b9050145b61373c5760405162461bcd60e51b81526004016110d890615871565b60005b8160ff168110156137d1576137b66137578680615987565b8381811061377557634e487b7160e01b600052603260045260246000fd5b9050602002013586806020019061378c9190615987565b848181106137aa57634e487b7160e01b600052603260045260246000fd5b90506020020135614b15565b6137bf57600080fd5b806137c981615b45565b91505061373f565b50815460019083906002906137f090849062010000900460ff16615a7d565b82546101009290920a60ff818102199093169183160217909155604080516080810182523381528554620100009004909216602083015260038501925081016138398780615987565b8080602002602001604051908101604052809392919081815260200183836020028082843760009201919091525050509082525060209081019061387f90880188615987565b808060200260200160405190810160405280939291908181526020018383602002808284376000920182905250939094525050835460018181018655948252602091829020845160039092020180548386015160ff16600160a01b026001600160a81b03199091166001600160a01b039093169290921791909117815560408401518051949591946139179450918501920190614e4e565b5060608201518051613933916002840191602090910190614e4e565b505050600182015460028301546139b0919061394f8780615987565b600081811061396e57634e487b7160e01b600052603260045260246000fd5b905060200201358780602001906139859190615987565b60008181106139a457634e487b7160e01b600052603260045260246000fd5b90506020020135614bbf565b6002840155600180840191909155336000818152600485016020526040808220805460ff1916909417909355915190917f3ce2f4976bf732c26e4b564b81638703c5a3dfbda3e03d88565dc5a29746bac591a2505462010000900460ff1690505b92915050565b600080613a2383612028565b6003811115613a4257634e487b7160e01b600052602160045260246000fd5b11613aa25760405162461bcd60e51b815260206004820152602a60248201527f646b67436f6e74726163743a206e6f7420646f6e6520434f4e545249425554496044820152694f4e5f524f554e445f3160b01b60648201526084016110d8565b600082815260026020908152604080832060030180548251818502810185019093528083529192909190849084015b82821015613bcd576000848152602090819020604080516080810182526003860290920180546001600160a01b0381168452600160a01b900460ff16838501526001810180548351818702810187018552818152949592949386019392830182828015613b5d57602002820191906000526020600020905b815481526020019060010190808311613b49575b5050505050815260200160028201805480602002602001604051908101604052809291908181526020018280548015613bb557602002820191906000526020600020905b815481526020019060010190808311613ba1575b50505050508152505081526020019060010190613ad1565b50505050905060005b81518160ff161015613c5057846001600160a01b0316828260ff1681518110613c0f57634e487b7160e01b600052603260045260246000fd5b6020026020010151600001516001600160a01b03161415613c3e57613c35816001615a7d565b92505050613a11565b80613c4881615b60565b915050613bd6565b5060405162461bcd60e51b815260206004820152602660248201527f646b67436f6e74726163743a20696e76616c6964205f636f6d6d69747465654160448201526564647265737360d01b60648201526084016110d8565b606060036000838152602001908152602001600020600301805480602002602001604051908101604052809291908181526020016000905b828210156121a3576000848152602080822060408051808201825260028702909201805460ff168352600181018054835181870281018701909452808452939591948681019491929084015b82821015613d9857600084815260209081902083018054604080518285028101850190915281815292830182828015613d8457602002820191906000526020600020905b815481526020019060010190808311613d70575b505050505081526020019060010190613d2c565b505050508152505081526020019060010190613ce0565b606060026000838152602001908152602001600020600301805480602002602001604051908101604052809291908181526020016000905b828210156121a3576000848152602090819020604080516080810182526003860290920180546001600160a01b0381168452600160a01b900460ff16838501526001810180548351818702810187018552818152949592949386019392830182828015613e7357602002820191906000526020600020905b815481526020019060010190808311613e5f575b5050505050815260200160028201805480602002602001604051908101604052809291908181526020018280548015613ecb57602002820191906000526020600020905b815481526020019060010190808311613eb7575b50505050508152505081526020019060010190613de7565b600081815260036020908152604080832081516101208101835281548152600182018054845181870281018701909552808552869592948584019390929190879084015b82821015613f9357600084815260209081902083018054604080518285028101850190915281815292830182828015613f7f57602002820191906000526020600020905b815481526020019060010190808311613f6b575b505050505081526020019060010190613f27565b50505050815260200160028201805480602002602001604051908101604052809291908181526020016000905b8282101561402c5760008481526020908190208301805460408051828502810185019091528181529283018282801561401857602002820191906000526020600020905b815481526020019060010190808311614004575b505050505081526020019060010190613fc0565b50505050815260200160038201805480602002602001604051908101604052809291908181526020016000905b82821015614128576000848152602080822060408051808201825260028702909201805460ff168352600181018054835181870281018701909452808452939591948681019491929084015b82821015614111576000848152602090819020830180546040805182850281018501909152818152928301828280156140fd57602002820191906000526020600020905b8154815260200190600101908083116140e9575b5050505050815260200190600101906140a5565b505050508152505081526020019060010190614059565b5050509082525060048281015460ff80821660208501526101008204161515604080850191909152620100009091046001600160a01b039081166060850152600585015481166080850152600690940154841660a09093019290925260008054835163091d8bc560e21b8152845196975091959416936324762f1493828401939092829003018186803b1580156141be57600080fd5b505afa1580156141d2573d6000803e3d6000fd5b505050506040513d601f19601f820116820180604052508101906141f691906153de565b5090508160a001511561420d575060029392505050565b8060ff16826080015160ff1614156120f5575060019392505050565b600082815260026020908152604080832060ff851684526005018252808320805482518185028101850190935280835260609492939192909184015b828210156142f457600084815260209081902060408051808201825260028602909201805460ff1683526001810180548351818702810187019094528084529394919385830193928301828280156142dc57602002820191906000526020600020905b8154815260200190600101908083116142c8575b50505050508152505081526020019060010190614265565b50505050905092915050565b61436f60405180610120016040528060008152602001606081526020016060815260200160608152602001600060ff16815260200160001515815260200160006001600160a01b0316815260200160006001600160a01b0316815260200160006001600160a01b031681525090565b60036000838152602001908152602001600020604051806101200160405290816000820154815260200160018201805480602002602001604051908101604052809291908181526020016000905b828210156144295760008481526020908190208301805460408051828502810185019091528181529283018282801561441557602002820191906000526020600020905b815481526020019060010190808311614401575b5050505050815260200190600101906143bd565b50505050815260200160028201805480602002602001604051908101604052809291908181526020016000905b828210156144c2576000848152602090819020830180546040805182850281018501909152818152928301828280156144ae57602002820191906000526020600020905b81548152602001906001019080831161449a575b505050505081526020019060010190614456565b50505050815260200160038201805480602002602001604051908101604052809291908181526020016000905b828210156145be576000848152602080822060408051808201825260028702909201805460ff168352600181018054835181870281018701909452808452939591948681019491929084015b828210156145a75760008481526020908190208301805460408051828502810185019091528181529283018282801561459357602002820191906000526020600020905b81548152602001906001019080831161457f575b50505050508152602001906001019061453b565b5050505081525050815260200190600101906144ef565b50505090825250600482015460ff8082166020840152610100820416151560408301526001600160a01b03620100009091048116606083015260058301548116608083015260069092015490911660a09091015292915050565b6060600082516001600160401b0381111561464357634e487b7160e01b600052604160045260246000fd5b60405190808252806020026020018201604052801561466c578160200160208202803683370190505b50905060005b83518160ff161015614809576000848260ff16815181106146a357634e487b7160e01b600052603260045260246000fd5b602090810291909101015190506001806000805b88518160ff161015614774576000898260ff16815181106146e857634e487b7160e01b600052603260045260246000fd5b602002602001015190508060ff168660ff16146147615761470c60ff821686615ab6565b94508560ff168160ff16101561474757614727600184615a7d565b92506147338187615b15565b6147409060ff1685615ab6565b9350614761565b6147518682615b15565b61475e9060ff1685615ab6565b93505b508061476c81615b60565b9150506146b7565b50614780600282615b80565b60ff16600114156147a6576147a382600080516020615c2a833981519152615afe565b91505b6147af82614d0d565b9150600080516020615c2a833981519152828409868660ff16815181106147e657634e487b7160e01b600052603260045260246000fd5b60200260200101818152505050505050808061480190615b60565b915050614672565b5092915050565b6000846001600160a01b0316639447d8936040518163ffffffff1660e01b815260040160206040518083038186803b15801561484b57600080fd5b505afa15801561485f573d6000803e3d6000fd5b505050506040513d601f19601f8201168201806040525081019061488391906152d8565b82511461488f57600080fd5b600061489d848601866150bb565b905060005b60088160ff161015614961577f30644e72e131a029b85045b68181585d97816a916871ca8d3c208c16d87cfd47828260ff16600881106148f257634e487b7160e01b600052603260045260246000fd5b60200201511061494f5760405162461bcd60e51b815260206004820152602260248201527f76657269666965722d70726f6f662d656c656d656e742d6774652d7072696d656044820152612d7160f01b60648201526084016110d8565b8061495981615b60565b9150506148a2565b50856001600160a01b031663c32e370e60405180604001604052808460006008811061499d57634e487b7160e01b600052603260045260246000fd5b60200201518152602001846001600881106149c857634e487b7160e01b600052603260045260246000fd5b6020020151905260408051608081018252858201519181019182529081906060820187600360200201518152508152602001604051806040016040528087600460088110614a2657634e487b7160e01b600052603260045260246000fd5b6020020151815260200187600560088110614a5157634e487b7160e01b600052603260045260246000fd5b60200201519052905260408051808201909152808660066020020151815260200186600760088110614a9357634e487b7160e01b600052603260045260246000fd5b6020020151815250876040518563ffffffff1660e01b8152600401614abb9493929190615690565b60206040518083038186803b158015614ad357600080fd5b505afa158015614ae7573d6000803e3d6000fd5b505050506040513d601f19601f82011682018060405250810190614b0b919061513f565b9695505050505050565b600080600080516020615c0a83398151915284850990506000600080516020615c0a83398151915284850990506000600080516020615c0a83398151915282600080516020615c0a83398151915285620292fc090890506000600080516020615c0a8339815191528084600080516020615c0a83398151915287620292f809096001089050614bb38282600080516020615c0a833981519152614d93565b15979650505050505050565b60008085158015614bce575084155b15614bdd575082905081614d04565b83158015614be9575084155b15614bf8575084905083614d04565b6000600080516020615c0a83398151915285880990506000600080516020615c0a83398151915285880990506000600080516020615c0a83398151915280838509620292f80990506000600080516020615c0a83398151915280898b09600080516020615c0a833981519152898d090890506000614c9984600080516020615c0a83398151915287620292fc09600080516020615c0a833981519152614d93565b9050600080516020615c0a833981519152614cc5600080516020615c0a83398151915285600108614ddc565b83099650600080516020615c0a833981519152614cfa614cf5600186600080516020615c0a833981519152614d93565b614ddc565b8209955050505050505b94509492505050565b6000806001600080516020615c2a83398151915284835b8115614d8857614d348284615aa2565b905083600080516020615c2a83398151915280868409614d6290600080516020615c2a833981519152615afe565b8708909550935081614d748183615ab6565b614d7e9085615afe565b9093509150614d24565b509295945050505050565b600083838111614daa57614da78382615a65565b90505b8280614dc657634e487b7160e01b600052601260045260246000fd5b6000614dd28684615afe565b0895945050505050565b6000613a1182614dfb6002600080516020615c0a833981519152615afe565b600080516020615c0a833981519152600060405160208152602080820152602060408201528460608201528360808201528260a082015260208160c08360055afa8080156101cf57505051949350505050565b828054828255906000526020600020908101928215614e89579160200282015b82811115614e89578251825591602001919060010190614e6e565b50614e95929150614ef2565b5090565b828054828255906000526020600020908101928215614ee6579160200282015b82811115614ee65782518051614ed6918491602090910190614e4e565b5091602001919060010190614eb9565b50614e95929150614f07565b5b80821115614e955760008155600101614ef3565b80821115614e95576000614f1b8282614f24565b50600101614f07565b5080546000825590600052602060002090810190614f429190614ef2565b50565b6000614f58614f5384615a42565b615a12565b838152905060208082019083600586811b8201881015614f7757600080fd5b60005b8781101561500d5782356001600160401b03811115614f9857600080fd5b8701601f81018a13614fa957600080fd5b8035614fb7614f5382615a42565b8181528681019083880183871b850189018e1015614fd457600080fd5b600094505b83851015614ff7578035835260019490940193918801918801614fd9565b5088525050509383019391830191600101614f7a565b50505050509392505050565b600082601f830112615029578081fd5b61503883833560208501614f45565b9392505050565b60008083601f840112615050578182fd5b5081356001600160401b03811115615066578182fd5b60208301915083602082850101111561507e57600080fd5b9250929050565b60008060408385031215615097578182fd5b82356001600160a01b03811681146150ad578283fd5b946020939093013593505050565b60006101008083850312156150ce578182fd5b83601f8401126150dc578182fd5b6040518181018181106001600160401b03821117156150fd576150fd615be4565b6040528084838101871015615110578485fd5b8493505b600884101561513457803582526001939093019260209182019101615114565b509095945050505050565b600060208284031215615150578081fd5b81518015158114615038578182fd5b600060208284031215615170578081fd5b5035919050565b60008060008060006060868803121561518e578081fd5b8535945060208601356001600160401b03808211156151ab578283fd5b818801915088601f8301126151be578283fd5b8135818111156151cc578384fd5b8960208260051b85010111156151e0578384fd5b6020830196508095505060408801359150808211156151fd578283fd5b5061520a8882890161503f565b969995985093965092949392505050565b6000806040838503121561522d578182fd5b8235915060208301356001600160401b03811115615249578182fd5b83016060818603121561525a578182fd5b809150509250929050565b6000806000806080858703121561527a578081fd5b843593506020850135925060408501356001600160401b038082111561529e578283fd5b6152aa88838901615019565b935060608701359150808211156152bf578283fd5b506152cc87828801615019565b91505092959194509250565b6000602082840312156152e9578081fd5b5051919050565b60008060408385031215615302578182fd5b8235915060208301356001600160401b0381111561531e578182fd5b83016040818603121561525a578182fd5b60008060408385031215615341578182fd5b8235915060208301356001600160401b0381111561535d578182fd5b83016080818603121561525a578182fd5b60008060408385031215615380578182fd5b82359150602083013561525a81615bfa565b6000602082840312156153a3578081fd5b813561503881615bfa565b600080604083850312156153c0578182fd5b82356153cb81615bfa565b915060208301356002811061525a578182fd5b600080604083850312156153f0578182fd5b82516153fb81615bfa565b602084015190925061525a81615bfa565b6000815180845260208085019450848260051b8601828601855b8581101561545057838303895261543e8383516154e1565b98850198925090840190600101615426565b5090979650505050505050565b6000815180845260208085019450848260051b8601828601855b858110156154505783830389528151805160ff16845285015160408685018190526154a48186018361540c565b9a87019a9450505090840190600101615477565b8060005b60028110156154db5781518452602093840193909101906001016154bc565b50505050565b6000815180845260208085019450808401835b83811015615510578151875295820195908201906001016154f4565b509495945050505050565b6002811061552b5761552b615bce565b9052565b60006001600160fb1b03831115615544578081fd5b8260051b808584379190910190815292915050565b602081526000615038602083018461540c565b60006020808301818452808551808352604092508286019150828160051b870101848801865b8381101561560757888303603f19018552815180516001600160a01b031684528781015160ff1688850152868101516080888601819052906155d6828701826154e1565b915050606080830151925085820381870152506155f381836154e1565b968901969450505090860190600101615592565b509098975050505050505050565b60006020808301818452808551808352604092508286019150828160051b870101848801865b8381101561560757888303603f190185528151805160ff16845287015187840187905261566a878501826154e1565b958801959350509086019060010161563b565b602081526000615038602083018461545d565b600061012061569f83886154b8565b604080840187845b60028110156156ce576156bb8383516154b8565b91830191602091909101906001016156a7565b505050506156df60c08401866154b8565b806101008401526156f2818401856154e1565b979650505050505050565b838152604060208201819052810182905260006001600160fb1b03831115615723578081fd5b8260051b80856060850137919091016060019081529392505050565b602081016004831061575357615753615bce565b91905290565b60208101613a11828461551b565b6101008101615776828b61551b565b60ff988916602083015296881660408201529490961660608501526001600160a01b0392909216608084015260a083015260c082015260e00191909152919050565b602081016003831061575357615753615bce565b60208082526037908201527f646b67436f6e74726163743a20596f7520617265206e6f7420616c6c6f77207460408201527f6f207375626d6974206d756c7469706c652074696d6573000000000000000000606082015260800190565b60208082526028908201527f646b67436f6e74726163743a206d73672e73656e646572206973206e6f7420436040820152676f6d6d697474656560c01b606082015260800190565b60208082526021908201527f646b67436f6e74726163743a20696e76616c696420696e707574206c656e67746040820152600d60fb1b606082015260800190565b6020815281516020820152600060208301516101208060408501526158db61014085018361540c565b91506040850151601f19808685030160608701526158f9848361540c565b9350606087015191508086850301608087015250615917838261545d565b925050608085015161592e60a086018260ff169052565b5060a085015180151560c08601525060c08501516001600160a01b03811660e08601525060e085015161010061596e818701836001600160a01b03169052565b909501516001600160a01b031693019290925250919050565b6000808335601e1984360301811261599d578283fd5b8301803591506001600160401b038211156159b6578283fd5b6020019150600581901b360382131561507e57600080fd5b6000808335601e198436030181126159e4578283fd5b8301803591506001600160401b038211156159fd578283fd5b60200191503681900382131561507e57600080fd5b604051601f8201601f191681016001600160401b0381118282101715615a3a57615a3a615be4565b604052919050565b60006001600160401b03821115615a5b57615a5b615be4565b5060051b60200190565b60008219821115615a7857615a78615ba2565b500190565b600060ff821660ff84168060ff03821115615a9a57615a9a615ba2565b019392505050565b600082615ab157615ab1615bb8565b500490565b6000816000190483118215151615615ad057615ad0615ba2565b500290565b600060ff821660ff84168160ff0481118215151615615af657615af6615ba2565b029392505050565b600082821015615b1057615b10615ba2565b500390565b600060ff821660ff841680821015615b2f57615b2f615ba2565b90039392505050565b6000615038368484614f45565b6000600019821415615b5957615b59615ba2565b5060010190565b600060ff821660ff811415615b7757615b77615ba2565b60010192915050565b600060ff831680615b9357615b93615bb8565b8060ff84160691505092915050565b634e487b7160e01b600052601160045260246000fd5b634e487b7160e01b600052601260045260246000fd5b634e487b7160e01b600052602160045260246000fd5b634e487b7160e01b600052604160045260246000fd5b60ff81168114614f4257600080fdfe30644e72e131a029b85045b68181585d2833e84879b9709143e1f593f0000001060c89ce5c263405370a08b6d0302b0bab3eedb83920ee0a677297dc392126f1a26469706673582212209ba600d3fb285f9b682a256f267e76069a9fb38299056532794b1f4b5b716eb364736f6c63430008040033",
    "linkReferences": {},
    "deployedLinkReferences": {}
}