{
    "_format": "hh-sol-artifact-1",
    "contractName": "DKG",
    "sourceName": "contracts/DKG.sol",
    "abi": [
        {
            "inputs": [
                {
                    "components": [
                        {
                            "internalType": "address",
                            "name": "round2Verfier",
                            "type": "address"
                        },
                        {
                            "internalType": "address",
                            "name": "fundingVerifier",
                            "type": "address"
                        },
                        {
                            "internalType": "address",
                            "name": "votingVerifier",
                            "type": "address"
                        },
                        {
                            "internalType": "address",
                            "name": "tallyContributionVerifier",
                            "type": "address"
                        },
                        {
                            "internalType": "address",
                            "name": "resultVerifier",
                            "type": "address"
                        }
                    ],
                    "internalType": "struct IDKG.DKGConfig",
                    "name": "_dkgConfig",
                    "type": "tuple"
                }
            ],
            "stateMutability": "nonpayable",
            "type": "constructor"
        },
        {
            "anonymous": false,
            "inputs": [
                {
                    "indexed": true,
                    "internalType": "uint256",
                    "name": "distributedKeyID",
                    "type": "uint256"
                }
            ],
            "name": "DistributedKeyActivated",
            "type": "event"
        },
        {
            "anonymous": false,
            "inputs": [
                {
                    "indexed": true,
                    "internalType": "uint256",
                    "name": "distributedKeyID",
                    "type": "uint256"
                }
            ],
            "name": "DistributedKeyGenerated",
            "type": "event"
        },
        {
            "anonymous": false,
            "inputs": [
                {
                    "indexed": true,
                    "internalType": "address",
                    "name": "submitter",
                    "type": "address"
                }
            ],
            "name": "Round1DataSubmitted",
            "type": "event"
        },
        {
            "anonymous": false,
            "inputs": [
                {
                    "indexed": true,
                    "internalType": "address",
                    "name": "submitter",
                    "type": "address"
                }
            ],
            "name": "Round2DataSubmitted",
            "type": "event"
        },
        {
            "anonymous": false,
            "inputs": [
                {
                    "indexed": true,
                    "internalType": "address",
                    "name": "submitter",
                    "type": "address"
                }
            ],
            "name": "TallyContributionSubmitted",
            "type": "event"
        },
        {
            "anonymous": false,
            "inputs": [
                {
                    "indexed": true,
                    "internalType": "address",
                    "name": "submitter",
                    "type": "address"
                },
                {
                    "indexed": true,
                    "internalType": "bytes32",
                    "name": "requestID",
                    "type": "bytes32"
                },
                {
                    "indexed": true,
                    "internalType": "uint256[]",
                    "name": "result",
                    "type": "uint256[]"
                }
            ],
            "name": "TallyResultSubmitted",
            "type": "event"
        },
        {
            "anonymous": false,
            "inputs": [
                {
                    "indexed": true,
                    "internalType": "bytes32",
                    "name": "requestID",
                    "type": "bytes32"
                }
            ],
            "name": "TallyStarted",
            "type": "event"
        },
        {
            "inputs": [],
            "name": "distributedKeyCounter",
            "outputs": [
                {
                    "internalType": "uint256",
                    "name": "",
                    "type": "uint256"
                }
            ],
            "stateMutability": "view",
            "type": "function"
        },
        {
            "inputs": [
                {
                    "internalType": "uint256",
                    "name": "",
                    "type": "uint256"
                }
            ],
            "name": "distributedKeys",
            "outputs": [
                {
                    "internalType": "enum IDKG.DistributedKeyType",
                    "name": "keyType",
                    "type": "uint8"
                },
                {
                    "internalType": "uint8",
                    "name": "dimension",
                    "type": "uint8"
                },
                {
                    "internalType": "uint8",
                    "name": "round1Counter",
                    "type": "uint8"
                },
                {
                    "internalType": "uint8",
                    "name": "round2Counter",
                    "type": "uint8"
                },
                {
                    "internalType": "address",
                    "name": "verifier",
                    "type": "address"
                },
                {
                    "internalType": "uint256",
                    "name": "publicKeyX",
                    "type": "uint256"
                },
                {
                    "internalType": "uint256",
                    "name": "publicKeyY",
                    "type": "uint256"
                },
                {
                    "internalType": "uint256",
                    "name": "usageCounter",
                    "type": "uint256"
                }
            ],
            "stateMutability": "view",
            "type": "function"
        },
        {
            "inputs": [
                {
                    "internalType": "uint256",
                    "name": "",
                    "type": "uint256"
                }
            ],
            "name": "fundingVerifiers",
            "outputs": [
                {
                    "internalType": "contract IVerifier",
                    "name": "",
                    "type": "address"
                }
            ],
            "stateMutability": "view",
            "type": "function"
        },
        {
            "inputs": [
                {
                    "internalType": "uint8",
                    "name": "_dimension",
                    "type": "uint8"
                },
                {
                    "internalType": "enum IDKG.DistributedKeyType",
                    "name": "_distributedKeyType",
                    "type": "uint8"
                }
            ],
            "name": "generateDistributedKey",
            "outputs": [
                {
                    "internalType": "uint256",
                    "name": "distributedKeyID",
                    "type": "uint256"
                }
            ],
            "stateMutability": "nonpayable",
            "type": "function"
        },
        {
            "inputs": [
                {
                    "internalType": "address",
                    "name": "_committeeAddress",
                    "type": "address"
                },
                {
                    "internalType": "uint256",
                    "name": "_distributedKeyID",
                    "type": "uint256"
                }
            ],
            "name": "getCommitteeIndex",
            "outputs": [
                {
                    "internalType": "uint8",
                    "name": "",
                    "type": "uint8"
                }
            ],
            "stateMutability": "view",
            "type": "function"
        },
        {
            "inputs": [
                {
                    "internalType": "uint256",
                    "name": "_distributedKeyID",
                    "type": "uint256"
                }
            ],
            "name": "getDimension",
            "outputs": [
                {
                    "internalType": "uint8",
                    "name": "",
                    "type": "uint8"
                }
            ],
            "stateMutability": "view",
            "type": "function"
        },
        {
            "inputs": [
                {
                    "internalType": "uint256",
                    "name": "_distributedKeyID",
                    "type": "uint256"
                }
            ],
            "name": "getDistributedKeyState",
            "outputs": [
                {
                    "internalType": "enum IDKG.DistributedKeyState",
                    "name": "",
                    "type": "uint8"
                }
            ],
            "stateMutability": "view",
            "type": "function"
        },
        {
            "inputs": [
                {
                    "internalType": "bytes32",
                    "name": "_requestID",
                    "type": "bytes32"
                }
            ],
            "name": "getM",
            "outputs": [
                {
                    "internalType": "uint256[][]",
                    "name": "",
                    "type": "uint256[][]"
                }
            ],
            "stateMutability": "view",
            "type": "function"
        },
        {
            "inputs": [
                {
                    "internalType": "uint256",
                    "name": "_distributedKeyID",
                    "type": "uint256"
                }
            ],
            "name": "getPublicKey",
            "outputs": [
                {
                    "internalType": "uint256",
                    "name": "",
                    "type": "uint256"
                },
                {
                    "internalType": "uint256",
                    "name": "",
                    "type": "uint256"
                }
            ],
            "stateMutability": "view",
            "type": "function"
        },
        {
            "inputs": [
                {
                    "internalType": "bytes32",
                    "name": "_requestID",
                    "type": "bytes32"
                }
            ],
            "name": "getR",
            "outputs": [
                {
                    "internalType": "uint256[][]",
                    "name": "",
                    "type": "uint256[][]"
                }
            ],
            "stateMutability": "view",
            "type": "function"
        },
        {
            "inputs": [
                {
                    "internalType": "uint256",
                    "name": "_distributedKeyID",
                    "type": "uint256"
                }
            ],
            "name": "getRound1DataSubmissions",
            "outputs": [
                {
                    "components": [
                        {
                            "internalType": "address",
                            "name": "sender",
                            "type": "address"
                        },
                        {
                            "internalType": "uint8",
                            "name": "senderIndex",
                            "type": "uint8"
                        },
                        {
                            "internalType": "uint256[]",
                            "name": "x",
                            "type": "uint256[]"
                        },
                        {
                            "internalType": "uint256[]",
                            "name": "y",
                            "type": "uint256[]"
                        }
                    ],
                    "internalType": "struct IDKG.Round1DataSubmission[]",
                    "name": "",
                    "type": "tuple[]"
                }
            ],
            "stateMutability": "view",
            "type": "function"
        },
        {
            "inputs": [
                {
                    "internalType": "uint256",
                    "name": "_distributedKeyID",
                    "type": "uint256"
                },
                {
                    "internalType": "uint8",
                    "name": "_recipientIndex",
                    "type": "uint8"
                }
            ],
            "name": "getRound2DataSubmissions",
            "outputs": [
                {
                    "components": [
                        {
                            "internalType": "uint8",
                            "name": "senderIndex",
                            "type": "uint8"
                        },
                        {
                            "internalType": "uint256[]",
                            "name": "ciphers",
                            "type": "uint256[]"
                        }
                    ],
                    "internalType": "struct IDKG.Round2DataSubmission[]",
                    "name": "",
                    "type": "tuple[]"
                }
            ],
            "stateMutability": "view",
            "type": "function"
        },
        {
            "inputs": [
                {
                    "internalType": "bytes32",
                    "name": "_requestID",
                    "type": "bytes32"
                }
            ],
            "name": "getTallyDataSubmissions",
            "outputs": [
                {
                    "components": [
                        {
                            "internalType": "uint8",
                            "name": "senderIndex",
                            "type": "uint8"
                        },
                        {
                            "internalType": "uint256[][]",
                            "name": "Di",
                            "type": "uint256[][]"
                        }
                    ],
                    "internalType": "struct IDKG.TallyDataSubmission[]",
                    "name": "",
                    "type": "tuple[]"
                }
            ],
            "stateMutability": "view",
            "type": "function"
        },
        {
            "inputs": [
                {
                    "internalType": "bytes32",
                    "name": "_requestID",
                    "type": "bytes32"
                }
            ],
            "name": "getTallyTracker",
            "outputs": [
                {
                    "components": [
                        {
                            "internalType": "uint256",
                            "name": "distributedKeyID",
                            "type": "uint256"
                        },
                        {
                            "internalType": "uint256[][]",
                            "name": "R",
                            "type": "uint256[][]"
                        },
                        {
                            "internalType": "uint256[][]",
                            "name": "M",
                            "type": "uint256[][]"
                        },
                        {
                            "components": [
                                {
                                    "internalType": "uint8",
                                    "name": "senderIndex",
                                    "type": "uint8"
                                },
                                {
                                    "internalType": "uint256[][]",
                                    "name": "Di",
                                    "type": "uint256[][]"
                                }
                            ],
                            "internalType": "struct IDKG.TallyDataSubmission[]",
                            "name": "tallyDataSubmissions",
                            "type": "tuple[]"
                        },
                        {
                            "internalType": "uint8",
                            "name": "tallyCounter",
                            "type": "uint8"
                        },
                        {
                            "internalType": "bool",
                            "name": "resultSubmitted",
                            "type": "bool"
                        },
                        {
                            "internalType": "address",
                            "name": "dao",
                            "type": "address"
                        },
                        {
                            "internalType": "address",
                            "name": "contributionVerifier",
                            "type": "address"
                        },
                        {
                            "internalType": "address",
                            "name": "resultVerifier",
                            "type": "address"
                        }
                    ],
                    "internalType": "struct IDKG.TallyTracker",
                    "name": "",
                    "type": "tuple"
                }
            ],
            "stateMutability": "view",
            "type": "function"
        },
        {
            "inputs": [
                {
                    "internalType": "bytes32",
                    "name": "_requestID",
                    "type": "bytes32"
                }
            ],
            "name": "getTallyTrackerState",
            "outputs": [
                {
                    "internalType": "enum IDKG.TallyTrackerState",
                    "name": "",
                    "type": "uint8"
                }
            ],
            "stateMutability": "view",
            "type": "function"
        },
        {
            "inputs": [
                {
                    "internalType": "uint256",
                    "name": "_distributedKeyID",
                    "type": "uint256"
                }
            ],
            "name": "getType",
            "outputs": [
                {
                    "internalType": "enum IDKG.DistributedKeyType",
                    "name": "",
                    "type": "uint8"
                }
            ],
            "stateMutability": "view",
            "type": "function"
        },
        {
            "inputs": [
                {
                    "internalType": "uint256",
                    "name": "_distributedKeyID",
                    "type": "uint256"
                }
            ],
            "name": "getUsageCounter",
            "outputs": [
                {
                    "internalType": "uint256",
                    "name": "",
                    "type": "uint256"
                }
            ],
            "stateMutability": "view",
            "type": "function"
        },
        {
            "inputs": [
                {
                    "internalType": "uint256",
                    "name": "_distributedKeyID",
                    "type": "uint256"
                }
            ],
            "name": "getVerifier",
            "outputs": [
                {
                    "internalType": "contract IVerifier",
                    "name": "",
                    "type": "address"
                }
            ],
            "stateMutability": "view",
            "type": "function"
        },
        {
            "inputs": [],
            "name": "owner",
            "outputs": [
                {
                    "internalType": "address",
                    "name": "",
                    "type": "address"
                }
            ],
            "stateMutability": "view",
            "type": "function"
        },
        {
            "inputs": [
                {
                    "internalType": "uint256",
                    "name": "",
                    "type": "uint256"
                }
            ],
            "name": "resultVerifiers",
            "outputs": [
                {
                    "internalType": "contract IVerifier",
                    "name": "",
                    "type": "address"
                }
            ],
            "stateMutability": "view",
            "type": "function"
        },
        {
            "inputs": [],
            "name": "round2Verifier",
            "outputs": [
                {
                    "internalType": "contract IVerifier",
                    "name": "",
                    "type": "address"
                }
            ],
            "stateMutability": "view",
            "type": "function"
        },
        {
            "inputs": [
                {
                    "internalType": "bytes32",
                    "name": "_requestID",
                    "type": "bytes32"
                },
                {
                    "internalType": "uint256",
                    "name": "_distributedKeyID",
                    "type": "uint256"
                },
                {
                    "internalType": "uint256[][]",
                    "name": "_R",
                    "type": "uint256[][]"
                },
                {
                    "internalType": "uint256[][]",
                    "name": "_M",
                    "type": "uint256[][]"
                }
            ],
            "name": "startTallying",
            "outputs": [],
            "stateMutability": "nonpayable",
            "type": "function"
        },
        {
            "inputs": [
                {
                    "internalType": "uint256",
                    "name": "_distributedKeyID",
                    "type": "uint256"
                },
                {
                    "components": [
                        {
                            "internalType": "uint256[]",
                            "name": "x",
                            "type": "uint256[]"
                        },
                        {
                            "internalType": "uint256[]",
                            "name": "y",
                            "type": "uint256[]"
                        }
                    ],
                    "internalType": "struct IDKG.Round1Contribution",
                    "name": "_round1Contribution",
                    "type": "tuple"
                }
            ],
            "name": "submitRound1Contribution",
            "outputs": [
                {
                    "internalType": "uint8",
                    "name": "",
                    "type": "uint8"
                }
            ],
            "stateMutability": "nonpayable",
            "type": "function"
        },
        {
            "inputs": [
                {
                    "internalType": "uint256",
                    "name": "_distributedKeyID",
                    "type": "uint256"
                },
                {
                    "components": [
                        {
                            "internalType": "uint8",
                            "name": "senderIndex",
                            "type": "uint8"
                        },
                        {
                            "internalType": "uint8[]",
                            "name": "recipientIndexes",
                            "type": "uint8[]"
                        },
                        {
                            "internalType": "uint256[][]",
                            "name": "ciphers",
                            "type": "uint256[][]"
                        },
                        {
                            "internalType": "bytes",
                            "name": "proof",
                            "type": "bytes"
                        }
                    ],
                    "internalType": "struct IDKG.Round2Contribution",
                    "name": "_round2Contribution",
                    "type": "tuple"
                }
            ],
            "name": "submitRound2Contribution",
            "outputs": [],
            "stateMutability": "nonpayable",
            "type": "function"
        },
        {
            "inputs": [
                {
                    "internalType": "bytes32",
                    "name": "_requestID",
                    "type": "bytes32"
                },
                {
                    "components": [
                        {
                            "internalType": "uint8",
                            "name": "senderIndex",
                            "type": "uint8"
                        },
                        {
                            "internalType": "uint256[][]",
                            "name": "Di",
                            "type": "uint256[][]"
                        },
                        {
                            "internalType": "bytes",
                            "name": "proof",
                            "type": "bytes"
                        }
                    ],
                    "internalType": "struct IDKG.TallyContribution",
                    "name": "_tallyContribution",
                    "type": "tuple"
                }
            ],
            "name": "submitTallyContribution",
            "outputs": [],
            "stateMutability": "nonpayable",
            "type": "function"
        },
        {
            "inputs": [
                {
                    "internalType": "bytes32",
                    "name": "_requestID",
                    "type": "bytes32"
                },
                {
                    "internalType": "uint256[]",
                    "name": "_result",
                    "type": "uint256[]"
                },
                {
                    "internalType": "bytes",
                    "name": "_proof",
                    "type": "bytes"
                }
            ],
            "name": "submitTallyResult",
            "outputs": [],
            "stateMutability": "nonpayable",
            "type": "function"
        },
        {
            "inputs": [
                {
                    "internalType": "uint256",
                    "name": "",
                    "type": "uint256"
                }
            ],
            "name": "tallyContributionVerifiers",
            "outputs": [
                {
                    "internalType": "contract IVerifier",
                    "name": "",
                    "type": "address"
                }
            ],
            "stateMutability": "view",
            "type": "function"
        },
        {
            "inputs": [
                {
                    "internalType": "bytes32",
                    "name": "",
                    "type": "bytes32"
                }
            ],
            "name": "tallyTrackers",
            "outputs": [
                {
                    "internalType": "uint256",
                    "name": "distributedKeyID",
                    "type": "uint256"
                },
                {
                    "internalType": "uint8",
                    "name": "tallyCounter",
                    "type": "uint8"
                },
                {
                    "internalType": "bool",
                    "name": "resultSubmitted",
                    "type": "bool"
                },
                {
                    "internalType": "address",
                    "name": "dao",
                    "type": "address"
                },
                {
                    "internalType": "address",
                    "name": "contributionVerifier",
                    "type": "address"
                },
                {
                    "internalType": "address",
                    "name": "resultVerifier",
                    "type": "address"
                }
            ],
            "stateMutability": "view",
            "type": "function"
        },
        {
            "inputs": [
                {
                    "internalType": "uint256",
                    "name": "",
                    "type": "uint256"
                }
            ],
            "name": "votingVerifiers",
            "outputs": [
                {
                    "internalType": "contract IVerifier",
                    "name": "",
                    "type": "address"
                }
            ],
            "stateMutability": "view",
            "type": "function"
        }
    ],
    "bytecode": "0x60806040523480156200001157600080fd5b50604051620055a4380380620055a4833981016040819052620000349162000165565b60008054336001600160a01b031991821617825582516004805483166001600160a01b039283161790556020808501516003909452600581527fa9bc9a3a348c357ba16b37005d7e6b3236198c0e939f4af8c5f19b8deeb8ebc080548416948316949094179093556040840151600684527f75f96ab15d697e93042dc45b5c896c4b27e89bb6eaf39475c5c371cb2513f7d2805484169183169190911790556060840151600784527f3be6fd20d5acfde5b873b48692cd31f4d3c7e8ee8a813af4696af8859e5ca6c68054841691831691909117905560809093015160089092527f625b35f5e76f098dd7c3a05b10e2e5e78a4a01228d60c3b143426cdf36d2645580549091169190921617905562000209565b80516001600160a01b03811681146200016057600080fd5b919050565b600060a0828403121562000177578081fd5b60405160a081016001600160401b0381118282101715620001a657634e487b7160e01b83526041600452602483fd5b604052620001b48362000148565b8152620001c46020840162000148565b6020820152620001d76040840162000148565b6040820152620001ea6060840162000148565b6060820152620001fd6080840162000148565b60808201529392505050565b61538b80620002196000396000f3fe608060405234801561001057600080fd5b50600436106101cf5760003560e01c806375d2c1ce1161010457806392cab566116100a2578063e9d6db8c11610071578063e9d6db8c14610562578063f17de9ee14610582578063fe527440146105ab578063fffa96ae146105cb57600080fd5b806392cab566146104ed578063a15cbc80146104f6578063c2d96bcf14610519578063db6316261461053957600080fd5b8063887a3163116100de578063887a31631461048757806388ccc0841461049a5780638d3ce2bd146104ba5780638da5cb5b146104da57600080fd5b806375d2c1ce146103b35780638138007d146103db57806387f895f41461047457600080fd5b806344dfe1081161017157806355cd25f01161014b57806355cd25f01461035957806359295eaa1461037a5780636b724edb1461038d578063755ff330146103a057600080fd5b806344dfe108146102ec5780634da58de71461030c57806354a058571461031f57600080fd5b80632b708dee116101ad5780632b708dee146102425780633561bc271461026b5780633b968ae61461029c5780634036ab78146102bc57600080fd5b806316a795c8146101d45780631e0a9fac146101e9578063220bbbb9146101fc575b600080fd5b6101e76101e2366004614965565b610647565b005b6101e76101f7366004614b1d565b610f5a565b61022561020a36600461494d565b6007602052600090815260409020546001600160a01b031681565b6040516001600160a01b0390911681526020015b60405180910390f35b61022561025036600461494d565b6006602052600090815260409020546001600160a01b031681565b61022561027936600461494d565b60009081526002602052604090205464010000000090046001600160a01b031690565b6102af6102aa36600461494d565b611ec8565b6040516102399190614f33565b6102df6102ca36600461494d565b60009081526002602052604090205460ff1690565b6040516102399190614f4d565b6102ff6102fa36600461494d565b611f9f565b6040516102399190614d4d565b6101e761031a366004614a53565b61204e565b61034761032d36600461494d565b600090815260026020526040902054610100900460ff1690565b60405160ff9091168152602001610239565b61036c610367366004614b9c565b612186565b604051908152602001610239565b6101e7610388366004614a09565b612504565b600454610225906001600160a01b031681565b6102ff6103ae36600461494d565b612ec1565b6103c66103c136600461494d565b612f65565b60408051928352602083019190915201610239565b6104336103e936600461494d565b6003602052600090815260409020805460048201546005830154600690930154919260ff808316936101008404909116926001600160a01b03620100009091048116928116911686565b6040805196875260ff9095166020870152921515938501939093526001600160a01b03908116606085015291821660808401521660a082015260c001610239565b610347610482366004614ade565b612fbd565b610347610495366004614873565b613483565b6104ad6104a836600461494d565b613714565b6040516102399190614e71565b6104cd6104c836600461494d565b61381b565b6040516102399190614d60565b600054610225906001600160a01b031681565b61036c60015481565b61036c61050436600461494d565b60009081526002602052604090206005015490565b61052c61052736600461494d565b61394f565b6040516102399190614fac565b61022561054736600461494d565b6008602052600090815260409020546001600160a01b031681565b610575610570366004614b5c565b613c95565b6040516102399190614e09565b61022561059036600461494d565b6005602052600090815260409020546001600160a01b031681565b6105be6105b936600461494d565b613d6c565b6040516102399190615049565b6106336105d936600461494d565b6002602081905260009182526040909120805460018201549282015460059092015460ff80831694610100840482169462010000850483169463010000008104909316936401000000009093046001600160a01b03169288565b604051610239989796959493929190614f5b565b600085815260036020526040902060016106608761394f565b600281111561067f57634e487b7160e01b600052602160045260246000fd5b1461068957600080fd5b805460009081526002602052604080822080548354835163091d8bc560e21b81528451939561010090930460ff169492936001600160a01b03909216926324762f1492600480840193829003018186803b1580156106e657600080fd5b505afa1580156106fa573d6000803e3d6000fd5b505050506040513d601f19601f8201168201806040525081019061071e9190614bcc565b50905060008460060160009054906101000a90046001600160a01b03166001600160a01b0316639447d8936040518163ffffffff1660e01b815260040160206040518083038186803b15801561077357600080fd5b505afa158015610787573d6000803e3d6000fd5b505050506040513d601f19601f820116820180604052508101906107ab9190614ac6565b6001600160401b038111156107d057634e487b7160e01b600052604160045260246000fd5b6040519080825280602002602001820160405280156107f9578160200160208202803683370190505b509050600085600301805480602002602001604051908101604052809291908181526020016000905b828210156108f1576000848152602080822060408051808201825260028702909201805460ff168352600181018054835181870281018701909452808452939591948681019491929084015b828210156108da576000848152602090819020830180546040805182850281018501909152818152928301828280156108c657602002820191906000526020600020905b8154815260200190600101908083116108b2575b50505050508152602001906001019061086e565b505050508152505081526020019060010190610822565b505050509050600086600201805480602002602001604051908101604052809291908181526020016000905b828210156109895760008481526020908190208301805460408051828502810185019091528181529283018282801561097557602002820191906000526020600020905b815481526020019060010190808311610961575b50505050508152602001906001019061091d565b50505050905060005b8460ff168160ff161015610c0b57828160ff16815181106109c357634e487b7160e01b600052603260045260246000fd5b60200260200101516000015160ff16848260ff16815181106109f557634e487b7160e01b600052603260045260246000fd5b60200260200101818152505060005b8660ff168160ff161015610bf857838260ff1681518110610a3557634e487b7160e01b600052603260045260246000fd5b6020026020010151602001518160ff1681518110610a6357634e487b7160e01b600052603260045260246000fd5b6020026020010151600081518110610a8b57634e487b7160e01b600052603260045260246000fd5b602002602001015185826002610aa19190615239565b610aab8a86615239565b610ab6906002615239565b610ac0908a615214565b610aca9190615214565b60ff1681518110610aeb57634e487b7160e01b600052603260045260246000fd5b602002602001018181525050838260ff1681518110610b1a57634e487b7160e01b600052603260045260246000fd5b6020026020010151602001518160ff1681518110610b4857634e487b7160e01b600052603260045260246000fd5b6020026020010151600181518110610b7057634e487b7160e01b600052603260045260246000fd5b602002602001015185826002610b869190615239565b610b908a86615239565b610b9b906002615239565b610ba5908a615214565b610baf9190615214565b610bba906001615214565b60ff1681518110610bdb57634e487b7160e01b600052603260045260246000fd5b602090810291909101015280610bf0816152c4565b915050610a04565b5080610c03816152c4565b915050610992565b5060005b8560ff168160ff161015610e4057818160ff1681518110610c4057634e487b7160e01b600052603260045260246000fd5b6020026020010151600081518110610c6857634e487b7160e01b600052603260045260246000fd5b602002602001015184826002610c7e9190615239565b610c888989615239565b610c93906002615239565b610c9d9089615214565b610ca79190615214565b60ff1681518110610cc857634e487b7160e01b600052603260045260246000fd5b602002602001018181525050818160ff1681518110610cf757634e487b7160e01b600052603260045260246000fd5b6020026020010151600181518110610d1f57634e487b7160e01b600052603260045260246000fd5b602002602001015184826002610d359190615239565b610d3f8989615239565b610d4a906002615239565b610d549089615214565b610d5e9190615214565b610d69906001615214565b60ff1681518110610d8a57634e487b7160e01b600052603260045260246000fd5b6020026020010181815250508b8b8260ff16818110610db957634e487b7160e01b600052603260045260246000fd5b905060200201358482886002610dcf9190615239565b610dd98a8a615239565b610de4906002615239565b610dee908a615214565b610df89190615214565b610e029190615214565b60ff1681518110610e2357634e487b7160e01b600052603260045260246000fd5b602090810291909101015280610e38816152c4565b915050610c0f565b506006870154610e5b906001600160a01b03168a8a86614084565b610e6457600080fd5b8660040160029054906101000a90046001600160a01b03166001600160a01b031663c58264b38d8d8d6040518463ffffffff1660e01b8152600401610eab93929190614ef1565b600060405180830381600087803b158015610ec557600080fd5b505af1158015610ed9573d6000803e3d6000fd5b505050506001866005016000828254610ef291906151fc565b909155505060048701805461ff001916610100179055604051610f18908c908c90614d23565b604051908190038120908d9033907f1cc27b5dc088bba6ed823b51399e3b77446cafcca155bf518ad3e55d80a40b4c90600090a4505050505050505050505050565b600054604051638c9540d360e01b81523360048201526001600160a01b0390911690638c9540d39060240160206040518083038186803b158015610f9d57600080fd5b505afa158015610fb1573d6000803e3d6000fd5b505050506040513d601f19601f82011682018060405250810190610fd5919061492d565b610ffa5760405162461bcd60e51b8152600401610ff190614fc0565b60405180910390fd5b6000828152600260205260408082208254825163091d8bc560e21b8152835192949384936001600160a01b03909316926324762f14926004808201939291829003018186803b15801561104c57600080fd5b505afa158015611060573d6000803e3d6000fd5b505050506040513d601f19601f820116820180604052508101906110849190614bcc565b9092509050600161109486611ec8565b60038111156110b357634e487b7160e01b600052602160045260246000fd5b1461111d5760405162461bcd60e51b815260206004820152603460248201527f646b67436f6e74726163743a206b65792773207374617465206973206e6f742060448201527321a7a72a2924a12aaa24a7a72fa927aaa7222f9960611b6064820152608401610ff1565b611128600182615279565b60ff16611138602086018661511e565b9050148015611161575061114d600182615279565b60ff1661115d604086018661511e565b9050145b61117d5760405162461bcd60e51b8152600401610ff190615008565b336003840160016111916020880188614b80565b61119b9190615279565b60ff16815481106111bc57634e487b7160e01b600052603260045260246000fd5b60009182526020909120600390910201546001600160a01b0316146112235760405162461bcd60e51b815260206004820152601b60248201527f646b67436f6e74726163743a20696e76616c69642073656e64657200000000006044820152606401610ff1565b6000806112336020870187614b80565b600160ff91821681901b93909317929084161b1760005b611257602088018861511e565b90508160ff16101561134357611270604088018861511e565b8260ff1681811061129157634e487b7160e01b600052603260045260246000fd5b90506020028101906112a3919061511e565b90506003146112c45760405162461bcd60e51b8152600401610ff190615008565b6112d1602088018861511e565b8260ff168181106112f257634e487b7160e01b600052603260045260246000fd5b90506020020160208101906113079190614b80565b60ff166001901b60001b831792508060016113229190615214565b60ff166001901b60001b82179150808061133b906152c4565b91505061124a565b508082146113a15760405162461bcd60e51b815260206004820152602560248201527f646b67436f6e74726163743a20696e76616c696420726563697069656e74496e604482015264646578657360d81b6064820152608401610ff1565b6000600460009054906101000a90046001600160a01b03166001600160a01b0316639447d8936040518163ffffffff1660e01b815260040160206040518083038186803b1580156113f157600080fd5b505afa158015611405573d6000803e3d6000fd5b505050506040513d601f19601f820116820180604052508101906114299190614ac6565b6001600160401b0381111561144e57634e487b7160e01b600052604160045260246000fd5b604051908082528060200260200182016040528015611477578160200160208202803683370190505b509050600060038701600161148f60208b018b614b80565b6114999190615279565b60ff16815481106114ba57634e487b7160e01b600052603260045260246000fd5b600091825260209182902060408051608081018252600390930290910180546001600160a01b038116845260ff600160a01b9091041683850152600181018054835181870281018701855281815294959294938601939283018282801561154057602002820191906000526020600020905b81548152602001906001019080831161152c575b505050505081526020016002820180548060200260200160405190810160405280929190818152602001828054801561159857602002820191906000526020600020905b815481526020019060010190808311611584575b505050505081525050905060005b6115b360208a018a61511e565b90508160ff161015611aee5760006003890160016115d460208d018d61511e565b8560ff168181106115f557634e487b7160e01b600052603260045260246000fd5b905060200201602081019061160a9190614b80565b6116149190615279565b60ff168154811061163557634e487b7160e01b600052603260045260246000fd5b600091825260209182902060408051608081018252600390930290910180546001600160a01b038116845260ff600160a01b909104168385015260018101805483518187028101870185528181529495929493860193928301828280156116bb57602002820191906000526020600020905b8154815260200190600101908083116116a7575b505050505081526020016002820180548060200260200160405190810160405280929190818152602001828054801561171357602002820191906000526020600020905b8154815260200190600101908083116116ff575b505050505081525050905089806020019061172e919061511e565b8360ff1681811061174f57634e487b7160e01b600052603260045260246000fd5b90506020020160208101906117649190614b80565b60ff16848360ff168151811061178a57634e487b7160e01b600052603260045260246000fd5b60200260200101818152505080604001516000815181106117bb57634e487b7160e01b600052603260045260246000fd5b6020026020010151848360026117d19190615239565b6117dc60018b615279565b6117e69190615214565b60ff168151811061180757634e487b7160e01b600052603260045260246000fd5b602002602001018181525050806060015160008151811061183857634e487b7160e01b600052603260045260246000fd5b60200260200101518483600261184e9190615239565b61185960018b615279565b6118639190615214565b61186e906001615214565b60ff168151811061188f57634e487b7160e01b600052603260045260246000fd5b60209081029190910101526118a760408b018b61511e565b8360ff168181106118c857634e487b7160e01b600052603260045260246000fd5b90506020028101906118da919061511e565b60008181106118f957634e487b7160e01b600052603260045260246000fd5b905060200201358483600261190e9190615239565b61191960018b615279565b611924906003615239565b61192e9190615214565b60ff168151811061194f57634e487b7160e01b600052603260045260246000fd5b602090810291909101015261196760408b018b61511e565b8360ff1681811061198857634e487b7160e01b600052603260045260246000fd5b905060200281019061199a919061511e565b60018181106119b957634e487b7160e01b600052603260045260246000fd5b90506020020135848360026119ce9190615239565b6119d960018b615279565b6119e4906003615239565b6119ee9190615214565b6119f9906001615214565b60ff1681518110611a1a57634e487b7160e01b600052603260045260246000fd5b6020908102919091010152611a3260408b018b61511e565b8360ff16818110611a5357634e487b7160e01b600052603260045260246000fd5b9050602002810190611a65919061511e565b6002818110611a8457634e487b7160e01b600052603260045260246000fd5b90506020020135848360018a611a9a9190615279565b611aa5906005615239565b611aaf9190615214565b60ff1681518110611ad057634e487b7160e01b600052603260045260246000fd5b60209081029190910101525080611ae6816152c4565b9150506115a6565b5060005b8660ff168160ff161015611c305781604001518160ff1681518110611b2757634e487b7160e01b600052603260045260246000fd5b602002602001015183826002611b3d9190615239565b611b4860018a615279565b611b53906006615239565b611b5d9190615214565b60ff1681518110611b7e57634e487b7160e01b600052603260045260246000fd5b60200260200101818152505081606001518160ff1681518110611bb157634e487b7160e01b600052603260045260246000fd5b602002602001015183826002611bc79190615239565b611bd260018a615279565b611bdd906006615239565b611be79190615214565b611bf2906001615214565b60ff1681518110611c1357634e487b7160e01b600052603260045260246000fd5b602090810291909101015280611c28816152c4565b915050611af2565b50600454611c54906001600160a01b0316611c4e60608b018b615165565b85614084565b611ca05760405162461bcd60e51b815260206004820152601a60248201527f646b67436f6e74726163743a20696e76616c69642070726f6f660000000000006044820152606401610ff1565b60005b611cb060208a018a61511e565b90508160ff161015611e0d57600488016000611ccf60208c018c61511e565b8460ff16818110611cf057634e487b7160e01b600052603260045260246000fd5b9050602002016020810190611d059190614b80565b60ff1660ff16815260200190815260200160002060405180604001604052808b6000016020810190611d379190614b80565b60ff168152602001611d4c60408d018d61511e565b8560ff16818110611d6d57634e487b7160e01b600052603260045260246000fd5b9050602002810190611d7f919061511e565b8080602002602001604051908101604052809392919081815260200183836020028082843760009201829052509390945250508354600180820186559482526020918290208451600290920201805460ff191660ff90921691909117815583820151805194959194611df7945091850192019061463c565b5050508080611e05906152c4565b915050611ca3565b5086546001908890600390611e2d9084906301000000900460ff16615214565b92506101000a81548160ff021916908360ff160217905550336001600160a01b03167fcbf95f3b618183791a868a88964ae14f9377658670849f37ec34394d9b397f1560405160405180910390a2865460ff8681166301000000909204161415611ebd5760405189907fc3463fbc58f346b4f695c95d8d4961813c6359f5f99d1694fe87b97ace51554d90600090a25b505050505050505050565b6000818152600260205260408082208254825163091d8bc560e21b81528351929385936001600160a01b03909316926324762f14926004808201939291829003018186803b158015611f1957600080fd5b505afa158015611f2d573d6000803e3d6000fd5b505050506040513d601f19601f82011682018060405250810190611f519190614bcc565b835490925060ff80841663010000009092041614159050611f76575060029392505050565b815460ff82811662010000909204161415611f95575060019392505050565b5060009392505050565b606060036000838152602001908152602001600020600101805480602002602001604051908101604052809291908181526020016000905b828210156120435760008481526020908190208301805460408051828502810185019091528181529283018282801561202f57602002820191906000526020600020905b81548152602001906001019080831161201b575b505050505081526020019060010190611fd7565b505050509050919050565b600084815260036020526040902060048101546201000090046001600160a01b03161561207a57600080fd5b83815582516120929060018301906020860190614687565b5081516120a89060028301906020850190614687565b50600084815260026020908152604080832054610100900460ff16808452600783528184205460089093529220546001600160a01b039182169116816120ed57600080fd5b6001600160a01b03811661210057600080fd5b60048401805462010000330262010000600160b01b03199091161790556005840180546001600160a01b038481166001600160a01b0319928316179092556006860180549284169290911691909117905560405188907f7f33e8dc3fda6075213296cd23e7e53b26993958685000c664c42945eb3a610490600090a25050505050505050565b6000805460405163c7b5784160e01b81523360048201526001600160a01b039091169063c7b578419060240160206040518083038186803b1580156121ca57600080fd5b505afa1580156121de573d6000803e3d6000fd5b505050506040513d601f19601f82011682018060405250810190612202919061492d565b61225d5760405162461bcd60e51b815260206004820152602660248201527f646b67436f6e74726163743a206d73672e73656e646572206973206e6f74204660448201526537bab73232b960d11b6064820152608401610ff1565b50600180549080600061227082856151fc565b9091555050600081815260026020526040812090808460018111156122a557634e487b7160e01b600052602160045260246000fd5b141561236e5760ff85166000908152600560205260409020546001600160a01b031661234c5760405162461bcd60e51b815260206004820152604a60248201527f444b4720436f6e74726163743a204e6f2066756e64696e67207665726966696560448201527f7220657869737473207769746820636f72726573706f6e64696e672064696d656064820152696e73696f6e616c69747960b01b608482015260a401610ff1565b5060ff84166000908152600560205260409020546001600160a01b0316612454565b600184600181111561239057634e487b7160e01b600052602160045260246000fd5b14156124545760ff85166000908152600660205260409020546001600160a01b03166124365760405162461bcd60e51b815260206004820152604960248201527f444b4720436f6e74726163743a204e6f20766f74696e6720766572696669657260448201527f20657869737473207769746820636f72726573706f6e64696e672064696d656e60648201526873696f6e616c69747960b81b608482015260a401610ff1565b5060ff84166000908152600660205260409020546001600160a01b03165b81548490839060ff19166001838181111561247f57634e487b7160e01b600052602160045260246000fd5b0217905550815463ffff0100600160c01b03191661010060ff871602640100000000600160c01b031916176401000000006001600160a01b038316021782556000600180840182905560028401556005830181905560405184917fb913edc288e7b51dacd1a7a204ef40eda6d9d2b6249b86cfd65e4880a54f9d2791a2505092915050565b600054604051638c9540d360e01b81523360048201526001600160a01b0390911690638c9540d39060240160206040518083038186803b15801561254757600080fd5b505afa15801561255b573d6000803e3d6000fd5b505050506040513d601f19601f8201168201806040525081019061257f919061492d565b61259b5760405162461bcd60e51b8152600401610ff190614fc0565b60008281526003602090815260408083208054845260029092528083208354825163091d8bc560e21b815283519495929492936001600160a01b03909216926324762f1492600480840193919291829003018186803b1580156125fd57600080fd5b505afa158015612611573d6000803e3d6000fd5b505050506040513d601f19601f820116820180604052508101906126359190614bcc565b8354909250610100900460ff169050600061264f8761394f565b600281111561266e57634e487b7160e01b600052602160045260246000fd5b1461267857600080fd5b60016126876020870187614b80565b60ff16101580156126aa575060ff82166126a46020870187614b80565b60ff1611155b6126b357600080fd5b60ff81166126c4602087018761511e565b9050146126d057600080fd5b600060048401816126e46020890189614b80565b60ff1660ff168152602001908152602001600020805480602002602001604051908101604052809291908181526020016000905b828210156127a757600084815260209081902060408051808201825260028602909201805460ff16835260018101805483518187028101870190945280845293949193858301939283018282801561278f57602002820191906000526020600020905b81548152602001906001019080831161277b575b50505050508152505081526020019060010190612718565b505050600587015460408051639447d89360e01b815290519394506001600160a01b0390911692600092508391639447d893916004808301926020929190829003018186803b1580156127f957600080fd5b505afa15801561280d573d6000803e3d6000fd5b505050506040513d601f19601f820116820180604052508101906128319190614ac6565b6001600160401b0381111561285657634e487b7160e01b600052604160045260246000fd5b60405190808252806020026020018201604052801561287f578160200160208202803683370190505b50905061288d600186615279565b945060005b8560ff168160ff161015612a7d57838160ff16815181106128c357634e487b7160e01b600052603260045260246000fd5b6020026020010151602001516000815181106128ef57634e487b7160e01b600052603260045260246000fd5b6020026020010151828260026129059190615239565b60ff168151811061292657634e487b7160e01b600052603260045260246000fd5b602002602001018181525050838160ff168151811061295557634e487b7160e01b600052603260045260246000fd5b60200260200101516020015160018151811061298157634e487b7160e01b600052603260045260246000fd5b6020026020010151828260026129979190615239565b6129a2906001615214565b60ff16815181106129c357634e487b7160e01b600052603260045260246000fd5b602002602001018181525050838160ff16815181106129f257634e487b7160e01b600052603260045260246000fd5b602002602001015160200151600281518110612a1e57634e487b7160e01b600052603260045260246000fd5b60200260200101518282886002612a359190615239565b612a3f9190615214565b60ff1681518110612a6057634e487b7160e01b600052603260045260246000fd5b602090810291909101015280612a75816152c4565b915050612892565b5060005b8460ff168160ff161015612da857876001018160ff1681548110612ab557634e487b7160e01b600052603260045260246000fd5b90600052602060002001600081548110612adf57634e487b7160e01b600052603260045260246000fd5b906000526020600020015482826002612af89190615239565b612b03896003615239565b612b0d9190615214565b60ff1681518110612b2e57634e487b7160e01b600052603260045260246000fd5b602002602001018181525050876001018160ff1681548110612b6057634e487b7160e01b600052603260045260246000fd5b90600052602060002001600181548110612b8a57634e487b7160e01b600052603260045260246000fd5b906000526020600020015482826002612ba39190615239565b612bae896003615239565b612bb89190615214565b612bc3906001615214565b60ff1681518110612be457634e487b7160e01b600052603260045260246000fd5b602002602001018181525050888060200190612c00919061511e565b8260ff16818110612c2157634e487b7160e01b600052603260045260246000fd5b9050602002810190612c33919061511e565b6000818110612c5257634e487b7160e01b600052603260045260246000fd5b9050602002013582826002612c679190615239565b612c72886002615239565b612c7d8a6003615239565b612c879190615214565b612c919190615214565b60ff1681518110612cb257634e487b7160e01b600052603260045260246000fd5b602002602001018181525050888060200190612cce919061511e565b8260ff16818110612cef57634e487b7160e01b600052603260045260246000fd5b9050602002810190612d01919061511e565b6001818110612d2057634e487b7160e01b600052603260045260246000fd5b9050602002013582826002612d359190615239565b612d40886002615239565b612d4b8a6003615239565b612d559190615214565b612d5f9190615214565b612d6a906001615214565b60ff1681518110612d8b57634e487b7160e01b600052603260045260246000fd5b602090810291909101015280612da0816152c4565b915050612a81565b50612dc082612dba60408b018b615165565b84614084565b5060408051808201909152600388019080612dde60208c018c614b80565b60ff1681526020018a8060200190612df6919061511e565b612dff9161529c565b905281546001808201845560009384526020938490208351600290930201805460ff191660ff90931692909217825582840151805193949293612e4a93928501929190910190614687565b50505060048701805460019190600090612e6890849060ff16615214565b92506101000a81548160ff021916908360ff160217905550336001600160a01b03167f26d7a520fc4230ffa9c112ead1358fb765e1bb7253ec3ddeb7b99255c74f8d8a60405160405180910390a2505050505050505050565b606060036000838152602001908152602001600020600201805480602002602001604051908101604052809291908181526020016000905b8282101561204357600084815260209081902083018054604080518285028101850190915281815292830182828015612f5157602002820191906000526020600020905b815481526020019060010190808311612f3d575b505050505081526020019060010190612ef9565b600081815260026020819052604082208291612f8085611ec8565b6003811115612f9f57634e487b7160e01b600052602160045260246000fd5b14612fa957600080fd5b806001015481600201549250925050915091565b60008054604051638c9540d360e01b81523360048201526001600160a01b0390911690638c9540d39060240160206040518083038186803b15801561300157600080fd5b505afa158015613015573d6000803e3d6000fd5b505050506040513d601f19601f82011682018060405250810190613039919061492d565b6130555760405162461bcd60e51b8152600401610ff190614fc0565b6000838152600260205260408082208254825163091d8bc560e21b815283519294936001600160a01b03909216926324762f1492600480840193919291829003018186803b1580156130a657600080fd5b505afa1580156130ba573d6000803e3d6000fd5b505050506040513d601f19601f820116820180604052508101906130de9190614bcc565b50905060006130ec86611ec8565b600381111561310b57634e487b7160e01b600052602160045260246000fd5b146131755760405162461bcd60e51b815260206004820152603460248201527f646b67436f6e74726163743a206b65792773207374617465206973206e6f7420604482015273434f4e545249425554494f4e5f524f554e445f3160601b6064820152608401610ff1565b613182602085018561511e565b905061318e858061511e565b90501480156131aa575060ff81166131a6858061511e565b9050145b6131c65760405162461bcd60e51b8152600401610ff190615008565b60005b8160ff1681101561325b576132406131e1868061511e565b838181106131ff57634e487b7160e01b600052603260045260246000fd5b90506020020135868060200190613216919061511e565b8481811061323457634e487b7160e01b600052603260045260246000fd5b90506020020135614389565b61324957600080fd5b80613253816152a9565b9150506131c9565b508154600190839060029061327a90849062010000900460ff16615214565b82546101009290920a60ff818102199093169183160217909155604080516080810182523381528554620100009004909216602083015260038501925081016132c3878061511e565b808060200260200160405190810160405280939291908181526020018383602002808284376000920191909152505050908252506020908101906133099088018861511e565b808060200260200160405190810160405280939291908181526020018383602002808284376000920182905250939094525050835460018181018655948252602091829020845160039092020180548386015160ff16600160a01b026001600160a81b03199091166001600160a01b039093169290921791909117815560408401518051949591946133a1945091850192019061463c565b50606082015180516133bd91600284019160209091019061463c565b5050506001820154600283015461343a91906133d9878061511e565b60008181106133f857634e487b7160e01b600052603260045260246000fd5b9050602002013587806020019061340f919061511e565b600081811061342e57634e487b7160e01b600052603260045260246000fd5b90506020020135614433565b6002840155600183015560405133907f3ce2f4976bf732c26e4b564b81638703c5a3dfbda3e03d88565dc5a29746bac590600090a2505462010000900460ff1690505b92915050565b60008061348f83611ec8565b60038111156134ae57634e487b7160e01b600052602160045260246000fd5b1161350e5760405162461bcd60e51b815260206004820152602a60248201527f646b67436f6e74726163743a206e6f7420646f6e6520434f4e545249425554496044820152694f4e5f524f554e445f3160b01b6064820152608401610ff1565b600082815260026020908152604080832060030180548251818502810185019093528083529192909190849084015b82821015613639576000848152602090819020604080516080810182526003860290920180546001600160a01b0381168452600160a01b900460ff168385015260018101805483518187028101870185528181529495929493860193928301828280156135c957602002820191906000526020600020905b8154815260200190600101908083116135b5575b505050505081526020016002820180548060200260200160405190810160405280929190818152602001828054801561362157602002820191906000526020600020905b81548152602001906001019080831161360d575b5050505050815250508152602001906001019061353d565b50505050905060005b81518160ff1610156136bc57846001600160a01b0316828260ff168151811061367b57634e487b7160e01b600052603260045260246000fd5b6020026020010151600001516001600160a01b031614156136aa576136a1816001615214565b9250505061347d565b806136b4816152c4565b915050613642565b5060405162461bcd60e51b815260206004820152602660248201527f646b67436f6e74726163743a20696e76616c6964205f636f6d6d69747465654160448201526564647265737360d01b6064820152608401610ff1565b606060036000838152602001908152602001600020600301805480602002602001604051908101604052809291908181526020016000905b82821015612043576000848152602080822060408051808201825260028702909201805460ff168352600181018054835181870281018701909452808452939591948681019491929084015b82821015613804576000848152602090819020830180546040805182850281018501909152818152928301828280156137f057602002820191906000526020600020905b8154815260200190600101908083116137dc575b505050505081526020019060010190613798565b50505050815250508152602001906001019061374c565b606060026000838152602001908152602001600020600301805480602002602001604051908101604052809291908181526020016000905b82821015612043576000848152602090819020604080516080810182526003860290920180546001600160a01b0381168452600160a01b900460ff168385015260018101805483518187028101870185528181529495929493860193928301828280156138df57602002820191906000526020600020905b8154815260200190600101908083116138cb575b505050505081526020016002820180548060200260200160405190810160405280929190818152602001828054801561393757602002820191906000526020600020905b815481526020019060010190808311613923575b50505050508152505081526020019060010190613853565b600081815260036020908152604080832081516101208101835281548152600182018054845181870281018701909552808552869592948584019390929190879084015b828210156139ff576000848152602090819020830180546040805182850281018501909152818152928301828280156139eb57602002820191906000526020600020905b8154815260200190600101908083116139d7575b505050505081526020019060010190613993565b50505050815260200160028201805480602002602001604051908101604052809291908181526020016000905b82821015613a9857600084815260209081902083018054604080518285028101850190915281815292830182828015613a8457602002820191906000526020600020905b815481526020019060010190808311613a70575b505050505081526020019060010190613a2c565b50505050815260200160038201805480602002602001604051908101604052809291908181526020016000905b82821015613b94576000848152602080822060408051808201825260028702909201805460ff168352600181018054835181870281018701909452808452939591948681019491929084015b82821015613b7d57600084815260209081902083018054604080518285028101850190915281815292830182828015613b6957602002820191906000526020600020905b815481526020019060010190808311613b55575b505050505081526020019060010190613b11565b505050508152505081526020019060010190613ac5565b5050509082525060048281015460ff80821660208501526101008204161515604080850191909152620100009091046001600160a01b039081166060850152600585015481166080850152600690940154841660a09093019290925260008054835163091d8bc560e21b8152845196975091959416936324762f1493828401939092829003018186803b158015613c2a57600080fd5b505afa158015613c3e573d6000803e3d6000fd5b505050506040513d601f19601f82011682018060405250810190613c629190614bcc565b5090508160a0015115613c79575060029392505050565b8060ff16826080015160ff161415611f95575060019392505050565b600082815260026020908152604080832060ff851684526004018252808320805482518185028101850190935280835260609492939192909184015b82821015613d6057600084815260209081902060408051808201825260028602909201805460ff168352600181018054835181870281018701909452808452939491938583019392830182828015613d4857602002820191906000526020600020905b815481526020019060010190808311613d34575b50505050508152505081526020019060010190613cd1565b50505050905092915050565b613ddb60405180610120016040528060008152602001606081526020016060815260200160608152602001600060ff16815260200160001515815260200160006001600160a01b0316815260200160006001600160a01b0316815260200160006001600160a01b031681525090565b60036000838152602001908152602001600020604051806101200160405290816000820154815260200160018201805480602002602001604051908101604052809291908181526020016000905b82821015613e9557600084815260209081902083018054604080518285028101850190915281815292830182828015613e8157602002820191906000526020600020905b815481526020019060010190808311613e6d575b505050505081526020019060010190613e29565b50505050815260200160028201805480602002602001604051908101604052809291908181526020016000905b82821015613f2e57600084815260209081902083018054604080518285028101850190915281815292830182828015613f1a57602002820191906000526020600020905b815481526020019060010190808311613f06575b505050505081526020019060010190613ec2565b50505050815260200160038201805480602002602001604051908101604052809291908181526020016000905b8282101561402a576000848152602080822060408051808201825260028702909201805460ff168352600181018054835181870281018701909452808452939591948681019491929084015b8282101561401357600084815260209081902083018054604080518285028101850190915281815292830182828015613fff57602002820191906000526020600020905b815481526020019060010190808311613feb575b505050505081526020019060010190613fa7565b505050508152505081526020019060010190613f5b565b50505090825250600482015460ff8082166020840152610100820416151560408301526001600160a01b03620100009091048116606083015260058301548116608083015260069092015490911660a09091015292915050565b6000846001600160a01b0316639447d8936040518163ffffffff1660e01b815260040160206040518083038186803b1580156140bf57600080fd5b505afa1580156140d3573d6000803e3d6000fd5b505050506040513d601f19601f820116820180604052508101906140f79190614ac6565b82511461410357600080fd5b6000614111848601866148a9565b905060005b60088160ff1610156141d5577f30644e72e131a029b85045b68181585d97816a916871ca8d3c208c16d87cfd47828260ff166008811061416657634e487b7160e01b600052603260045260246000fd5b6020020151106141c35760405162461bcd60e51b815260206004820152602260248201527f76657269666965722d70726f6f662d656c656d656e742d6774652d7072696d656044820152612d7160f01b6064820152608401610ff1565b806141cd816152c4565b915050614116565b50856001600160a01b031663c32e370e60405180604001604052808460006008811061421157634e487b7160e01b600052603260045260246000fd5b602002015181526020018460016008811061423c57634e487b7160e01b600052603260045260246000fd5b602002015190526040805160808101825285820151918101918252908190606082018760036020020151815250815260200160405180604001604052808760046008811061429a57634e487b7160e01b600052603260045260246000fd5b60200201518152602001876005600881106142c557634e487b7160e01b600052603260045260246000fd5b6020020151905290526040805180820190915280866006602002015181526020018660076008811061430757634e487b7160e01b600052603260045260246000fd5b6020020151815250876040518563ffffffff1660e01b815260040161432f9493929190614e84565b60206040518083038186803b15801561434757600080fd5b505afa15801561435b573d6000803e3d6000fd5b505050506040513d601f19601f8201168201806040525081019061437f919061492d565b9695505050505050565b60008060008051602061533683398151915284850990506000600080516020615336833981519152848509905060006000805160206153368339815191528260008051602061533683398151915285620292fc090890506000600080516020615336833981519152808460008051602061533683398151915287620292f8090960010890506144278282600080516020615336833981519152614581565b15979650505050505050565b60008085158015614442575084155b15614451575082905081614578565b8315801561445d575084155b1561446c575084905083614578565b6000600080516020615336833981519152858809905060006000805160206153368339815191528588099050600060008051602061533683398151915280838509620292f8099050600060008051602061533683398151915280898b09600080516020615336833981519152898d09089050600061450d8460008051602061533683398151915287620292fc09600080516020615336833981519152614581565b9050600080516020615336833981519152614539600080516020615336833981519152856001086145ca565b8309965060008051602061533683398151915261456e614569600186600080516020615336833981519152614581565b6145ca565b8209955050505050505b94509492505050565b6000838381116145985761459583826151fc565b90505b82806145b457634e487b7160e01b600052601260045260246000fd5b60006145c08684615262565b0895945050505050565b600061347d826145e96002600080516020615336833981519152615262565b600080516020615336833981519152600060405160208152602080820152602060408201528460608201528360808201528260a082015260208160c08360055afa8080156101cf57505051949350505050565b828054828255906000526020600020908101928215614677579160200282015b8281111561467757825182559160200191906001019061465c565b506146839291506146e0565b5090565b8280548282559060005260206000209081019282156146d4579160200282015b828111156146d457825180516146c491849160209091019061463c565b50916020019190600101906146a7565b506146839291506146f5565b5b8082111561468357600081556001016146e1565b808211156146835760006147098282614712565b506001016146f5565b508054600082559060005260206000209081019061473091906146e0565b50565b6000614746614741846151d9565b6151a9565b838152905060208082019083600586811b820188101561476557600080fd5b60005b878110156147fb5782356001600160401b0381111561478657600080fd5b8701601f81018a1361479757600080fd5b80356147a5614741826151d9565b8181528681019083880183871b850189018e10156147c257600080fd5b600094505b838510156147e55780358352600194909401939188019188016147c7565b5088525050509383019391830191600101614768565b50505050509392505050565b600082601f830112614817578081fd5b61482683833560208501614733565b9392505050565b60008083601f84011261483e578182fd5b5081356001600160401b03811115614854578182fd5b60208301915083602082850101111561486c57600080fd5b9250929050565b60008060408385031215614885578182fd5b82356001600160a01b038116811461489b578283fd5b946020939093013593505050565b60006101008083850312156148bc578182fd5b83601f8401126148ca578182fd5b6040518181018181106001600160401b03821117156148eb576148eb615310565b60405280848381018710156148fe578485fd5b8493505b600884101561492257803582526001939093019260209182019101614902565b509095945050505050565b60006020828403121561493e578081fd5b81518015158114614826578182fd5b60006020828403121561495e578081fd5b5035919050565b60008060008060006060868803121561497c578081fd5b8535945060208601356001600160401b0380821115614999578283fd5b818801915088601f8301126149ac578283fd5b8135818111156149ba578384fd5b8960208260051b85010111156149ce578384fd5b6020830196508095505060408801359150808211156149eb578283fd5b506149f88882890161482d565b969995985093965092949392505050565b60008060408385031215614a1b578182fd5b8235915060208301356001600160401b03811115614a37578182fd5b830160608186031215614a48578182fd5b809150509250929050565b60008060008060808587031215614a68578081fd5b843593506020850135925060408501356001600160401b0380821115614a8c578283fd5b614a9888838901614807565b93506060870135915080821115614aad578283fd5b50614aba87828801614807565b91505092959194509250565b600060208284031215614ad7578081fd5b5051919050565b60008060408385031215614af0578182fd5b8235915060208301356001600160401b03811115614b0c578182fd5b830160408186031215614a48578182fd5b60008060408385031215614b2f578182fd5b8235915060208301356001600160401b03811115614b4b578182fd5b830160808186031215614a48578182fd5b60008060408385031215614b6e578182fd5b823591506020830135614a4881615326565b600060208284031215614b91578081fd5b813561482681615326565b60008060408385031215614bae578182fd5b8235614bb981615326565b9150602083013560028110614a48578182fd5b60008060408385031215614bde578182fd5b8251614be981615326565b6020840151909250614a4881615326565b600081518084526020808501808196508360051b81019150828601855b85811015614c41578284038952614c2f848351614cd5565b98850198935090840190600101614c17565b5091979650505050505050565b600081518084526020808501808196508360051b81019150828601855b85811015614c415782840389528151805160ff1685528501516040868601819052614c9881870183614bfa565b9a87019a9550505090840190600101614c6b565b8060005b6002811015614ccf578151845260209384019390910190600101614cb0565b50505050565b6000815180845260208085019450808401835b83811015614d0457815187529582019590820190600101614ce8565b509495945050505050565b60028110614d1f57614d1f6152fa565b9052565b60006001600160fb1b03831115614d38578081fd5b8260051b808584379190910190815292915050565b6020815260006148266020830184614bfa565b60006020808301818452808551808352604092508286019150828160051b870101848801865b83811015614dfb57888303603f19018552815180516001600160a01b031684528781015160ff168885015286810151608088860181905290614dca82870182614cd5565b91505060608083015192508582038187015250614de78183614cd5565b968901969450505090860190600101614d86565b509098975050505050505050565b60006020808301818452808551808352604092508286019150828160051b870101848801865b83811015614dfb57888303603f190185528151805160ff168452870151878401879052614e5e87850182614cd5565b9588019593505090860190600101614e2f565b6020815260006148266020830184614c4e565b6000610120614e938388614cac565b604080840187845b6002811015614ec257614eaf838351614cac565b9183019160209190910190600101614e9b565b50505050614ed360c0840186614cac565b80610100840152614ee681840185614cd5565b979650505050505050565b838152604060208201819052810182905260006001600160fb1b03831115614f17578081fd5b8260051b80856060850137919091016060019081529392505050565b6020810160048310614f4757614f476152fa565b91905290565b6020810161347d8284614d0f565b6101008101614f6a828b614d0f565b60ff988916602083015296881660408201529490961660608501526001600160a01b0392909216608084015260a083015260c082015260e00191909152919050565b6020810160038310614f4757614f476152fa565b60208082526028908201527f646b67436f6e74726163743a206d73672e73656e646572206973206e6f7420436040820152676f6d6d697474656560c01b606082015260800190565b60208082526021908201527f646b67436f6e74726163743a20696e76616c696420696e707574206c656e67746040820152600d60fb1b606082015260800190565b602081528151602082015260006020830151610120806040850152615072610140850183614bfa565b91506040850151601f19808685030160608701526150908483614bfa565b93506060870151915080868503016080870152506150ae8382614c4e565b92505060808501516150c560a086018260ff169052565b5060a085015180151560c08601525060c08501516001600160a01b03811660e08601525060e0850151610100615105818701836001600160a01b03169052565b909501516001600160a01b031693019290925250919050565b6000808335601e19843603018112615134578283fd5b8301803591506001600160401b0382111561514d578283fd5b6020019150600581901b360382131561486c57600080fd5b6000808335601e1984360301811261517b578283fd5b8301803591506001600160401b03821115615194578283fd5b60200191503681900382131561486c57600080fd5b604051601f8201601f191681016001600160401b03811182821017156151d1576151d1615310565b604052919050565b60006001600160401b038211156151f2576151f2615310565b5060051b60200190565b6000821982111561520f5761520f6152e4565b500190565b600060ff821660ff84168060ff03821115615231576152316152e4565b019392505050565b600060ff821660ff84168160ff048111821515161561525a5761525a6152e4565b029392505050565b600082821015615274576152746152e4565b500390565b600060ff821660ff841680821015615293576152936152e4565b90039392505050565b6000614826368484614733565b60006000198214156152bd576152bd6152e4565b5060010190565b600060ff821660ff8114156152db576152db6152e4565b60010192915050565b634e487b7160e01b600052601160045260246000fd5b634e487b7160e01b600052602160045260246000fd5b634e487b7160e01b600052604160045260246000fd5b60ff8116811461473057600080fdfe30644e72e131a029b85045b68181585d2833e84879b9709143e1f593f0000001a2646970667358221220ddd2e022555ff9cc35859592352a2f97d4885db4aeabfddd07c2f4697ca8418064736f6c63430008040033",
    "linkReferences": {},
    "deployedLinkReferences": {}
}