{
    "_format": "hh-sol-artifact-1",
    "contractName": "FundManager",
    "sourceName": "contracts/FundManager.sol",
    "abi": [
        {
            "inputs": [
                {
                    "internalType": "address[]",
                    "name": "_committeeList",
                    "type": "address[]"
                },
                {
                    "internalType": "address",
                    "name": "_daoManager",
                    "type": "address"
                },
                {
                    "internalType": "uint256",
                    "name": "_reserveFactor",
                    "type": "uint256"
                },
                {
                    "components": [
                        {
                            "internalType": "uint32",
                            "name": "levels",
                            "type": "uint32"
                        },
                        {
                            "internalType": "address",
                            "name": "poseidon",
                            "type": "address"
                        }
                    ],
                    "internalType": "struct IFundManager.MerkleTreeConfig",
                    "name": "_merkleTreeConfig",
                    "type": "tuple"
                },
                {
                    "components": [
                        {
                            "internalType": "uint64",
                            "name": "pendingPeriod",
                            "type": "uint64"
                        },
                        {
                            "internalType": "uint64",
                            "name": "activePeriod",
                            "type": "uint64"
                        },
                        {
                            "internalType": "uint64",
                            "name": "tallyPeriod",
                            "type": "uint64"
                        }
                    ],
                    "internalType": "struct IFundManager.FundingRoundConfig",
                    "name": "_fundingRoundConfig",
                    "type": "tuple"
                },
                {
                    "components": [
                        {
                            "internalType": "address",
                            "name": "round2Verfier",
                            "type": "address"
                        },
                        {
                            "internalType": "address",
                            "name": "fundingVerifier",
                            "type": "address"
                        },
                        {
                            "internalType": "address",
                            "name": "votingVerifier",
                            "type": "address"
                        },
                        {
                            "internalType": "address",
                            "name": "tallyContributionVerifier",
                            "type": "address"
                        },
                        {
                            "internalType": "address",
                            "name": "resultVerifier",
                            "type": "address"
                        }
                    ],
                    "internalType": "struct IDKG.DKGConfig",
                    "name": "_dkgConfig",
                    "type": "tuple"
                }
            ],
            "stateMutability": "nonpayable",
            "type": "constructor"
        },
        {
            "anonymous": false,
            "inputs": [
                {
                    "indexed": true,
                    "internalType": "uint256",
                    "name": "fundingRoundID",
                    "type": "uint256"
                },
                {
                    "indexed": true,
                    "internalType": "address",
                    "name": "dao",
                    "type": "address"
                },
                {
                    "indexed": true,
                    "internalType": "uint256",
                    "name": "value",
                    "type": "uint256"
                }
            ],
            "name": "FundWithdrawed",
            "type": "event"
        },
        {
            "anonymous": false,
            "inputs": [
                {
                    "indexed": true,
                    "internalType": "uint256",
                    "name": "fundingRoundID",
                    "type": "uint256"
                },
                {
                    "indexed": false,
                    "internalType": "address",
                    "name": "sender",
                    "type": "address"
                },
                {
                    "indexed": false,
                    "internalType": "uint256",
                    "name": "value",
                    "type": "uint256"
                },
                {
                    "indexed": true,
                    "internalType": "uint256",
                    "name": "commitment",
                    "type": "uint256"
                }
            ],
            "name": "Funded",
            "type": "event"
        },
        {
            "anonymous": false,
            "inputs": [
                {
                    "indexed": true,
                    "internalType": "address",
                    "name": "dao",
                    "type": "address"
                }
            ],
            "name": "FundingRoundApplied",
            "type": "event"
        },
        {
            "anonymous": false,
            "inputs": [
                {
                    "indexed": true,
                    "internalType": "uint256",
                    "name": "fundingRoundID",
                    "type": "uint256"
                }
            ],
            "name": "FundingRoundFailed",
            "type": "event"
        },
        {
            "anonymous": false,
            "inputs": [
                {
                    "indexed": true,
                    "internalType": "uint256",
                    "name": "fundingRoundID",
                    "type": "uint256"
                }
            ],
            "name": "FundingRoundFinalized",
            "type": "event"
        },
        {
            "anonymous": false,
            "inputs": [
                {
                    "indexed": true,
                    "internalType": "uint256",
                    "name": "fundingRoundID",
                    "type": "uint256"
                },
                {
                    "indexed": true,
                    "internalType": "bytes32",
                    "name": "requestID",
                    "type": "bytes32"
                }
            ],
            "name": "FundingRoundLaunched",
            "type": "event"
        },
        {
            "anonymous": false,
            "inputs": [
                {
                    "indexed": true,
                    "internalType": "uint32",
                    "name": "index",
                    "type": "uint32"
                },
                {
                    "indexed": true,
                    "internalType": "uint256",
                    "name": "commitment",
                    "type": "uint256"
                }
            ],
            "name": "LeafInserted",
            "type": "event"
        },
        {
            "anonymous": false,
            "inputs": [
                {
                    "indexed": true,
                    "internalType": "uint256",
                    "name": "fundingRoundID",
                    "type": "uint256"
                },
                {
                    "indexed": true,
                    "internalType": "address",
                    "name": "refundee",
                    "type": "address"
                },
                {
                    "indexed": true,
                    "internalType": "uint256",
                    "name": "value",
                    "type": "uint256"
                }
            ],
            "name": "Refunded",
            "type": "event"
        },
        {
            "anonymous": false,
            "inputs": [
                {
                    "indexed": true,
                    "internalType": "bytes32",
                    "name": "requestID",
                    "type": "bytes32"
                },
                {
                    "indexed": true,
                    "internalType": "uint256[]",
                    "name": "result",
                    "type": "uint256[]"
                }
            ],
            "name": "TallyResultSubmitted",
            "type": "event"
        },
        {
            "anonymous": false,
            "inputs": [
                {
                    "indexed": true,
                    "internalType": "uint256",
                    "name": "fundingRoundID",
                    "type": "uint256"
                },
                {
                    "indexed": true,
                    "internalType": "bytes32",
                    "name": "requestID",
                    "type": "bytes32"
                }
            ],
            "name": "TallyStarted",
            "type": "event"
        },
        {
            "inputs": [],
            "name": "FIELD_SIZE",
            "outputs": [
                {
                    "internalType": "uint256",
                    "name": "",
                    "type": "uint256"
                }
            ],
            "stateMutability": "view",
            "type": "function"
        },
        {
            "inputs": [],
            "name": "ROOT_HISTORY_SIZE",
            "outputs": [
                {
                    "internalType": "uint32",
                    "name": "",
                    "type": "uint32"
                }
            ],
            "stateMutability": "view",
            "type": "function"
        },
        {
            "inputs": [],
            "name": "ZERO_VALUE",
            "outputs": [
                {
                    "internalType": "uint256",
                    "name": "",
                    "type": "uint256"
                }
            ],
            "stateMutability": "view",
            "type": "function"
        },
        {
            "inputs": [
                {
                    "internalType": "address",
                    "name": "_dao",
                    "type": "address"
                }
            ],
            "name": "applyForFunding",
            "outputs": [],
            "stateMutability": "nonpayable",
            "type": "function"
        },
        {
            "inputs": [],
            "name": "bounty",
            "outputs": [
                {
                    "internalType": "uint256",
                    "name": "",
                    "type": "uint256"
                }
            ],
            "stateMutability": "view",
            "type": "function"
        },
        {
            "inputs": [],
            "name": "config",
            "outputs": [
                {
                    "internalType": "uint64",
                    "name": "pendingPeriod",
                    "type": "uint64"
                },
                {
                    "internalType": "uint64",
                    "name": "activePeriod",
                    "type": "uint64"
                },
                {
                    "internalType": "uint64",
                    "name": "tallyPeriod",
                    "type": "uint64"
                }
            ],
            "stateMutability": "view",
            "type": "function"
        },
        {
            "inputs": [],
            "name": "currentRootIndex",
            "outputs": [
                {
                    "internalType": "uint32",
                    "name": "",
                    "type": "uint32"
                }
            ],
            "stateMutability": "view",
            "type": "function"
        },
        {
            "inputs": [],
            "name": "daoManager",
            "outputs": [
                {
                    "internalType": "address",
                    "name": "",
                    "type": "address"
                }
            ],
            "stateMutability": "view",
            "type": "function"
        },
        {
            "inputs": [],
            "name": "dkgContract",
            "outputs": [
                {
                    "internalType": "contract IDKG",
                    "name": "",
                    "type": "address"
                }
            ],
            "stateMutability": "view",
            "type": "function"
        },
        {
            "inputs": [
                {
                    "internalType": "uint256",
                    "name": "",
                    "type": "uint256"
                }
            ],
            "name": "filledSubtrees",
            "outputs": [
                {
                    "internalType": "uint256",
                    "name": "",
                    "type": "uint256"
                }
            ],
            "stateMutability": "view",
            "type": "function"
        },
        {
            "inputs": [
                {
                    "internalType": "uint256",
                    "name": "_fundingRoundID",
                    "type": "uint256"
                }
            ],
            "name": "finalizeFundingRound",
            "outputs": [],
            "stateMutability": "nonpayable",
            "type": "function"
        },
        {
            "inputs": [],
            "name": "founder",
            "outputs": [
                {
                    "internalType": "address",
                    "name": "",
                    "type": "address"
                }
            ],
            "stateMutability": "view",
            "type": "function"
        },
        {
            "inputs": [
                {
                    "internalType": "uint256",
                    "name": "_fundingRoundID",
                    "type": "uint256"
                },
                {
                    "internalType": "uint256",
                    "name": "_commitment",
                    "type": "uint256"
                },
                {
                    "internalType": "uint256[][]",
                    "name": "_R",
                    "type": "uint256[][]"
                },
                {
                    "internalType": "uint256[][]",
                    "name": "_M",
                    "type": "uint256[][]"
                },
                {
                    "internalType": "bytes",
                    "name": "_proof",
                    "type": "bytes"
                }
            ],
            "name": "fund",
            "outputs": [],
            "stateMutability": "payable",
            "type": "function"
        },
        {
            "inputs": [],
            "name": "fundingRoundCounter",
            "outputs": [
                {
                    "internalType": "uint256",
                    "name": "",
                    "type": "uint256"
                }
            ],
            "stateMutability": "view",
            "type": "function"
        },
        {
            "inputs": [],
            "name": "fundingRoundInProgress",
            "outputs": [
                {
                    "internalType": "bool",
                    "name": "",
                    "type": "bool"
                }
            ],
            "stateMutability": "view",
            "type": "function"
        },
        {
            "inputs": [],
            "name": "fundingRoundQueue",
            "outputs": [
                {
                    "internalType": "contract Queue",
                    "name": "",
                    "type": "address"
                }
            ],
            "stateMutability": "view",
            "type": "function"
        },
        {
            "inputs": [
                {
                    "internalType": "uint256",
                    "name": "",
                    "type": "uint256"
                }
            ],
            "name": "fundingRounds",
            "outputs": [
                {
                    "internalType": "bytes32",
                    "name": "requestID",
                    "type": "bytes32"
                },
                {
                    "internalType": "uint256",
                    "name": "balance",
                    "type": "uint256"
                },
                {
                    "internalType": "uint64",
                    "name": "launchedAt",
                    "type": "uint64"
                },
                {
                    "internalType": "uint64",
                    "name": "finalizedAt",
                    "type": "uint64"
                },
                {
                    "internalType": "uint64",
                    "name": "failedAt",
                    "type": "uint64"
                }
            ],
            "stateMutability": "view",
            "type": "function"
        },
        {
            "inputs": [],
            "name": "getDKGParams",
            "outputs": [
                {
                    "internalType": "uint8",
                    "name": "",
                    "type": "uint8"
                },
                {
                    "internalType": "uint8",
                    "name": "",
                    "type": "uint8"
                }
            ],
            "stateMutability": "view",
            "type": "function"
        },
        {
            "inputs": [
                {
                    "internalType": "bytes32",
                    "name": "_requestID",
                    "type": "bytes32"
                }
            ],
            "name": "getDistributedKeyID",
            "outputs": [
                {
                    "internalType": "uint256",
                    "name": "",
                    "type": "uint256"
                }
            ],
            "stateMutability": "view",
            "type": "function"
        },
        {
            "inputs": [
                {
                    "internalType": "uint256",
                    "name": "_fundingRoundID",
                    "type": "uint256"
                }
            ],
            "name": "getFundingRoundState",
            "outputs": [
                {
                    "internalType": "enum IFundManager.FundingRoundState",
                    "name": "",
                    "type": "uint8"
                }
            ],
            "stateMutability": "view",
            "type": "function"
        },
        {
            "inputs": [],
            "name": "getLastRoot",
            "outputs": [
                {
                    "internalType": "uint256",
                    "name": "",
                    "type": "uint256"
                }
            ],
            "stateMutability": "view",
            "type": "function"
        },
        {
            "inputs": [
                {
                    "internalType": "uint256",
                    "name": "_fundingRoundID",
                    "type": "uint256"
                }
            ],
            "name": "getListDAO",
            "outputs": [
                {
                    "internalType": "address[]",
                    "name": "",
                    "type": "address[]"
                }
            ],
            "stateMutability": "view",
            "type": "function"
        },
        {
            "inputs": [
                {
                    "internalType": "uint256",
                    "name": "_distributedKeyID",
                    "type": "uint256"
                },
                {
                    "internalType": "address",
                    "name": "_requestor",
                    "type": "address"
                },
                {
                    "internalType": "uint256",
                    "name": "_nonce",
                    "type": "uint256"
                }
            ],
            "name": "getRequestID",
            "outputs": [
                {
                    "internalType": "bytes32",
                    "name": "",
                    "type": "bytes32"
                }
            ],
            "stateMutability": "pure",
            "type": "function"
        },
        {
            "inputs": [
                {
                    "internalType": "bytes32",
                    "name": "_requestID",
                    "type": "bytes32"
                }
            ],
            "name": "getResult",
            "outputs": [
                {
                    "internalType": "uint256[]",
                    "name": "",
                    "type": "uint256[]"
                }
            ],
            "stateMutability": "view",
            "type": "function"
        },
        {
            "inputs": [
                {
                    "internalType": "contract IPoseidon",
                    "name": "hasher",
                    "type": "address"
                },
                {
                    "internalType": "uint256",
                    "name": "_left",
                    "type": "uint256"
                },
                {
                    "internalType": "uint256",
                    "name": "_right",
                    "type": "uint256"
                }
            ],
            "name": "hash",
            "outputs": [
                {
                    "internalType": "uint256",
                    "name": "",
                    "type": "uint256"
                }
            ],
            "stateMutability": "pure",
            "type": "function"
        },
        {
            "inputs": [
                {
                    "internalType": "address",
                    "name": "",
                    "type": "address"
                }
            ],
            "name": "isCommittee",
            "outputs": [
                {
                    "internalType": "bool",
                    "name": "",
                    "type": "bool"
                }
            ],
            "stateMutability": "view",
            "type": "function"
        },
        {
            "inputs": [
                {
                    "internalType": "address",
                    "name": "_sender",
                    "type": "address"
                }
            ],
            "name": "isFounder",
            "outputs": [
                {
                    "internalType": "bool",
                    "name": "",
                    "type": "bool"
                }
            ],
            "stateMutability": "view",
            "type": "function"
        },
        {
            "inputs": [
                {
                    "internalType": "uint256",
                    "name": "_root",
                    "type": "uint256"
                }
            ],
            "name": "isKnownRoot",
            "outputs": [
                {
                    "internalType": "bool",
                    "name": "",
                    "type": "bool"
                }
            ],
            "stateMutability": "view",
            "type": "function"
        },
        {
            "inputs": [
                {
                    "internalType": "uint256",
                    "name": "_distributedKeyID",
                    "type": "uint256"
                }
            ],
            "name": "launchFundingRound",
            "outputs": [
                {
                    "internalType": "uint256",
                    "name": "fundingRoundID",
                    "type": "uint256"
                },
                {
                    "internalType": "bytes32",
                    "name": "requestID",
                    "type": "bytes32"
                }
            ],
            "stateMutability": "nonpayable",
            "type": "function"
        },
        {
            "inputs": [],
            "name": "levels",
            "outputs": [
                {
                    "internalType": "uint32",
                    "name": "",
                    "type": "uint32"
                }
            ],
            "stateMutability": "view",
            "type": "function"
        },
        {
            "inputs": [],
            "name": "nextIndex",
            "outputs": [
                {
                    "internalType": "uint32",
                    "name": "",
                    "type": "uint32"
                }
            ],
            "stateMutability": "view",
            "type": "function"
        },
        {
            "inputs": [],
            "name": "numberOfCommittees",
            "outputs": [
                {
                    "internalType": "uint8",
                    "name": "",
                    "type": "uint8"
                }
            ],
            "stateMutability": "view",
            "type": "function"
        },
        {
            "inputs": [],
            "name": "poseidon",
            "outputs": [
                {
                    "internalType": "contract IPoseidon",
                    "name": "",
                    "type": "address"
                }
            ],
            "stateMutability": "view",
            "type": "function"
        },
        {
            "inputs": [
                {
                    "internalType": "uint256",
                    "name": "_fundingRoundID",
                    "type": "uint256"
                }
            ],
            "name": "refund",
            "outputs": [],
            "stateMutability": "nonpayable",
            "type": "function"
        },
        {
            "inputs": [
                {
                    "internalType": "bytes32",
                    "name": "",
                    "type": "bytes32"
                }
            ],
            "name": "requests",
            "outputs": [
                {
                    "internalType": "uint256",
                    "name": "distributedKeyID",
                    "type": "uint256"
                },
                {
                    "internalType": "uint256",
                    "name": "respondedAt",
                    "type": "uint256"
                }
            ],
            "stateMutability": "view",
            "type": "function"
        },
        {
            "inputs": [],
            "name": "reserveFactor",
            "outputs": [
                {
                    "internalType": "uint256",
                    "name": "",
                    "type": "uint256"
                }
            ],
            "stateMutability": "view",
            "type": "function"
        },
        {
            "inputs": [
                {
                    "internalType": "uint256",
                    "name": "",
                    "type": "uint256"
                }
            ],
            "name": "roots",
            "outputs": [
                {
                    "internalType": "uint256",
                    "name": "",
                    "type": "uint256"
                }
            ],
            "stateMutability": "view",
            "type": "function"
        },
        {
            "inputs": [
                {
                    "internalType": "uint256",
                    "name": "_fundingRoundID",
                    "type": "uint256"
                }
            ],
            "name": "startTallying",
            "outputs": [],
            "stateMutability": "nonpayable",
            "type": "function"
        },
        {
            "inputs": [
                {
                    "internalType": "bytes32",
                    "name": "_requestID",
                    "type": "bytes32"
                },
                {
                    "internalType": "uint256[]",
                    "name": "_result",
                    "type": "uint256[]"
                }
            ],
            "name": "submitTallyResult",
            "outputs": [],
            "stateMutability": "nonpayable",
            "type": "function"
        },
        {
            "inputs": [],
            "name": "threshold",
            "outputs": [
                {
                    "internalType": "uint8",
                    "name": "",
                    "type": "uint8"
                }
            ],
            "stateMutability": "view",
            "type": "function"
        },
        {
            "inputs": [
                {
                    "internalType": "uint256",
                    "name": "_fundingRoundID",
                    "type": "uint256"
                },
                {
                    "internalType": "address",
                    "name": "_dao",
                    "type": "address"
                }
            ],
            "name": "withdrawFund",
            "outputs": [],
            "stateMutability": "nonpayable",
            "type": "function"
        },
        {
            "inputs": [
                {
                    "internalType": "uint32",
                    "name": "i",
                    "type": "uint32"
                }
            ],
            "name": "zeros",
            "outputs": [
                {
                    "internalType": "uint256",
                    "name": "",
                    "type": "uint256"
                }
            ],
            "stateMutability": "view",
            "type": "function"
        }
    ],
    "bytecode": "0x60a06040527f0278878f9bf771ee0d3ecbd67f02536af7696dea0a6fa6acccadcacefb2ae2d9600055600480546001600160401b03191690553480156200004557600080fd5b506040516200bf9b3803806200bf9b833981016040819052620000689162000e1c565b8251602084015163ffffffff8216620000d25760405162461bcd60e51b815260206004820152602160248201527f6c6576656c2073686f756c642062652067726561746572207468616e207a65726044820152606f60f81b60648201526084015b60405180910390fd5b60208263ffffffff1611156200012b5760405162461bcd60e51b815260206004820152601c60248201527f6c6576656c2073686f756c64206265206c657373207468616e203332000000006044820152606401620000c9565b6001805463ffffffff191663ffffffff8416179055606081901b6001600160601b03191660805260005b8263ffffffff168163ffffffff161015620001a057620001758162000540565b63ffffffff821660009081526002602052604090205580620001978162001000565b91505062000155565b50620001b8620001b260018462000fba565b62000540565b6000805260036020527f3617319a054d772f909f7c479a2cebe5066e836a939412e32403c99029b92eff5550508551600511156200026d5760405162461bcd60e51b815260206004820152604560248201527f46756e644d616e6167657220636f6e74726163743a205265717569726520746860448201527f65206e756d626572206f6620636f6d6d6974746565732067726561746572207460648201526468616e203560d81b608482015260a401620000c9565b6001600160a01b038516620002da5760405162461bcd60e51b815260206004820152602c60248201527f46756e644d616e616765723a2044414f4d616e616765722063616e206e6f742060448201526b06265206164647265737320360a41b6064820152608401620000c9565b60048054600160401b600160e01b031916336801000000000000000002179055600580546001600160a01b0319166001600160a01b03871617905560005b865181101562000390576001600960008984815181106200034957634e487b7160e01b600052603260045260246000fd5b6020908102919091018101516001600160a01b03168252810191909152604001600020805460ff191691151591909117905580620003878162000fe2565b91505062000318565b5085516004805460ff60e01b1916600160e01b60ff93841681029190911791829055620003c592600292919091041662000f8b565b620003d290600162000f63565b6004805460ff92909216600160e81b0260ff60e81b19909216919091179055600684905581516007805460208501516040808701516001600160401b03908116600160801b02600160801b600160c01b031993821668010000000000000000026001600160801b03199095169190961617929092171692909217905551600f906200045d9062000c4c565b908152602001604051809103906000f08015801562000480573d6000803e3d6000fd5b50600d80546001600160a01b0319166001600160a01b03929092169190911790556040518190620004b19062000c5a565b81516001600160a01b039081168252602080840151821690830152604080840151821690830152606080840151821690830152608092830151169181019190915260a001604051809103906000f08015801562000512573d6000803e3d6000fd5b50600e80546001600160a01b0319166001600160a01b03929092169190911790555062001053945050505050565b600063ffffffff82166200055657505060005490565b8163ffffffff16600114156200058d57507f25b1cadac27e096a2b9f9526fb90e54420511d468b992f32154849b285fe5662919050565b8163ffffffff1660021415620005c457507f0479eb565282199a0144d3c118df2bc328a1ffafefa20f9a184b5bd88383a436919050565b8163ffffffff1660031415620005fb57507f21d4c1db3d4d222a7929f89c45bb66039006e9f5de00ad9b7c3693a3b2b53be5919050565b8163ffffffff16600414156200063257507f179336a006f9e52255d43b22c46f519e3ad13fd995a5dde05e59718a83f07ad2919050565b8163ffffffff16600514156200066957507f18d0f373a3ef8b46e854b46b7c85e6dc15a5cf428452b5378aba430d3854c952919050565b8163ffffffff1660061415620006a057507f1721577f689e888d3f3b62f83876634c440da963a06e2fa64aab1f883a4f4027919050565b8163ffffffff1660071415620006d757507f12db2fa8caf1c44cb5eef530df8e04146bb58f00d969646fee1fb7ec4753e5ec919050565b8163ffffffff16600814156200070e57507f18155aae0da7042886ccdb6e5f26c3b38681a5b7dd63672781fc3aca3ae64329919050565b8163ffffffff16600914156200074457507e810c2ba8a72363a51e65332ca11321b7f2b9c8e853e040c37822762341e64c919050565b8163ffffffff16600a14156200077b57507f138e35239c591673c3b890ec0fa1178cab7d8f7d8c7f7a0c8bf8513682bc432f919050565b8163ffffffff16600b1415620007b257507f27716c6fbacdac3650e54163d9b772b809dfe4b5eafc42e11eb20173fdfda855919050565b8163ffffffff16600c1415620007e957507f2e656892e101c19f0d84eba4729a8dff37701503d124a8a017c66e32def0428a919050565b8163ffffffff16600d14156200082057507f18a099df16bfb30fb7a701a4f8a81d14f86ba164c2f36edd7bcda8859edef4e5919050565b8163ffffffff16600e14156200085757507f2cf5426675af64f465549de3c1e3c9d37a972292c407a34068706e4c2bda2e85919050565b8163ffffffff16600f14156200088e57507f1f161c2b6c3cb2ba96b79bf40a241122114e753bfeeea2eb7dd524520a560034919050565b8163ffffffff1660101415620008c557507f2616fb559eee609eb7a8fdcbf8342e257e643e2448e63e57e9766789ab9dcda8919050565b8163ffffffff1660111415620008fc57507f2dcabcec03c45467a56f1049f2f823d6b571cf2451ba9bb4b58aa9b9f4b97ee4919050565b8163ffffffff16601214156200093357507f0e486e20cc0a454926d6e54e9e708c89be8b4323c9d433b82e8eeaa20698b1a4919050565b8163ffffffff16601314156200096a57507f2fa2fd053d2cb523abd48b8edbcf845294c3b61fcbf68e383fa3333a073d354e919050565b8163ffffffff1660141415620009a157507f296a754450d0bb6452e70a109a66e2b9f0ada22aaa6fc1226814b7ab29a1ef65919050565b8163ffffffff1660151415620009d857507f1412fc765858b38747773c841ff3c55ba049a014602500b8ed15d05c1ac2194e919050565b8163ffffffff166016141562000a0f57507f2dda5102ce12a674c5f3150e66f99d1f0155a3e1b1fc5d46a1829a3926e3c517919050565b8163ffffffff166017141562000a4657507f0dd17790e10053c669ce3d42602a2e55764d1ac49f6675d6d2dd0b4679646872919050565b8163ffffffff166018141562000a7d57507f200d910e885eb5b74c83e7b2b4ca8226603bc193a28213d78abdb1563b537bc6919050565b8163ffffffff166019141562000ab457507f2863c25a37e67338575fedd094ee2a7632fc2a2e6eb1576a4b63649cc14ba6ca919050565b8163ffffffff16601a141562000aeb57507f1dea70f9ddc9ff4a3503e7636361d555a35b05273d26c1df2b92612b28904ee0919050565b8163ffffffff16601b141562000b2257507f06c8d3c7f94f942a16320b90fb1380fc477a08ea3fd19e72c9606cfdf4da4e09919050565b8163ffffffff16601c141562000b5957507f0d4830eadcf10257e542babcb8f51f43e697617c14e2755f15a8af97b5ef8405919050565b8163ffffffff16601d141562000b9057507f159d54738c2930b6f8499edc1bf764a876a1c8bf2f93e17d98e1f02703c31816919050565b8163ffffffff16601e141562000bc757507f2de6697024a0b51b6240a26cd021fa8b53bd27046ab438d5035c1b0243191209919050565b8163ffffffff16601f141562000bfe57507f2f0aeb3423ae82871eeb04b9d63cc55fe0ef8fcb8b5ffbafd6eb31e375f1d8d3919050565b60405162461bcd60e51b815260206004820152601360248201527f496e646578206f7574206f6620626f756e6473000000000000000000000000006044820152606401620000c9565b919050565b6105498062005bba83390190565b615e98806200610383390190565b80516001600160a01b038116811462000c4757600080fd5b600060a0828403121562000c92578081fd5b60405160a081016001600160401b038111828210171562000cb75762000cb76200103d565b60405290508062000cc88362000c68565b815262000cd86020840162000c68565b602082015262000ceb6040840162000c68565b604082015262000cfe6060840162000c68565b606082015262000d116080840162000c68565b60808201525092915050565b60006060828403121562000d2f578081fd5b604051606081016001600160401b038111828210171562000d545762000d546200103d565b60405290508062000d658362000e04565b815262000d756020840162000e04565b602082015262000d886040840162000e04565b60408201525092915050565b60006040828403121562000da6578081fd5b604080519081016001600160401b038111828210171562000dcb5762000dcb6200103d565b8060405250809150825163ffffffff8116811462000de857600080fd5b815262000df86020840162000c68565b60208201525092915050565b80516001600160401b038116811462000c4757600080fd5b6000806000806000806101a0878903121562000e36578182fd5b86516001600160401b038082111562000e4d578384fd5b818901915089601f83011262000e61578384fd5b815160208282111562000e785762000e786200103d565b8160051b925062000e8b81840162000f30565b8281528181019085830185870184018f101562000ea6578889fd5b8896505b8487101562000ed35762000ebe8162000c68565b83526001969096019591830191830162000eaa565b509a5062000ee590508b820162000c68565b9850505050506040870151935062000f01886060890162000d94565b925062000f128860a0890162000d1d565b915062000f2488610100890162000c80565b90509295509295509295565b604051601f8201601f191681016001600160401b038111828210171562000f5b5762000f5b6200103d565b604052919050565b600060ff821660ff84168060ff0382111562000f835762000f8362001027565b019392505050565b600060ff83168062000fab57634e487b7160e01b82526012600452602482fd5b8060ff84160491505092915050565b600063ffffffff8381169083168181101562000fda5762000fda62001027565b039392505050565b600060001982141562000ff95762000ff962001027565b5060010190565b600063ffffffff808316818114156200101d576200101d62001027565b6001019392505050565b634e487b7160e01b600052601160045260246000fd5b634e487b7160e01b600052604160045260246000fd5b60805160601c614b4162001079600039600081816107bf0152613b780152614b416000f3fe6080604052600436106102515760003560e01c8063ab1a1ba611610139578063c6d9ab1a116100b6578063ec7329591161007a578063ec73295914610880578063f0a3ffff14610896578063f178e47c146108b6578063f322c755146108e3578063fc7e9c6f14610903578063fd152d841461092857600080fd5b8063c6d9ab1a146107e1578063c7b5784114610801578063c874714914610837578063cd87a3b414610858578063d65200c51461086d57600080fd5b8063bdbb90c1116100fd578063bdbb90c1146106af578063c2b40ae4146106cf578063c428a278146106fc578063c58264b31461078d578063c62b919e146107ad57600080fd5b8063ab1a1ba6146105eb578063add4c78414610618578063b053653214610645578063b2de07fd14610665578063ba70f7571461068557600080fd5b806353dddc12116101d2578063943dfef111610196578063943dfef114610521578063958efd83146105375780639d86698514610557578063a6232a931461058b578063a7f53131146105ab578063a9f53692146105cb57600080fd5b806353dddc121461041657806369306f241461044357806379502c55146104645780638c9540d3146104c457806390eeb02b1461050457600080fd5b806342cde4e81161021957806342cde4e81461034657806342e0a834146103795780634322b7141461038f5780634d853ee5146103a55780634ecf518b146103e457600080fd5b8063083889541461025657806324762f1414610296578063278ecde1146102cd5780633a5750f0146102ef578063414a37ba14610324575b600080fd5b34801561026257600080fd5b5061028361027136600461412b565b6000908152600a602052604090205490565b6040519081526020015b60405180910390f35b3480156102a257600080fd5b506004546040805160ff600160e81b840481168252600160e01b90930490921660208301520161028d565b3480156102d957600080fd5b506102ed6102e836600461412b565b610948565b005b3480156102fb57600080fd5b5061030f61030a36600461412b565b610a02565b6040805192835260208301919091520161028d565b34801561033057600080fd5b50610283600080516020614aec83398151915281565b34801561035257600080fd5b5060045461036790600160e81b900460ff1681565b60405160ff909116815260200161028d565b34801561038557600080fd5b50610283600c5481565b34801561039b57600080fd5b5061028360065481565b3480156103b157600080fd5b506004546103cc90600160401b90046001600160a01b031681565b6040516001600160a01b03909116815260200161028d565b3480156103f057600080fd5b506001546104019063ffffffff1681565b60405163ffffffff909116815260200161028d565b34801561042257600080fd5b5061043661043136600461412b565b6110b9565b60405161028d91906145a3565b34801561044f57600080fd5b5060045461036790600160e01b900460ff1681565b34801561047057600080fd5b5060075461049a906001600160401b0380821691600160401b8104821691600160801b9091041683565b604080516001600160401b039485168152928416602084015292169181019190915260600161028d565b3480156104d057600080fd5b506104f46104df36600461404e565b60096020526000908152604090205460ff1681565b604051901515815260200161028d565b34801561051057600080fd5b506004546104019063ffffffff1681565b34801561052d57600080fd5b5061028360085481565b34801561054357600080fd5b5061028361055236600461418c565b611128565b34801561056357600080fd5b5061030f61057236600461412b565b600a602052600090815260409020805460049091015482565b34801561059757600080fd5b506104f46105a636600461412b565b611283565b3480156105b757600080fd5b506102836105c6366004614484565b6112fe565b3480156105d757600080fd5b50600d546103cc906001600160a01b031681565b3480156105f757600080fd5b5061060b61060636600461412b565b6119df565b60405161028d91906146af565b34801561062457600080fd5b5061063861063336600461412b565b611d6e565b60405161028d919061466b565b34801561065157600080fd5b50610283610660366004614358565b611dd2565b34801561067157600080fd5b50600e546103cc906001600160a01b031681565b34801561069157600080fd5b5060045463ffffffff16600090815260036020526040902054610283565b3480156106bb57600080fd5b506102ed6106ca36600461412b565b611e1b565b3480156106db57600080fd5b506102836106ea36600461412b565b60036020526000908152604090205481565b34801561070857600080fd5b5061075761071736600461412b565b600b602052600090815260409020805460038201546006909201549091906001600160401b0380821691600160401b8104821691600160801b9091041685565b6040805195865260208601949094526001600160401b03928316938501939093528116606084015216608082015260a00161028d565b34801561079957600080fd5b506102ed6107a8366004614143565b6121e4565b3480156107b957600080fd5b506103cc7f000000000000000000000000000000000000000000000000000000000000000081565b3480156107ed57600080fd5b506102ed6107fc36600461404e565b612275565b34801561080d57600080fd5b506104f461081c36600461404e565b600454600160401b90046001600160a01b0390811691161490565b34801561084357600080fd5b506004546104f490600160f01b900460ff1681565b34801561086457600080fd5b50610401601481565b6102ed61087b3660046143b2565b612322565b34801561088c57600080fd5b5061028360005481565b3480156108a257600080fd5b506102ed6108b136600461412b565b612fc2565b3480156108c257600080fd5b506102836108d136600461412b565b60026020526000908152604090205481565b3480156108ef57600080fd5b506005546103cc906001600160a01b031681565b34801561090f57600080fd5b5060045461040190640100000000900463ffffffff1681565b34801561093457600080fd5b506102ed610943366004614329565b61344d565b6000818152600b602052604090206005610961836119df565b600581111561098057634e487b7160e01b600052602160045260246000fd5b1461098a57600080fd5b336000818152600483016020526040808220805490839055905190929183156108fc02918491818181858888f193505050501580156109cd573d6000803e3d6000fd5b506040518190339085907f7ca5472b7ea78c2c0141c5a12ee6d170cf4ce8ed06be3d22c8252ddfc7a6a2c490600090a4505050565b6004546000908190600160f01b900460ff1615610a815760405162461bcd60e51b815260206004820152603260248201527f46756e644d616e616765723a20697320686176696e6720612066756e64696e6760448201527120726f756e6420696e2070726f677265737360701b60648201526084015b60405180910390fd5b600e54604051631dcb457360e11b8152600481018590526002916001600160a01b031690633b968ae69060240160206040518083038186803b158015610ac657600080fd5b505afa158015610ada573d6000803e3d6000fd5b505050506040513d601f19601f82011682018060405250810190610afe91906141c0565b6003811115610b1d57634e487b7160e01b600052602160045260246000fd5b148015610bc35750600e54604051630806d56f60e31b8152600481018590526000916001600160a01b031690634036ab789060240160206040518083038186803b158015610b6a57600080fd5b505afa158015610b7e573d6000803e3d6000fd5b505050506040513d601f19601f82011682018060405250810190610ba291906141df565b6001811115610bc157634e487b7160e01b600052602160045260246000fd5b145b8015610c485750600e54604051630142b97960e71b8152600481018590526001600160a01b039091169063a15cbc809060240160206040518083038186803b158015610c0e57600080fd5b505afa158015610c22573d6000803e3d6000fd5b505050506040513d601f19601f82011682018060405250810190610c469190614311565b155b610c945760405162461bcd60e51b815260206004820152601860248201527f46756e644d616e616765723a20496e76616c6964206b657900000000000000006044820152606401610a78565b600e546040516354a0585760e01b8152600481018590526000916001600160a01b0316906354a058579060240160206040518083038186803b158015610cd957600080fd5b505afa158015610ced573d6000803e3d6000fd5b505050506040513d601f19601f82011682018060405250810190610d1191906144a8565b90508060ff16600d60009054906101000a90046001600160a01b03166001600160a01b031663be1c766b6040518163ffffffff1660e01b815260040160206040518083038186803b158015610d6557600080fd5b505afa158015610d79573d6000803e3d6000fd5b505050506040513d601f19601f82011682018060405250810190610d9d9190614311565b1015610e235760405162461bcd60e51b815260206004820152604960248201527f46756e644d616e616765723a205468652064696d656e73696f6e206f6620746860448201527f65206b657920646f6573206e6f74207361746973667920746865206e756d626560648201526872206f662044414f7360b81b608482015260a401610a78565b60008160ff166001600160401b03811115610e4e57634e487b7160e01b600052604160045260246000fd5b604051908082528060200260200182016040528015610e77578160200160208202803683370190505b50905060005b81518160ff161015610f5e57600d60009054906101000a90046001600160a01b03166001600160a01b031663957908d16040518163ffffffff1660e01b8152600401602060405180830381600087803b158015610ed957600080fd5b505af1158015610eed573d6000803e3d6000fd5b505050506040513d601f19601f82011682018060405250810190610f119190614071565b828260ff1681518110610f3457634e487b7160e01b600052603260045260246000fd5b6001600160a01b039092166020928302919091019091015280610f5681614a51565b915050610e7d565b50600c80546000818152600b602052604081209196509091600191610f8383896147bc565b90915550610f949050863087611dd2565b6000818152600a602052604081208881559195505b8460ff168160ff1610156110365760408051808201909152600080825260016020808401829052818601805492830181558352909120610fed929101906002613d09565b50604080518082019091526000808252600160208084018290526002808701805493840181558452922061102393910191613d09565b508061102e81614a51565b915050610fa9565b50848255825161104f9060018401906020860190613d59565b506006820180546001600160401b03431667ffffffffffffffff199091161790556004805460ff60f01b1916600160f01b179055604051859087907f69cc3ae94fee808fb598be7e0f95a18e4b7dc07139a931befa6b884c7b63308290600090a350505050915091565b6000818152600b602090815260409182902060010180548351818402810184019094528084526060939283018282801561111c57602002820191906000526020600020905b81546001600160a01b031681526001909101906020018083116110fe575b50505050509050919050565b6000600080516020614aec83398151915283106111875760405162461bcd60e51b815260206004820181905260248201527f5f6c6566742073686f756c6420626520696e7369646520746865206669656c646044820152606401610a78565b600080516020614aec83398151915282106111ee5760405162461bcd60e51b815260206004820152602160248201527f5f72696768742073686f756c6420626520696e7369646520746865206669656c6044820152601960fa1b6064820152608401610a78565b604080518082018252848152602081018490529051632b0aac7f60e11b81526001600160a01b0386169163561558fe9161122b91906004016145f0565b60206040518083038186803b15801561124357600080fd5b505afa158015611257573d6000803e3d6000fd5b505050506040513d601f19601f8201168201806040525081019061127b9190614311565b949350505050565b60008161129257506000919050565b60045463ffffffff16805b63ffffffff81166000908152600360205260409020548414156112c4575060019392505050565b63ffffffff81166112d3575060145b806112dd816149f2565b9150508163ffffffff168163ffffffff16141561129d575060009392505050565b600063ffffffff821661131357505060005490565b8163ffffffff166001141561134957507f25b1cadac27e096a2b9f9526fb90e54420511d468b992f32154849b285fe5662919050565b8163ffffffff166002141561137f57507f0479eb565282199a0144d3c118df2bc328a1ffafefa20f9a184b5bd88383a436919050565b8163ffffffff16600314156113b557507f21d4c1db3d4d222a7929f89c45bb66039006e9f5de00ad9b7c3693a3b2b53be5919050565b8163ffffffff16600414156113eb57507f179336a006f9e52255d43b22c46f519e3ad13fd995a5dde05e59718a83f07ad2919050565b8163ffffffff166005141561142157507f18d0f373a3ef8b46e854b46b7c85e6dc15a5cf428452b5378aba430d3854c952919050565b8163ffffffff166006141561145757507f1721577f689e888d3f3b62f83876634c440da963a06e2fa64aab1f883a4f4027919050565b8163ffffffff166007141561148d57507f12db2fa8caf1c44cb5eef530df8e04146bb58f00d969646fee1fb7ec4753e5ec919050565b8163ffffffff16600814156114c357507f18155aae0da7042886ccdb6e5f26c3b38681a5b7dd63672781fc3aca3ae64329919050565b8163ffffffff16600914156114f857507e810c2ba8a72363a51e65332ca11321b7f2b9c8e853e040c37822762341e64c919050565b8163ffffffff16600a141561152e57507f138e35239c591673c3b890ec0fa1178cab7d8f7d8c7f7a0c8bf8513682bc432f919050565b8163ffffffff16600b141561156457507f27716c6fbacdac3650e54163d9b772b809dfe4b5eafc42e11eb20173fdfda855919050565b8163ffffffff16600c141561159a57507f2e656892e101c19f0d84eba4729a8dff37701503d124a8a017c66e32def0428a919050565b8163ffffffff16600d14156115d057507f18a099df16bfb30fb7a701a4f8a81d14f86ba164c2f36edd7bcda8859edef4e5919050565b8163ffffffff16600e141561160657507f2cf5426675af64f465549de3c1e3c9d37a972292c407a34068706e4c2bda2e85919050565b8163ffffffff16600f141561163c57507f1f161c2b6c3cb2ba96b79bf40a241122114e753bfeeea2eb7dd524520a560034919050565b8163ffffffff166010141561167257507f2616fb559eee609eb7a8fdcbf8342e257e643e2448e63e57e9766789ab9dcda8919050565b8163ffffffff16601114156116a857507f2dcabcec03c45467a56f1049f2f823d6b571cf2451ba9bb4b58aa9b9f4b97ee4919050565b8163ffffffff16601214156116de57507f0e486e20cc0a454926d6e54e9e708c89be8b4323c9d433b82e8eeaa20698b1a4919050565b8163ffffffff166013141561171457507f2fa2fd053d2cb523abd48b8edbcf845294c3b61fcbf68e383fa3333a073d354e919050565b8163ffffffff166014141561174a57507f296a754450d0bb6452e70a109a66e2b9f0ada22aaa6fc1226814b7ab29a1ef65919050565b8163ffffffff166015141561178057507f1412fc765858b38747773c841ff3c55ba049a014602500b8ed15d05c1ac2194e919050565b8163ffffffff16601614156117b657507f2dda5102ce12a674c5f3150e66f99d1f0155a3e1b1fc5d46a1829a3926e3c517919050565b8163ffffffff16601714156117ec57507f0dd17790e10053c669ce3d42602a2e55764d1ac49f6675d6d2dd0b4679646872919050565b8163ffffffff166018141561182257507f200d910e885eb5b74c83e7b2b4ca8226603bc193a28213d78abdb1563b537bc6919050565b8163ffffffff166019141561185857507f2863c25a37e67338575fedd094ee2a7632fc2a2e6eb1576a4b63649cc14ba6ca919050565b8163ffffffff16601a141561188e57507f1dea70f9ddc9ff4a3503e7636361d555a35b05273d26c1df2b92612b28904ee0919050565b8163ffffffff16601b14156118c457507f06c8d3c7f94f942a16320b90fb1380fc477a08ea3fd19e72c9606cfdf4da4e09919050565b8163ffffffff16601c14156118fa57507f0d4830eadcf10257e542babcb8f51f43e697617c14e2755f15a8af97b5ef8405919050565b8163ffffffff16601d141561193057507f159d54738c2930b6f8499edc1bf764a876a1c8bf2f93e17d98e1f02703c31816919050565b8163ffffffff16601e141561196657507f2de6697024a0b51b6240a26cd021fa8b53bd27046ab438d5035c1b0243191209919050565b8163ffffffff16601f141561199c57507f2f0aeb3423ae82871eeb04b9d63cc55fe0ef8fcb8b5ffbafd6eb31e375f1d8d3919050565b60405162461bcd60e51b8152602060048201526013602482015272496e646578206f7574206f6620626f756e647360681b6044820152606401610a78565b919050565b6000600c548210611a3e5760405162461bcd60e51b815260206004820152602360248201527f46756e644d616e616765723a20696e76616c69642066756e64696e67526f756e60448201526219125160ea1b6064820152608401610a78565b6000828152600b6020908152604080832060068101549054808552600a8452828520835160a081018552815481526001820180548651818902810189019097528087526001600160401b03600160401b87048116999616979496929485810193929190879084015b82821015611b1257600084815260209081902083018054604080518285028101850190915281815292830182828015611afe57602002820191906000526020600020905b815481526020019060010190808311611aea575b505050505081526020019060010190611aa6565b50505050815260200160028201805480602002602001604051908101604052809291908181526020016000905b82821015611bab57600084815260209081902083018054604080518285028101850190915281815292830182828015611b9757602002820191906000526020600020905b815481526020019060010190808311611b83575b505050505081526020019060010190611b3f565b50505050815260200160038201805480602002602001604051908101604052809291908181526020018280548015611c0257602002820191906000526020600020905b815481526020019060010190808311611bee575b505050918352505060049190910154602090910152600754909150600090611c33906001600160401b0316856147fc565b600754909150600090611c5690600160401b90046001600160401b0316836147fc565b600754909150600090611c7990600160801b90046001600160401b0316836147fc565b90506001600160401b03871615611c995750600498975050505050505050565b826001600160401b03164311611cb85750600098975050505050505050565b43836001600160401b0316108015611cd95750816001600160401b03164311155b15611ced5750600198975050505050505050565b8360800151826001600160401b0316108015611d165750806001600160401b0316846080015111155b15611d2a5750600398975050505050505050565b43826001600160401b0316108015611d4b5750806001600160401b03164311155b15611d5f5750600298975050505050505050565b50600598975050505050505050565b6000818152600a602090815260409182902060030180548351818402810184019094528084526060939283018282801561111c57602002820191906000526020600020905b815481526020019060010190808311611db35750505050509050919050565b6040805160208082019590955260609390931b6bffffffffffffffffffffffff191683820152605480840192909252805180840390920182526074909201909152805191012090565b6000818152600b60205260409020546002611e35836119df565b6005811115611e5457634e487b7160e01b600052602160045260246000fd5b148015611eec5750600e546040516303f949d160e61b8152600481018390526000916001600160a01b03169063fe5274409060240160006040518083038186803b158015611ea157600080fd5b505afa158015611eb5573d6000803e3d6000fd5b505050506040513d6000823e601f3d908101601f19168201604052611edd91908101906141fe565b60e001516001600160a01b0316145b8015611f845750600e546040516303f949d160e61b8152600481018390526000916001600160a01b03169063fe5274409060240160006040518083038186803b158015611f3857600080fd5b505afa158015611f4c573d6000803e3d6000fd5b505050506040513d6000823e601f3d908101601f19168201604052611f7491908101906141fe565b61010001516001600160a01b0316145b611f8d57600080fd5b6000818152600a60209081526040808320815160a081018352815481526001820180548451818702810187019095528085529194929385840193909290879084015b8282101561203b5760008481526020908190208301805460408051828502810185019091528181529283018282801561202757602002820191906000526020600020905b815481526020019060010190808311612013575b505050505081526020019060010190611fcf565b50505050815260200160028201805480602002602001604051908101604052809291908181526020016000905b828210156120d4576000848152602090819020830180546040805182850281018501909152818152928301828280156120c057602002820191906000526020600020905b8154815260200190600101908083116120ac575b505050505081526020019060010190612068565b5050505081526020016003820180548060200260200160405190810160405280929190818152602001828054801561212b57602002820191906000526020600020905b815481526020019060010190808311612117575b5050509183525050600491820154602091820152600e548351918401516040808601519051634da58de760e01b81529596506001600160a01b0390921694634da58de79461218094899490939290910161467e565b600060405180830381600087803b15801561219a57600080fd5b505af11580156121ae573d6000803e3d6000fd5b50506040518492508591507fe5ea7fbe8a3e198ce231fae8d318b3eb55b197466be732eca44b997994599dc590600090a3505050565b600e546001600160a01b031633146121fb57600080fd5b6000838152600a6020526040902060048101541561221857600080fd5b612226600382018484613dae565b5043600482015560405161223d9084908490614579565b6040519081900381209085907fba9c3c075e9ab8061b59afdd34a7649bd25a4787c6a41cfb72191a0a657d2b2b90600090a350505050565b6005546001600160a01b0316331461228c57600080fd5b600d54604051638f807f6b60e01b81526001600160a01b03838116600483015290911690638f807f6b90602401600060405180830381600087803b1580156122d357600080fd5b505af11580156122e7573d6000803e3d6000fd5b50506040516001600160a01b03841692507fe6c82cd98165a62492df0be36fee1a6cb3634b5c8e5d347d0b403bf63fb3392c9150600090a250565b6000888152600b60205260409020600161233b8a6119df565b600581111561235a57634e487b7160e01b600052602160045260246000fd5b146123b75760405162461bcd60e51b815260206004820152602760248201527f46756e644d616e616765723a2046756e64696e67526f756e64206973206e6f746044820152662061637469766560c81b6064820152608401610a78565b80546000908152600a6020526040808220600e54815492516354a0585760e01b81529193926001600160a01b03909116916354a05857916123fe9160040190815260200190565b60206040518083038186803b15801561241657600080fd5b505afa15801561242a573d6000803e3d6000fd5b505050506040513d601f19601f8201168201806040525081019061244e91906144a8565b905060ff811688148015612464575060ff811686145b6124ba5760405162461bcd60e51b815260206004820152602160248201527f46756e644d616e616765723a20696e76616c696420696e707574206c656e67746044820152600d60fb1b6064820152608401610a78565b600e548254604051633561bc2760e01b815260048101919091526000916001600160a01b031690633561bc279060240160206040518083038186803b15801561250257600080fd5b505afa158015612516573d6000803e3d6000fd5b505050506040513d601f19601f8201168201806040525081019061253a9190614071565b90506000816001600160a01b0316639447d8936040518163ffffffff1660e01b815260040160206040518083038186803b15801561257757600080fd5b505afa15801561258b573d6000803e3d6000fd5b505050506040513d601f19601f820116820180604052508101906125af9190614311565b6001600160401b038111156125d457634e487b7160e01b600052604160045260246000fd5b6040519080825280602002602001820160405280156125fd578160200160208202803683370190505b50600e548554604051633ae960e760e11b815260048101919091529192506001600160a01b0316906375d2c1ce90602401604080518083038186803b15801561264557600080fd5b505afa158015612659573d6000803e3d6000fd5b505050506040513d601f19601f8201168201806040525081019061267d919061438f565b8260008151811061269e57634e487b7160e01b600052603260045260246000fd5b60200260200101836001815181106126c657634e487b7160e01b600052603260045260246000fd5b60209081029190910101919091525234816126e285600261481e565b60ff168151811061270357634e487b7160e01b600052603260045260246000fd5b60209081029190910101528b8161271b85600361481e565b60ff168151811061273c57634e487b7160e01b600052603260045260246000fd5b60200260200101818152505060005b8360ff168160ff161015612ab657856001018160ff168154811061277f57634e487b7160e01b600052603260045260246000fd5b6000918252602090912001546001600160a01b0316826127a083600261481e565b60ff16815181106127c157634e487b7160e01b600052603260045260246000fd5b6020026020010181815250508b8b8260ff168181106127f057634e487b7160e01b600052603260045260246000fd5b905060200281019061280291906146d7565b600081811061282157634e487b7160e01b600052603260045260246000fd5b905060200201358282600261283691906149ba565b61284187600461481e565b61284b919061481e565b60ff168151811061286c57634e487b7160e01b600052603260045260246000fd5b6020026020010181815250508b8b8260ff1681811061289b57634e487b7160e01b600052603260045260246000fd5b90506020028101906128ad91906146d7565b60018181106128cc57634e487b7160e01b600052603260045260246000fd5b90506020020135828260026128e191906149ba565b6128ec87600461481e565b6128f6919061481e565b61290190600161481e565b60ff168151811061292257634e487b7160e01b600052603260045260246000fd5b60200260200101818152505089898260ff1681811061295157634e487b7160e01b600052603260045260246000fd5b905060200281019061296391906146d7565b600081811061298257634e487b7160e01b600052603260045260246000fd5b905060200201358282600261299791906149ba565b6129a28760036149ba565b6129ad90600461481e565b6129b7919061481e565b60ff16815181106129d857634e487b7160e01b600052603260045260246000fd5b60200260200101818152505089898260ff16818110612a0757634e487b7160e01b600052603260045260246000fd5b9050602002810190612a1991906146d7565b6001818110612a3857634e487b7160e01b600052603260045260246000fd5b9050602002013582826002612a4d91906149ba565b612a588760036149ba565b612a6390600461481e565b612a6d919061481e565b612a7890600161481e565b60ff1681518110612a9957634e487b7160e01b600052603260045260246000fd5b602090810291909101015280612aae81614a51565b91505061274b565b50612ac382888884613612565b612acc57600080fd5b60005b8360ff168160ff161015612f1e57612c51856001018260ff1681548110612b0657634e487b7160e01b600052603260045260246000fd5b90600052602060002001600081548110612b3057634e487b7160e01b600052603260045260246000fd5b9060005260206000200154866001018360ff1681548110612b6157634e487b7160e01b600052603260045260246000fd5b90600052602060002001600181548110612b8b57634e487b7160e01b600052603260045260246000fd5b90600052602060002001548e8e8560ff16818110612bb957634e487b7160e01b600052603260045260246000fd5b9050602002810190612bcb91906146d7565b6000818110612bea57634e487b7160e01b600052603260045260246000fd5b905060200201358f8f8660ff16818110612c1457634e487b7160e01b600052603260045260246000fd5b9050602002810190612c2691906146d7565b6001818110612c4557634e487b7160e01b600052603260045260246000fd5b90506020020135613917565b866001018360ff1681548110612c7757634e487b7160e01b600052603260045260246000fd5b90600052602060002001600081548110612ca157634e487b7160e01b600052603260045260246000fd5b906000526020600020016000886001018560ff1681548110612cd357634e487b7160e01b600052603260045260246000fd5b90600052602060002001600181548110612cfd57634e487b7160e01b600052603260045260246000fd5b906000526020600020016000849190505583919050555050612e4c856002018260ff1681548110612d3e57634e487b7160e01b600052603260045260246000fd5b90600052602060002001600081548110612d6857634e487b7160e01b600052603260045260246000fd5b9060005260206000200154866002018360ff1681548110612d9957634e487b7160e01b600052603260045260246000fd5b90600052602060002001600181548110612dc357634e487b7160e01b600052603260045260246000fd5b90600052602060002001548c8c8560ff16818110612df157634e487b7160e01b600052603260045260246000fd5b9050602002810190612e0391906146d7565b6000818110612e2257634e487b7160e01b600052603260045260246000fd5b905060200201358d8d8660ff16818110612c1457634e487b7160e01b600052603260045260246000fd5b866002018360ff1681548110612e7257634e487b7160e01b600052603260045260246000fd5b90600052602060002001600081548110612e9c57634e487b7160e01b600052603260045260246000fd5b906000526020600020016000886002018560ff1681548110612ece57634e487b7160e01b600052603260045260246000fd5b90600052602060002001600181548110612ef857634e487b7160e01b600052603260045260246000fd5b600091825260209091200192909255919091555080612f1681614a51565b915050612acf565b50600285018054600181018255600091825260208220018d9055600386018054349290612f4c9084906147bc565b909155505033600090815260048601602052604081208054349290612f729084906147bc565b9091555050604080513381523460208201528d918f917f9a98994924b3f454e430a7e3c884aa145467ff2913f30a4b4c428a25797c7975910160405180910390a350505050505050505050505050565b6000818152600b6020908152604080832080548452600a8352818420825160a08101845281548152600182018054855181880281018801909652808652939695919492938583019392879084015b8282101561307c5760008481526020908190208301805460408051828502810185019091528181529283018282801561306857602002820191906000526020600020905b815481526020019060010190808311613054575b505050505081526020019060010190613010565b50505050815260200160028201805480602002602001604051908101604052809291908181526020016000905b828210156131155760008481526020908190208301805460408051828502810185019091528181529283018282801561310157602002820191906000526020600020905b8154815260200190600101908083116130ed575b5050505050815260200190600101906130a9565b5050505081526020016003820180548060200260200160405190810160405280929190818152602001828054801561316c57602002820191906000526020600020905b815481526020019060010190808311613158575b5050509183525050600491909101546020909101529050600561318e846119df565b60058111156131ad57634e487b7160e01b600052602160045260246000fd5b1480156131cc57506006820154600160801b90046001600160401b0316155b156132435760068201805467ffffffffffffffff60801b1916600160801b436001600160401b031602179055613206600283016000613de9565b6004805460ff60f01b1916905560405183907fce78e8b68cfb43df28f5df357839320a629b918ec15f829de39b465484aa132290600090a2505050565b600361324e846119df565b600581111561326d57634e487b7160e01b600052602160045260246000fd5b14156102515760005b60028301548110156133305760006132ba8460020183815481106132aa57634e487b7160e01b600052603260045260246000fd5b9060005260206000200154613a65565b90508360020182815481106132df57634e487b7160e01b600052603260045260246000fd5b90600052602060002001548163ffffffff167fe6feaf86f7be78c4928296db428cc35d7bf8f31e386692bcb1476c136409325860405160405180910390a3508061332881614a12565b915050613276565b5060005b600183015460ff821610156133d55781606001518160ff168151811061336a57634e487b7160e01b600052603260045260246000fd5b6020026020010151836005016000856001018460ff168154811061339e57634e487b7160e01b600052603260045260246000fd5b60009182526020808320909101546001600160a01b03168352820192909252604001902055806133cd81614a51565b915050613334565b506133e4600283016000613de9565b6006820180546fffffffffffffffff00000000000000001916600160401b436001600160401b0316021790556004805460ff60f01b1916905560405183907fdfc0d09a0d21bb5754e9804835ad83094766e71d34d3262cc22626eb46dd240890600090a2505050565b6000828152600b602052604090206004613466846119df565b600581111561348557634e487b7160e01b600052602160045260246000fd5b1461348f57600080fd5b6001600160a01b038216600090815260058201602052604090205461350a5760405162461bcd60e51b815260206004820152602b60248201527f46756e644d616e616765723a20646f6573206e6f7420686176652066756e642060448201526a746f20776974686472617760a81b6064820152608401610a78565b6006546001600160a01b03831660009081526005830160205260408120549091670de0b6b3a76400009161353e919061499b565b6135489190614843565b9050806008600082825461355c91906147bc565b90915550506001600160a01b03831660009081526005830160205260408120546135879083906149db565b6001600160a01b038516600081815260058601602052604080822082905551929350909183156108fc0291849190818181858888f193505050501580156135d2573d6000803e3d6000fd5b5080846001600160a01b0316867fc6599d8ce01018a10d21f37548363437d3442ffa356b6d82c14b48dda99f6a7460405160405180910390a45050505050565b6000846001600160a01b0316639447d8936040518163ffffffff1660e01b815260040160206040518083038186803b15801561364d57600080fd5b505afa158015613661573d6000803e3d6000fd5b505050506040513d601f19601f820116820180604052508101906136859190614311565b82511461369157600080fd5b600061369f8486018661408d565b905060005b60088160ff161015613763577f30644e72e131a029b85045b68181585d97816a916871ca8d3c208c16d87cfd47828260ff16600881106136f457634e487b7160e01b600052603260045260246000fd5b6020020151106137515760405162461bcd60e51b815260206004820152602260248201527f76657269666965722d70726f6f662d656c656d656e742d6774652d7072696d656044820152612d7160f01b6064820152608401610a78565b8061375b81614a51565b9150506136a4565b50856001600160a01b031663c32e370e60405180604001604052808460006008811061379f57634e487b7160e01b600052603260045260246000fd5b60200201518152602001846001600881106137ca57634e487b7160e01b600052603260045260246000fd5b602002015190526040805160808101825285820151918101918252908190606082018760036020020151815250815260200160405180604001604052808760046008811061382857634e487b7160e01b600052603260045260246000fd5b602002015181526020018760056008811061385357634e487b7160e01b600052603260045260246000fd5b6020020151905290526040805180820190915280866006602002015181526020018660076008811061389557634e487b7160e01b600052603260045260246000fd5b6020020151815250876040518563ffffffff1660e01b81526004016138bd94939291906145fe565b60206040518083038186803b1580156138d557600080fd5b505afa1580156138e9573d6000803e3d6000fd5b505050506040513d601f19601f8201168201806040525081019061390d9190614111565b9695505050505050565b60008085158015613926575084155b15613935575082905081613a5c565b83158015613941575084155b15613950575084905083613a5c565b6000600080516020614aec83398151915285880990506000600080516020614aec83398151915285880990506000600080516020614aec83398151915280838509620292f80990506000600080516020614aec83398151915280898b09600080516020614aec833981519152898d0908905060006139f184600080516020614aec83398151915287620292fc09600080516020614aec833981519152613c43565b9050600080516020614aec833981519152613a1d600080516020614aec83398151915285600108613c8c565b83099650600080516020614aec833981519152613a52613a4d600186600080516020614aec833981519152613c43565b613c8c565b8209955050505050505b94509492505050565b60045460015463ffffffff640100000000909204821691613a88911660026148bf565b63ffffffff168163ffffffff161415613afc5760405162461bcd60e51b815260206004820152603060248201527f4d65726b6c6520747265652069732066756c6c2e204e6f206d6f7265206c656160448201526f1d995cc818d85b88189948185919195960821b6064820152608401610a78565b8082600080805b60015463ffffffff9081169082161015613bbf57613b22600286614a71565b63ffffffff16613b5757839250613b38816112fe565b63ffffffff821660009081526002602052604090208590559150613b73565b63ffffffff811660009081526002602052604090205492508391505b613b9e7f00000000000000000000000000000000000000000000000000000000000000008484611128565b9350613bab600286614857565b945080613bb781614a2d565b915050613b03565b50600454600090601490613bda9063ffffffff1660016147d4565b613be49190614a71565b6004805463ffffffff191663ffffffff831690811790915560009081526003602052604090208590559050613c1a8660016147d4565b6004806101000a81548163ffffffff021916908363ffffffff1602179055505050505050919050565b600083838111613c5a57613c5783826147bc565b90505b8280613c7657634e487b7160e01b600052601260045260246000fd5b6000613c8286846149db565b0895945050505050565b6000613cbf82613cab6002600080516020614aec8339815191526149db565b600080516020614aec833981519152613cc5565b92915050565b600060405160208152602080820152602060408201528460608201528360808201528260a082015260208160c08360055afa80801561025157505051949350505050565b828054828255906000526020600020908101928215613d49579160200282015b82811115613d49578251829060ff16905591602001919060010190613d29565b50613d55929150613e0a565b5090565b828054828255906000526020600020908101928215613d49579160200282015b82811115613d4957825182546001600160a01b0319166001600160a01b03909116178255602090920191600190910190613d79565b828054828255906000526020600020908101928215613d49579160200282015b82811115613d49578235825591602001919060010190613dce565b5080546000825590600052602060002090810190613e079190613e0a565b50565b5b80821115613d555760008155600101613e0b565b80516119da81614ad6565b60008083601f840112613e3b578182fd5b5081356001600160401b03811115613e51578182fd5b6020830191508360208260051b8501011115613e6c57600080fd5b9250929050565b600082601f830112613e83578081fd5b81516020613e98613e9383614799565b614769565b82815281810190858301600585811b88018501891015613eb6578687fd5b865b86811015613f4e5782516001600160401b03811115613ed5578889fd5b8901603f81018b13613ee5578889fd5b868101516040613ef7613e9383614799565b808382528a820191508285018f84868a1b8801011115613f15578d8efd5b8d95505b84861015613f37578051835260019590950194918b01918b01613f19565b508952505050948601945091850191600101613eb8565b509198975050505050505050565b600082601f830112613f6c578081fd5b81516020613f7c613e9383614799565b80838252828201915082860187848660051b8901011115613f9b578586fd5b855b858110156140205781516001600160401b0380821115613fbb578889fd5b908901906040828c03601f1901811315613fd357898afd5b613fdb61471e565b613fe689850161403d565b8152908301519082821115613ff9578a8bfd5b6140078d8a84870101613e73565b818a015287525050509284019290840190600101613f9d565b5090979650505050505050565b805180151581146119da57600080fd5b805160ff811681146119da57600080fd5b60006020828403121561405f578081fd5b813561406a81614ad6565b9392505050565b600060208284031215614082578081fd5b815161406a81614ad6565b60006101008083850312156140a0578182fd5b83601f8401126140ae578182fd5b6040518181018181106001600160401b03821117156140cf576140cf614ac0565b60405280848381018710156140e2578485fd5b8493505b6008841015614106578035825260019390930192602091820191016140e6565b509095945050505050565b600060208284031215614122578081fd5b61406a8261402d565b60006020828403121561413c578081fd5b5035919050565b600080600060408486031215614157578182fd5b8335925060208401356001600160401b03811115614173578283fd5b61417f86828701613e2a565b9497909650939450505050565b6000806000606084860312156141a0578081fd5b83356141ab81614ad6565b95602085013595506040909401359392505050565b6000602082840312156141d1578081fd5b81516004811061406a578182fd5b6000602082840312156141f0578081fd5b81516002811061406a578182fd5b60006020828403121561420f578081fd5b81516001600160401b0380821115614225578283fd5b908301906101208286031215614239578283fd5b614241614746565b82518152602083015182811115614256578485fd5b61426287828601613e73565b602083015250604083015182811115614279578485fd5b61428587828601613e73565b60408301525060608301518281111561429c578485fd5b6142a887828601613f5c565b6060830152506142ba6080840161403d565b60808201526142cb60a0840161402d565b60a08201526142dc60c08401613e1f565b60c08201526142ed60e08401613e1f565b60e08201526101009150614302828401613e1f565b91810191909152949350505050565b600060208284031215614322578081fd5b5051919050565b6000806040838503121561433b578182fd5b82359150602083013561434d81614ad6565b809150509250929050565b60008060006060848603121561436c578081fd5b83359250602084013561437e81614ad6565b929592945050506040919091013590565b600080604083850312156143a1578182fd5b505080516020909101519092909150565b60008060008060008060008060a0898b0312156143cd578586fd5b883597506020890135965060408901356001600160401b03808211156143f1578788fd5b6143fd8c838d01613e2a565b909850965060608b0135915080821115614415578586fd5b6144218c838d01613e2a565b909650945060808b0135915080821115614439578384fd5b818b0191508b601f83011261444c578384fd5b81358181111561445a578485fd5b8c602082850101111561446b578485fd5b6020830194508093505050509295985092959890939650565b600060208284031215614495578081fd5b813563ffffffff8116811461406a578182fd5b6000602082840312156144b9578081fd5b61406a8261403d565b600081518084526020808501808196508360051b81019150828601855b858110156145095782840389526144f784835161453f565b988501989350908401906001016144df565b5091979650505050505050565b8060005b600281101561453957815184526020938401939091019060010161451a565b50505050565b6000815180845260208085019450808401835b8381101561456e57815187529582019590820190600101614552565b509495945050505050565b60006001600160fb1b0383111561458e578081fd5b8260051b808584379190910190815292915050565b6020808252825182820181905260009190848201906040850190845b818110156145e45783516001600160a01b0316835292840192918401916001016145bf565b50909695505050505050565b60408101613cbf8284614516565b600061012061460d8388614516565b604080840187845b600281101561463c57614629838351614516565b9183019160209190910190600101614615565b5050505061464d60c0840186614516565b806101008401526146608184018561453f565b979650505050505050565b60208152600061406a602083018461453f565b84815283602082015260806040820152600061469d60808301856144c2565b828103606084015261466081856144c2565b60208101600683106146d157634e487b7160e01b600052602160045260246000fd5b91905290565b6000808335601e198436030181126146ed578283fd5b8301803591506001600160401b03821115614706578283fd5b6020019150600581901b3603821315613e6c57600080fd5b604080519081016001600160401b038111828210171561474057614740614ac0565b60405290565b60405161012081016001600160401b038111828210171561474057614740614ac0565b604051601f8201601f191681016001600160401b038111828210171561479157614791614ac0565b604052919050565b60006001600160401b038211156147b2576147b2614ac0565b5060051b60200190565b600082198211156147cf576147cf614a94565b500190565b600063ffffffff8083168185168083038211156147f3576147f3614a94565b01949350505050565b60006001600160401b038083168185168083038211156147f3576147f3614a94565b600060ff821660ff84168060ff0382111561483b5761483b614a94565b019392505050565b60008261485257614852614aaa565b500490565b600063ffffffff8084168061486e5761486e614aaa565b92169190910492915050565b600181815b808511156148b7578163ffffffff0482111561489d5761489d614a94565b808516156148aa57918102915b93841c939080029061487f565b509250929050565b600063ffffffff61127b8185168285166000826148de57506001613cbf565b816148eb57506000613cbf565b8160018114614901576002811461490b5761493c565b6001915050613cbf565b60ff84111561491c5761491c614a94565b6001841b915063ffffffff82111561493657614936614a94565b50613cbf565b5060208310610133831016604e8410600b8410161715614973575081810a63ffffffff81111561496e5761496e614a94565b613cbf565b61497d838361487a565b8063ffffffff0482111561499357614993614a94565b029392505050565b60008160001904831182151516156149b5576149b5614a94565b500290565b600060ff821660ff84168160ff048111821515161561499357614993614a94565b6000828210156149ed576149ed614a94565b500390565b600063ffffffff821680614a0857614a08614a94565b6000190192915050565b6000600019821415614a2657614a26614a94565b5060010190565b600063ffffffff80831681811415614a4757614a47614a94565b6001019392505050565b600060ff821660ff811415614a6857614a68614a94565b60010192915050565b600063ffffffff80841680614a8857614a88614aaa565b92169190910692915050565b634e487b7160e01b600052601160045260246000fd5b634e487b7160e01b600052601260045260246000fd5b634e487b7160e01b600052604160045260246000fd5b6001600160a01b0381168114613e0757600080fdfe30644e72e131a029b85045b68181585d2833e84879b9709143e1f593f0000001a2646970667358221220805aa16c6274aefad8d400057ff44131e17f313d2f167bf2ae76cfb22138d57c64736f6c6343000804003360806040526001600255600060035534801561001a57600080fd5b5060405161054938038061054983398101604081905261003991610053565b600455600080546001600160a01b0319163317905561006b565b600060208284031215610064578081fd5b5051919050565b6104cf8061007a6000396000f3fe608060405234801561001057600080fd5b50600436106100935760003560e01c80638f807f6b116100665780638f807f6b14610101578063957908d114610116578063be1c766b1461011e578063d06a89a414610126578063f0ba84401461012f57600080fd5b806301fce27e146100985780633df4ddf4146100b657806347799da8146100cd5780638da5cb5b146100d6575b600080fd5b6100a0610158565b6040516100ad91906103ec565b60405180910390f35b6100bf60025481565b6040519081526020016100ad565b6100bf60035481565b6000546100e9906001600160a01b031681565b6040516001600160a01b0390911681526020016100ad565b61011461010f3660046103a6565b610247565b005b6100e961030f565b6100bf610383565b6100bf60045481565b6100e961013d3660046103d4565b6001602052600090815260409020546001600160a01b031681565b60606000610164610383565b90508067ffffffffffffffff81111561018d57634e487b7160e01b600052604160045260246000fd5b6040519080825280602002602001820160405280156101b6578160200160208202803683370190505b50915060005b818110156102425760016000826002546101d69190610439565b815260200190815260200160002060009054906101000a90046001600160a01b031683828151811061021857634e487b7160e01b600052603260045260246000fd5b6001600160a01b03909216602092830291909101909101528061023a81610468565b9150506101bc565b505090565b6000546001600160a01b0316331461025e57600080fd5b600454610269610383565b610274906001610439565b111561027f57600080fd5b6002545b60035481116102c5576000818152600160205260409020546001600160a01b03838116911614156102b357600080fd5b806102bd81610468565b915050610283565b506001600360008282546102d99190610439565b9091555050600354600090815260016020526040902080546001600160a01b0319166001600160a01b0392909216919091179055565b600080546001600160a01b0316331461032757600080fd5b600254600354101561033857600080fd5b50600280546000908152600160208190526040822080546001600160a01b0319811690915583546001600160a01b0390911693919290610379908490610439565b9250508190555090565b600060025460035460016103979190610439565b6103a19190610451565b905090565b6000602082840312156103b7578081fd5b81356001600160a01b03811681146103cd578182fd5b9392505050565b6000602082840312156103e5578081fd5b5035919050565b6020808252825182820181905260009190848201906040850190845b8181101561042d5783516001600160a01b031683529284019291840191600101610408565b50909695505050505050565b6000821982111561044c5761044c610483565b500190565b60008282101561046357610463610483565b500390565b600060001982141561047c5761047c610483565b5060010190565b634e487b7160e01b600052601160045260246000fdfea2646970667358221220dde9f2d5d69b2ccae473cefb58d305bb85974b710a43d6a243809447e892c5d964736f6c6343000804003360806040523480156200001157600080fd5b5060405162005e9838038062005e98833981016040819052620000349162000165565b60008054336001600160a01b031991821617825582516004805483166001600160a01b039283161790556020808501516003909452600581527fa9bc9a3a348c357ba16b37005d7e6b3236198c0e939f4af8c5f19b8deeb8ebc080548416948316949094179093556040840151600684527f75f96ab15d697e93042dc45b5c896c4b27e89bb6eaf39475c5c371cb2513f7d2805484169183169190911790556060840151600784527f3be6fd20d5acfde5b873b48692cd31f4d3c7e8ee8a813af4696af8859e5ca6c68054841691831691909117905560809093015160089092527f625b35f5e76f098dd7c3a05b10e2e5e78a4a01228d60c3b143426cdf36d2645580549091169190921617905562000209565b80516001600160a01b03811681146200016057600080fd5b919050565b600060a0828403121562000177578081fd5b60405160a081016001600160401b0381118282101715620001a657634e487b7160e01b83526041600452602483fd5b604052620001b48362000148565b8152620001c46020840162000148565b6020820152620001d76040840162000148565b6040820152620001ea6060840162000148565b6060820152620001fd6080840162000148565b60808201529392505050565b615c7f80620002196000396000f3fe608060405234801561001057600080fd5b50600436106101cf5760003560e01c806375d2c1ce1161010457806392cab566116100a2578063e9d6db8c11610071578063e9d6db8c14610562578063f17de9ee14610582578063fe527440146105ab578063fffa96ae146105cb57600080fd5b806392cab566146104ed578063a15cbc80146104f6578063c2d96bcf14610519578063db6316261461053957600080fd5b8063887a3163116100de578063887a31631461048757806388ccc0841461049a5780638d3ce2bd146104ba5780638da5cb5b146104da57600080fd5b806375d2c1ce146103b35780638138007d146103db57806387f895f41461047457600080fd5b806344dfe1081161017157806355cd25f01161014b57806355cd25f01461035957806359295eaa1461037a5780636b724edb1461038d578063755ff330146103a057600080fd5b806344dfe108146102ec5780634da58de71461030c57806354a058571461031f57600080fd5b80632b708dee116101ad5780632b708dee146102425780633561bc271461026b5780633b968ae61461029c5780634036ab78146102bc57600080fd5b806316a795c8146101d45780631e0a9fac146101e9578063220bbbb9146101fc575b600080fd5b6101e76101e2366004615177565b610647565b005b6101e76101f736600461532f565b611041565b61022561020a36600461515f565b6007602052600090815260409020546001600160a01b031681565b6040516001600160a01b0390911681526020015b60405180910390f35b61022561025036600461515f565b6006602052600090815260409020546001600160a01b031681565b61022561027936600461515f565b60009081526002602052604090205464010000000090046001600160a01b031690565b6102af6102aa36600461515f565b612028565b604051610239919061573f565b6102df6102ca36600461515f565b60009081526002602052604090205460ff1690565b6040516102399190615759565b6102ff6102fa36600461515f565b6120ff565b6040516102399190615559565b6101e761031a366004615265565b6121ae565b61034761032d36600461515f565b600090815260026020526040902054610100900460ff1690565b60405160ff9091168152602001610239565b61036c6103673660046153ae565b6122e6565b604051908152602001610239565b6101e761038836600461521b565b612664565b600454610225906001600160a01b031681565b6102ff6103ae36600461515f565b6133a5565b6103c66103c136600461515f565b613449565b60408051928352602083019190915201610239565b6104336103e936600461515f565b6003602052600090815260409020805460048201546005830154600690930154919260ff808316936101008404909116926001600160a01b03620100009091048116928116911686565b6040805196875260ff9095166020870152921515938501939093526001600160a01b03908116606085015291821660808401521660a082015260c001610239565b6103476104823660046152f0565b6134a1565b610347610495366004615085565b613a17565b6104ad6104a836600461515f565b613ca8565b604051610239919061567d565b6104cd6104c836600461515f565b613daf565b604051610239919061556c565b600054610225906001600160a01b031681565b61036c60015481565b61036c61050436600461515f565b60009081526002602052604090206007015490565b61052c61052736600461515f565b613ee3565b60405161023991906157b8565b61022561054736600461515f565b6008602052600090815260409020546001600160a01b031681565b61057561057036600461536e565b614229565b6040516102399190615615565b61022561059036600461515f565b6005602052600090815260409020546001600160a01b031681565b6105be6105b936600461515f565b614300565b60405161023991906158b2565b6106336105d936600461515f565b6002602081905260009182526040909120805460018201549282015460079092015460ff80831694610100840482169462010000850483169463010000008104909316936401000000009093046001600160a01b03169288565b604051610239989796959493929190615767565b6000858152600360205260409020600161066087613ee3565b600281111561067f57634e487b7160e01b600052602160045260246000fd5b1461068957600080fd5b805460009081526002602052604080822080548354835163091d8bc560e21b81528451939561010090930460ff169492936001600160a01b03909216926324762f1492600480840193829003018186803b1580156106e657600080fd5b505afa1580156106fa573d6000803e3d6000fd5b505050506040513d601f19601f8201168201806040525081019061071e91906153de565b50905060008460060160009054906101000a90046001600160a01b03166001600160a01b0316639447d8936040518163ffffffff1660e01b815260040160206040518083038186803b15801561077357600080fd5b505afa158015610787573d6000803e3d6000fd5b505050506040513d601f19601f820116820180604052508101906107ab91906152d8565b6001600160401b038111156107d057634e487b7160e01b600052604160045260246000fd5b6040519080825280602002602001820160405280156107f9578160200160208202803683370190505b509050600085600301805480602002602001604051908101604052809291908181526020016000905b828210156108f1576000848152602080822060408051808201825260028702909201805460ff168352600181018054835181870281018701909452808452939591948681019491929084015b828210156108da576000848152602090819020830180546040805182850281018501909152818152928301828280156108c657602002820191906000526020600020905b8154815260200190600101908083116108b2575b50505050508152602001906001019061086e565b505050508152505081526020019060010190610822565b50505050905060008360ff166001600160401b0381111561092257634e487b7160e01b600052604160045260246000fd5b60405190808252806020026020018201604052801561094b578160200160208202803683370190505b50905060005b8460ff168160ff1610156109d557828160ff168151811061098257634e487b7160e01b600052603260045260246000fd5b602002602001015160000151828260ff16815181106109b157634e487b7160e01b600052603260045260246000fd5b60ff90921660209283029190910190910152806109cd81615b60565b915050610951565b5060006109e182614618565b9050600088600201805480602002602001604051908101604052809291908181526020016000905b82821015610a7557600084815260209081902083018054604080518285028101850190915281815292830182828015610a6157602002820191906000526020600020905b815481526020019060010190808311610a4d575b505050505081526020019060010190610a09565b50505050905060005b8660ff168160ff161015610cf057828160ff1681518110610aaf57634e487b7160e01b600052603260045260246000fd5b6020026020010151868260ff1681518110610ada57634e487b7160e01b600052603260045260246000fd5b60200260200101818152505060005b8860ff168160ff161015610cdd57858260ff1681518110610b1a57634e487b7160e01b600052603260045260246000fd5b6020026020010151602001518160ff1681518110610b4857634e487b7160e01b600052603260045260246000fd5b6020026020010151600081518110610b7057634e487b7160e01b600052603260045260246000fd5b602002602001015187826002610b869190615ad5565b610b908c86615ad5565b610b9b906002615ad5565b610ba5908c615a7d565b610baf9190615a7d565b60ff1681518110610bd057634e487b7160e01b600052603260045260246000fd5b602002602001018181525050858260ff1681518110610bff57634e487b7160e01b600052603260045260246000fd5b6020026020010151602001518160ff1681518110610c2d57634e487b7160e01b600052603260045260246000fd5b6020026020010151600181518110610c5557634e487b7160e01b600052603260045260246000fd5b602002602001015187826002610c6b9190615ad5565b610c758c86615ad5565b610c80906002615ad5565b610c8a908c615a7d565b610c949190615a7d565b610c9f906001615a7d565b60ff1681518110610cc057634e487b7160e01b600052603260045260246000fd5b602090810291909101015280610cd581615b60565b915050610ae9565b5080610ce881615b60565b915050610a7e565b5060005b8760ff168160ff161015610f2557818160ff1681518110610d2557634e487b7160e01b600052603260045260246000fd5b6020026020010151600081518110610d4d57634e487b7160e01b600052603260045260246000fd5b602002602001015186826002610d639190615ad5565b610d6d8b8b615ad5565b610d78906002615ad5565b610d82908b615a7d565b610d8c9190615a7d565b60ff1681518110610dad57634e487b7160e01b600052603260045260246000fd5b602002602001018181525050818160ff1681518110610ddc57634e487b7160e01b600052603260045260246000fd5b6020026020010151600181518110610e0457634e487b7160e01b600052603260045260246000fd5b602002602001015186826002610e1a9190615ad5565b610e248b8b615ad5565b610e2f906002615ad5565b610e39908b615a7d565b610e439190615a7d565b610e4e906001615a7d565b60ff1681518110610e6f57634e487b7160e01b600052603260045260246000fd5b6020026020010181815250508d8d8260ff16818110610e9e57634e487b7160e01b600052603260045260246000fd5b9050602002013586828a6002610eb49190615ad5565b610ebe8c8c615ad5565b610ec9906002615ad5565b610ed3908c615a7d565b610edd9190615a7d565b610ee79190615a7d565b60ff1681518110610f0857634e487b7160e01b600052603260045260246000fd5b602090810291909101015280610f1d81615b60565b915050610cf4565b506006890154610f40906001600160a01b03168c8c88614810565b610f4957600080fd5b8860040160029054906101000a90046001600160a01b03166001600160a01b031663c58264b38f8f8f6040518463ffffffff1660e01b8152600401610f90939291906156fd565b600060405180830381600087803b158015610faa57600080fd5b505af1158015610fbe573d6000803e3d6000fd5b505050506001886007016000828254610fd79190615a65565b909155505060048901805461ff001916610100179055604051610ffd908e908e9061552f565b604051908190038120908f9033907f1cc27b5dc088bba6ed823b51399e3b77446cafcca155bf518ad3e55d80a40b4c90600090a45050505050505050505050505050565b600054604051638c9540d360e01b81523360048201526001600160a01b0390911690638c9540d39060240160206040518083038186803b15801561108457600080fd5b505afa158015611098573d6000803e3d6000fd5b505050506040513d601f19601f820116820180604052508101906110bc919061513f565b6110e15760405162461bcd60e51b81526004016110d890615829565b60405180910390fd5b6000828152600260205260408082208254825163091d8bc560e21b8152835192949384936001600160a01b03909316926324762f14926004808201939291829003018186803b15801561113357600080fd5b505afa158015611147573d6000803e3d6000fd5b505050506040513d601f19601f8201168201806040525081019061116b91906153de565b9092509050600161117b86612028565b600381111561119a57634e487b7160e01b600052602160045260246000fd5b146112045760405162461bcd60e51b815260206004820152603460248201527f646b67436f6e74726163743a206b65792773207374617465206973206e6f742060448201527321a7a72a2924a12aaa24a7a72fa927aaa7222f9960611b60648201526084016110d8565b61120f600182615b15565b60ff1661121f6020860186615987565b90501480156112485750611234600182615b15565b60ff166112446040860186615987565b9050145b6112645760405162461bcd60e51b81526004016110d890615871565b336003840160016112786020880188615392565b6112829190615b15565b60ff16815481106112a357634e487b7160e01b600052603260045260246000fd5b60009182526020909120600390910201546001600160a01b03161461130a5760405162461bcd60e51b815260206004820152601b60248201527f646b67436f6e74726163743a20696e76616c69642073656e646572000000000060448201526064016110d8565b60068301600061131d6020870187615392565b60ff908116825260208201929092526040016000205416156113515760405162461bcd60e51b81526004016110d8906157cc565b6000806113616020870187615392565b600160ff91821681901b93909317929084161b1760005b6113856020880188615987565b90508160ff1610156114715761139e6040880188615987565b8260ff168181106113bf57634e487b7160e01b600052603260045260246000fd5b90506020028101906113d19190615987565b90506003146113f25760405162461bcd60e51b81526004016110d890615871565b6113ff6020880188615987565b8260ff1681811061142057634e487b7160e01b600052603260045260246000fd5b90506020020160208101906114359190615392565b60ff166001901b60001b831792508060016114509190615a7d565b60ff166001901b60001b82179150808061146990615b60565b915050611378565b508082146114cf5760405162461bcd60e51b815260206004820152602560248201527f646b67436f6e74726163743a20696e76616c696420726563697069656e74496e604482015264646578657360d81b60648201526084016110d8565b6000600460009054906101000a90046001600160a01b03166001600160a01b0316639447d8936040518163ffffffff1660e01b815260040160206040518083038186803b15801561151f57600080fd5b505afa158015611533573d6000803e3d6000fd5b505050506040513d601f19601f8201168201806040525081019061155791906152d8565b6001600160401b0381111561157c57634e487b7160e01b600052604160045260246000fd5b6040519080825280602002602001820160405280156115a5578160200160208202803683370190505b50905060006003870160016115bd60208b018b615392565b6115c79190615b15565b60ff16815481106115e857634e487b7160e01b600052603260045260246000fd5b600091825260209182902060408051608081018252600390930290910180546001600160a01b038116845260ff600160a01b9091041683850152600181018054835181870281018701855281815294959294938601939283018282801561166e57602002820191906000526020600020905b81548152602001906001019080831161165a575b50505050508152602001600282018054806020026020016040519081016040528092919081815260200182805480156116c657602002820191906000526020600020905b8154815260200190600101908083116116b2575b505050505081525050905060005b6116e160208a018a615987565b90508160ff161015611c1c57600060038901600161170260208d018d615987565b8560ff1681811061172357634e487b7160e01b600052603260045260246000fd5b90506020020160208101906117389190615392565b6117429190615b15565b60ff168154811061176357634e487b7160e01b600052603260045260246000fd5b600091825260209182902060408051608081018252600390930290910180546001600160a01b038116845260ff600160a01b909104168385015260018101805483518187028101870185528181529495929493860193928301828280156117e957602002820191906000526020600020905b8154815260200190600101908083116117d5575b505050505081526020016002820180548060200260200160405190810160405280929190818152602001828054801561184157602002820191906000526020600020905b81548152602001906001019080831161182d575b505050505081525050905089806020019061185c9190615987565b8360ff1681811061187d57634e487b7160e01b600052603260045260246000fd5b90506020020160208101906118929190615392565b60ff16848360ff16815181106118b857634e487b7160e01b600052603260045260246000fd5b60200260200101818152505080604001516000815181106118e957634e487b7160e01b600052603260045260246000fd5b6020026020010151848360026118ff9190615ad5565b61190a60018b615b15565b6119149190615a7d565b60ff168151811061193557634e487b7160e01b600052603260045260246000fd5b602002602001018181525050806060015160008151811061196657634e487b7160e01b600052603260045260246000fd5b60200260200101518483600261197c9190615ad5565b61198760018b615b15565b6119919190615a7d565b61199c906001615a7d565b60ff16815181106119bd57634e487b7160e01b600052603260045260246000fd5b60209081029190910101526119d560408b018b615987565b8360ff168181106119f657634e487b7160e01b600052603260045260246000fd5b9050602002810190611a089190615987565b6000818110611a2757634e487b7160e01b600052603260045260246000fd5b9050602002013584836002611a3c9190615ad5565b611a4760018b615b15565b611a52906003615ad5565b611a5c9190615a7d565b60ff1681518110611a7d57634e487b7160e01b600052603260045260246000fd5b6020908102919091010152611a9560408b018b615987565b8360ff16818110611ab657634e487b7160e01b600052603260045260246000fd5b9050602002810190611ac89190615987565b6001818110611ae757634e487b7160e01b600052603260045260246000fd5b9050602002013584836002611afc9190615ad5565b611b0760018b615b15565b611b12906003615ad5565b611b1c9190615a7d565b611b27906001615a7d565b60ff1681518110611b4857634e487b7160e01b600052603260045260246000fd5b6020908102919091010152611b6060408b018b615987565b8360ff16818110611b8157634e487b7160e01b600052603260045260246000fd5b9050602002810190611b939190615987565b6002818110611bb257634e487b7160e01b600052603260045260246000fd5b90506020020135848360018a611bc89190615b15565b611bd3906005615ad5565b611bdd9190615a7d565b60ff1681518110611bfe57634e487b7160e01b600052603260045260246000fd5b60209081029190910101525080611c1481615b60565b9150506116d4565b5060005b8660ff168160ff161015611d5e5781604001518160ff1681518110611c5557634e487b7160e01b600052603260045260246000fd5b602002602001015183826002611c6b9190615ad5565b611c7660018a615b15565b611c81906006615ad5565b611c8b9190615a7d565b60ff1681518110611cac57634e487b7160e01b600052603260045260246000fd5b60200260200101818152505081606001518160ff1681518110611cdf57634e487b7160e01b600052603260045260246000fd5b602002602001015183826002611cf59190615ad5565b611d0060018a615b15565b611d0b906006615ad5565b611d159190615a7d565b611d20906001615a7d565b60ff1681518110611d4157634e487b7160e01b600052603260045260246000fd5b602090810291909101015280611d5681615b60565b915050611c20565b50600454611d82906001600160a01b0316611d7c60608b018b6159ce565b85614810565b611dce5760405162461bcd60e51b815260206004820152601a60248201527f646b67436f6e74726163743a20696e76616c69642070726f6f6600000000000060448201526064016110d8565b60005b611dde60208a018a615987565b90508160ff161015611f3b57600588016000611dfd60208c018c615987565b8460ff16818110611e1e57634e487b7160e01b600052603260045260246000fd5b9050602002016020810190611e339190615392565b60ff1660ff16815260200190815260200160002060405180604001604052808b6000016020810190611e659190615392565b60ff168152602001611e7a60408d018d615987565b8560ff16818110611e9b57634e487b7160e01b600052603260045260246000fd5b9050602002810190611ead9190615987565b8080602002602001604051908101604052809392919081815260200183836020028082843760009201829052509390945250508354600180820186559482526020918290208451600290920201805460ff191660ff90921691909117815583820151805194959194611f259450918501920190614e4e565b5050508080611f3390615b60565b915050611dd1565b5086546001908890600390611f5b9084906301000000900460ff16615a7d565b92506101000a81548160ff021916908360ff16021790555060018760060160008a6000016020810190611f8e9190615392565b60ff168152602081019190915260409081016000908120805460ff1916931515939093179092555133917fcbf95f3b618183791a868a88964ae14f9377658670849f37ec34394d9b397f1591a2865460ff868116630100000090920416141561201d5760405189907fc3463fbc58f346b4f695c95d8d4961813c6359f5f99d1694fe87b97ace51554d90600090a25b505050505050505050565b6000818152600260205260408082208254825163091d8bc560e21b81528351929385936001600160a01b03909316926324762f14926004808201939291829003018186803b15801561207957600080fd5b505afa15801561208d573d6000803e3d6000fd5b505050506040513d601f19601f820116820180604052508101906120b191906153de565b835490925060ff808416630100000090920416141590506120d6575060029392505050565b815460ff828116620100009092041614156120f5575060019392505050565b5060009392505050565b606060036000838152602001908152602001600020600101805480602002602001604051908101604052809291908181526020016000905b828210156121a35760008481526020908190208301805460408051828502810185019091528181529283018282801561218f57602002820191906000526020600020905b81548152602001906001019080831161217b575b505050505081526020019060010190612137565b505050509050919050565b600084815260036020526040902060048101546201000090046001600160a01b0316156121da57600080fd5b83815582516121f29060018301906020860190614e99565b5081516122089060028301906020850190614e99565b50600084815260026020908152604080832054610100900460ff16808452600783528184205460089093529220546001600160a01b0391821691168161224d57600080fd5b6001600160a01b03811661226057600080fd5b60048401805462010000330262010000600160b01b03199091161790556005840180546001600160a01b038481166001600160a01b0319928316179092556006860180549284169290911691909117905560405188907f7f33e8dc3fda6075213296cd23e7e53b26993958685000c664c42945eb3a610490600090a25050505050505050565b6000805460405163c7b5784160e01b81523360048201526001600160a01b039091169063c7b578419060240160206040518083038186803b15801561232a57600080fd5b505afa15801561233e573d6000803e3d6000fd5b505050506040513d601f19601f82011682018060405250810190612362919061513f565b6123bd5760405162461bcd60e51b815260206004820152602660248201527f646b67436f6e74726163743a206d73672e73656e646572206973206e6f74204660448201526537bab73232b960d11b60648201526084016110d8565b5060018054908060006123d08285615a65565b90915550506000818152600260205260408120908084600181111561240557634e487b7160e01b600052602160045260246000fd5b14156124ce5760ff85166000908152600560205260409020546001600160a01b03166124ac5760405162461bcd60e51b815260206004820152604a60248201527f444b4720436f6e74726163743a204e6f2066756e64696e67207665726966696560448201527f7220657869737473207769746820636f72726573706f6e64696e672064696d656064820152696e73696f6e616c69747960b01b608482015260a4016110d8565b5060ff84166000908152600560205260409020546001600160a01b03166125b4565b60018460018111156124f057634e487b7160e01b600052602160045260246000fd5b14156125b45760ff85166000908152600660205260409020546001600160a01b03166125965760405162461bcd60e51b815260206004820152604960248201527f444b4720436f6e74726163743a204e6f20766f74696e6720766572696669657260448201527f20657869737473207769746820636f72726573706f6e64696e672064696d656e60648201526873696f6e616c69747960b81b608482015260a4016110d8565b5060ff84166000908152600660205260409020546001600160a01b03165b81548490839060ff1916600183818111156125df57634e487b7160e01b600052602160045260246000fd5b0217905550815463ffff0100600160c01b03191661010060ff871602640100000000600160c01b031916176401000000006001600160a01b038316021782556000600180840182905560028401556007830181905560405184917fb913edc288e7b51dacd1a7a204ef40eda6d9d2b6249b86cfd65e4880a54f9d2791a2505092915050565b600054604051638c9540d360e01b81523360048201526001600160a01b0390911690638c9540d39060240160206040518083038186803b1580156126a757600080fd5b505afa1580156126bb573d6000803e3d6000fd5b505050506040513d601f19601f820116820180604052508101906126df919061513f565b6126fb5760405162461bcd60e51b81526004016110d890615829565b60008281526003602090815260408083208054845260029092528083208354825163091d8bc560e21b8152835194959294929384936001600160a01b03909316926324762f14926004808201939291829003018186803b15801561275e57600080fd5b505afa158015612772573d6000803e3d6000fd5b505050506040513d601f19601f8201168201806040525081019061279691906153de565b8454600487015492945090925060ff61010090910416906201000090046001600160a01b03166127c557600080fd5b60006127d088613ee3565b60028111156127ef57634e487b7160e01b600052602160045260246000fd5b146127f957600080fd5b60016128086020880188615392565b60ff161015801561282b575060ff82166128256020880188615392565b60ff1611155b61283457600080fd5b60ff81166128456020880188615987565b90501461285157600080fd5b600060038501600161286660208a018a615392565b6128709190615b15565b60ff168154811061289157634e487b7160e01b600052603260045260246000fd5b600091825260209182902060408051608081018252600390930290910180546001600160a01b038116845260ff600160a01b9091041683850152600181018054835181870281018701855281815294959294938601939283018282801561291757602002820191906000526020600020905b815481526020019060010190808311612903575b505050505081526020016002820180548060200260200160405190810160405280929190818152602001828054801561296f57602002820191906000526020600020905b81548152602001906001019080831161295b575b50505091909252509192506000915050600586018161299160208b018b615392565b60ff1660ff168152602001908152602001600020805480602002602001604051908101604052809291908181526020016000905b82821015612a5457600084815260209081902060408051808201825260028602909201805460ff168352600181018054835181870281018701909452808452939491938583019392830182828015612a3c57602002820191906000526020600020905b815481526020019060010190808311612a28575b505050505081525050815260200190600101906129c5565b505050600589015460408051639447d89360e01b815290519394506001600160a01b0390911692600092508391639447d893916004808301926020929190829003018186803b158015612aa657600080fd5b505afa158015612aba573d6000803e3d6000fd5b505050506040513d601f19601f82011682018060405250810190612ade91906152d8565b6001600160401b03811115612b0357634e487b7160e01b600052604160045260246000fd5b604051908082528060200260200182016040528015612b2c578160200160208202803683370190505b509050612b3a600187615b15565b9550612b4960208b018b615392565b60ff1681600081518110612b6d57634e487b7160e01b600052603260045260246000fd5b60200260200101818152505060005b8760ff168160ff161015612c905784604001518160ff1681518110612bb157634e487b7160e01b600052603260045260246000fd5b602002602001015182826002612bc79190615ad5565b612bd2906001615a7d565b60ff1681518110612bf357634e487b7160e01b600052603260045260246000fd5b60200260200101818152505084606001518160ff1681518110612c2657634e487b7160e01b600052603260045260246000fd5b602002602001015182826002612c3c9190615ad5565b612c47906001615a7d565b612c52906001615a7d565b60ff1681518110612c7357634e487b7160e01b600052603260045260246000fd5b602090810291909101015280612c8881615b60565b915050612b7c565b5060005b8660ff168160ff161015612edf57838160ff1681518110612cc557634e487b7160e01b600052603260045260246000fd5b602002602001015160200151600081518110612cf157634e487b7160e01b600052603260045260246000fd5b602002602001015182896002612d079190615ad5565b612d12846002615ad5565b612d1c9190615a7d565b612d27906001615a7d565b60ff1681518110612d4857634e487b7160e01b600052603260045260246000fd5b602002602001018181525050838160ff1681518110612d7757634e487b7160e01b600052603260045260246000fd5b602002602001015160200151600181518110612da357634e487b7160e01b600052603260045260246000fd5b602002602001015182896002612db99190615ad5565b612dc4846002615ad5565b612dcf906001615a7d565b612dd99190615a7d565b612de4906001615a7d565b60ff1681518110612e0557634e487b7160e01b600052603260045260246000fd5b602002602001018181525050838160ff1681518110612e3457634e487b7160e01b600052603260045260246000fd5b602002602001015160200151600281518110612e6057634e487b7160e01b600052603260045260246000fd5b602002602001015182896002612e769190615ad5565b83612e828b6002615ad5565b612e8c9190615a7d565b612e969190615a7d565b612ea1906001615a7d565b60ff1681518110612ec257634e487b7160e01b600052603260045260246000fd5b602090810291909101015280612ed781615b60565b915050612c94565b5060005b8560ff168160ff16101561328a57896001018160ff1681548110612f1757634e487b7160e01b600052603260045260246000fd5b90600052602060002001600081548110612f4157634e487b7160e01b600052603260045260246000fd5b906000526020600020015482896002612f5a9190615ad5565b612f65846002615ad5565b612f708b6003615ad5565b612f7a9190615a7d565b612f849190615a7d565b612f8f906001615a7d565b60ff1681518110612fb057634e487b7160e01b600052603260045260246000fd5b602002602001018181525050896001018160ff1681548110612fe257634e487b7160e01b600052603260045260246000fd5b9060005260206000200160018154811061300c57634e487b7160e01b600052603260045260246000fd5b9060005260206000200154828960026130259190615ad5565b613030846002615ad5565b61303b8b6003615ad5565b6130459190615a7d565b613050906001615a7d565b61305a9190615a7d565b613065906001615a7d565b60ff168151811061308657634e487b7160e01b600052603260045260246000fd5b6020026020010181815250508a80602001906130a29190615987565b8260ff168181106130c357634e487b7160e01b600052603260045260246000fd5b90506020028101906130d59190615987565b60008181106130f457634e487b7160e01b600052603260045260246000fd5b90506020020135828960026131099190615ad5565b613114846002615ad5565b61311f8a6002615ad5565b61312a8c6003615ad5565b6131349190615a7d565b61313e9190615a7d565b6131489190615a7d565b613153906001615a7d565b60ff168151811061317457634e487b7160e01b600052603260045260246000fd5b6020026020010181815250508a80602001906131909190615987565b8260ff168181106131b157634e487b7160e01b600052603260045260246000fd5b90506020028101906131c39190615987565b60018181106131e257634e487b7160e01b600052603260045260246000fd5b90506020020135828960026131f79190615ad5565b613202846002615ad5565b61320d8a6002615ad5565b6132188c6003615ad5565b6132229190615a7d565b61322c9190615a7d565b613237906001615a7d565b6132419190615a7d565b61324c906001615a7d565b60ff168151811061326d57634e487b7160e01b600052603260045260246000fd5b60209081029190910101528061328281615b60565b915050612ee3565b506132a28261329c60408d018d6159ce565b84614810565b506040805180820190915260038a0190806132c060208e018e615392565b60ff1681526020018c80602001906132d89190615987565b6132e191615b38565b905281546001808201845560009384526020938490208351600290930201805460ff191660ff9093169290921782558284015180519394929361332c93928501929190910190614e99565b5050506004890180546001919060009061334a90849060ff16615a7d565b92506101000a81548160ff021916908360ff160217905550336001600160a01b03167f26d7a520fc4230ffa9c112ead1358fb765e1bb7253ec3ddeb7b99255c74f8d8a60405160405180910390a25050505050505050505050565b606060036000838152602001908152602001600020600201805480602002602001604051908101604052809291908181526020016000905b828210156121a35760008481526020908190208301805460408051828502810185019091528181529283018282801561343557602002820191906000526020600020905b815481526020019060010190808311613421575b5050505050815260200190600101906133dd565b60008181526002602081905260408220829161346485612028565b600381111561348357634e487b7160e01b600052602160045260246000fd5b1461348d57600080fd5b806001015481600201549250925050915091565b60008054604051638c9540d360e01b81523360048201526001600160a01b0390911690638c9540d39060240160206040518083038186803b1580156134e557600080fd5b505afa1580156134f9573d6000803e3d6000fd5b505050506040513d601f19601f8201168201806040525081019061351d919061513f565b6135395760405162461bcd60e51b81526004016110d890615829565b6000838152600260205260408082208254825163091d8bc560e21b815283519294936001600160a01b03909216926324762f1492600480840193919291829003018186803b15801561358a57600080fd5b505afa15801561359e573d6000803e3d6000fd5b505050506040513d601f19601f820116820180604052508101906135c291906153de565b5033600090815260048401602052604090205490915060ff16156135f85760405162461bcd60e51b81526004016110d8906157cc565b60015485106136575760405162461bcd60e51b815260206004820152602560248201527f646b67436f6e74726163743a20696e76616c696420646973747269627574656460448201526412d95e525160da1b60648201526084016110d8565b600061366286612028565b600381111561368157634e487b7160e01b600052602160045260246000fd5b146136eb5760405162461bcd60e51b815260206004820152603460248201527f646b67436f6e74726163743a206b65792773207374617465206973206e6f7420604482015273434f4e545249425554494f4e5f524f554e445f3160601b60648201526084016110d8565b6136f86020850185615987565b90506137048580615987565b9050148015613720575060ff811661371c8580615987565b9050145b61373c5760405162461bcd60e51b81526004016110d890615871565b60005b8160ff168110156137d1576137b66137578680615987565b8381811061377557634e487b7160e01b600052603260045260246000fd5b9050602002013586806020019061378c9190615987565b848181106137aa57634e487b7160e01b600052603260045260246000fd5b90506020020135614b15565b6137bf57600080fd5b806137c981615b45565b91505061373f565b50815460019083906002906137f090849062010000900460ff16615a7d565b82546101009290920a60ff818102199093169183160217909155604080516080810182523381528554620100009004909216602083015260038501925081016138398780615987565b8080602002602001604051908101604052809392919081815260200183836020028082843760009201919091525050509082525060209081019061387f90880188615987565b808060200260200160405190810160405280939291908181526020018383602002808284376000920182905250939094525050835460018181018655948252602091829020845160039092020180548386015160ff16600160a01b026001600160a81b03199091166001600160a01b039093169290921791909117815560408401518051949591946139179450918501920190614e4e565b5060608201518051613933916002840191602090910190614e4e565b505050600182015460028301546139b0919061394f8780615987565b600081811061396e57634e487b7160e01b600052603260045260246000fd5b905060200201358780602001906139859190615987565b60008181106139a457634e487b7160e01b600052603260045260246000fd5b90506020020135614bbf565b6002840155600180840191909155336000818152600485016020526040808220805460ff1916909417909355915190917f3ce2f4976bf732c26e4b564b81638703c5a3dfbda3e03d88565dc5a29746bac591a2505462010000900460ff1690505b92915050565b600080613a2383612028565b6003811115613a4257634e487b7160e01b600052602160045260246000fd5b11613aa25760405162461bcd60e51b815260206004820152602a60248201527f646b67436f6e74726163743a206e6f7420646f6e6520434f4e545249425554496044820152694f4e5f524f554e445f3160b01b60648201526084016110d8565b600082815260026020908152604080832060030180548251818502810185019093528083529192909190849084015b82821015613bcd576000848152602090819020604080516080810182526003860290920180546001600160a01b0381168452600160a01b900460ff16838501526001810180548351818702810187018552818152949592949386019392830182828015613b5d57602002820191906000526020600020905b815481526020019060010190808311613b49575b5050505050815260200160028201805480602002602001604051908101604052809291908181526020018280548015613bb557602002820191906000526020600020905b815481526020019060010190808311613ba1575b50505050508152505081526020019060010190613ad1565b50505050905060005b81518160ff161015613c5057846001600160a01b0316828260ff1681518110613c0f57634e487b7160e01b600052603260045260246000fd5b6020026020010151600001516001600160a01b03161415613c3e57613c35816001615a7d565b92505050613a11565b80613c4881615b60565b915050613bd6565b5060405162461bcd60e51b815260206004820152602660248201527f646b67436f6e74726163743a20696e76616c6964205f636f6d6d69747465654160448201526564647265737360d01b60648201526084016110d8565b606060036000838152602001908152602001600020600301805480602002602001604051908101604052809291908181526020016000905b828210156121a3576000848152602080822060408051808201825260028702909201805460ff168352600181018054835181870281018701909452808452939591948681019491929084015b82821015613d9857600084815260209081902083018054604080518285028101850190915281815292830182828015613d8457602002820191906000526020600020905b815481526020019060010190808311613d70575b505050505081526020019060010190613d2c565b505050508152505081526020019060010190613ce0565b606060026000838152602001908152602001600020600301805480602002602001604051908101604052809291908181526020016000905b828210156121a3576000848152602090819020604080516080810182526003860290920180546001600160a01b0381168452600160a01b900460ff16838501526001810180548351818702810187018552818152949592949386019392830182828015613e7357602002820191906000526020600020905b815481526020019060010190808311613e5f575b5050505050815260200160028201805480602002602001604051908101604052809291908181526020018280548015613ecb57602002820191906000526020600020905b815481526020019060010190808311613eb7575b50505050508152505081526020019060010190613de7565b600081815260036020908152604080832081516101208101835281548152600182018054845181870281018701909552808552869592948584019390929190879084015b82821015613f9357600084815260209081902083018054604080518285028101850190915281815292830182828015613f7f57602002820191906000526020600020905b815481526020019060010190808311613f6b575b505050505081526020019060010190613f27565b50505050815260200160028201805480602002602001604051908101604052809291908181526020016000905b8282101561402c5760008481526020908190208301805460408051828502810185019091528181529283018282801561401857602002820191906000526020600020905b815481526020019060010190808311614004575b505050505081526020019060010190613fc0565b50505050815260200160038201805480602002602001604051908101604052809291908181526020016000905b82821015614128576000848152602080822060408051808201825260028702909201805460ff168352600181018054835181870281018701909452808452939591948681019491929084015b82821015614111576000848152602090819020830180546040805182850281018501909152818152928301828280156140fd57602002820191906000526020600020905b8154815260200190600101908083116140e9575b5050505050815260200190600101906140a5565b505050508152505081526020019060010190614059565b5050509082525060048281015460ff80821660208501526101008204161515604080850191909152620100009091046001600160a01b039081166060850152600585015481166080850152600690940154841660a09093019290925260008054835163091d8bc560e21b8152845196975091959416936324762f1493828401939092829003018186803b1580156141be57600080fd5b505afa1580156141d2573d6000803e3d6000fd5b505050506040513d601f19601f820116820180604052508101906141f691906153de565b5090508160a001511561420d575060029392505050565b8060ff16826080015160ff1614156120f5575060019392505050565b600082815260026020908152604080832060ff851684526005018252808320805482518185028101850190935280835260609492939192909184015b828210156142f457600084815260209081902060408051808201825260028602909201805460ff1683526001810180548351818702810187019094528084529394919385830193928301828280156142dc57602002820191906000526020600020905b8154815260200190600101908083116142c8575b50505050508152505081526020019060010190614265565b50505050905092915050565b61436f60405180610120016040528060008152602001606081526020016060815260200160608152602001600060ff16815260200160001515815260200160006001600160a01b0316815260200160006001600160a01b0316815260200160006001600160a01b031681525090565b60036000838152602001908152602001600020604051806101200160405290816000820154815260200160018201805480602002602001604051908101604052809291908181526020016000905b828210156144295760008481526020908190208301805460408051828502810185019091528181529283018282801561441557602002820191906000526020600020905b815481526020019060010190808311614401575b5050505050815260200190600101906143bd565b50505050815260200160028201805480602002602001604051908101604052809291908181526020016000905b828210156144c2576000848152602090819020830180546040805182850281018501909152818152928301828280156144ae57602002820191906000526020600020905b81548152602001906001019080831161449a575b505050505081526020019060010190614456565b50505050815260200160038201805480602002602001604051908101604052809291908181526020016000905b828210156145be576000848152602080822060408051808201825260028702909201805460ff168352600181018054835181870281018701909452808452939591948681019491929084015b828210156145a75760008481526020908190208301805460408051828502810185019091528181529283018282801561459357602002820191906000526020600020905b81548152602001906001019080831161457f575b50505050508152602001906001019061453b565b5050505081525050815260200190600101906144ef565b50505090825250600482015460ff8082166020840152610100820416151560408301526001600160a01b03620100009091048116606083015260058301548116608083015260069092015490911660a09091015292915050565b6060600082516001600160401b0381111561464357634e487b7160e01b600052604160045260246000fd5b60405190808252806020026020018201604052801561466c578160200160208202803683370190505b50905060005b83518160ff161015614809576000848260ff16815181106146a357634e487b7160e01b600052603260045260246000fd5b602090810291909101015190506001806000805b88518160ff161015614774576000898260ff16815181106146e857634e487b7160e01b600052603260045260246000fd5b602002602001015190508060ff168660ff16146147615761470c60ff821686615ab6565b94508560ff168160ff16101561474757614727600184615a7d565b92506147338187615b15565b6147409060ff1685615ab6565b9350614761565b6147518682615b15565b61475e9060ff1685615ab6565b93505b508061476c81615b60565b9150506146b7565b50614780600282615b80565b60ff16600114156147a6576147a382600080516020615c2a833981519152615afe565b91505b6147af82614d0d565b9150600080516020615c2a833981519152828409868660ff16815181106147e657634e487b7160e01b600052603260045260246000fd5b60200260200101818152505050505050808061480190615b60565b915050614672565b5092915050565b6000846001600160a01b0316639447d8936040518163ffffffff1660e01b815260040160206040518083038186803b15801561484b57600080fd5b505afa15801561485f573d6000803e3d6000fd5b505050506040513d601f19601f8201168201806040525081019061488391906152d8565b82511461488f57600080fd5b600061489d848601866150bb565b905060005b60088160ff161015614961577f30644e72e131a029b85045b68181585d97816a916871ca8d3c208c16d87cfd47828260ff16600881106148f257634e487b7160e01b600052603260045260246000fd5b60200201511061494f5760405162461bcd60e51b815260206004820152602260248201527f76657269666965722d70726f6f662d656c656d656e742d6774652d7072696d656044820152612d7160f01b60648201526084016110d8565b8061495981615b60565b9150506148a2565b50856001600160a01b031663c32e370e60405180604001604052808460006008811061499d57634e487b7160e01b600052603260045260246000fd5b60200201518152602001846001600881106149c857634e487b7160e01b600052603260045260246000fd5b6020020151905260408051608081018252858201519181019182529081906060820187600360200201518152508152602001604051806040016040528087600460088110614a2657634e487b7160e01b600052603260045260246000fd5b6020020151815260200187600560088110614a5157634e487b7160e01b600052603260045260246000fd5b60200201519052905260408051808201909152808660066020020151815260200186600760088110614a9357634e487b7160e01b600052603260045260246000fd5b6020020151815250876040518563ffffffff1660e01b8152600401614abb9493929190615690565b60206040518083038186803b158015614ad357600080fd5b505afa158015614ae7573d6000803e3d6000fd5b505050506040513d601f19601f82011682018060405250810190614b0b919061513f565b9695505050505050565b600080600080516020615c0a83398151915284850990506000600080516020615c0a83398151915284850990506000600080516020615c0a83398151915282600080516020615c0a83398151915285620292fc090890506000600080516020615c0a8339815191528084600080516020615c0a83398151915287620292f809096001089050614bb38282600080516020615c0a833981519152614d93565b15979650505050505050565b60008085158015614bce575084155b15614bdd575082905081614d04565b83158015614be9575084155b15614bf8575084905083614d04565b6000600080516020615c0a83398151915285880990506000600080516020615c0a83398151915285880990506000600080516020615c0a83398151915280838509620292f80990506000600080516020615c0a83398151915280898b09600080516020615c0a833981519152898d090890506000614c9984600080516020615c0a83398151915287620292fc09600080516020615c0a833981519152614d93565b9050600080516020615c0a833981519152614cc5600080516020615c0a83398151915285600108614ddc565b83099650600080516020615c0a833981519152614cfa614cf5600186600080516020615c0a833981519152614d93565b614ddc565b8209955050505050505b94509492505050565b6000806001600080516020615c2a83398151915284835b8115614d8857614d348284615aa2565b905083600080516020615c2a83398151915280868409614d6290600080516020615c2a833981519152615afe565b8708909550935081614d748183615ab6565b614d7e9085615afe565b9093509150614d24565b509295945050505050565b600083838111614daa57614da78382615a65565b90505b8280614dc657634e487b7160e01b600052601260045260246000fd5b6000614dd28684615afe565b0895945050505050565b6000613a1182614dfb6002600080516020615c0a833981519152615afe565b600080516020615c0a833981519152600060405160208152602080820152602060408201528460608201528360808201528260a082015260208160c08360055afa8080156101cf57505051949350505050565b828054828255906000526020600020908101928215614e89579160200282015b82811115614e89578251825591602001919060010190614e6e565b50614e95929150614ef2565b5090565b828054828255906000526020600020908101928215614ee6579160200282015b82811115614ee65782518051614ed6918491602090910190614e4e565b5091602001919060010190614eb9565b50614e95929150614f07565b5b80821115614e955760008155600101614ef3565b80821115614e95576000614f1b8282614f24565b50600101614f07565b5080546000825590600052602060002090810190614f429190614ef2565b50565b6000614f58614f5384615a42565b615a12565b838152905060208082019083600586811b8201881015614f7757600080fd5b60005b8781101561500d5782356001600160401b03811115614f9857600080fd5b8701601f81018a13614fa957600080fd5b8035614fb7614f5382615a42565b8181528681019083880183871b850189018e1015614fd457600080fd5b600094505b83851015614ff7578035835260019490940193918801918801614fd9565b5088525050509383019391830191600101614f7a565b50505050509392505050565b600082601f830112615029578081fd5b61503883833560208501614f45565b9392505050565b60008083601f840112615050578182fd5b5081356001600160401b03811115615066578182fd5b60208301915083602082850101111561507e57600080fd5b9250929050565b60008060408385031215615097578182fd5b82356001600160a01b03811681146150ad578283fd5b946020939093013593505050565b60006101008083850312156150ce578182fd5b83601f8401126150dc578182fd5b6040518181018181106001600160401b03821117156150fd576150fd615be4565b6040528084838101871015615110578485fd5b8493505b600884101561513457803582526001939093019260209182019101615114565b509095945050505050565b600060208284031215615150578081fd5b81518015158114615038578182fd5b600060208284031215615170578081fd5b5035919050565b60008060008060006060868803121561518e578081fd5b8535945060208601356001600160401b03808211156151ab578283fd5b818801915088601f8301126151be578283fd5b8135818111156151cc578384fd5b8960208260051b85010111156151e0578384fd5b6020830196508095505060408801359150808211156151fd578283fd5b5061520a8882890161503f565b969995985093965092949392505050565b6000806040838503121561522d578182fd5b8235915060208301356001600160401b03811115615249578182fd5b83016060818603121561525a578182fd5b809150509250929050565b6000806000806080858703121561527a578081fd5b843593506020850135925060408501356001600160401b038082111561529e578283fd5b6152aa88838901615019565b935060608701359150808211156152bf578283fd5b506152cc87828801615019565b91505092959194509250565b6000602082840312156152e9578081fd5b5051919050565b60008060408385031215615302578182fd5b8235915060208301356001600160401b0381111561531e578182fd5b83016040818603121561525a578182fd5b60008060408385031215615341578182fd5b8235915060208301356001600160401b0381111561535d578182fd5b83016080818603121561525a578182fd5b60008060408385031215615380578182fd5b82359150602083013561525a81615bfa565b6000602082840312156153a3578081fd5b813561503881615bfa565b600080604083850312156153c0578182fd5b82356153cb81615bfa565b915060208301356002811061525a578182fd5b600080604083850312156153f0578182fd5b82516153fb81615bfa565b602084015190925061525a81615bfa565b6000815180845260208085019450848260051b8601828601855b8581101561545057838303895261543e8383516154e1565b98850198925090840190600101615426565b5090979650505050505050565b6000815180845260208085019450848260051b8601828601855b858110156154505783830389528151805160ff16845285015160408685018190526154a48186018361540c565b9a87019a9450505090840190600101615477565b8060005b60028110156154db5781518452602093840193909101906001016154bc565b50505050565b6000815180845260208085019450808401835b83811015615510578151875295820195908201906001016154f4565b509495945050505050565b6002811061552b5761552b615bce565b9052565b60006001600160fb1b03831115615544578081fd5b8260051b808584379190910190815292915050565b602081526000615038602083018461540c565b60006020808301818452808551808352604092508286019150828160051b870101848801865b8381101561560757888303603f19018552815180516001600160a01b031684528781015160ff1688850152868101516080888601819052906155d6828701826154e1565b915050606080830151925085820381870152506155f381836154e1565b968901969450505090860190600101615592565b509098975050505050505050565b60006020808301818452808551808352604092508286019150828160051b870101848801865b8381101561560757888303603f190185528151805160ff16845287015187840187905261566a878501826154e1565b958801959350509086019060010161563b565b602081526000615038602083018461545d565b600061012061569f83886154b8565b604080840187845b60028110156156ce576156bb8383516154b8565b91830191602091909101906001016156a7565b505050506156df60c08401866154b8565b806101008401526156f2818401856154e1565b979650505050505050565b838152604060208201819052810182905260006001600160fb1b03831115615723578081fd5b8260051b80856060850137919091016060019081529392505050565b602081016004831061575357615753615bce565b91905290565b60208101613a11828461551b565b6101008101615776828b61551b565b60ff988916602083015296881660408201529490961660608501526001600160a01b0392909216608084015260a083015260c082015260e00191909152919050565b602081016003831061575357615753615bce565b60208082526037908201527f646b67436f6e74726163743a20596f7520617265206e6f7420616c6c6f77207460408201527f6f207375626d6974206d756c7469706c652074696d6573000000000000000000606082015260800190565b60208082526028908201527f646b67436f6e74726163743a206d73672e73656e646572206973206e6f7420436040820152676f6d6d697474656560c01b606082015260800190565b60208082526021908201527f646b67436f6e74726163743a20696e76616c696420696e707574206c656e67746040820152600d60fb1b606082015260800190565b6020815281516020820152600060208301516101208060408501526158db61014085018361540c565b91506040850151601f19808685030160608701526158f9848361540c565b9350606087015191508086850301608087015250615917838261545d565b925050608085015161592e60a086018260ff169052565b5060a085015180151560c08601525060c08501516001600160a01b03811660e08601525060e085015161010061596e818701836001600160a01b03169052565b909501516001600160a01b031693019290925250919050565b6000808335601e1984360301811261599d578283fd5b8301803591506001600160401b038211156159b6578283fd5b6020019150600581901b360382131561507e57600080fd5b6000808335601e198436030181126159e4578283fd5b8301803591506001600160401b038211156159fd578283fd5b60200191503681900382131561507e57600080fd5b604051601f8201601f191681016001600160401b0381118282101715615a3a57615a3a615be4565b604052919050565b60006001600160401b03821115615a5b57615a5b615be4565b5060051b60200190565b60008219821115615a7857615a78615ba2565b500190565b600060ff821660ff84168060ff03821115615a9a57615a9a615ba2565b019392505050565b600082615ab157615ab1615bb8565b500490565b6000816000190483118215151615615ad057615ad0615ba2565b500290565b600060ff821660ff84168160ff0481118215151615615af657615af6615ba2565b029392505050565b600082821015615b1057615b10615ba2565b500390565b600060ff821660ff841680821015615b2f57615b2f615ba2565b90039392505050565b6000615038368484614f45565b6000600019821415615b5957615b59615ba2565b5060010190565b600060ff821660ff811415615b7757615b77615ba2565b60010192915050565b600060ff831680615b9357615b93615bb8565b8060ff84160691505092915050565b634e487b7160e01b600052601160045260246000fd5b634e487b7160e01b600052601260045260246000fd5b634e487b7160e01b600052602160045260246000fd5b634e487b7160e01b600052604160045260246000fd5b60ff81168114614f4257600080fdfe30644e72e131a029b85045b68181585d2833e84879b9709143e1f593f0000001060c89ce5c263405370a08b6d0302b0bab3eedb83920ee0a677297dc392126f1a26469706673582212209ba600d3fb285f9b682a256f267e76069a9fb38299056532794b1f4b5b716eb364736f6c63430008040033",
    "linkReferences": {},
    "deployedLinkReferences": {}
}