{
    "_format": "hh-sol-artifact-1",
    "contractName": "FundManager",
    "sourceName": "contracts/FundManager.sol",
    "abi": [
        {
            "inputs": [
                {
                    "internalType": "address[]",
                    "name": "_committeeList",
                    "type": "address[]"
                },
                {
                    "internalType": "address",
                    "name": "_daoManager",
                    "type": "address"
                },
                {
                    "internalType": "uint256",
                    "name": "_reserveFactor",
                    "type": "uint256"
                },
                {
                    "components": [
                        {
                            "internalType": "uint32",
                            "name": "levels",
                            "type": "uint32"
                        },
                        {
                            "internalType": "address",
                            "name": "poseidon",
                            "type": "address"
                        }
                    ],
                    "internalType": "struct IFundManager.MerkleTreeConfig",
                    "name": "_merkleTreeConfig",
                    "type": "tuple"
                },
                {
                    "components": [
                        {
                            "internalType": "uint64",
                            "name": "pendingPeriod",
                            "type": "uint64"
                        },
                        {
                            "internalType": "uint64",
                            "name": "activePeriod",
                            "type": "uint64"
                        },
                        {
                            "internalType": "uint64",
                            "name": "tallyPeriod",
                            "type": "uint64"
                        }
                    ],
                    "internalType": "struct IFundManager.FundingRoundConfig",
                    "name": "_fundingRoundConfig",
                    "type": "tuple"
                },
                {
                    "components": [
                        {
                            "internalType": "address",
                            "name": "round2Verfier",
                            "type": "address"
                        },
                        {
                            "internalType": "address",
                            "name": "fundingVerifier",
                            "type": "address"
                        },
                        {
                            "internalType": "address",
                            "name": "votingVerifier",
                            "type": "address"
                        },
                        {
                            "internalType": "address",
                            "name": "tallyContributionVerifier",
                            "type": "address"
                        },
                        {
                            "internalType": "address",
                            "name": "resultVerifier",
                            "type": "address"
                        }
                    ],
                    "internalType": "struct IDKG.DKGConfig",
                    "name": "_dkgConfig",
                    "type": "tuple"
                }
            ],
            "stateMutability": "nonpayable",
            "type": "constructor"
        },
        {
            "anonymous": false,
            "inputs": [
                {
                    "indexed": true,
                    "internalType": "uint256",
                    "name": "fundingRoundID",
                    "type": "uint256"
                },
                {
                    "indexed": true,
                    "internalType": "address",
                    "name": "dao",
                    "type": "address"
                },
                {
                    "indexed": true,
                    "internalType": "uint256",
                    "name": "value",
                    "type": "uint256"
                }
            ],
            "name": "FundWithdrawed",
            "type": "event"
        },
        {
            "anonymous": false,
            "inputs": [
                {
                    "indexed": true,
                    "internalType": "uint256",
                    "name": "fundingRoundID",
                    "type": "uint256"
                },
                {
                    "indexed": false,
                    "internalType": "address",
                    "name": "sender",
                    "type": "address"
                },
                {
                    "indexed": false,
                    "internalType": "uint256",
                    "name": "value",
                    "type": "uint256"
                },
                {
                    "indexed": true,
                    "internalType": "uint256",
                    "name": "commitment",
                    "type": "uint256"
                }
            ],
            "name": "Funded",
            "type": "event"
        },
        {
            "anonymous": false,
            "inputs": [
                {
                    "indexed": true,
                    "internalType": "address",
                    "name": "dao",
                    "type": "address"
                }
            ],
            "name": "FundingRoundApplied",
            "type": "event"
        },
        {
            "anonymous": false,
            "inputs": [
                {
                    "indexed": true,
                    "internalType": "uint256",
                    "name": "fundingRoundID",
                    "type": "uint256"
                }
            ],
            "name": "FundingRoundFailed",
            "type": "event"
        },
        {
            "anonymous": false,
            "inputs": [
                {
                    "indexed": true,
                    "internalType": "uint256",
                    "name": "fundingRoundID",
                    "type": "uint256"
                }
            ],
            "name": "FundingRoundFinalized",
            "type": "event"
        },
        {
            "anonymous": false,
            "inputs": [
                {
                    "indexed": true,
                    "internalType": "uint256",
                    "name": "fundingRoundID",
                    "type": "uint256"
                },
                {
                    "indexed": true,
                    "internalType": "bytes32",
                    "name": "requestID",
                    "type": "bytes32"
                }
            ],
            "name": "FundingRoundLaunched",
            "type": "event"
        },
        {
            "anonymous": false,
            "inputs": [
                {
                    "indexed": true,
                    "internalType": "uint32",
                    "name": "index",
                    "type": "uint32"
                },
                {
                    "indexed": true,
                    "internalType": "uint256",
                    "name": "commitment",
                    "type": "uint256"
                }
            ],
            "name": "LeafInserted",
            "type": "event"
        },
        {
            "anonymous": false,
            "inputs": [
                {
                    "indexed": true,
                    "internalType": "uint256",
                    "name": "fundingRoundID",
                    "type": "uint256"
                },
                {
                    "indexed": true,
                    "internalType": "address",
                    "name": "refundee",
                    "type": "address"
                },
                {
                    "indexed": true,
                    "internalType": "uint256",
                    "name": "value",
                    "type": "uint256"
                }
            ],
            "name": "Refunded",
            "type": "event"
        },
        {
            "anonymous": false,
            "inputs": [
                {
                    "indexed": true,
                    "internalType": "bytes32",
                    "name": "requestID",
                    "type": "bytes32"
                },
                {
                    "indexed": true,
                    "internalType": "uint256[]",
                    "name": "result",
                    "type": "uint256[]"
                }
            ],
            "name": "TallyResultSubmitted",
            "type": "event"
        },
        {
            "anonymous": false,
            "inputs": [
                {
                    "indexed": true,
                    "internalType": "uint256",
                    "name": "fundingRoundID",
                    "type": "uint256"
                },
                {
                    "indexed": true,
                    "internalType": "bytes32",
                    "name": "requestID",
                    "type": "bytes32"
                }
            ],
            "name": "TallyStarted",
            "type": "event"
        },
        {
            "inputs": [],
            "name": "FIELD_SIZE",
            "outputs": [
                {
                    "internalType": "uint256",
                    "name": "",
                    "type": "uint256"
                }
            ],
            "stateMutability": "view",
            "type": "function"
        },
        {
            "inputs": [],
            "name": "ROOT_HISTORY_SIZE",
            "outputs": [
                {
                    "internalType": "uint32",
                    "name": "",
                    "type": "uint32"
                }
            ],
            "stateMutability": "view",
            "type": "function"
        },
        {
            "inputs": [],
            "name": "ZERO_VALUE",
            "outputs": [
                {
                    "internalType": "uint256",
                    "name": "",
                    "type": "uint256"
                }
            ],
            "stateMutability": "view",
            "type": "function"
        },
        {
            "inputs": [
                {
                    "internalType": "address",
                    "name": "_dao",
                    "type": "address"
                }
            ],
            "name": "applyForFunding",
            "outputs": [],
            "stateMutability": "nonpayable",
            "type": "function"
        },
        {
            "inputs": [],
            "name": "bounty",
            "outputs": [
                {
                    "internalType": "uint256",
                    "name": "",
                    "type": "uint256"
                }
            ],
            "stateMutability": "view",
            "type": "function"
        },
        {
            "inputs": [
                {
                    "internalType": "bytes",
                    "name": "checkData",
                    "type": "bytes"
                }
            ],
            "name": "checkUpkeep",
            "outputs": [
                {
                    "internalType": "bool",
                    "name": "upkeepNeeded",
                    "type": "bool"
                },
                {
                    "internalType": "bytes",
                    "name": "performData",
                    "type": "bytes"
                }
            ],
            "stateMutability": "view",
            "type": "function"
        },
        {
            "inputs": [],
            "name": "config",
            "outputs": [
                {
                    "internalType": "uint64",
                    "name": "pendingPeriod",
                    "type": "uint64"
                },
                {
                    "internalType": "uint64",
                    "name": "activePeriod",
                    "type": "uint64"
                },
                {
                    "internalType": "uint64",
                    "name": "tallyPeriod",
                    "type": "uint64"
                }
            ],
            "stateMutability": "view",
            "type": "function"
        },
        {
            "inputs": [],
            "name": "currentRootIndex",
            "outputs": [
                {
                    "internalType": "uint32",
                    "name": "",
                    "type": "uint32"
                }
            ],
            "stateMutability": "view",
            "type": "function"
        },
        {
            "inputs": [],
            "name": "daoManager",
            "outputs": [
                {
                    "internalType": "address",
                    "name": "",
                    "type": "address"
                }
            ],
            "stateMutability": "view",
            "type": "function"
        },
        {
            "inputs": [],
            "name": "dkgContract",
            "outputs": [
                {
                    "internalType": "contract IDKG",
                    "name": "",
                    "type": "address"
                }
            ],
            "stateMutability": "view",
            "type": "function"
        },
        {
            "inputs": [
                {
                    "internalType": "uint256",
                    "name": "",
                    "type": "uint256"
                }
            ],
            "name": "filledSubtrees",
            "outputs": [
                {
                    "internalType": "uint256",
                    "name": "",
                    "type": "uint256"
                }
            ],
            "stateMutability": "view",
            "type": "function"
        },
        {
            "inputs": [
                {
                    "internalType": "uint256",
                    "name": "_fundingRoundID",
                    "type": "uint256"
                }
            ],
            "name": "finalizeFundingRound",
            "outputs": [],
            "stateMutability": "nonpayable",
            "type": "function"
        },
        {
            "inputs": [],
            "name": "founder",
            "outputs": [
                {
                    "internalType": "address",
                    "name": "",
                    "type": "address"
                }
            ],
            "stateMutability": "view",
            "type": "function"
        },
        {
            "inputs": [
                {
                    "internalType": "uint256",
                    "name": "_fundingRoundID",
                    "type": "uint256"
                },
                {
                    "internalType": "uint256",
                    "name": "_commitment",
                    "type": "uint256"
                },
                {
                    "internalType": "uint256[][]",
                    "name": "_R",
                    "type": "uint256[][]"
                },
                {
                    "internalType": "uint256[][]",
                    "name": "_M",
                    "type": "uint256[][]"
                },
                {
                    "internalType": "bytes",
                    "name": "_proof",
                    "type": "bytes"
                }
            ],
            "name": "fund",
            "outputs": [],
            "stateMutability": "payable",
            "type": "function"
        },
        {
            "inputs": [],
            "name": "fundingRoundCounter",
            "outputs": [
                {
                    "internalType": "uint256",
                    "name": "",
                    "type": "uint256"
                }
            ],
            "stateMutability": "view",
            "type": "function"
        },
        {
            "inputs": [],
            "name": "fundingRoundInProgress",
            "outputs": [
                {
                    "internalType": "bool",
                    "name": "",
                    "type": "bool"
                }
            ],
            "stateMutability": "view",
            "type": "function"
        },
        {
            "inputs": [],
            "name": "fundingRoundQueue",
            "outputs": [
                {
                    "internalType": "contract Queue",
                    "name": "",
                    "type": "address"
                }
            ],
            "stateMutability": "view",
            "type": "function"
        },
        {
            "inputs": [
                {
                    "internalType": "uint256",
                    "name": "",
                    "type": "uint256"
                }
            ],
            "name": "fundingRounds",
            "outputs": [
                {
                    "internalType": "bytes32",
                    "name": "requestID",
                    "type": "bytes32"
                },
                {
                    "internalType": "uint256",
                    "name": "balance",
                    "type": "uint256"
                },
                {
                    "internalType": "uint64",
                    "name": "launchedAt",
                    "type": "uint64"
                },
                {
                    "internalType": "uint64",
                    "name": "finalizedAt",
                    "type": "uint64"
                },
                {
                    "internalType": "uint64",
                    "name": "failedAt",
                    "type": "uint64"
                }
            ],
            "stateMutability": "view",
            "type": "function"
        },
        {
            "inputs": [],
            "name": "getDKGParams",
            "outputs": [
                {
                    "internalType": "uint8",
                    "name": "",
                    "type": "uint8"
                },
                {
                    "internalType": "uint8",
                    "name": "",
                    "type": "uint8"
                }
            ],
            "stateMutability": "view",
            "type": "function"
        },
        {
            "inputs": [
                {
                    "internalType": "bytes32",
                    "name": "_requestID",
                    "type": "bytes32"
                }
            ],
            "name": "getDistributedKeyID",
            "outputs": [
                {
                    "internalType": "uint256",
                    "name": "",
                    "type": "uint256"
                }
            ],
            "stateMutability": "view",
            "type": "function"
        },
        {
            "inputs": [
                {
                    "internalType": "uint256",
                    "name": "_fundingRoundID",
                    "type": "uint256"
                }
            ],
            "name": "getFundingRoundBalance",
            "outputs": [
                {
                    "internalType": "uint256",
                    "name": "",
                    "type": "uint256"
                }
            ],
            "stateMutability": "view",
            "type": "function"
        },
        {
            "inputs": [],
            "name": "getFundingRoundQueueLength",
            "outputs": [
                {
                    "internalType": "uint256",
                    "name": "",
                    "type": "uint256"
                }
            ],
            "stateMutability": "view",
            "type": "function"
        },
        {
            "inputs": [
                {
                    "internalType": "uint256",
                    "name": "_fundingRoundID",
                    "type": "uint256"
                }
            ],
            "name": "getFundingRoundState",
            "outputs": [
                {
                    "internalType": "enum IFundManager.FundingRoundState",
                    "name": "",
                    "type": "uint8"
                }
            ],
            "stateMutability": "view",
            "type": "function"
        },
        {
            "inputs": [],
            "name": "getLastRoot",
            "outputs": [
                {
                    "internalType": "uint256",
                    "name": "",
                    "type": "uint256"
                }
            ],
            "stateMutability": "view",
            "type": "function"
        },
        {
            "inputs": [
                {
                    "internalType": "uint256",
                    "name": "_fundingRoundID",
                    "type": "uint256"
                }
            ],
            "name": "getListDAO",
            "outputs": [
                {
                    "internalType": "address[]",
                    "name": "",
                    "type": "address[]"
                }
            ],
            "stateMutability": "view",
            "type": "function"
        },
        {
            "inputs": [
                {
                    "internalType": "uint256",
                    "name": "_distributedKeyID",
                    "type": "uint256"
                },
                {
                    "internalType": "address",
                    "name": "_requestor",
                    "type": "address"
                },
                {
                    "internalType": "uint256",
                    "name": "_nonce",
                    "type": "uint256"
                }
            ],
            "name": "getRequestID",
            "outputs": [
                {
                    "internalType": "bytes32",
                    "name": "",
                    "type": "bytes32"
                }
            ],
            "stateMutability": "pure",
            "type": "function"
        },
        {
            "inputs": [
                {
                    "internalType": "bytes32",
                    "name": "_requestID",
                    "type": "bytes32"
                }
            ],
            "name": "getResult",
            "outputs": [
                {
                    "internalType": "uint256[]",
                    "name": "",
                    "type": "uint256[]"
                }
            ],
            "stateMutability": "view",
            "type": "function"
        },
        {
            "inputs": [
                {
                    "internalType": "contract IPoseidon",
                    "name": "hasher",
                    "type": "address"
                },
                {
                    "internalType": "uint256",
                    "name": "_left",
                    "type": "uint256"
                },
                {
                    "internalType": "uint256",
                    "name": "_right",
                    "type": "uint256"
                }
            ],
            "name": "hash",
            "outputs": [
                {
                    "internalType": "uint256",
                    "name": "",
                    "type": "uint256"
                }
            ],
            "stateMutability": "pure",
            "type": "function"
        },
        {
            "inputs": [
                {
                    "internalType": "address",
                    "name": "",
                    "type": "address"
                }
            ],
            "name": "isCommittee",
            "outputs": [
                {
                    "internalType": "bool",
                    "name": "",
                    "type": "bool"
                }
            ],
            "stateMutability": "view",
            "type": "function"
        },
        {
            "inputs": [
                {
                    "internalType": "address",
                    "name": "_sender",
                    "type": "address"
                }
            ],
            "name": "isFounder",
            "outputs": [
                {
                    "internalType": "bool",
                    "name": "",
                    "type": "bool"
                }
            ],
            "stateMutability": "view",
            "type": "function"
        },
        {
            "inputs": [
                {
                    "internalType": "uint256",
                    "name": "_root",
                    "type": "uint256"
                }
            ],
            "name": "isKnownRoot",
            "outputs": [
                {
                    "internalType": "bool",
                    "name": "",
                    "type": "bool"
                }
            ],
            "stateMutability": "view",
            "type": "function"
        },
        {
            "inputs": [
                {
                    "internalType": "uint256",
                    "name": "_distributedKeyID",
                    "type": "uint256"
                }
            ],
            "name": "launchFundingRound",
            "outputs": [
                {
                    "internalType": "uint256",
                    "name": "fundingRoundID",
                    "type": "uint256"
                },
                {
                    "internalType": "bytes32",
                    "name": "requestID",
                    "type": "bytes32"
                }
            ],
            "stateMutability": "nonpayable",
            "type": "function"
        },
        {
            "inputs": [],
            "name": "levels",
            "outputs": [
                {
                    "internalType": "uint32",
                    "name": "",
                    "type": "uint32"
                }
            ],
            "stateMutability": "view",
            "type": "function"
        },
        {
            "inputs": [],
            "name": "nextIndex",
            "outputs": [
                {
                    "internalType": "uint32",
                    "name": "",
                    "type": "uint32"
                }
            ],
            "stateMutability": "view",
            "type": "function"
        },
        {
            "inputs": [],
            "name": "numberOfCommittees",
            "outputs": [
                {
                    "internalType": "uint8",
                    "name": "",
                    "type": "uint8"
                }
            ],
            "stateMutability": "view",
            "type": "function"
        },
        {
            "inputs": [
                {
                    "internalType": "bytes",
                    "name": "performData",
                    "type": "bytes"
                }
            ],
            "name": "performUpkeep",
            "outputs": [],
            "stateMutability": "nonpayable",
            "type": "function"
        },
        {
            "inputs": [],
            "name": "poseidon",
            "outputs": [
                {
                    "internalType": "contract IPoseidon",
                    "name": "",
                    "type": "address"
                }
            ],
            "stateMutability": "view",
            "type": "function"
        },
        {
            "inputs": [
                {
                    "internalType": "uint256",
                    "name": "_fundingRoundID",
                    "type": "uint256"
                }
            ],
            "name": "refund",
            "outputs": [],
            "stateMutability": "nonpayable",
            "type": "function"
        },
        {
            "inputs": [
                {
                    "internalType": "bytes32",
                    "name": "",
                    "type": "bytes32"
                }
            ],
            "name": "requests",
            "outputs": [
                {
                    "internalType": "uint256",
                    "name": "distributedKeyID",
                    "type": "uint256"
                },
                {
                    "internalType": "uint256",
                    "name": "respondedAt",
                    "type": "uint256"
                }
            ],
            "stateMutability": "view",
            "type": "function"
        },
        {
            "inputs": [],
            "name": "reserveFactor",
            "outputs": [
                {
                    "internalType": "uint256",
                    "name": "",
                    "type": "uint256"
                }
            ],
            "stateMutability": "view",
            "type": "function"
        },
        {
            "inputs": [
                {
                    "internalType": "uint256",
                    "name": "",
                    "type": "uint256"
                }
            ],
            "name": "roots",
            "outputs": [
                {
                    "internalType": "uint256",
                    "name": "",
                    "type": "uint256"
                }
            ],
            "stateMutability": "view",
            "type": "function"
        },
        {
            "inputs": [
                {
                    "internalType": "uint256",
                    "name": "_fundingRoundID",
                    "type": "uint256"
                }
            ],
            "name": "startTallying",
            "outputs": [],
            "stateMutability": "nonpayable",
            "type": "function"
        },
        {
            "inputs": [
                {
                    "internalType": "bytes32",
                    "name": "_requestID",
                    "type": "bytes32"
                },
                {
                    "internalType": "uint256[]",
                    "name": "_result",
                    "type": "uint256[]"
                }
            ],
            "name": "submitTallyResult",
            "outputs": [],
            "stateMutability": "nonpayable",
            "type": "function"
        },
        {
            "inputs": [],
            "name": "threshold",
            "outputs": [
                {
                    "internalType": "uint8",
                    "name": "",
                    "type": "uint8"
                }
            ],
            "stateMutability": "view",
            "type": "function"
        },
        {
            "inputs": [
                {
                    "internalType": "uint256",
                    "name": "_fundingRoundID",
                    "type": "uint256"
                },
                {
                    "internalType": "address",
                    "name": "_dao",
                    "type": "address"
                }
            ],
            "name": "withdrawFund",
            "outputs": [],
            "stateMutability": "nonpayable",
            "type": "function"
        },
        {
            "inputs": [
                {
                    "internalType": "uint32",
                    "name": "i",
                    "type": "uint32"
                }
            ],
            "name": "zeros",
            "outputs": [
                {
                    "internalType": "uint256",
                    "name": "",
                    "type": "uint256"
                }
            ],
            "stateMutability": "view",
            "type": "function"
        }
    ],
    "bytecode": "0x60a06040527f0278878f9bf771ee0d3ecbd67f02536af7696dea0a6fa6acccadcacefb2ae2d9600055600480546001600160401b03191690553480156200004557600080fd5b506040516200ba9a3803806200ba9a833981016040819052620000689162000e1c565b8251602084015163ffffffff8216620000d25760405162461bcd60e51b815260206004820152602160248201527f6c6576656c2073686f756c642062652067726561746572207468616e207a65726044820152606f60f81b60648201526084015b60405180910390fd5b60208263ffffffff1611156200012b5760405162461bcd60e51b815260206004820152601c60248201527f6c6576656c2073686f756c64206265206c657373207468616e203332000000006044820152606401620000c9565b6001805463ffffffff191663ffffffff8416179055606081901b6001600160601b03191660805260005b8263ffffffff168163ffffffff161015620001a057620001758162000540565b63ffffffff821660009081526002602052604090205580620001978162001000565b91505062000155565b50620001b8620001b260018462000fba565b62000540565b6000805260036020527f3617319a054d772f909f7c479a2cebe5066e836a939412e32403c99029b92eff5550508551600511156200026d5760405162461bcd60e51b815260206004820152604560248201527f46756e644d616e6167657220636f6e74726163743a205265717569726520746860448201527f65206e756d626572206f6620636f6d6d6974746565732067726561746572207460648201526468616e203560d81b608482015260a401620000c9565b6001600160a01b038516620002da5760405162461bcd60e51b815260206004820152602c60248201527f46756e644d616e616765723a2044414f4d616e616765722063616e206e6f742060448201526b06265206164647265737320360a41b6064820152608401620000c9565b60048054600160401b600160e01b031916336801000000000000000002179055600580546001600160a01b0319166001600160a01b03871617905560005b865181101562000390576001600960008984815181106200034957634e487b7160e01b600052603260045260246000fd5b6020908102919091018101516001600160a01b03168252810191909152604001600020805460ff191691151591909117905580620003878162000fe2565b91505062000318565b5085516004805460ff60e01b1916600160e01b60ff93841681029190911791829055620003c592600292919091041662000f8b565b620003d290600162000f63565b6004805460ff92909216600160e81b0260ff60e81b19909216919091179055600684905581516007805460208501516040808701516001600160401b03908116600160801b02600160801b600160c01b031993821668010000000000000000026001600160801b03199095169190961617929092171692909217905551600f906200045d9062000c4c565b908152602001604051809103906000f08015801562000480573d6000803e3d6000fd5b50600d80546001600160a01b0319166001600160a01b03929092169190911790556040518190620004b19062000c5a565b81516001600160a01b039081168252602080840151821690830152604080840151821690830152606080840151821690830152608092830151169181019190915260a001604051809103906000f08015801562000512573d6000803e3d6000fd5b50600e80546001600160a01b0319166001600160a01b03929092169190911790555062001053945050505050565b600063ffffffff82166200055657505060005490565b8163ffffffff16600114156200058d57507f25b1cadac27e096a2b9f9526fb90e54420511d468b992f32154849b285fe5662919050565b8163ffffffff1660021415620005c457507f0479eb565282199a0144d3c118df2bc328a1ffafefa20f9a184b5bd88383a436919050565b8163ffffffff1660031415620005fb57507f21d4c1db3d4d222a7929f89c45bb66039006e9f5de00ad9b7c3693a3b2b53be5919050565b8163ffffffff16600414156200063257507f179336a006f9e52255d43b22c46f519e3ad13fd995a5dde05e59718a83f07ad2919050565b8163ffffffff16600514156200066957507f18d0f373a3ef8b46e854b46b7c85e6dc15a5cf428452b5378aba430d3854c952919050565b8163ffffffff1660061415620006a057507f1721577f689e888d3f3b62f83876634c440da963a06e2fa64aab1f883a4f4027919050565b8163ffffffff1660071415620006d757507f12db2fa8caf1c44cb5eef530df8e04146bb58f00d969646fee1fb7ec4753e5ec919050565b8163ffffffff16600814156200070e57507f18155aae0da7042886ccdb6e5f26c3b38681a5b7dd63672781fc3aca3ae64329919050565b8163ffffffff16600914156200074457507e810c2ba8a72363a51e65332ca11321b7f2b9c8e853e040c37822762341e64c919050565b8163ffffffff16600a14156200077b57507f138e35239c591673c3b890ec0fa1178cab7d8f7d8c7f7a0c8bf8513682bc432f919050565b8163ffffffff16600b1415620007b257507f27716c6fbacdac3650e54163d9b772b809dfe4b5eafc42e11eb20173fdfda855919050565b8163ffffffff16600c1415620007e957507f2e656892e101c19f0d84eba4729a8dff37701503d124a8a017c66e32def0428a919050565b8163ffffffff16600d14156200082057507f18a099df16bfb30fb7a701a4f8a81d14f86ba164c2f36edd7bcda8859edef4e5919050565b8163ffffffff16600e14156200085757507f2cf5426675af64f465549de3c1e3c9d37a972292c407a34068706e4c2bda2e85919050565b8163ffffffff16600f14156200088e57507f1f161c2b6c3cb2ba96b79bf40a241122114e753bfeeea2eb7dd524520a560034919050565b8163ffffffff1660101415620008c557507f2616fb559eee609eb7a8fdcbf8342e257e643e2448e63e57e9766789ab9dcda8919050565b8163ffffffff1660111415620008fc57507f2dcabcec03c45467a56f1049f2f823d6b571cf2451ba9bb4b58aa9b9f4b97ee4919050565b8163ffffffff16601214156200093357507f0e486e20cc0a454926d6e54e9e708c89be8b4323c9d433b82e8eeaa20698b1a4919050565b8163ffffffff16601314156200096a57507f2fa2fd053d2cb523abd48b8edbcf845294c3b61fcbf68e383fa3333a073d354e919050565b8163ffffffff1660141415620009a157507f296a754450d0bb6452e70a109a66e2b9f0ada22aaa6fc1226814b7ab29a1ef65919050565b8163ffffffff1660151415620009d857507f1412fc765858b38747773c841ff3c55ba049a014602500b8ed15d05c1ac2194e919050565b8163ffffffff166016141562000a0f57507f2dda5102ce12a674c5f3150e66f99d1f0155a3e1b1fc5d46a1829a3926e3c517919050565b8163ffffffff166017141562000a4657507f0dd17790e10053c669ce3d42602a2e55764d1ac49f6675d6d2dd0b4679646872919050565b8163ffffffff166018141562000a7d57507f200d910e885eb5b74c83e7b2b4ca8226603bc193a28213d78abdb1563b537bc6919050565b8163ffffffff166019141562000ab457507f2863c25a37e67338575fedd094ee2a7632fc2a2e6eb1576a4b63649cc14ba6ca919050565b8163ffffffff16601a141562000aeb57507f1dea70f9ddc9ff4a3503e7636361d555a35b05273d26c1df2b92612b28904ee0919050565b8163ffffffff16601b141562000b2257507f06c8d3c7f94f942a16320b90fb1380fc477a08ea3fd19e72c9606cfdf4da4e09919050565b8163ffffffff16601c141562000b5957507f0d4830eadcf10257e542babcb8f51f43e697617c14e2755f15a8af97b5ef8405919050565b8163ffffffff16601d141562000b9057507f159d54738c2930b6f8499edc1bf764a876a1c8bf2f93e17d98e1f02703c31816919050565b8163ffffffff16601e141562000bc757507f2de6697024a0b51b6240a26cd021fa8b53bd27046ab438d5035c1b0243191209919050565b8163ffffffff16601f141562000bfe57507f2f0aeb3423ae82871eeb04b9d63cc55fe0ef8fcb8b5ffbafd6eb31e375f1d8d3919050565b60405162461bcd60e51b815260206004820152601360248201527f496e646578206f7574206f6620626f756e6473000000000000000000000000006044820152606401620000c9565b919050565b6103e9806200602683390190565b61568b806200640f83390190565b80516001600160a01b038116811462000c4757600080fd5b600060a0828403121562000c92578081fd5b60405160a081016001600160401b038111828210171562000cb75762000cb76200103d565b60405290508062000cc88362000c68565b815262000cd86020840162000c68565b602082015262000ceb6040840162000c68565b604082015262000cfe6060840162000c68565b606082015262000d116080840162000c68565b60808201525092915050565b60006060828403121562000d2f578081fd5b604051606081016001600160401b038111828210171562000d545762000d546200103d565b60405290508062000d658362000e04565b815262000d756020840162000e04565b602082015262000d886040840162000e04565b60408201525092915050565b60006040828403121562000da6578081fd5b604080519081016001600160401b038111828210171562000dcb5762000dcb6200103d565b8060405250809150825163ffffffff8116811462000de857600080fd5b815262000df86020840162000c68565b60208201525092915050565b80516001600160401b038116811462000c4757600080fd5b6000806000806000806101a0878903121562000e36578182fd5b86516001600160401b038082111562000e4d578384fd5b818901915089601f83011262000e61578384fd5b815160208282111562000e785762000e786200103d565b8160051b925062000e8b81840162000f30565b8281528181019085830185870184018f101562000ea6578889fd5b8896505b8487101562000ed35762000ebe8162000c68565b83526001969096019591830191830162000eaa565b509a5062000ee590508b820162000c68565b9850505050506040870151935062000f01886060890162000d94565b925062000f128860a0890162000d1d565b915062000f2488610100890162000c80565b90509295509295509295565b604051601f8201601f191681016001600160401b038111828210171562000f5b5762000f5b6200103d565b604052919050565b600060ff821660ff84168060ff0382111562000f835762000f8362001027565b019392505050565b600060ff83168062000fab57634e487b7160e01b82526012600452602482fd5b8060ff84160491505092915050565b600063ffffffff8381169083168181101562000fda5762000fda62001027565b039392505050565b600060001982141562000ff95762000ff962001027565b5060010190565b600063ffffffff808316818114156200101d576200101d62001027565b6001019392505050565b634e487b7160e01b600052601160045260246000fd5b634e487b7160e01b600052604160045260246000fd5b60805160601c614fad620010796000396000818161087e0152613e970152614fad6000f3fe60806040526004361061027d5760003560e01c8063a7f531311161014f578063c62b919e116100c1578063ec7329591161007a578063ec7329591461093f578063f0a3ffff14610955578063f178e47c14610975578063f322c755146109a2578063fc7e9c6f146109c2578063fd152d84146109e757600080fd5b8063c62b919e1461086c578063c6d9ab1a146108a0578063c7b57841146108c0578063c8747149146108f6578063cd87a3b414610917578063d65200c51461092c57600080fd5b8063b2de07fd11610113578063b2de07fd14610724578063ba70f75714610744578063bdbb90c11461076e578063c2b40ae41461078e578063c428a278146107bb578063c58264b31461084c57600080fd5b8063a7f531311461066a578063a9f536921461068a578063ab1a1ba6146106aa578063add4c784146106d7578063b05365321461070457600080fd5b806353dddc12116101f35780638c9540d3116101ac5780638c9540d31461058357806390eeb02b146105c3578063943dfef1146105e0578063958efd83146105f65780639d86698514610616578063a6232a931461064a57600080fd5b806353dddc121461046257806369306f241461048f5780636e04ff0d146104b057806379502c55146104de578063800fb0de1461053e578063889d70391461056e57600080fd5b806342cde4e81161024557806342cde4e81461037257806342e0a834146103a55780634322b714146103bb5780634585e33b146103d15780634d853ee5146103f15780634ecf518b1461043057600080fd5b8063083889541461028257806324762f14146102c2578063278ecde1146102f95780633a5750f01461031b578063414a37ba14610350575b600080fd5b34801561028e57600080fd5b506102af61029d366004614517565b6000908152600a602052604090205490565b6040519081526020015b60405180910390f35b3480156102ce57600080fd5b506004546040805160ff600160e81b840481168252600160e01b9093049092166020830152016102b9565b34801561030557600080fd5b50610319610314366004614517565b610a07565b005b34801561032757600080fd5b5061033b610336366004614517565b610ac1565b604080519283526020830191909152016102b9565b34801561035c57600080fd5b506102af600080516020614f5883398151915281565b34801561037e57600080fd5b5060045461039390600160e81b900460ff1681565b60405160ff90911681526020016102b9565b3480156103b157600080fd5b506102af600c5481565b3480156103c757600080fd5b506102af60065481565b3480156103dd57600080fd5b506103196103ec366004614578565b611178565b3480156103fd57600080fd5b5060045461041890600160401b90046001600160a01b031681565b6040516001600160a01b0390911681526020016102b9565b34801561043c57600080fd5b5060015461044d9063ffffffff1681565b60405163ffffffff90911681526020016102b9565b34801561046e57600080fd5b5061048261047d366004614517565b611293565b6040516102b991906149b2565b34801561049b57600080fd5b5060045461039390600160e01b900460ff1681565b3480156104bc57600080fd5b506104d06104cb366004614578565b611302565b6040516102b9929190614a8d565b3480156104ea57600080fd5b50600754610514906001600160401b0380821691600160401b8104821691600160801b9091041683565b604080516001600160401b03948516815292841660208401529216918101919091526060016102b9565b34801561054a57600080fd5b506102af610559366004614517565b6000908152600b602052604090206003015490565b34801561057a57600080fd5b506102af61141b565b34801561058f57600080fd5b506105b361059e3660046143bb565b60096020526000908152604090205460ff1681565b60405190151581526020016102b9565b3480156105cf57600080fd5b5060045461044d9063ffffffff1681565b3480156105ec57600080fd5b506102af60085481565b34801561060257600080fd5b506102af6106113660046145b7565b61149d565b34801561062257600080fd5b5061033b610631366004614517565b600a602052600090815260409020805460049091015482565b34801561065657600080fd5b506105b3610665366004614517565b6115f8565b34801561067657600080fd5b506102af610685366004614899565b611673565b34801561069657600080fd5b50600d54610418906001600160a01b031681565b3480156106b657600080fd5b506106ca6106c5366004614517565b611d54565b6040516102b99190614b1b565b3480156106e357600080fd5b506106f76106f2366004614517565b6120e3565b6040516102b99190614a7a565b34801561071057600080fd5b506102af61071f366004614797565b612147565b34801561073057600080fd5b50600e54610418906001600160a01b031681565b34801561075057600080fd5b5060045463ffffffff166000908152600360205260409020546102af565b34801561077a57600080fd5b50610319610789366004614517565b612190565b34801561079a57600080fd5b506102af6107a9366004614517565b60036020526000908152604090205481565b3480156107c757600080fd5b506108166107d6366004614517565b600b602052600090815260409020805460038201546006909201549091906001600160401b0380821691600160401b8104821691600160801b9091041685565b6040805195865260208601949094526001600160401b03928316938501939093528116606084015216608082015260a0016102b9565b34801561085857600080fd5b5061031961086736600461452f565b61255a565b34801561087857600080fd5b506104187f000000000000000000000000000000000000000000000000000000000000000081565b3480156108ac57600080fd5b506103196108bb3660046143bb565b6125eb565b3480156108cc57600080fd5b506105b36108db3660046143bb565b600454600160401b90046001600160a01b0390811691161490565b34801561090257600080fd5b506004546105b390600160f01b900460ff1681565b34801561092357600080fd5b5061044d601481565b61031961093a3660046147f1565b612698565b34801561094b57600080fd5b506102af60005481565b34801561096157600080fd5b50610319610970366004614517565b613338565b34801561098157600080fd5b506102af610990366004614517565b60026020526000908152604090205481565b3480156109ae57600080fd5b50600554610418906001600160a01b031681565b3480156109ce57600080fd5b5060045461044d90640100000000900463ffffffff1681565b3480156109f357600080fd5b50610319610a02366004614768565b6137c3565b6000818152600b602052604090206005610a2083611d54565b6005811115610a3f57634e487b7160e01b600052602160045260246000fd5b14610a4957600080fd5b336000818152600483016020526040808220805490839055905190929183156108fc02918491818181858888f19350505050158015610a8c573d6000803e3d6000fd5b506040518190339085907f7ca5472b7ea78c2c0141c5a12ee6d170cf4ce8ed06be3d22c8252ddfc7a6a2c490600090a4505050565b6004546000908190600160f01b900460ff1615610b405760405162461bcd60e51b815260206004820152603260248201527f46756e644d616e616765723a20697320686176696e6720612066756e64696e6760448201527120726f756e6420696e2070726f677265737360701b60648201526084015b60405180910390fd5b600e54604051631dcb457360e11b8152600481018590526002916001600160a01b031690633b968ae69060240160206040518083038186803b158015610b8557600080fd5b505afa158015610b99573d6000803e3d6000fd5b505050506040513d601f19601f82011682018060405250810190610bbd91906145eb565b6003811115610bdc57634e487b7160e01b600052602160045260246000fd5b148015610c825750600e54604051630806d56f60e31b8152600481018590526000916001600160a01b031690634036ab789060240160206040518083038186803b158015610c2957600080fd5b505afa158015610c3d573d6000803e3d6000fd5b505050506040513d601f19601f82011682018060405250810190610c61919061460a565b6001811115610c8057634e487b7160e01b600052602160045260246000fd5b145b8015610d075750600e54604051630142b97960e71b8152600481018590526001600160a01b039091169063a15cbc809060240160206040518083038186803b158015610ccd57600080fd5b505afa158015610ce1573d6000803e3d6000fd5b505050506040513d601f19601f82011682018060405250810190610d059190614750565b155b610d535760405162461bcd60e51b815260206004820152601860248201527f46756e644d616e616765723a20496e76616c6964206b657900000000000000006044820152606401610b37565b600e546040516354a0585760e01b8152600481018590526000916001600160a01b0316906354a058579060240160206040518083038186803b158015610d9857600080fd5b505afa158015610dac573d6000803e3d6000fd5b505050506040513d601f19601f82011682018060405250810190610dd091906148bd565b90508060ff16600d60009054906101000a90046001600160a01b03166001600160a01b031663be1c766b6040518163ffffffff1660e01b815260040160206040518083038186803b158015610e2457600080fd5b505afa158015610e38573d6000803e3d6000fd5b505050506040513d601f19601f82011682018060405250810190610e5c9190614750565b1015610ee25760405162461bcd60e51b815260206004820152604960248201527f46756e644d616e616765723a205468652064696d656e73696f6e206f6620746860448201527f65206b657920646f6573206e6f74207361746973667920746865206e756d626560648201526872206f662044414f7360b81b608482015260a401610b37565b60008160ff166001600160401b03811115610f0d57634e487b7160e01b600052604160045260246000fd5b604051908082528060200260200182016040528015610f36578160200160208202803683370190505b50905060005b81518160ff16101561101d57600d60009054906101000a90046001600160a01b03166001600160a01b031663957908d16040518163ffffffff1660e01b8152600401602060405180830381600087803b158015610f9857600080fd5b505af1158015610fac573d6000803e3d6000fd5b505050506040513d601f19601f82011682018060405250810190610fd091906143de565b828260ff1681518110610ff357634e487b7160e01b600052603260045260246000fd5b6001600160a01b03909216602092830291909101909101528061101581614ebd565b915050610f3c565b50600c80546000818152600b6020526040812091965090916001916110428389614c28565b909155506110539050863087612147565b6000818152600a602052604081208881559195505b8460ff168160ff1610156110f557604080518082019091526000808252600160208084018290528186018054928301815583529091206110ac929101906002614028565b5060408051808201909152600080825260016020808401829052600280870180549384018155845292206110e293910191614028565b50806110ed81614ebd565b915050611068565b50848255825161110e9060018401906020860190614078565b506006820180546001600160401b03431667ffffffffffffffff199091161790556004805460ff60f01b1916600160f01b179055604051859087907f69cc3ae94fee808fb598be7e0f95a18e4b7dc07139a931befa6b884c7b63308290600090a350505050915091565b60006001600c546111899190614e47565b6000818152600b602052604090205490915060026111a683611d54565b60058111156111c557634e487b7160e01b600052602160045260246000fd5b14801561125d5750600e546040516303f949d160e61b8152600481018390526000916001600160a01b03169063fe5274409060240160006040518083038186803b15801561121257600080fd5b505afa158015611226573d6000803e3d6000fd5b505050506040513d6000823e601f3d908101601f1916820160405261124e9190810190614629565b60e001516001600160a01b0316145b1561128d576000611270848601866143fa565b8051909150831461128057600080fd5b805161128b90612190565b505b50505050565b6000818152600b60209081526040918290206001018054835181840281018401909452808452606093928301828280156112f657602002820191906000526020600020905b81546001600160a01b031681526001909101906020018083116112d8575b50505050509050919050565b6000606060006001600c546113179190614e47565b6000818152600b6020526040902054909150600261133483611d54565b600581111561135357634e487b7160e01b600052602160045260246000fd5b1480156113eb5750600e546040516303f949d160e61b8152600481018390526000916001600160a01b03169063fe5274409060240160006040518083038186803b1580156113a057600080fd5b505afa1580156113b4573d6000803e3d6000fd5b505050506040513d6000823e601f3d908101601f191682016040526113dc9190810190614629565b60e001516001600160a01b0316145b15611412576040805160208101849052600195500160405160208183030381529060405292505b50509250929050565b600d546040805163be1c766b60e01b815290516000926001600160a01b03169163be1c766b916004808301926020929190829003018186803b15801561146057600080fd5b505afa158015611474573d6000803e3d6000fd5b505050506040513d601f19601f820116820180604052508101906114989190614750565b905090565b6000600080516020614f5883398151915283106114fc5760405162461bcd60e51b815260206004820181905260248201527f5f6c6566742073686f756c6420626520696e7369646520746865206669656c646044820152606401610b37565b600080516020614f5883398151915282106115635760405162461bcd60e51b815260206004820152602160248201527f5f72696768742073686f756c6420626520696e7369646520746865206669656c6044820152601960fa1b6064820152608401610b37565b604080518082018252848152602081018490529051632b0aac7f60e11b81526001600160a01b0386169163561558fe916115a091906004016149ff565b60206040518083038186803b1580156115b857600080fd5b505afa1580156115cc573d6000803e3d6000fd5b505050506040513d601f19601f820116820180604052508101906115f09190614750565b949350505050565b60008161160757506000919050565b60045463ffffffff16805b63ffffffff8116600090815260036020526040902054841415611639575060019392505050565b63ffffffff8116611648575060145b8061165281614e5e565b9150508163ffffffff168163ffffffff161415611612575060009392505050565b600063ffffffff821661168857505060005490565b8163ffffffff16600114156116be57507f25b1cadac27e096a2b9f9526fb90e54420511d468b992f32154849b285fe5662919050565b8163ffffffff16600214156116f457507f0479eb565282199a0144d3c118df2bc328a1ffafefa20f9a184b5bd88383a436919050565b8163ffffffff166003141561172a57507f21d4c1db3d4d222a7929f89c45bb66039006e9f5de00ad9b7c3693a3b2b53be5919050565b8163ffffffff166004141561176057507f179336a006f9e52255d43b22c46f519e3ad13fd995a5dde05e59718a83f07ad2919050565b8163ffffffff166005141561179657507f18d0f373a3ef8b46e854b46b7c85e6dc15a5cf428452b5378aba430d3854c952919050565b8163ffffffff16600614156117cc57507f1721577f689e888d3f3b62f83876634c440da963a06e2fa64aab1f883a4f4027919050565b8163ffffffff166007141561180257507f12db2fa8caf1c44cb5eef530df8e04146bb58f00d969646fee1fb7ec4753e5ec919050565b8163ffffffff166008141561183857507f18155aae0da7042886ccdb6e5f26c3b38681a5b7dd63672781fc3aca3ae64329919050565b8163ffffffff166009141561186d57507e810c2ba8a72363a51e65332ca11321b7f2b9c8e853e040c37822762341e64c919050565b8163ffffffff16600a14156118a357507f138e35239c591673c3b890ec0fa1178cab7d8f7d8c7f7a0c8bf8513682bc432f919050565b8163ffffffff16600b14156118d957507f27716c6fbacdac3650e54163d9b772b809dfe4b5eafc42e11eb20173fdfda855919050565b8163ffffffff16600c141561190f57507f2e656892e101c19f0d84eba4729a8dff37701503d124a8a017c66e32def0428a919050565b8163ffffffff16600d141561194557507f18a099df16bfb30fb7a701a4f8a81d14f86ba164c2f36edd7bcda8859edef4e5919050565b8163ffffffff16600e141561197b57507f2cf5426675af64f465549de3c1e3c9d37a972292c407a34068706e4c2bda2e85919050565b8163ffffffff16600f14156119b157507f1f161c2b6c3cb2ba96b79bf40a241122114e753bfeeea2eb7dd524520a560034919050565b8163ffffffff16601014156119e757507f2616fb559eee609eb7a8fdcbf8342e257e643e2448e63e57e9766789ab9dcda8919050565b8163ffffffff1660111415611a1d57507f2dcabcec03c45467a56f1049f2f823d6b571cf2451ba9bb4b58aa9b9f4b97ee4919050565b8163ffffffff1660121415611a5357507f0e486e20cc0a454926d6e54e9e708c89be8b4323c9d433b82e8eeaa20698b1a4919050565b8163ffffffff1660131415611a8957507f2fa2fd053d2cb523abd48b8edbcf845294c3b61fcbf68e383fa3333a073d354e919050565b8163ffffffff1660141415611abf57507f296a754450d0bb6452e70a109a66e2b9f0ada22aaa6fc1226814b7ab29a1ef65919050565b8163ffffffff1660151415611af557507f1412fc765858b38747773c841ff3c55ba049a014602500b8ed15d05c1ac2194e919050565b8163ffffffff1660161415611b2b57507f2dda5102ce12a674c5f3150e66f99d1f0155a3e1b1fc5d46a1829a3926e3c517919050565b8163ffffffff1660171415611b6157507f0dd17790e10053c669ce3d42602a2e55764d1ac49f6675d6d2dd0b4679646872919050565b8163ffffffff1660181415611b9757507f200d910e885eb5b74c83e7b2b4ca8226603bc193a28213d78abdb1563b537bc6919050565b8163ffffffff1660191415611bcd57507f2863c25a37e67338575fedd094ee2a7632fc2a2e6eb1576a4b63649cc14ba6ca919050565b8163ffffffff16601a1415611c0357507f1dea70f9ddc9ff4a3503e7636361d555a35b05273d26c1df2b92612b28904ee0919050565b8163ffffffff16601b1415611c3957507f06c8d3c7f94f942a16320b90fb1380fc477a08ea3fd19e72c9606cfdf4da4e09919050565b8163ffffffff16601c1415611c6f57507f0d4830eadcf10257e542babcb8f51f43e697617c14e2755f15a8af97b5ef8405919050565b8163ffffffff16601d1415611ca557507f159d54738c2930b6f8499edc1bf764a876a1c8bf2f93e17d98e1f02703c31816919050565b8163ffffffff16601e1415611cdb57507f2de6697024a0b51b6240a26cd021fa8b53bd27046ab438d5035c1b0243191209919050565b8163ffffffff16601f1415611d1157507f2f0aeb3423ae82871eeb04b9d63cc55fe0ef8fcb8b5ffbafd6eb31e375f1d8d3919050565b60405162461bcd60e51b8152602060048201526013602482015272496e646578206f7574206f6620626f756e647360681b6044820152606401610b37565b919050565b6000600c548210611db35760405162461bcd60e51b815260206004820152602360248201527f46756e644d616e616765723a20696e76616c69642066756e64696e67526f756e60448201526219125160ea1b6064820152608401610b37565b6000828152600b6020908152604080832060068101549054808552600a8452828520835160a081018552815481526001820180548651818902810189019097528087526001600160401b03600160401b87048116999616979496929485810193929190879084015b82821015611e8757600084815260209081902083018054604080518285028101850190915281815292830182828015611e7357602002820191906000526020600020905b815481526020019060010190808311611e5f575b505050505081526020019060010190611e1b565b50505050815260200160028201805480602002602001604051908101604052809291908181526020016000905b82821015611f2057600084815260209081902083018054604080518285028101850190915281815292830182828015611f0c57602002820191906000526020600020905b815481526020019060010190808311611ef8575b505050505081526020019060010190611eb4565b50505050815260200160038201805480602002602001604051908101604052809291908181526020018280548015611f7757602002820191906000526020600020905b815481526020019060010190808311611f63575b505050918352505060049190910154602090910152600754909150600090611fa8906001600160401b031685614c68565b600754909150600090611fcb90600160401b90046001600160401b031683614c68565b600754909150600090611fee90600160801b90046001600160401b031683614c68565b90506001600160401b0387161561200e5750600498975050505050505050565b826001600160401b0316431161202d5750600098975050505050505050565b43836001600160401b031610801561204e5750816001600160401b03164311155b156120625750600198975050505050505050565b8360800151826001600160401b031610801561208b5750806001600160401b0316846080015111155b1561209f5750600398975050505050505050565b43826001600160401b03161080156120c05750806001600160401b03164311155b156120d45750600298975050505050505050565b50600598975050505050505050565b6000818152600a60209081526040918290206003018054835181840281018401909452808452606093928301828280156112f657602002820191906000526020600020905b8154815260200190600101908083116121285750505050509050919050565b6040805160208082019590955260609390931b6bffffffffffffffffffffffff191683820152605480840192909252805180840390920182526074909201909152805191012090565b6000818152600b602052604090205460026121aa83611d54565b60058111156121c957634e487b7160e01b600052602160045260246000fd5b1480156122625750600e546040516303f949d160e61b8152600481018390526000916001600160a01b03169063fe5274409060240160006040518083038186803b15801561221657600080fd5b505afa15801561222a573d6000803e3d6000fd5b505050506040513d6000823e601f3d908101601f191682016040526122529190810190614629565b61010001516001600160a01b0316145b80156122fa5750600e546040516303f949d160e61b8152600481018390526000916001600160a01b03169063fe5274409060240160006040518083038186803b1580156122ae57600080fd5b505afa1580156122c2573d6000803e3d6000fd5b505050506040513d6000823e601f3d908101601f191682016040526122ea9190810190614629565b61012001516001600160a01b0316145b61230357600080fd5b6000818152600a60209081526040808320815160a081018352815481526001820180548451818702810187019095528085529194929385840193909290879084015b828210156123b15760008481526020908190208301805460408051828502810185019091528181529283018282801561239d57602002820191906000526020600020905b815481526020019060010190808311612389575b505050505081526020019060010190612345565b50505050815260200160028201805480602002602001604051908101604052809291908181526020016000905b8282101561244a5760008481526020908190208301805460408051828502810185019091528181529283018282801561243657602002820191906000526020600020905b815481526020019060010190808311612422575b5050505050815260200190600101906123de565b505050508152602001600382018054806020026020016040519081016040528092919081815260200182805480156124a157602002820191906000526020600020905b81548152602001906001019080831161248d575b5050509183525050600491820154602091820152600e548351918401516040808601519051634da58de760e01b81529596506001600160a01b0390921694634da58de7946124f6948994909392909101614aea565b600060405180830381600087803b15801561251057600080fd5b505af1158015612524573d6000803e3d6000fd5b50506040518492508591507fe5ea7fbe8a3e198ce231fae8d318b3eb55b197466be732eca44b997994599dc590600090a3505050565b600e546001600160a01b0316331461257157600080fd5b6000838152600a6020526040902060048101541561258e57600080fd5b61259c6003820184846140cd565b504360048201556040516125b39084908490614988565b6040519081900381209085907fba9c3c075e9ab8061b59afdd34a7649bd25a4787c6a41cfb72191a0a657d2b2b90600090a350505050565b6005546001600160a01b0316331461260257600080fd5b600d54604051638f807f6b60e01b81526001600160a01b03838116600483015290911690638f807f6b90602401600060405180830381600087803b15801561264957600080fd5b505af115801561265d573d6000803e3d6000fd5b50506040516001600160a01b03841692507fe6c82cd98165a62492df0be36fee1a6cb3634b5c8e5d347d0b403bf63fb3392c9150600090a250565b6000888152600b6020526040902060016126b18a611d54565b60058111156126d057634e487b7160e01b600052602160045260246000fd5b1461272d5760405162461bcd60e51b815260206004820152602760248201527f46756e644d616e616765723a2046756e64696e67526f756e64206973206e6f746044820152662061637469766560c81b6064820152608401610b37565b80546000908152600a6020526040808220600e54815492516354a0585760e01b81529193926001600160a01b03909116916354a05857916127749160040190815260200190565b60206040518083038186803b15801561278c57600080fd5b505afa1580156127a0573d6000803e3d6000fd5b505050506040513d601f19601f820116820180604052508101906127c491906148bd565b905060ff8116881480156127da575060ff811686145b6128305760405162461bcd60e51b815260206004820152602160248201527f46756e644d616e616765723a20696e76616c696420696e707574206c656e67746044820152600d60fb1b6064820152608401610b37565b600e548254604051633561bc2760e01b815260048101919091526000916001600160a01b031690633561bc279060240160206040518083038186803b15801561287857600080fd5b505afa15801561288c573d6000803e3d6000fd5b505050506040513d601f19601f820116820180604052508101906128b091906143de565b90506000816001600160a01b0316639447d8936040518163ffffffff1660e01b815260040160206040518083038186803b1580156128ed57600080fd5b505afa158015612901573d6000803e3d6000fd5b505050506040513d601f19601f820116820180604052508101906129259190614750565b6001600160401b0381111561294a57634e487b7160e01b600052604160045260246000fd5b604051908082528060200260200182016040528015612973578160200160208202803683370190505b50600e548554604051633ae960e760e11b815260048101919091529192506001600160a01b0316906375d2c1ce90602401604080518083038186803b1580156129bb57600080fd5b505afa1580156129cf573d6000803e3d6000fd5b505050506040513d601f19601f820116820180604052508101906129f391906147ce565b82600081518110612a1457634e487b7160e01b600052603260045260246000fd5b6020026020010183600181518110612a3c57634e487b7160e01b600052603260045260246000fd5b6020908102919091010191909152523481612a58856002614c8a565b60ff1681518110612a7957634e487b7160e01b600052603260045260246000fd5b60209081029190910101528b81612a91856003614c8a565b60ff1681518110612ab257634e487b7160e01b600052603260045260246000fd5b60200260200101818152505060005b8360ff168160ff161015612e2c57856001018160ff1681548110612af557634e487b7160e01b600052603260045260246000fd5b6000918252602090912001546001600160a01b031682612b16836002614c8a565b60ff1681518110612b3757634e487b7160e01b600052603260045260246000fd5b6020026020010181815250508b8b8260ff16818110612b6657634e487b7160e01b600052603260045260246000fd5b9050602002810190612b789190614b43565b6000818110612b9757634e487b7160e01b600052603260045260246000fd5b9050602002013582826002612bac9190614e26565b612bb7876004614c8a565b612bc19190614c8a565b60ff1681518110612be257634e487b7160e01b600052603260045260246000fd5b6020026020010181815250508b8b8260ff16818110612c1157634e487b7160e01b600052603260045260246000fd5b9050602002810190612c239190614b43565b6001818110612c4257634e487b7160e01b600052603260045260246000fd5b9050602002013582826002612c579190614e26565b612c62876004614c8a565b612c6c9190614c8a565b612c77906001614c8a565b60ff1681518110612c9857634e487b7160e01b600052603260045260246000fd5b60200260200101818152505089898260ff16818110612cc757634e487b7160e01b600052603260045260246000fd5b9050602002810190612cd99190614b43565b6000818110612cf857634e487b7160e01b600052603260045260246000fd5b9050602002013582826002612d0d9190614e26565b612d18876003614e26565b612d23906004614c8a565b612d2d9190614c8a565b60ff1681518110612d4e57634e487b7160e01b600052603260045260246000fd5b60200260200101818152505089898260ff16818110612d7d57634e487b7160e01b600052603260045260246000fd5b9050602002810190612d8f9190614b43565b6001818110612dae57634e487b7160e01b600052603260045260246000fd5b9050602002013582826002612dc39190614e26565b612dce876003614e26565b612dd9906004614c8a565b612de39190614c8a565b612dee906001614c8a565b60ff1681518110612e0f57634e487b7160e01b600052603260045260246000fd5b602090810291909101015280612e2481614ebd565b915050612ac1565b50612e3982888884613931565b612e4257600080fd5b60005b8360ff168160ff16101561329457612fc7856001018260ff1681548110612e7c57634e487b7160e01b600052603260045260246000fd5b90600052602060002001600081548110612ea657634e487b7160e01b600052603260045260246000fd5b9060005260206000200154866001018360ff1681548110612ed757634e487b7160e01b600052603260045260246000fd5b90600052602060002001600181548110612f0157634e487b7160e01b600052603260045260246000fd5b90600052602060002001548e8e8560ff16818110612f2f57634e487b7160e01b600052603260045260246000fd5b9050602002810190612f419190614b43565b6000818110612f6057634e487b7160e01b600052603260045260246000fd5b905060200201358f8f8660ff16818110612f8a57634e487b7160e01b600052603260045260246000fd5b9050602002810190612f9c9190614b43565b6001818110612fbb57634e487b7160e01b600052603260045260246000fd5b90506020020135613c36565b866001018360ff1681548110612fed57634e487b7160e01b600052603260045260246000fd5b9060005260206000200160008154811061301757634e487b7160e01b600052603260045260246000fd5b906000526020600020016000886001018560ff168154811061304957634e487b7160e01b600052603260045260246000fd5b9060005260206000200160018154811061307357634e487b7160e01b600052603260045260246000fd5b9060005260206000200160008491905055839190505550506131c2856002018260ff16815481106130b457634e487b7160e01b600052603260045260246000fd5b906000526020600020016000815481106130de57634e487b7160e01b600052603260045260246000fd5b9060005260206000200154866002018360ff168154811061310f57634e487b7160e01b600052603260045260246000fd5b9060005260206000200160018154811061313957634e487b7160e01b600052603260045260246000fd5b90600052602060002001548c8c8560ff1681811061316757634e487b7160e01b600052603260045260246000fd5b90506020028101906131799190614b43565b600081811061319857634e487b7160e01b600052603260045260246000fd5b905060200201358d8d8660ff16818110612f8a57634e487b7160e01b600052603260045260246000fd5b866002018360ff16815481106131e857634e487b7160e01b600052603260045260246000fd5b9060005260206000200160008154811061321257634e487b7160e01b600052603260045260246000fd5b906000526020600020016000886002018560ff168154811061324457634e487b7160e01b600052603260045260246000fd5b9060005260206000200160018154811061326e57634e487b7160e01b600052603260045260246000fd5b60009182526020909120019290925591909155508061328c81614ebd565b915050612e45565b50600285018054600181018255600091825260208220018d90556003860180543492906132c2908490614c28565b9091555050336000908152600486016020526040812080543492906132e8908490614c28565b9091555050604080513381523460208201528d918f917f9a98994924b3f454e430a7e3c884aa145467ff2913f30a4b4c428a25797c7975910160405180910390a350505050505050505050505050565b6000818152600b6020908152604080832080548452600a8352818420825160a08101845281548152600182018054855181880281018801909652808652939695919492938583019392879084015b828210156133f2576000848152602090819020830180546040805182850281018501909152818152928301828280156133de57602002820191906000526020600020905b8154815260200190600101908083116133ca575b505050505081526020019060010190613386565b50505050815260200160028201805480602002602001604051908101604052809291908181526020016000905b8282101561348b5760008481526020908190208301805460408051828502810185019091528181529283018282801561347757602002820191906000526020600020905b815481526020019060010190808311613463575b50505050508152602001906001019061341f565b505050508152602001600382018054806020026020016040519081016040528092919081815260200182805480156134e257602002820191906000526020600020905b8154815260200190600101908083116134ce575b5050509183525050600491909101546020909101529050600561350484611d54565b600581111561352357634e487b7160e01b600052602160045260246000fd5b14801561354257506006820154600160801b90046001600160401b0316155b156135b95760068201805467ffffffffffffffff60801b1916600160801b436001600160401b03160217905561357c600283016000614108565b6004805460ff60f01b1916905560405183907fce78e8b68cfb43df28f5df357839320a629b918ec15f829de39b465484aa132290600090a2505050565b60036135c484611d54565b60058111156135e357634e487b7160e01b600052602160045260246000fd5b141561027d5760005b60028301548110156136a657600061363084600201838154811061362057634e487b7160e01b600052603260045260246000fd5b9060005260206000200154613d84565b905083600201828154811061365557634e487b7160e01b600052603260045260246000fd5b90600052602060002001548163ffffffff167fe6feaf86f7be78c4928296db428cc35d7bf8f31e386692bcb1476c136409325860405160405180910390a3508061369e81614e7e565b9150506135ec565b5060005b600183015460ff8216101561374b5781606001518160ff16815181106136e057634e487b7160e01b600052603260045260246000fd5b6020026020010151836005016000856001018460ff168154811061371457634e487b7160e01b600052603260045260246000fd5b60009182526020808320909101546001600160a01b031683528201929092526040019020558061374381614ebd565b9150506136aa565b5061375a600283016000614108565b6006820180546fffffffffffffffff00000000000000001916600160401b436001600160401b0316021790556004805460ff60f01b1916905560405183907fdfc0d09a0d21bb5754e9804835ad83094766e71d34d3262cc22626eb46dd240890600090a2505050565b6000828152600b6020526040902060046137dc84611d54565b60058111156137fb57634e487b7160e01b600052602160045260246000fd5b1461380557600080fd5b6001600160a01b038216600090815260058201602052604090205461382957600080fd5b6006546001600160a01b03831660009081526005830160205260408120549091670de0b6b3a76400009161385d9190614e07565b6138679190614caf565b9050806008600082825461387b9190614c28565b90915550506001600160a01b03831660009081526005830160205260408120546138a6908390614e47565b6001600160a01b038516600081815260058601602052604080822082905551929350909183156108fc0291849190818181858888f193505050501580156138f1573d6000803e3d6000fd5b5080846001600160a01b0316867fc6599d8ce01018a10d21f37548363437d3442ffa356b6d82c14b48dda99f6a7460405160405180910390a45050505050565b6000846001600160a01b0316639447d8936040518163ffffffff1660e01b815260040160206040518083038186803b15801561396c57600080fd5b505afa158015613980573d6000803e3d6000fd5b505050506040513d601f19601f820116820180604052508101906139a49190614750565b8251146139b057600080fd5b60006139be84860186614479565b905060005b60088160ff161015613a82577f30644e72e131a029b85045b68181585d97816a916871ca8d3c208c16d87cfd47828260ff1660088110613a1357634e487b7160e01b600052603260045260246000fd5b602002015110613a705760405162461bcd60e51b815260206004820152602260248201527f76657269666965722d70726f6f662d656c656d656e742d6774652d7072696d656044820152612d7160f01b6064820152608401610b37565b80613a7a81614ebd565b9150506139c3565b50856001600160a01b031663c32e370e604051806040016040528084600060088110613abe57634e487b7160e01b600052603260045260246000fd5b6020020151815260200184600160088110613ae957634e487b7160e01b600052603260045260246000fd5b6020020151905260408051608081018252858201519181019182529081906060820187600360200201518152508152602001604051806040016040528087600460088110613b4757634e487b7160e01b600052603260045260246000fd5b6020020151815260200187600560088110613b7257634e487b7160e01b600052603260045260246000fd5b60200201519052905260408051808201909152808660066020020151815260200186600760088110613bb457634e487b7160e01b600052603260045260246000fd5b6020020151815250876040518563ffffffff1660e01b8152600401613bdc9493929190614a0d565b60206040518083038186803b158015613bf457600080fd5b505afa158015613c08573d6000803e3d6000fd5b505050506040513d601f19601f82011682018060405250810190613c2c91906144fd565b9695505050505050565b60008085158015613c45575084155b15613c54575082905081613d7b565b83158015613c60575084155b15613c6f575084905083613d7b565b6000600080516020614f5883398151915285880990506000600080516020614f5883398151915285880990506000600080516020614f5883398151915280838509620292f80990506000600080516020614f5883398151915280898b09600080516020614f58833981519152898d090890506000613d1084600080516020614f5883398151915287620292fc09600080516020614f58833981519152613f62565b9050600080516020614f58833981519152613d3c600080516020614f5883398151915285600108613fab565b83099650600080516020614f58833981519152613d71613d6c600186600080516020614f58833981519152613f62565b613fab565b8209955050505050505b94509492505050565b60045460015463ffffffff640100000000909204821691613da791166002614d2b565b63ffffffff168163ffffffff161415613e1b5760405162461bcd60e51b815260206004820152603060248201527f4d65726b6c6520747265652069732066756c6c2e204e6f206d6f7265206c656160448201526f1d995cc818d85b88189948185919195960821b6064820152608401610b37565b8082600080805b60015463ffffffff9081169082161015613ede57613e41600286614edd565b63ffffffff16613e7657839250613e5781611673565b63ffffffff821660009081526002602052604090208590559150613e92565b63ffffffff811660009081526002602052604090205492508391505b613ebd7f0000000000000000000000000000000000000000000000000000000000000000848461149d565b9350613eca600286614cc3565b945080613ed681614e99565b915050613e22565b50600454600090601490613ef99063ffffffff166001614c40565b613f039190614edd565b6004805463ffffffff191663ffffffff831690811790915560009081526003602052604090208590559050613f39866001614c40565b6004806101000a81548163ffffffff021916908363ffffffff1602179055505050505050919050565b600083838111613f7957613f768382614c28565b90505b8280613f9557634e487b7160e01b600052601260045260246000fd5b6000613fa18684614e47565b0895945050505050565b6000613fde82613fca6002600080516020614f58833981519152614e47565b600080516020614f58833981519152613fe4565b92915050565b600060405160208152602080820152602060408201528460608201528360808201528260a082015260208160c08360055afa80801561027d57505051949350505050565b828054828255906000526020600020908101928215614068579160200282015b82811115614068578251829060ff16905591602001919060010190614048565b50614074929150614129565b5090565b828054828255906000526020600020908101928215614068579160200282015b8281111561406857825182546001600160a01b0319166001600160a01b03909116178255602090920191600190910190614098565b828054828255906000526020600020908101928215614068579160200282015b828111156140685782358255916020019190600101906140ed565b50805460008255906000526020600020908101906141269190614129565b50565b5b80821115614074576000815560010161412a565b8051611d4f81614f42565b60008083601f84011261415a578182fd5b5081356001600160401b03811115614170578182fd5b6020830191508360208260051b850101111561418b57600080fd5b9250929050565b600082601f8301126141a2578081fd5b815160206141b76141b283614c05565b614bd5565b82815281810190858301600585811b880185018910156141d5578687fd5b865b8681101561426d5782516001600160401b038111156141f4578889fd5b8901603f81018b13614204578889fd5b8681015160406142166141b283614c05565b808382528a820191508285018f84868a1b8801011115614234578d8efd5b8d95505b84861015614256578051835260019590950194918b01918b01614238565b5089525050509486019450918501916001016141d7565b509198975050505050505050565b600082601f83011261428b578081fd5b8151602061429b6141b283614c05565b80838252828201915082860187848660051b89010111156142ba578586fd5b855b8581101561433f5781516001600160401b03808211156142da578889fd5b908901906040828c03601f19018113156142f257898afd5b6142fa614b8a565b6143058985016143aa565b8152908301519082821115614318578a8bfd5b6143268d8a84870101614192565b818a0152875250505092840192908401906001016142bc565b5090979650505050505050565b80518015158114611d4f57600080fd5b60008083601f84011261436d578182fd5b5081356001600160401b03811115614383578182fd5b60208301915083602082850101111561418b57600080fd5b805160038110611d4f57600080fd5b805160ff81168114611d4f57600080fd5b6000602082840312156143cc578081fd5b81356143d781614f42565b9392505050565b6000602082840312156143ef578081fd5b81516143d781614f42565b6000602080838503121561440c578182fd5b83601f84011261441a578182fd5b6040518181018181106001600160401b038211171561443b5761443b614f2c565b604052808483810187101561444e578485fd5b845b600181101561446d57813583529184019190840190600101614450565b50919695505050505050565b600061010080838503121561448c578182fd5b83601f84011261449a578182fd5b6040518181018181106001600160401b03821117156144bb576144bb614f2c565b60405280848381018710156144ce578485fd5b8493505b60088410156144f2578035825260019390930192602091820191016144d2565b509095945050505050565b60006020828403121561450e578081fd5b6143d78261434c565b600060208284031215614528578081fd5b5035919050565b600080600060408486031215614543578182fd5b8335925060208401356001600160401b0381111561455f578283fd5b61456b86828701614149565b9497909650939450505050565b6000806020838503121561458a578182fd5b82356001600160401b0381111561459f578283fd5b6145ab8582860161435c565b90969095509350505050565b6000806000606084860312156145cb578081fd5b83356145d681614f42565b95602085013595506040909401359392505050565b6000602082840312156145fc578081fd5b8151600481106143d7578182fd5b60006020828403121561461b578081fd5b8151600281106143d7578182fd5b60006020828403121561463a578081fd5b81516001600160401b0380821115614650578283fd5b908301906101408286031215614664578283fd5b61466c614bb2565b82518152602083015182811115614681578485fd5b61468d87828601614192565b6020830152506040830151828111156146a4578485fd5b6146b087828601614192565b6040830152506146c26060840161439b565b60608201526080830151828111156146d8578485fd5b6146e48782860161427b565b6080830152506146f660a084016143aa565b60a082015261470760c0840161434c565b60c082015261471860e0840161413e565b60e0820152610100915061472d82840161413e565b82820152610120915061474182840161413e565b91810191909152949350505050565b600060208284031215614761578081fd5b5051919050565b6000806040838503121561477a578182fd5b82359150602083013561478c81614f42565b809150509250929050565b6000806000606084860312156147ab578081fd5b8335925060208401356147bd81614f42565b929592945050506040919091013590565b600080604083850312156147e0578182fd5b505080516020909101519092909150565b60008060008060008060008060a0898b03121561480c578586fd5b883597506020890135965060408901356001600160401b0380821115614830578788fd5b61483c8c838d01614149565b909850965060608b0135915080821115614854578586fd5b6148608c838d01614149565b909650945060808b0135915080821115614878578384fd5b506148858b828c0161435c565b999c989b5096995094979396929594505050565b6000602082840312156148aa578081fd5b813563ffffffff811681146143d7578182fd5b6000602082840312156148ce578081fd5b6143d7826143aa565b600081518084526020808501808196508360051b81019150828601855b8581101561491e57828403895261490c84835161494e565b988501989350908401906001016148f4565b5091979650505050505050565b8060005b600281101561128d57815184526020938401939091019060010161492f565b6000815180845260208085019450808401835b8381101561497d57815187529582019590820190600101614961565b509495945050505050565b60006001600160fb1b0383111561499d578081fd5b8260051b808584379190910190815292915050565b6020808252825182820181905260009190848201906040850190845b818110156149f35783516001600160a01b0316835292840192918401916001016149ce565b50909695505050505050565b60408101613fde828461492b565b6000610120614a1c838861492b565b604080840187845b6002811015614a4b57614a3883835161492b565b9183019160209190910190600101614a24565b50505050614a5c60c084018661492b565b80610100840152614a6f8184018561494e565b979650505050505050565b6020815260006143d7602083018461494e565b8215158152600060206040818401528351806040850152825b81811015614ac257858101830151858201606001528201614aa6565b81811115614ad35783606083870101525b50601f01601f191692909201606001949350505050565b848152836020820152608060408201526000614b0960808301856148d7565b8281036060840152614a6f81856148d7565b6020810160068310614b3d57634e487b7160e01b600052602160045260246000fd5b91905290565b6000808335601e19843603018112614b59578283fd5b8301803591506001600160401b03821115614b72578283fd5b6020019150600581901b360382131561418b57600080fd5b604080519081016001600160401b0381118282101715614bac57614bac614f2c565b60405290565b60405161014081016001600160401b0381118282101715614bac57614bac614f2c565b604051601f8201601f191681016001600160401b0381118282101715614bfd57614bfd614f2c565b604052919050565b60006001600160401b03821115614c1e57614c1e614f2c565b5060051b60200190565b60008219821115614c3b57614c3b614f00565b500190565b600063ffffffff808316818516808303821115614c5f57614c5f614f00565b01949350505050565b60006001600160401b03808316818516808303821115614c5f57614c5f614f00565b600060ff821660ff84168060ff03821115614ca757614ca7614f00565b019392505050565b600082614cbe57614cbe614f16565b500490565b600063ffffffff80841680614cda57614cda614f16565b92169190910492915050565b600181815b80851115614d23578163ffffffff04821115614d0957614d09614f00565b80851615614d1657918102915b93841c9390800290614ceb565b509250929050565b600063ffffffff6115f0818516828516600082614d4a57506001613fde565b81614d5757506000613fde565b8160018114614d6d5760028114614d7757614da8565b6001915050613fde565b60ff841115614d8857614d88614f00565b6001841b915063ffffffff821115614da257614da2614f00565b50613fde565b5060208310610133831016604e8410600b8410161715614ddf575081810a63ffffffff811115614dda57614dda614f00565b613fde565b614de98383614ce6565b8063ffffffff04821115614dff57614dff614f00565b029392505050565b6000816000190483118215151615614e2157614e21614f00565b500290565b600060ff821660ff84168160ff0481118215151615614dff57614dff614f00565b600082821015614e5957614e59614f00565b500390565b600063ffffffff821680614e7457614e74614f00565b6000190192915050565b6000600019821415614e9257614e92614f00565b5060010190565b600063ffffffff80831681811415614eb357614eb3614f00565b6001019392505050565b600060ff821660ff811415614ed457614ed4614f00565b60010192915050565b600063ffffffff80841680614ef457614ef4614f16565b92169190910692915050565b634e487b7160e01b600052601160045260246000fd5b634e487b7160e01b600052601260045260246000fd5b634e487b7160e01b600052604160045260246000fd5b6001600160a01b038116811461412657600080fdfe30644e72e131a029b85045b68181585d2833e84879b9709143e1f593f0000001a2646970667358221220ddaea57bf0e2e0d113fa9b8f4b7b6473819db4520dc03894acef05c6ae281b4464736f6c6343000804003360806040526001600255600060035534801561001a57600080fd5b506040516103e93803806103e983398101604081905261003991610053565b600455600080546001600160a01b0319163317905561006b565b600060208284031215610064578081fd5b5051919050565b61036f8061007a6000396000f3fe608060405234801561001057600080fd5b50600436106100885760003560e01c8063957908d11161005b578063957908d1146100f2578063be1c766b146100fa578063d06a89a414610102578063f0ba84401461010b57600080fd5b80633df4ddf41461008d57806347799da8146100a95780638da5cb5b146100b25780638f807f6b146100dd575b600080fd5b61009660025481565b6040519081526020015b60405180910390f35b61009660035481565b6000546100c5906001600160a01b031681565b6040516001600160a01b0390911681526020016100a0565b6100f06100eb366004610293565b610134565b005b6100c56101fc565b610096610270565b61009660045481565b6100c56101193660046102c1565b6001602052600090815260409020546001600160a01b031681565b6000546001600160a01b0316331461014b57600080fd5b600454610156610270565b6101619060016102d9565b111561016c57600080fd5b6002545b60035481116101b2576000818152600160205260409020546001600160a01b03838116911614156101a057600080fd5b806101aa81610308565b915050610170565b506001600360008282546101c691906102d9565b9091555050600354600090815260016020526040902080546001600160a01b0319166001600160a01b0392909216919091179055565b600080546001600160a01b0316331461021457600080fd5b600254600354101561022557600080fd5b50600280546000908152600160208190526040822080546001600160a01b0319811690915583546001600160a01b03909116939192906102669084906102d9565b9250508190555090565b6000600254600354600161028491906102d9565b61028e91906102f1565b905090565b6000602082840312156102a4578081fd5b81356001600160a01b03811681146102ba578182fd5b9392505050565b6000602082840312156102d2578081fd5b5035919050565b600082198211156102ec576102ec610323565b500190565b60008282101561030357610303610323565b500390565b600060001982141561031c5761031c610323565b5060010190565b634e487b7160e01b600052601160045260246000fdfea2646970667358221220a4031f6f2373c2fc868dd0883ee628035483935cd6f2b844a3fb31ee8a7d7ff464736f6c6343000804003360806040523480156200001157600080fd5b506040516200568b3803806200568b833981016040819052620000349162000165565b60008054336001600160a01b031991821617825582516004805483166001600160a01b039283161790556020808501516003909452600581527fa9bc9a3a348c357ba16b37005d7e6b3236198c0e939f4af8c5f19b8deeb8ebc080548416948316949094179093556040840151600684527f75f96ab15d697e93042dc45b5c896c4b27e89bb6eaf39475c5c371cb2513f7d2805484169183169190911790556060840151600784527f3be6fd20d5acfde5b873b48692cd31f4d3c7e8ee8a813af4696af8859e5ca6c68054841691831691909117905560809093015160089092527f625b35f5e76f098dd7c3a05b10e2e5e78a4a01228d60c3b143426cdf36d2645580549091169190921617905562000209565b80516001600160a01b03811681146200016057600080fd5b919050565b600060a0828403121562000177578081fd5b60405160a081016001600160401b0381118282101715620001a657634e487b7160e01b83526041600452602483fd5b604052620001b48362000148565b8152620001c46020840162000148565b6020820152620001d76040840162000148565b6040820152620001ea6060840162000148565b6060820152620001fd6080840162000148565b60808201529392505050565b61547280620002196000396000f3fe608060405234801561001057600080fd5b50600436106101cf5760003560e01c806375d2c1ce1161010457806392cab566116100a2578063e9d6db8c11610071578063e9d6db8c1461053c578063f17de9ee1461055c578063fe52744014610585578063fffa96ae146105a557600080fd5b806392cab566146104c7578063a15cbc80146104d0578063c2d96bcf146104f3578063db6316261461051357600080fd5b8063887a3163116100de578063887a31631461046157806388ccc084146104745780638d3ce2bd146104945780638da5cb5b146104b457600080fd5b806375d2c1ce146103b35780638138007d146103db57806387f895f41461044e57600080fd5b806344dfe1081161017157806355cd25f01161014b57806355cd25f01461035957806359295eaa1461037a5780636b724edb1461038d578063755ff330146103a057600080fd5b806344dfe108146102ec5780634da58de71461030c57806354a058571461031f57600080fd5b80632b708dee116101ad5780632b708dee146102425780633561bc271461026b5780633b968ae61461029c5780634036ab78146102bc57600080fd5b806316a795c8146101d45780631e0a9fac146101e9578063220bbbb9146101fc575b600080fd5b6101e76101e23660046149db565b610621565b005b6101e76101f7366004614b93565b610f28565b61022561020a3660046149c3565b6007602052600090815260409020546001600160a01b031681565b6040516001600160a01b0390911681526020015b60405180910390f35b6102256102503660046149c3565b6006602052600090815260409020546001600160a01b031681565b6102256102793660046149c3565b60009081526002602052604090205464010000000090046001600160a01b031690565b6102af6102aa3660046149c3565b611e96565b6040516102399190614fb9565b6102df6102ca3660046149c3565b60009081526002602052604090205460ff1690565b6040516102399190614fd3565b6102ff6102fa3660046149c3565b611f6d565b6040516102399190614dd3565b6101e761031a366004614ac9565b61201c565b61034761032d3660046149c3565b600090815260026020526040902054610100900460ff1690565b60405160ff9091168152602001610239565b61036c610367366004614c12565b612154565b604051908152602001610239565b6101e7610388366004614a7f565b6124d2565b600454610225906001600160a01b031681565b6102ff6103ae3660046149c3565b612e8f565b6103c66103c13660046149c3565b612f33565b60408051928352602083019190915201610239565b61043b6103e93660046149c3565b60036020819052600091825260409091208054918101546005820154600683015460079093015460ff9283169382841693610100840416926001600160a01b0362010000909104811692918116911687565b60405161023997969594939291906151b9565b61034761045c366004614b54565b612f8b565b61034761046f3660046148e9565b613451565b6104876104823660046149c3565b6136e2565b6040516102399190614ef7565b6104a76104a23660046149c3565b6137e9565b6040516102399190614de6565b600054610225906001600160a01b031681565b61036c60015481565b61036c6104de3660046149c3565b60009081526002602052604090206005015490565b6105066105013660046149c3565b61391d565b6040516102399190615032565b6102256105213660046149c3565b6008602052600090815260409020546001600160a01b031681565b61054f61054a366004614bd2565b613cb0565b6040516102399190614e8f565b61022561056a3660046149c3565b6005602052600090815260409020546001600160a01b031681565b6105986105933660046149c3565b613d87565b60405161023991906150c9565b61060d6105b33660046149c3565b6002602081905260009182526040909120805460018201549282015460059092015460ff80831694610100840482169462010000850483169463010000008104909316936401000000009093046001600160a01b03169288565b604051610239989796959493929190614fe1565b6000858152600360205260409020600161063a8761391d565b600281111561065957634e487b7160e01b600052602160045260246000fd5b1461066357600080fd5b805460009081526002602052604080822080548354835163091d8bc560e21b81528451939561010090930460ff169492936001600160a01b03909216926324762f1492600480840193829003018186803b1580156106c057600080fd5b505afa1580156106d4573d6000803e3d6000fd5b505050506040513d601f19601f820116820180604052508101906106f89190614c42565b50905060008460070160009054906101000a90046001600160a01b03166001600160a01b0316639447d8936040518163ffffffff1660e01b815260040160206040518083038186803b15801561074d57600080fd5b505afa158015610761573d6000803e3d6000fd5b505050506040513d601f19601f820116820180604052508101906107859190614b3c565b6001600160401b038111156107aa57634e487b7160e01b600052604160045260246000fd5b6040519080825280602002602001820160405280156107d3578160200160208202803683370190505b509050600085600401805480602002602001604051908101604052809291908181526020016000905b828210156108cb576000848152602080822060408051808201825260028702909201805460ff168352600181018054835181870281018701909452808452939591948681019491929084015b828210156108b4576000848152602090819020830180546040805182850281018501909152818152928301828280156108a057602002820191906000526020600020905b81548152602001906001019080831161088c575b505050505081526020019060010190610848565b5050505081525050815260200190600101906107fc565b505050509050600086600201805480602002602001604051908101604052809291908181526020016000905b828210156109635760008481526020908190208301805460408051828502810185019091528181529283018282801561094f57602002820191906000526020600020905b81548152602001906001019080831161093b575b5050505050815260200190600101906108f7565b50505050905060005b8460ff168160ff161015610be557828160ff168151811061099d57634e487b7160e01b600052603260045260246000fd5b60200260200101516000015160ff16848260ff16815181106109cf57634e487b7160e01b600052603260045260246000fd5b60200260200101818152505060005b8660ff168160ff161015610bd257838260ff1681518110610a0f57634e487b7160e01b600052603260045260246000fd5b6020026020010151602001518160ff1681518110610a3d57634e487b7160e01b600052603260045260246000fd5b6020026020010151600081518110610a6557634e487b7160e01b600052603260045260246000fd5b602002602001015185826002610a7b9190615320565b610a858a86615320565b610a90906002615320565b610a9a908a6152fb565b610aa491906152fb565b60ff1681518110610ac557634e487b7160e01b600052603260045260246000fd5b602002602001018181525050838260ff1681518110610af457634e487b7160e01b600052603260045260246000fd5b6020026020010151602001518160ff1681518110610b2257634e487b7160e01b600052603260045260246000fd5b6020026020010151600181518110610b4a57634e487b7160e01b600052603260045260246000fd5b602002602001015185826002610b609190615320565b610b6a8a86615320565b610b75906002615320565b610b7f908a6152fb565b610b8991906152fb565b610b949060016152fb565b60ff1681518110610bb557634e487b7160e01b600052603260045260246000fd5b602090810291909101015280610bca816153ab565b9150506109de565b5080610bdd816153ab565b91505061096c565b5060005b8560ff168160ff161015610e1a57818160ff1681518110610c1a57634e487b7160e01b600052603260045260246000fd5b6020026020010151600081518110610c4257634e487b7160e01b600052603260045260246000fd5b602002602001015184826002610c589190615320565b610c628989615320565b610c6d906002615320565b610c7790896152fb565b610c8191906152fb565b60ff1681518110610ca257634e487b7160e01b600052603260045260246000fd5b602002602001018181525050818160ff1681518110610cd157634e487b7160e01b600052603260045260246000fd5b6020026020010151600181518110610cf957634e487b7160e01b600052603260045260246000fd5b602002602001015184826002610d0f9190615320565b610d198989615320565b610d24906002615320565b610d2e90896152fb565b610d3891906152fb565b610d439060016152fb565b60ff1681518110610d6457634e487b7160e01b600052603260045260246000fd5b6020026020010181815250508b8b8260ff16818110610d9357634e487b7160e01b600052603260045260246000fd5b905060200201358482886002610da99190615320565b610db38a8a615320565b610dbe906002615320565b610dc8908a6152fb565b610dd291906152fb565b610ddc91906152fb565b60ff1681518110610dfd57634e487b7160e01b600052603260045260246000fd5b602090810291909101015280610e12816153ab565b915050610be9565b506007870154610e35906001600160a01b03168a8a86614087565b610e3e57600080fd5b600587015460405163c58264b360e01b8152620100009091046001600160a01b03169063c58264b390610e79908f908f908f90600401614f77565b600060405180830381600087803b158015610e9357600080fd5b505af1158015610ea7573d6000803e3d6000fd5b505050506001866005016000828254610ec091906152e3565b909155505060058701805461ff001916610100179055604051610ee6908c908c90614da9565b604051908190038120908d9033907f1cc27b5dc088bba6ed823b51399e3b77446cafcca155bf518ad3e55d80a40b4c90600090a4505050505050505050505050565b600054604051638c9540d360e01b81523360048201526001600160a01b0390911690638c9540d39060240160206040518083038186803b158015610f6b57600080fd5b505afa158015610f7f573d6000803e3d6000fd5b505050506040513d601f19601f82011682018060405250810190610fa391906149a3565b610fc85760405162461bcd60e51b8152600401610fbf90615040565b60405180910390fd5b6000828152600260205260408082208254825163091d8bc560e21b8152835192949384936001600160a01b03909316926324762f14926004808201939291829003018186803b15801561101a57600080fd5b505afa15801561102e573d6000803e3d6000fd5b505050506040513d601f19601f820116820180604052508101906110529190614c42565b9092509050600161106286611e96565b600381111561108157634e487b7160e01b600052602160045260246000fd5b146110eb5760405162461bcd60e51b815260206004820152603460248201527f646b67436f6e74726163743a206b65792773207374617465206973206e6f742060448201527321a7a72a2924a12aaa24a7a72fa927aaa7222f9960611b6064820152608401610fbf565b6110f6600182615360565b60ff166111066020860186615205565b905014801561112f575061111b600182615360565b60ff1661112b6040860186615205565b9050145b61114b5760405162461bcd60e51b8152600401610fbf90615088565b3360038401600161115f6020880188614bf6565b6111699190615360565b60ff168154811061118a57634e487b7160e01b600052603260045260246000fd5b60009182526020909120600390910201546001600160a01b0316146111f15760405162461bcd60e51b815260206004820152601b60248201527f646b67436f6e74726163743a20696e76616c69642073656e64657200000000006044820152606401610fbf565b6000806112016020870187614bf6565b600160ff91821681901b93909317929084161b1760005b6112256020880188615205565b90508160ff1610156113115761123e6040880188615205565b8260ff1681811061125f57634e487b7160e01b600052603260045260246000fd5b90506020028101906112719190615205565b90506003146112925760405162461bcd60e51b8152600401610fbf90615088565b61129f6020880188615205565b8260ff168181106112c057634e487b7160e01b600052603260045260246000fd5b90506020020160208101906112d59190614bf6565b60ff166001901b60001b831792508060016112f091906152fb565b60ff166001901b60001b821791508080611309906153ab565b915050611218565b5080821461136f5760405162461bcd60e51b815260206004820152602560248201527f646b67436f6e74726163743a20696e76616c696420726563697069656e74496e604482015264646578657360d81b6064820152608401610fbf565b6000600460009054906101000a90046001600160a01b03166001600160a01b0316639447d8936040518163ffffffff1660e01b815260040160206040518083038186803b1580156113bf57600080fd5b505afa1580156113d3573d6000803e3d6000fd5b505050506040513d601f19601f820116820180604052508101906113f79190614b3c565b6001600160401b0381111561141c57634e487b7160e01b600052604160045260246000fd5b604051908082528060200260200182016040528015611445578160200160208202803683370190505b509050600060038701600161145d60208b018b614bf6565b6114679190615360565b60ff168154811061148857634e487b7160e01b600052603260045260246000fd5b600091825260209182902060408051608081018252600390930290910180546001600160a01b038116845260ff600160a01b9091041683850152600181018054835181870281018701855281815294959294938601939283018282801561150e57602002820191906000526020600020905b8154815260200190600101908083116114fa575b505050505081526020016002820180548060200260200160405190810160405280929190818152602001828054801561156657602002820191906000526020600020905b815481526020019060010190808311611552575b505050505081525050905060005b61158160208a018a615205565b90508160ff161015611abc5760006003890160016115a260208d018d615205565b8560ff168181106115c357634e487b7160e01b600052603260045260246000fd5b90506020020160208101906115d89190614bf6565b6115e29190615360565b60ff168154811061160357634e487b7160e01b600052603260045260246000fd5b600091825260209182902060408051608081018252600390930290910180546001600160a01b038116845260ff600160a01b9091041683850152600181018054835181870281018701855281815294959294938601939283018282801561168957602002820191906000526020600020905b815481526020019060010190808311611675575b50505050508152602001600282018054806020026020016040519081016040528092919081815260200182805480156116e157602002820191906000526020600020905b8154815260200190600101908083116116cd575b50505050508152505090508980602001906116fc9190615205565b8360ff1681811061171d57634e487b7160e01b600052603260045260246000fd5b90506020020160208101906117329190614bf6565b60ff16848360ff168151811061175857634e487b7160e01b600052603260045260246000fd5b602002602001018181525050806040015160008151811061178957634e487b7160e01b600052603260045260246000fd5b60200260200101518483600261179f9190615320565b6117aa60018b615360565b6117b491906152fb565b60ff16815181106117d557634e487b7160e01b600052603260045260246000fd5b602002602001018181525050806060015160008151811061180657634e487b7160e01b600052603260045260246000fd5b60200260200101518483600261181c9190615320565b61182760018b615360565b61183191906152fb565b61183c9060016152fb565b60ff168151811061185d57634e487b7160e01b600052603260045260246000fd5b602090810291909101015261187560408b018b615205565b8360ff1681811061189657634e487b7160e01b600052603260045260246000fd5b90506020028101906118a89190615205565b60008181106118c757634e487b7160e01b600052603260045260246000fd5b90506020020135848360026118dc9190615320565b6118e760018b615360565b6118f2906003615320565b6118fc91906152fb565b60ff168151811061191d57634e487b7160e01b600052603260045260246000fd5b602090810291909101015261193560408b018b615205565b8360ff1681811061195657634e487b7160e01b600052603260045260246000fd5b90506020028101906119689190615205565b600181811061198757634e487b7160e01b600052603260045260246000fd5b905060200201358483600261199c9190615320565b6119a760018b615360565b6119b2906003615320565b6119bc91906152fb565b6119c79060016152fb565b60ff16815181106119e857634e487b7160e01b600052603260045260246000fd5b6020908102919091010152611a0060408b018b615205565b8360ff16818110611a2157634e487b7160e01b600052603260045260246000fd5b9050602002810190611a339190615205565b6002818110611a5257634e487b7160e01b600052603260045260246000fd5b90506020020135848360018a611a689190615360565b611a73906005615320565b611a7d91906152fb565b60ff1681518110611a9e57634e487b7160e01b600052603260045260246000fd5b60209081029190910101525080611ab4816153ab565b915050611574565b5060005b8660ff168160ff161015611bfe5781604001518160ff1681518110611af557634e487b7160e01b600052603260045260246000fd5b602002602001015183826002611b0b9190615320565b611b1660018a615360565b611b21906006615320565b611b2b91906152fb565b60ff1681518110611b4c57634e487b7160e01b600052603260045260246000fd5b60200260200101818152505081606001518160ff1681518110611b7f57634e487b7160e01b600052603260045260246000fd5b602002602001015183826002611b959190615320565b611ba060018a615360565b611bab906006615320565b611bb591906152fb565b611bc09060016152fb565b60ff1681518110611be157634e487b7160e01b600052603260045260246000fd5b602090810291909101015280611bf6816153ab565b915050611ac0565b50600454611c22906001600160a01b0316611c1c60608b018b61524c565b85614087565b611c6e5760405162461bcd60e51b815260206004820152601a60248201527f646b67436f6e74726163743a20696e76616c69642070726f6f660000000000006044820152606401610fbf565b60005b611c7e60208a018a615205565b90508160ff161015611ddb57600488016000611c9d60208c018c615205565b8460ff16818110611cbe57634e487b7160e01b600052603260045260246000fd5b9050602002016020810190611cd39190614bf6565b60ff1660ff16815260200190815260200160002060405180604001604052808b6000016020810190611d059190614bf6565b60ff168152602001611d1a60408d018d615205565b8560ff16818110611d3b57634e487b7160e01b600052603260045260246000fd5b9050602002810190611d4d9190615205565b8080602002602001604051908101604052809392919081815260200183836020028082843760009201829052509390945250508354600180820186559482526020918290208451600290920201805460ff191660ff90921691909117815583820151805194959194611dc5945091850192019061463f565b5050508080611dd3906153ab565b915050611c71565b5086546001908890600390611dfb9084906301000000900460ff166152fb565b92506101000a81548160ff021916908360ff160217905550336001600160a01b03167fcbf95f3b618183791a868a88964ae14f9377658670849f37ec34394d9b397f1560405160405180910390a2865460ff8681166301000000909204161415611e8b5760405189907fc3463fbc58f346b4f695c95d8d4961813c6359f5f99d1694fe87b97ace51554d90600090a25b505050505050505050565b6000818152600260205260408082208254825163091d8bc560e21b81528351929385936001600160a01b03909316926324762f14926004808201939291829003018186803b158015611ee757600080fd5b505afa158015611efb573d6000803e3d6000fd5b505050506040513d601f19601f82011682018060405250810190611f1f9190614c42565b835490925060ff80841663010000009092041614159050611f44575060029392505050565b815460ff82811662010000909204161415611f63575060019392505050565b5060009392505050565b606060036000838152602001908152602001600020600101805480602002602001604051908101604052809291908181526020016000905b8282101561201157600084815260209081902083018054604080518285028101850190915281815292830182828015611ffd57602002820191906000526020600020905b815481526020019060010190808311611fe9575b505050505081526020019060010190611fa5565b505050509050919050565b600084815260036020526040902060058101546201000090046001600160a01b03161561204857600080fd5b8381558251612060906001830190602086019061468a565b508151612076906002830190602085019061468a565b50600084815260026020908152604080832054610100900460ff16808452600783528184205460089093529220546001600160a01b039182169116816120bb57600080fd5b6001600160a01b0381166120ce57600080fd5b60058401805462010000330262010000600160b01b03199091161790556006840180546001600160a01b038481166001600160a01b0319928316179092556007860180549284169290911691909117905560405188907f7f33e8dc3fda6075213296cd23e7e53b26993958685000c664c42945eb3a610490600090a25050505050505050565b6000805460405163c7b5784160e01b81523360048201526001600160a01b039091169063c7b578419060240160206040518083038186803b15801561219857600080fd5b505afa1580156121ac573d6000803e3d6000fd5b505050506040513d601f19601f820116820180604052508101906121d091906149a3565b61222b5760405162461bcd60e51b815260206004820152602660248201527f646b67436f6e74726163743a206d73672e73656e646572206973206e6f74204660448201526537bab73232b960d11b6064820152608401610fbf565b50600180549080600061223e82856152e3565b90915550506000818152600260205260408120908084600181111561227357634e487b7160e01b600052602160045260246000fd5b141561233c5760ff85166000908152600560205260409020546001600160a01b031661231a5760405162461bcd60e51b815260206004820152604a60248201527f444b4720436f6e74726163743a204e6f2066756e64696e67207665726966696560448201527f7220657869737473207769746820636f72726573706f6e64696e672064696d656064820152696e73696f6e616c69747960b01b608482015260a401610fbf565b5060ff84166000908152600560205260409020546001600160a01b0316612422565b600184600181111561235e57634e487b7160e01b600052602160045260246000fd5b14156124225760ff85166000908152600660205260409020546001600160a01b03166124045760405162461bcd60e51b815260206004820152604960248201527f444b4720436f6e74726163743a204e6f20766f74696e6720766572696669657260448201527f20657869737473207769746820636f72726573706f6e64696e672064696d656e60648201526873696f6e616c69747960b81b608482015260a401610fbf565b5060ff84166000908152600660205260409020546001600160a01b03165b81548490839060ff19166001838181111561244d57634e487b7160e01b600052602160045260246000fd5b0217905550815463ffff0100600160c01b03191661010060ff871602640100000000600160c01b031916176401000000006001600160a01b038316021782556000600180840182905560028401556005830181905560405184917fb913edc288e7b51dacd1a7a204ef40eda6d9d2b6249b86cfd65e4880a54f9d2791a2505092915050565b600054604051638c9540d360e01b81523360048201526001600160a01b0390911690638c9540d39060240160206040518083038186803b15801561251557600080fd5b505afa158015612529573d6000803e3d6000fd5b505050506040513d601f19601f8201168201806040525081019061254d91906149a3565b6125695760405162461bcd60e51b8152600401610fbf90615040565b60008281526003602090815260408083208054845260029092528083208354825163091d8bc560e21b815283519495929492936001600160a01b03909216926324762f1492600480840193919291829003018186803b1580156125cb57600080fd5b505afa1580156125df573d6000803e3d6000fd5b505050506040513d601f19601f820116820180604052508101906126039190614c42565b8354909250610100900460ff169050600061261d8761391d565b600281111561263c57634e487b7160e01b600052602160045260246000fd5b1461264657600080fd5b60016126556020870187614bf6565b60ff1610158015612678575060ff82166126726020870187614bf6565b60ff1611155b61268157600080fd5b60ff81166126926020870187615205565b90501461269e57600080fd5b600060048401816126b26020890189614bf6565b60ff1660ff168152602001908152602001600020805480602002602001604051908101604052809291908181526020016000905b8282101561277557600084815260209081902060408051808201825260028602909201805460ff16835260018101805483518187028101870190945280845293949193858301939283018282801561275d57602002820191906000526020600020905b815481526020019060010190808311612749575b505050505081525050815260200190600101906126e6565b505050600687015460408051639447d89360e01b815290519394506001600160a01b0390911692600092508391639447d893916004808301926020929190829003018186803b1580156127c757600080fd5b505afa1580156127db573d6000803e3d6000fd5b505050506040513d601f19601f820116820180604052508101906127ff9190614b3c565b6001600160401b0381111561282457634e487b7160e01b600052604160045260246000fd5b60405190808252806020026020018201604052801561284d578160200160208202803683370190505b50905061285b600186615360565b945060005b8560ff168160ff161015612a4b57838160ff168151811061289157634e487b7160e01b600052603260045260246000fd5b6020026020010151602001516000815181106128bd57634e487b7160e01b600052603260045260246000fd5b6020026020010151828260026128d39190615320565b60ff16815181106128f457634e487b7160e01b600052603260045260246000fd5b602002602001018181525050838160ff168151811061292357634e487b7160e01b600052603260045260246000fd5b60200260200101516020015160018151811061294f57634e487b7160e01b600052603260045260246000fd5b6020026020010151828260026129659190615320565b6129709060016152fb565b60ff168151811061299157634e487b7160e01b600052603260045260246000fd5b602002602001018181525050838160ff16815181106129c057634e487b7160e01b600052603260045260246000fd5b6020026020010151602001516002815181106129ec57634e487b7160e01b600052603260045260246000fd5b60200260200101518282886002612a039190615320565b612a0d91906152fb565b60ff1681518110612a2e57634e487b7160e01b600052603260045260246000fd5b602090810291909101015280612a43816153ab565b915050612860565b5060005b8460ff168160ff161015612d7657876001018160ff1681548110612a8357634e487b7160e01b600052603260045260246000fd5b90600052602060002001600081548110612aad57634e487b7160e01b600052603260045260246000fd5b906000526020600020015482826002612ac69190615320565b612ad1896003615320565b612adb91906152fb565b60ff1681518110612afc57634e487b7160e01b600052603260045260246000fd5b602002602001018181525050876001018160ff1681548110612b2e57634e487b7160e01b600052603260045260246000fd5b90600052602060002001600181548110612b5857634e487b7160e01b600052603260045260246000fd5b906000526020600020015482826002612b719190615320565b612b7c896003615320565b612b8691906152fb565b612b919060016152fb565b60ff1681518110612bb257634e487b7160e01b600052603260045260246000fd5b602002602001018181525050888060200190612bce9190615205565b8260ff16818110612bef57634e487b7160e01b600052603260045260246000fd5b9050602002810190612c019190615205565b6000818110612c2057634e487b7160e01b600052603260045260246000fd5b9050602002013582826002612c359190615320565b612c40886002615320565b612c4b8a6003615320565b612c5591906152fb565b612c5f91906152fb565b60ff1681518110612c8057634e487b7160e01b600052603260045260246000fd5b602002602001018181525050888060200190612c9c9190615205565b8260ff16818110612cbd57634e487b7160e01b600052603260045260246000fd5b9050602002810190612ccf9190615205565b6001818110612cee57634e487b7160e01b600052603260045260246000fd5b9050602002013582826002612d039190615320565b612d0e886002615320565b612d198a6003615320565b612d2391906152fb565b612d2d91906152fb565b612d389060016152fb565b60ff1681518110612d5957634e487b7160e01b600052603260045260246000fd5b602090810291909101015280612d6e816153ab565b915050612a4f565b50612d8e82612d8860408b018b61524c565b84614087565b5060408051808201909152600488019080612dac60208c018c614bf6565b60ff1681526020018a8060200190612dc49190615205565b612dcd91615383565b905281546001808201845560009384526020938490208351600290930201805460ff191660ff90931692909217825582840151805193949293612e189392850192919091019061468a565b50505060058701805460019190600090612e3690849060ff166152fb565b92506101000a81548160ff021916908360ff160217905550336001600160a01b03167f26d7a520fc4230ffa9c112ead1358fb765e1bb7253ec3ddeb7b99255c74f8d8a60405160405180910390a2505050505050505050565b606060036000838152602001908152602001600020600201805480602002602001604051908101604052809291908181526020016000905b8282101561201157600084815260209081902083018054604080518285028101850190915281815292830182828015612f1f57602002820191906000526020600020905b815481526020019060010190808311612f0b575b505050505081526020019060010190612ec7565b600081815260026020819052604082208291612f4e85611e96565b6003811115612f6d57634e487b7160e01b600052602160045260246000fd5b14612f7757600080fd5b806001015481600201549250925050915091565b60008054604051638c9540d360e01b81523360048201526001600160a01b0390911690638c9540d39060240160206040518083038186803b158015612fcf57600080fd5b505afa158015612fe3573d6000803e3d6000fd5b505050506040513d601f19601f8201168201806040525081019061300791906149a3565b6130235760405162461bcd60e51b8152600401610fbf90615040565b6000838152600260205260408082208254825163091d8bc560e21b815283519294936001600160a01b03909216926324762f1492600480840193919291829003018186803b15801561307457600080fd5b505afa158015613088573d6000803e3d6000fd5b505050506040513d601f19601f820116820180604052508101906130ac9190614c42565b50905060006130ba86611e96565b60038111156130d957634e487b7160e01b600052602160045260246000fd5b146131435760405162461bcd60e51b815260206004820152603460248201527f646b67436f6e74726163743a206b65792773207374617465206973206e6f7420604482015273434f4e545249425554494f4e5f524f554e445f3160601b6064820152608401610fbf565b6131506020850185615205565b905061315c8580615205565b9050148015613178575060ff81166131748580615205565b9050145b6131945760405162461bcd60e51b8152600401610fbf90615088565b60005b8160ff168110156132295761320e6131af8680615205565b838181106131cd57634e487b7160e01b600052603260045260246000fd5b905060200201358680602001906131e49190615205565b8481811061320257634e487b7160e01b600052603260045260246000fd5b9050602002013561438c565b61321757600080fd5b8061322181615390565b915050613197565b508154600190839060029061324890849062010000900460ff166152fb565b82546101009290920a60ff818102199093169183160217909155604080516080810182523381528554620100009004909216602083015260038501925081016132918780615205565b808060200260200160405190810160405280939291908181526020018383602002808284376000920191909152505050908252506020908101906132d790880188615205565b808060200260200160405190810160405280939291908181526020018383602002808284376000920182905250939094525050835460018181018655948252602091829020845160039092020180548386015160ff16600160a01b026001600160a81b03199091166001600160a01b0390931692909217919091178155604084015180519495919461336f945091850192019061463f565b506060820151805161338b91600284019160209091019061463f565b5050506001820154600283015461340891906133a78780615205565b60008181106133c657634e487b7160e01b600052603260045260246000fd5b905060200201358780602001906133dd9190615205565b60008181106133fc57634e487b7160e01b600052603260045260246000fd5b90506020020135614436565b6002840155600183015560405133907f3ce2f4976bf732c26e4b564b81638703c5a3dfbda3e03d88565dc5a29746bac590600090a2505462010000900460ff1690505b92915050565b60008061345d83611e96565b600381111561347c57634e487b7160e01b600052602160045260246000fd5b116134dc5760405162461bcd60e51b815260206004820152602a60248201527f646b67436f6e74726163743a206e6f7420646f6e6520434f4e545249425554496044820152694f4e5f524f554e445f3160b01b6064820152608401610fbf565b600082815260026020908152604080832060030180548251818502810185019093528083529192909190849084015b82821015613607576000848152602090819020604080516080810182526003860290920180546001600160a01b0381168452600160a01b900460ff1683850152600181018054835181870281018701855281815294959294938601939283018282801561359757602002820191906000526020600020905b815481526020019060010190808311613583575b50505050508152602001600282018054806020026020016040519081016040528092919081815260200182805480156135ef57602002820191906000526020600020905b8154815260200190600101908083116135db575b5050505050815250508152602001906001019061350b565b50505050905060005b81518160ff16101561368a57846001600160a01b0316828260ff168151811061364957634e487b7160e01b600052603260045260246000fd5b6020026020010151600001516001600160a01b031614156136785761366f8160016152fb565b9250505061344b565b80613682816153ab565b915050613610565b5060405162461bcd60e51b815260206004820152602660248201527f646b67436f6e74726163743a20696e76616c6964205f636f6d6d69747465654160448201526564647265737360d01b6064820152608401610fbf565b606060036000838152602001908152602001600020600401805480602002602001604051908101604052809291908181526020016000905b82821015612011576000848152602080822060408051808201825260028702909201805460ff168352600181018054835181870281018701909452808452939591948681019491929084015b828210156137d2576000848152602090819020830180546040805182850281018501909152818152928301828280156137be57602002820191906000526020600020905b8154815260200190600101908083116137aa575b505050505081526020019060010190613766565b50505050815250508152602001906001019061371a565b606060026000838152602001908152602001600020600301805480602002602001604051908101604052809291908181526020016000905b82821015612011576000848152602090819020604080516080810182526003860290920180546001600160a01b0381168452600160a01b900460ff168385015260018101805483518187028101870185528181529495929493860193928301828280156138ad57602002820191906000526020600020905b815481526020019060010190808311613899575b505050505081526020016002820180548060200260200160405190810160405280929190818152602001828054801561390557602002820191906000526020600020905b8154815260200190600101908083116138f1575b50505050508152505081526020019060010190613821565b600081815260036020908152604080832081516101408101835281548152600182018054845181870281018701909552808552869592948584019390929190879084015b828210156139cd576000848152602090819020830180546040805182850281018501909152818152928301828280156139b957602002820191906000526020600020905b8154815260200190600101908083116139a5575b505050505081526020019060010190613961565b50505050815260200160028201805480602002602001604051908101604052809291908181526020016000905b82821015613a6657600084815260209081902083018054604080518285028101850190915281815292830182828015613a5257602002820191906000526020600020905b815481526020019060010190808311613a3e575b5050505050815260200190600101906139fa565b50505090825250600382015460209091019060ff166002811115613a9a57634e487b7160e01b600052602160045260246000fd5b6002811115613ab957634e487b7160e01b600052602160045260246000fd5b815260200160048201805480602002602001604051908101604052809291908181526020016000905b82821015613bb1576000848152602080822060408051808201825260028702909201805460ff168352600181018054835181870281018701909452808452939591948681019491929084015b82821015613b9a57600084815260209081902083018054604080518285028101850190915281815292830182828015613b8657602002820191906000526020600020905b815481526020019060010190808311613b72575b505050505081526020019060010190613b2e565b505050508152505081526020019060010190613ae2565b50505090825250600582015460ff808216602084015261010082041615156040808401919091526001600160a01b036201000090920482166060840152600684015482166080840152600790930154811660a09092019190915260008054835163091d8bc560e21b8152845195965091949216926324762f1492600480840193829003018186803b158015613c4557600080fd5b505afa158015613c59573d6000803e3d6000fd5b505050506040513d601f19601f82011682018060405250810190613c7d9190614c42565b5090508160c0015115613c94575060029392505050565b8060ff168260a0015160ff161415611f63575060019392505050565b600082815260026020908152604080832060ff851684526004018252808320805482518185028101850190935280835260609492939192909184015b82821015613d7b57600084815260209081902060408051808201825260028602909201805460ff168352600181018054835181870281018701909452808452939491938583019392830182828015613d6357602002820191906000526020600020905b815481526020019060010190808311613d4f575b50505050508152505081526020019060010190613cec565b50505050905092915050565b613d8f6146e3565b60036000838152602001908152602001600020604051806101400160405290816000820154815260200160018201805480602002602001604051908101604052809291908181526020016000905b82821015613e4957600084815260209081902083018054604080518285028101850190915281815292830182828015613e3557602002820191906000526020600020905b815481526020019060010190808311613e21575b505050505081526020019060010190613ddd565b50505050815260200160028201805480602002602001604051908101604052809291908181526020016000905b82821015613ee257600084815260209081902083018054604080518285028101850190915281815292830182828015613ece57602002820191906000526020600020905b815481526020019060010190808311613eba575b505050505081526020019060010190613e76565b50505090825250600382015460209091019060ff166002811115613f1657634e487b7160e01b600052602160045260246000fd5b6002811115613f3557634e487b7160e01b600052602160045260246000fd5b815260200160048201805480602002602001604051908101604052809291908181526020016000905b8282101561402d576000848152602080822060408051808201825260028702909201805460ff168352600181018054835181870281018701909452808452939591948681019491929084015b828210156140165760008481526020908190208301805460408051828502810185019091528181529283018282801561400257602002820191906000526020600020905b815481526020019060010190808311613fee575b505050505081526020019060010190613faa565b505050508152505081526020019060010190613f5e565b50505090825250600582015460ff8082166020840152610100820416151560408301526001600160a01b03620100009091048116606083015260068301548116608083015260079092015490911660a09091015292915050565b6000846001600160a01b0316639447d8936040518163ffffffff1660e01b815260040160206040518083038186803b1580156140c257600080fd5b505afa1580156140d6573d6000803e3d6000fd5b505050506040513d601f19601f820116820180604052508101906140fa9190614b3c565b82511461410657600080fd5b60006141148486018661491f565b905060005b60088160ff1610156141d8577f30644e72e131a029b85045b68181585d97816a916871ca8d3c208c16d87cfd47828260ff166008811061416957634e487b7160e01b600052603260045260246000fd5b6020020151106141c65760405162461bcd60e51b815260206004820152602260248201527f76657269666965722d70726f6f662d656c656d656e742d6774652d7072696d656044820152612d7160f01b6064820152608401610fbf565b806141d0816153ab565b915050614119565b50856001600160a01b031663c32e370e60405180604001604052808460006008811061421457634e487b7160e01b600052603260045260246000fd5b602002015181526020018460016008811061423f57634e487b7160e01b600052603260045260246000fd5b602002015190526040805160808101825285820151918101918252908190606082018760036020020151815250815260200160405180604001604052808760046008811061429d57634e487b7160e01b600052603260045260246000fd5b60200201518152602001876005600881106142c857634e487b7160e01b600052603260045260246000fd5b6020020151905290526040805180820190915280866006602002015181526020018660076008811061430a57634e487b7160e01b600052603260045260246000fd5b6020020151815250876040518563ffffffff1660e01b81526004016143329493929190614f0a565b60206040518083038186803b15801561434a57600080fd5b505afa15801561435e573d6000803e3d6000fd5b505050506040513d601f19601f8201168201806040525081019061438291906149a3565b9695505050505050565b60008060008051602061541d8339815191528485099050600060008051602061541d8339815191528485099050600060008051602061541d8339815191528260008051602061541d83398151915285620292fc09089050600060008051602061541d833981519152808460008051602061541d83398151915287620292f80909600108905061442a828260008051602061541d833981519152614584565b15979650505050505050565b60008085158015614445575084155b1561445457508290508161457b565b83158015614460575084155b1561446f57508490508361457b565b600060008051602061541d8339815191528588099050600060008051602061541d8339815191528588099050600060008051602061541d83398151915280838509620292f8099050600060008051602061541d83398151915280898b0960008051602061541d833981519152898d0908905060006145108460008051602061541d83398151915287620292fc0960008051602061541d833981519152614584565b905060008051602061541d83398151915261453c60008051602061541d833981519152856001086145cd565b8309965060008051602061541d83398151915261457161456c60018660008051602061541d833981519152614584565b6145cd565b8209955050505050505b94509492505050565b60008383811161459b5761459883826152e3565b90505b82806145b757634e487b7160e01b600052601260045260246000fd5b60006145c38684615349565b0895945050505050565b600061344b826145ec600260008051602061541d833981519152615349565b60008051602061541d833981519152600060405160208152602080820152602060408201528460608201528360808201528260a082015260208160c08360055afa8080156101cf57505051949350505050565b82805482825590600052602060002090810192821561467a579160200282015b8281111561467a57825182559160200191906001019061465f565b50614686929150614756565b5090565b8280548282559060005260206000209081019282156146d7579160200282015b828111156146d757825180516146c791849160209091019061463f565b50916020019190600101906146aa565b5061468692915061476b565b6040518061014001604052806000815260200160608152602001606081526020016000600281111561472557634e487b7160e01b600052602160045260246000fd5b81526060602082018190526000604083018190529082018190526080820181905260a0820181905260c09091015290565b5b808211156146865760008155600101614757565b8082111561468657600061477f8282614788565b5060010161476b565b50805460008255906000526020600020908101906147a69190614756565b50565b60006147bc6147b7846152c0565b615290565b838152905060208082019083600586811b82018810156147db57600080fd5b60005b878110156148715782356001600160401b038111156147fc57600080fd5b8701601f81018a1361480d57600080fd5b803561481b6147b7826152c0565b8181528681019083880183871b850189018e101561483857600080fd5b600094505b8385101561485b57803583526001949094019391880191880161483d565b50885250505093830193918301916001016147de565b50505050509392505050565b600082601f83011261488d578081fd5b61489c838335602085016147a9565b9392505050565b60008083601f8401126148b4578182fd5b5081356001600160401b038111156148ca578182fd5b6020830191508360208285010111156148e257600080fd5b9250929050565b600080604083850312156148fb578182fd5b82356001600160a01b0381168114614911578283fd5b946020939093013593505050565b6000610100808385031215614932578182fd5b83601f840112614940578182fd5b6040518181018181106001600160401b0382111715614961576149616153f7565b6040528084838101871015614974578485fd5b8493505b600884101561499857803582526001939093019260209182019101614978565b509095945050505050565b6000602082840312156149b4578081fd5b8151801515811461489c578182fd5b6000602082840312156149d4578081fd5b5035919050565b6000806000806000606086880312156149f2578081fd5b8535945060208601356001600160401b0380821115614a0f578283fd5b818801915088601f830112614a22578283fd5b813581811115614a30578384fd5b8960208260051b8501011115614a44578384fd5b602083019650809550506040880135915080821115614a61578283fd5b50614a6e888289016148a3565b969995985093965092949392505050565b60008060408385031215614a91578182fd5b8235915060208301356001600160401b03811115614aad578182fd5b830160608186031215614abe578182fd5b809150509250929050565b60008060008060808587031215614ade578081fd5b843593506020850135925060408501356001600160401b0380821115614b02578283fd5b614b0e8883890161487d565b93506060870135915080821115614b23578283fd5b50614b308782880161487d565b91505092959194509250565b600060208284031215614b4d578081fd5b5051919050565b60008060408385031215614b66578182fd5b8235915060208301356001600160401b03811115614b82578182fd5b830160408186031215614abe578182fd5b60008060408385031215614ba5578182fd5b8235915060208301356001600160401b03811115614bc1578182fd5b830160808186031215614abe578182fd5b60008060408385031215614be4578182fd5b823591506020830135614abe8161540d565b600060208284031215614c07578081fd5b813561489c8161540d565b60008060408385031215614c24578182fd5b8235614c2f8161540d565b9150602083013560028110614abe578182fd5b60008060408385031215614c54578182fd5b8251614c5f8161540d565b6020840151909250614abe8161540d565b600081518084526020808501808196508360051b81019150828601855b85811015614cb7578284038952614ca5848351614d4b565b98850198935090840190600101614c8d565b5091979650505050505050565b600081518084526020808501808196508360051b81019150828601855b85811015614cb75782840389528151805160ff1685528501516040868601819052614d0e81870183614c70565b9a87019a9550505090840190600101614ce1565b8060005b6002811015614d45578151845260209384019390910190600101614d26565b50505050565b6000815180845260208085019450808401835b83811015614d7a57815187529582019590820190600101614d5e565b509495945050505050565b60028110614d9557614d956153e1565b9052565b60038110614d9557614d956153e1565b60006001600160fb1b03831115614dbe578081fd5b8260051b808584379190910190815292915050565b60208152600061489c6020830184614c70565b60006020808301818452808551808352604092508286019150828160051b870101848801865b83811015614e8157888303603f19018552815180516001600160a01b031684528781015160ff168885015286810151608088860181905290614e5082870182614d4b565b91505060608083015192508582038187015250614e6d8183614d4b565b968901969450505090860190600101614e0c565b509098975050505050505050565b60006020808301818452808551808352604092508286019150828160051b870101848801865b83811015614e8157888303603f190185528151805160ff168452870151878401879052614ee487850182614d4b565b9588019593505090860190600101614eb5565b60208152600061489c6020830184614cc4565b6000610120614f198388614d22565b604080840187845b6002811015614f4857614f35838351614d22565b9183019160209190910190600101614f21565b50505050614f5960c0840186614d22565b80610100840152614f6c81840185614d4b565b979650505050505050565b838152604060208201819052810182905260006001600160fb1b03831115614f9d578081fd5b8260051b80856060850137919091016060019081529392505050565b6020810160048310614fcd57614fcd6153e1565b91905290565b6020810161344b8284614d85565b6101008101614ff0828b614d85565b60ff988916602083015296881660408201529490961660608501526001600160a01b0392909216608084015260a083015260c082015260e00191909152919050565b6020810161344b8284614d99565b60208082526028908201527f646b67436f6e74726163743a206d73672e73656e646572206973206e6f7420436040820152676f6d6d697474656560c01b606082015260800190565b60208082526021908201527f646b67436f6e74726163743a20696e76616c696420696e707574206c656e67746040820152600d60fb1b606082015260800190565b6020815281516020820152600060208301516101408060408501526150f2610160850183614c70565b91506040850151601f19808685030160608701526151108483614c70565b9350606087015191506151266080870183614d99565b60808701519150808685030160a0870152506151428382614cc4565b92505060a085015161515960c086018260ff169052565b5060c085015180151560e08601525060e0850151610100615184818701836001600160a01b03169052565b86015190506101206151a0868201836001600160a01b03169052565b909501516001600160a01b031693019290925250919050565b87815260e081016151cd6020830189614d99565b60ff96909616604082015293151560608501526001600160a01b03928316608085015290821660a08401521660c09091015292915050565b6000808335601e1984360301811261521b578283fd5b8301803591506001600160401b03821115615234578283fd5b6020019150600581901b36038213156148e257600080fd5b6000808335601e19843603018112615262578283fd5b8301803591506001600160401b0382111561527b578283fd5b6020019150368190038213156148e257600080fd5b604051601f8201601f191681016001600160401b03811182821017156152b8576152b86153f7565b604052919050565b60006001600160401b038211156152d9576152d96153f7565b5060051b60200190565b600082198211156152f6576152f66153cb565b500190565b600060ff821660ff84168060ff03821115615318576153186153cb565b019392505050565b600060ff821660ff84168160ff0481118215151615615341576153416153cb565b029392505050565b60008282101561535b5761535b6153cb565b500390565b600060ff821660ff84168082101561537a5761537a6153cb565b90039392505050565b600061489c3684846147a9565b60006000198214156153a4576153a46153cb565b5060010190565b600060ff821660ff8114156153c2576153c26153cb565b60010192915050565b634e487b7160e01b600052601160045260246000fd5b634e487b7160e01b600052602160045260246000fd5b634e487b7160e01b600052604160045260246000fd5b60ff811681146147a657600080fdfe30644e72e131a029b85045b68181585d2833e84879b9709143e1f593f0000001a264697066735822122026eee83c92f0196659876aec11691f1a02a06c71f55c676ece90c7bb27772db964736f6c63430008040033",
    "linkReferences": {},
    "deployedLinkReferences": {}
}