{
    "_format": "hh-sol-artifact-1",
    "contractName": "Queue",
    "sourceName": "contracts/libs/Queue.sol",
    "abi": [
        {
            "inputs": [
                {
                    "internalType": "uint256",
                    "name": "_maxLength",
                    "type": "uint256"
                }
            ],
            "stateMutability": "nonpayable",
            "type": "constructor"
        },
        {
            "inputs": [
                {
                    "internalType": "uint256",
                    "name": "",
                    "type": "uint256"
                }
            ],
            "name": "data",
            "outputs": [
                {
                    "internalType": "address",
                    "name": "",
                    "type": "address"
                }
            ],
            "stateMutability": "view",
            "type": "function"
        },
        {
            "inputs": [],
            "name": "dequeue",
            "outputs": [
                {
                    "internalType": "address",
                    "name": "_data",
                    "type": "address"
                }
            ],
            "stateMutability": "nonpayable",
            "type": "function"
        },
        {
            "inputs": [
                {
                    "internalType": "address",
                    "name": "_data",
                    "type": "address"
                }
            ],
            "name": "enqueue",
            "outputs": [],
            "stateMutability": "nonpayable",
            "type": "function"
        },
        {
            "inputs": [],
            "name": "first",
            "outputs": [
                {
                    "internalType": "uint256",
                    "name": "",
                    "type": "uint256"
                }
            ],
            "stateMutability": "view",
            "type": "function"
        },
        {
            "inputs": [],
            "name": "getLength",
            "outputs": [
                {
                    "internalType": "uint256",
                    "name": "",
                    "type": "uint256"
                }
            ],
            "stateMutability": "view",
            "type": "function"
        },
        {
            "inputs": [],
            "name": "getQueue",
            "outputs": [
                {
                    "internalType": "address[]",
                    "name": "result",
                    "type": "address[]"
                }
            ],
            "stateMutability": "view",
            "type": "function"
        },
        {
            "inputs": [],
            "name": "last",
            "outputs": [
                {
                    "internalType": "uint256",
                    "name": "",
                    "type": "uint256"
                }
            ],
            "stateMutability": "view",
            "type": "function"
        },
        {
            "inputs": [],
            "name": "maxLength",
            "outputs": [
                {
                    "internalType": "uint256",
                    "name": "",
                    "type": "uint256"
                }
            ],
            "stateMutability": "view",
            "type": "function"
        },
        {
            "inputs": [],
            "name": "owner",
            "outputs": [
                {
                    "internalType": "address",
                    "name": "",
                    "type": "address"
                }
            ],
            "stateMutability": "view",
            "type": "function"
        }
    ],
    "bytecode": "0x60806040526001600255600060035534801561001a57600080fd5b5060405161054938038061054983398101604081905261003991610053565b600455600080546001600160a01b0319163317905561006b565b600060208284031215610064578081fd5b5051919050565b6104cf8061007a6000396000f3fe608060405234801561001057600080fd5b50600436106100935760003560e01c80638f807f6b116100665780638f807f6b14610101578063957908d114610116578063be1c766b1461011e578063d06a89a414610126578063f0ba84401461012f57600080fd5b806301fce27e146100985780633df4ddf4146100b657806347799da8146100cd5780638da5cb5b146100d6575b600080fd5b6100a0610158565b6040516100ad91906103ec565b60405180910390f35b6100bf60025481565b6040519081526020016100ad565b6100bf60035481565b6000546100e9906001600160a01b031681565b6040516001600160a01b0390911681526020016100ad565b61011461010f3660046103a6565b610247565b005b6100e961030f565b6100bf610383565b6100bf60045481565b6100e961013d3660046103d4565b6001602052600090815260409020546001600160a01b031681565b60606000610164610383565b90508067ffffffffffffffff81111561018d57634e487b7160e01b600052604160045260246000fd5b6040519080825280602002602001820160405280156101b6578160200160208202803683370190505b50915060005b818110156102425760016000826002546101d69190610439565b815260200190815260200160002060009054906101000a90046001600160a01b031683828151811061021857634e487b7160e01b600052603260045260246000fd5b6001600160a01b03909216602092830291909101909101528061023a81610468565b9150506101bc565b505090565b6000546001600160a01b0316331461025e57600080fd5b600454610269610383565b610274906001610439565b111561027f57600080fd5b6002545b60035481116102c5576000818152600160205260409020546001600160a01b03838116911614156102b357600080fd5b806102bd81610468565b915050610283565b506001600360008282546102d99190610439565b9091555050600354600090815260016020526040902080546001600160a01b0319166001600160a01b0392909216919091179055565b600080546001600160a01b0316331461032757600080fd5b600254600354101561033857600080fd5b50600280546000908152600160208190526040822080546001600160a01b0319811690915583546001600160a01b0390911693919290610379908490610439565b9250508190555090565b600060025460035460016103979190610439565b6103a19190610451565b905090565b6000602082840312156103b7578081fd5b81356001600160a01b03811681146103cd578182fd5b9392505050565b6000602082840312156103e5578081fd5b5035919050565b6020808252825182820181905260009190848201906040850190845b8181101561042d5783516001600160a01b031683529284019291840191600101610408565b50909695505050505050565b6000821982111561044c5761044c610483565b500190565b60008282101561046357610463610483565b500390565b600060001982141561047c5761047c610483565b5060010190565b634e487b7160e01b600052601160045260246000fdfea2646970667358221220dde9f2d5d69b2ccae473cefb58d305bb85974b710a43d6a243809447e892c5d964736f6c63430008040033",
    "linkReferences": {},
    "deployedLinkReferences": {}
}